{
  "_format": "hh-sol-artifact-1",
  "contractName": "SqrtPriceMathEchidnaTest",
  "sourceName": "contracts/uniswap/test/SqrtPriceMathEchidnaTest.sol",
  "abi": [
    {
      "inputs": [
        {
          "internalType": "uint160",
          "name": "sqrtP",
          "type": "uint160"
        },
        {
          "internalType": "uint160",
          "name": "sqrtQ",
          "type": "uint160"
        },
        {
          "internalType": "uint128",
          "name": "liquidity",
          "type": "uint128"
        },
        {
          "internalType": "bool",
          "name": "roundUp",
          "type": "bool"
        }
      ],
      "name": "getAmount0DeltaEquivalency",
      "outputs": [],
      "stateMutability": "pure",
      "type": "function"
    },
    {
      "inputs": [
        {
          "internalType": "uint160",
          "name": "sqrtP",
          "type": "uint160"
        },
        {
          "internalType": "uint160",
          "name": "sqrtQ",
          "type": "uint160"
        },
        {
          "internalType": "uint128",
          "name": "liquidity",
          "type": "uint128"
        }
      ],
      "name": "getAmount0DeltaInvariants",
      "outputs": [],
      "stateMutability": "pure",
      "type": "function"
    },
    {
      "inputs": [
        {
          "internalType": "uint160",
          "name": "sqrtP",
          "type": "uint160"
        },
        {
          "internalType": "uint160",
          "name": "sqrtQ",
          "type": "uint160"
        },
        {
          "internalType": "int128",
          "name": "liquidity",
          "type": "int128"
        }
      ],
      "name": "getAmount0DeltaSignedInvariants",
      "outputs": [],
      "stateMutability": "pure",
      "type": "function"
    },
    {
      "inputs": [
        {
          "internalType": "uint160",
          "name": "sqrtP",
          "type": "uint160"
        },
        {
          "internalType": "uint160",
          "name": "sqrtQ",
          "type": "uint160"
        },
        {
          "internalType": "uint128",
          "name": "liquidity",
          "type": "uint128"
        }
      ],
      "name": "getAmount1DeltaInvariants",
      "outputs": [],
      "stateMutability": "pure",
      "type": "function"
    },
    {
      "inputs": [
        {
          "internalType": "uint160",
          "name": "sqrtP",
          "type": "uint160"
        },
        {
          "internalType": "uint160",
          "name": "sqrtQ",
          "type": "uint160"
        },
        {
          "internalType": "int128",
          "name": "liquidity",
          "type": "int128"
        }
      ],
      "name": "getAmount1DeltaSignedInvariants",
      "outputs": [],
      "stateMutability": "pure",
      "type": "function"
    },
    {
      "inputs": [
        {
          "internalType": "uint160",
          "name": "sqrtLower",
          "type": "uint160"
        },
        {
          "internalType": "uint160",
          "name": "sqrtCurrent",
          "type": "uint160"
        },
        {
          "internalType": "uint160",
          "name": "sqrtUpper",
          "type": "uint160"
        },
        {
          "internalType": "int128",
          "name": "liquidity",
          "type": "int128"
        }
      ],
      "name": "getInRangeMintInvariants",
      "outputs": [],
      "stateMutability": "pure",
      "type": "function"
    },
    {
      "inputs": [
        {
          "internalType": "uint160",
          "name": "sqrtPX96",
          "type": "uint160"
        },
        {
          "internalType": "uint128",
          "name": "liquidity",
          "type": "uint128"
        },
        {
          "internalType": "uint256",
          "name": "amount",
          "type": "uint256"
        },
        {
          "internalType": "bool",
          "name": "add",
          "type": "bool"
        }
      ],
      "name": "getNextSqrtPriceFromAmount0RoundingUpInvariants",
      "outputs": [],
      "stateMutability": "pure",
      "type": "function"
    },
    {
      "inputs": [
        {
          "internalType": "uint160",
          "name": "sqrtPX96",
          "type": "uint160"
        },
        {
          "internalType": "uint128",
          "name": "liquidity",
          "type": "uint128"
        },
        {
          "internalType": "uint256",
          "name": "amount",
          "type": "uint256"
        },
        {
          "internalType": "bool",
          "name": "add",
          "type": "bool"
        }
      ],
      "name": "getNextSqrtPriceFromAmount1RoundingDownInvariants",
      "outputs": [],
      "stateMutability": "pure",
      "type": "function"
    },
    {
      "inputs": [
        {
          "internalType": "uint160",
          "name": "sqrtP",
          "type": "uint160"
        },
        {
          "internalType": "uint128",
          "name": "liquidity",
          "type": "uint128"
        },
        {
          "internalType": "uint256",
          "name": "amountIn",
          "type": "uint256"
        },
        {
          "internalType": "bool",
          "name": "zeroForOne",
          "type": "bool"
        }
      ],
      "name": "getNextSqrtPriceFromInputInvariants",
      "outputs": [],
      "stateMutability": "pure",
      "type": "function"
    },
    {
      "inputs": [
        {
          "internalType": "uint160",
          "name": "sqrtP",
          "type": "uint160"
        },
        {
          "internalType": "uint128",
          "name": "liquidity",
          "type": "uint128"
        },
        {
          "internalType": "uint256",
          "name": "amountOut",
          "type": "uint256"
        },
        {
          "internalType": "bool",
          "name": "zeroForOne",
          "type": "bool"
        }
      ],
      "name": "getNextSqrtPriceFromOutputInvariants",
      "outputs": [],
      "stateMutability": "pure",
      "type": "function"
    },
    {
      "inputs": [
        {
          "internalType": "uint160",
          "name": "sqrtA",
          "type": "uint160"
        },
        {
          "internalType": "uint160",
          "name": "sqrtB",
          "type": "uint160"
        },
        {
          "internalType": "int128",
          "name": "liquidity",
          "type": "int128"
        }
      ],
      "name": "getOutOfRangeMintInvariants",
      "outputs": [],
      "stateMutability": "pure",
      "type": "function"
    },
    {
      "inputs": [
        {
          "internalType": "uint256",
          "name": "x",
          "type": "uint256"
        },
        {
          "internalType": "uint256",
          "name": "y",
          "type": "uint256"
        },
        {
          "internalType": "uint256",
          "name": "z",
          "type": "uint256"
        }
      ],
      "name": "mulDivRoundingUpInvariants",
      "outputs": [],
      "stateMutability": "pure",
      "type": "function"
    }
  ],
  "bytecode": "0x608060405234801561001057600080fd5b50610fca806100206000396000f3fe608060405234801561001057600080fd5b50600436106100b45760003560e01c80638e13a4b9116100715780638e13a4b914610222578063b29f199e14610269578063b46e6714146102a2578063b712c47c146102e5578063c8569d881461031e578063f157fb501461035e576100b4565b80631faf4a39146100b957806321e14f8b146100fe5780633001e65e1461014157806339933d51146101815780633d729147146101c05780636e6238d7146101e9575b600080fd5b6100fc600480360360808110156100cf57600080fd5b506001600160a01b03813516906001600160801b03602082013516906040810135906060013515156103a1565b005b6100fc6004803603608081101561011457600080fd5b506001600160a01b03813516906001600160801b0360208201351690604081013590606001351515610427565b6100fc6004803603606081101561015757600080fd5b5080356001600160a01b0390811691602081013590911690604001356001600160801b03166104c6565b6100fc6004803603608081101561019757600080fd5b506001600160a01b03813581169160208101358216916040820135169060600135600f0b610553565b6100fc600480360360608110156101d657600080fd5b508035906020810135906040013561060f565b6100fc600480360360608110156101ff57600080fd5b506001600160a01b03813581169160208101359091169060400135600f0b610681565b6100fc6004803603608081101561023857600080fd5b506001600160a01b0381358116916020810135909116906001600160801b0360408201351690606001351515610729565b6100fc6004803603606081101561027f57600080fd5b506001600160a01b03813581169160208101359091169060400135600f0b61081c565b6100fc600480360360808110156102b857600080fd5b506001600160a01b03813516906001600160801b0360208201351690604081013590606001351515610854565b6100fc600480360360608110156102fb57600080fd5b506001600160a01b03813581169160208101359091169060400135600f0b6108ce565b6100fc6004803603606081101561033457600080fd5b5080356001600160a01b0390811691602081013590911690604001356001600160801b0316610965565b6100fc6004803603608081101561037457600080fd5b506001600160a01b03813516906001600160801b03602082013516906040810135906060013515156109d4565b60006103af85858585610a61565b905081156103ee57846001600160a01b0316816001600160a01b031611156103d357fe5b6103e08186866001610abd565b8310156103e957fe5b610420565b846001600160a01b0316816001600160a01b0316101561040a57fe5b6104178582866001610b68565b83101561042057fe5b5050505050565b6000846001600160a01b03161161043d57600080fd5b6000836001600160801b03161161045357600080fd5b600061046185858585610bd3565b9050811561048a57846001600160a01b0316816001600160a01b0316101561048557fe5b6104a6565b846001600160a01b0316816001600160a01b031611156104a657fe5b8261042057806001600160a01b0316856001600160a01b03161461042057fe5b6000836001600160a01b03161180156104e857506000826001600160a01b0316115b6104f157600080fd5b60006105008385846000610abd565b905061050f8484846000610abd565b811461051757fe5b60006105268486856001610abd565b90506105358585856001610abd565b811461053d57fe5b8082111561054757fe5b60028282031061042057fe5b6000846001600160a01b03161161056957600080fd5b816001600160a01b0316846001600160a01b03161061058757600080fd5b826001600160a01b0316846001600160a01b0316111580156105bb5750816001600160a01b0316836001600160a01b031611155b6105c457600080fd5b600081600f0b136105d457600080fd5b60006105e1848484610cb4565b905060006105f0868685610cfb565b905060008213806106015750600081135b61060757fe5b505050505050565b6000811161061c57600080fd5b6000610629848484610d2a565b90506000610638858585610dd9565b90508181101561064457fe5b60028282031061065057fe5b8181036001141561066f576000838061066557fe5b858709116103e957fe5b828061067757fe5b8486091561042057fe5b6000836001600160a01b03161180156106a357506000826001600160a01b0316115b6106ac57600080fd5b60006106b9848484610cfb565b9050600082600f0b12156106d25760008113156106d257fe5b600082600f0b131561070f57826001600160a01b0316846001600160a01b0316141561070557801561070057fe5b61070f565b6000811361070f57fe5b81600f0b6000141561072357801561072357fe5b50505050565b826001600160a01b0316846001600160a01b0316101561074857600080fd5b6000846001600160a01b031611801561076a57506000836001600160a01b0316115b61077357600080fd5b826001600160a01b0316846001600160a01b03168486026001600160a01b03168161079a57fe5b046001600160a01b0316146107ae57600080fd5b600160601b600160e01b03606083901b166001600160a01b03848603811690808716908616026000846107eb576107e6848484610d2a565b6107f6565b6107f6848484610dd9565b90506000610806888a8989610abd565b905080821461081157fe5b505050505050505050565b6000836001600160a01b031611801561083e57506000826001600160a01b0316115b61084757600080fd5b60006106b9838584610cb4565b6000846001600160a01b03161161086a57600080fd5b6000836001600160801b03161161088057600080fd5b600061088e85858585610e13565b905081156108b257846001600160a01b0316816001600160a01b0316111561048557fe5b846001600160a01b0316816001600160a01b031610156104a657fe5b6000836001600160a01b03161180156108f057506000826001600160a01b0316115b6108f957600080fd5b600081600f0b1361090957600080fd5b6000610916848484610cb4565b90506000610925858585610cfb565b9050836001600160a01b0316856001600160a01b0316141561095157811561094957fe5b80156103e957fe5b6000821361095b57fe5b6000811361042057fe5b6000836001600160a01b031611801561098757506000826001600160a01b0316115b61099057600080fd5b600061099f8484846000610b68565b90506109ae8385846000610b68565b81146109b657fe5b60006109c58585856001610b68565b90506105358486856001610b68565b60006109e285858585610ef6565b90508115610a1c57846001600160a01b0316816001600160a01b03161115610a0657fe5b610a138186866000610b68565b8311156103e957fe5b6000816001600160a01b031611610a2f57fe5b846001600160a01b0316816001600160a01b03161015610a4b57fe5b610a588582866000610abd565b83111561042057fe5b600080856001600160a01b031611610a7857600080fd5b6000846001600160801b031611610a8e57600080fd5b81610aa557610aa08585856001610bd3565b610ab2565b610ab28585856001610e13565b90505b949350505050565b6000836001600160a01b0316856001600160a01b03161115610add579293925b600160601b600160e01b03606084901b166001600160a01b038686038116908716610b0757600080fd5b83610b3757866001600160a01b0316610b2a8383896001600160a01b0316610d2a565b81610b3157fe5b04610b5d565b610b5d610b4e8383896001600160a01b0316610dd9565b886001600160a01b0316610f42565b979650505050505050565b6000836001600160a01b0316856001600160a01b03161115610b88579293925b81610bb057610aa0836001600160801b03168686036001600160a01b0316600160601b610d2a565b610ab2836001600160801b03168686036001600160a01b0316600160601b610dd9565b60008115610c465760006001600160a01b03841115610c0957610c0484600160601b876001600160801b0316610d2a565b610c21565b6001600160801b038516606085901b81610c1f57fe5b045b9050610c3e610c396001600160a01b03881683610f4d565b610f63565b915050610ab5565b60006001600160a01b03841115610c7457610c6f84600160601b876001600160801b0316610dd9565b610c8b565b610c8b606085901b6001600160801b038716610f42565b905080866001600160a01b031611610ca257600080fd5b6001600160a01b038616039050610ab5565b60008082600f0b12610cda57610cd5610cd08585856001610abd565b610f7e565b610cf1565b610ced610cd08585856000036000610abd565b6000035b90505b9392505050565b60008082600f0b12610d1757610cd5610cd08585856001610b68565b610ced610cd08585856000036000610b68565b6000808060001985870986860292508281109083900303905080610d605760008411610d5557600080fd5b508290049050610cf4565b808411610d6c57600080fd5b6000848688096000868103871696879004966002600389028118808a02820302808a02820302808a02820302808a02820302808a02820302808a02909103029181900381900460010186841190950394909402919094039290920491909117919091029150509392505050565b6000610de6848484610d2a565b905060008280610df257fe5b8486091115610cf4576000198110610e0957600080fd5b6001019392505050565b600082610e21575083610ab5565b600160601b600160e01b03606085901b168215610eaf576001600160a01b03861684810290858281610e4f57fe5b041415610e8057818101828110610e7e57610e7483896001600160a01b031683610dd9565b9350505050610ab5565b505b610ea682610ea1878a6001600160a01b03168681610e9a57fe5b0490610f4d565b610f42565b92505050610ab5565b6001600160a01b03861684810290858281610ec657fe5b04148015610ed357508082115b610edc57600080fd5b808203610e74610c39846001600160a01b038b1684610dd9565b600080856001600160a01b031611610f0d57600080fd5b6000846001600160801b031611610f2357600080fd5b81610f3557610aa08585856000610e13565b610ab28585856000610bd3565b808204910615150190565b80820182811015610f5d57600080fd5b92915050565b806001600160a01b0381168114610f7957600080fd5b919050565b6000600160ff1b8210610f9057600080fd5b509056fea264697066735822122001991dca9b9903ff7063f08ae783570603f71e176eefc740819b41653475e35b64736f6c63430007060033",
  "linkReferences": {},
  "deployedLinkReferences": {}
}