{
  "_format": "hh-sol-artifact-1",
  "contractName": "UnsafeMathEchidnaTest",
  "sourceName": "contracts/uniswap/test/UnsafeMathEchidnaTest.sol",
  "abi": [
    {
      "inputs": [
        {
          "internalType": "uint256",
          "name": "x",
          "type": "uint256"
        },
        {
          "internalType": "uint256",
          "name": "d",
          "type": "uint256"
        }
      ],
      "name": "checkDivRoundingUp",
      "outputs": [],
      "stateMutability": "pure",
      "type": "function"
    }
  ],
  "bytecode": "0x608060405234801561001057600080fd5b5060dd8061001f6000396000f3fe6080604052348015600f57600080fd5b506004361060285760003560e01c80632724da4e14602d575b600080fd5b604d60048036036040811015604157600080fd5b5080359060200135604f565b005b60008111605b57600080fd5b600060658383609c565b90506000828481607157fe5b0482039050828481607e57fe5b06608d578015608957fe5b6096565b80600114609657fe5b50505050565b80820491061515019056fea26469706673582212205d4d5a2c9d56ade1feb68e0fd1a922bded18abcbebae79ed1a368ac500917ac564736f6c63430007060033",
  "linkReferences": {},
  "deployedLinkReferences": {}
}