{
  "_format": "hh-sol-artifact-1",
  "contractName": "MockTimeUniswapV3Pool",
  "sourceName": "contracts/uniswap/test/MockTimeUniswapV3Pool.sol",
  "abi": [
    {
      "anonymous": false,
      "inputs": [
        {
          "indexed": true,
          "internalType": "address",
          "name": "owner",
          "type": "address"
        },
        {
          "indexed": true,
          "internalType": "int24",
          "name": "tickLower",
          "type": "int24"
        },
        {
          "indexed": true,
          "internalType": "int24",
          "name": "tickUpper",
          "type": "int24"
        },
        {
          "indexed": false,
          "internalType": "uint128",
          "name": "amount",
          "type": "uint128"
        },
        {
          "indexed": false,
          "internalType": "uint256",
          "name": "amount0",
          "type": "uint256"
        },
        {
          "indexed": false,
          "internalType": "uint256",
          "name": "amount1",
          "type": "uint256"
        }
      ],
      "name": "Burn",
      "type": "event"
    },
    {
      "anonymous": false,
      "inputs": [
        {
          "indexed": true,
          "internalType": "address",
          "name": "owner",
          "type": "address"
        },
        {
          "indexed": false,
          "internalType": "address",
          "name": "recipient",
          "type": "address"
        },
        {
          "indexed": true,
          "internalType": "int24",
          "name": "tickLower",
          "type": "int24"
        },
        {
          "indexed": true,
          "internalType": "int24",
          "name": "tickUpper",
          "type": "int24"
        },
        {
          "indexed": false,
          "internalType": "uint128",
          "name": "amount0",
          "type": "uint128"
        },
        {
          "indexed": false,
          "internalType": "uint128",
          "name": "amount1",
          "type": "uint128"
        }
      ],
      "name": "Collect",
      "type": "event"
    },
    {
      "anonymous": false,
      "inputs": [
        {
          "indexed": true,
          "internalType": "address",
          "name": "sender",
          "type": "address"
        },
        {
          "indexed": true,
          "internalType": "address",
          "name": "recipient",
          "type": "address"
        },
        {
          "indexed": false,
          "internalType": "uint128",
          "name": "amount0",
          "type": "uint128"
        },
        {
          "indexed": false,
          "internalType": "uint128",
          "name": "amount1",
          "type": "uint128"
        }
      ],
      "name": "CollectProtocol",
      "type": "event"
    },
    {
      "anonymous": false,
      "inputs": [
        {
          "indexed": true,
          "internalType": "address",
          "name": "sender",
          "type": "address"
        },
        {
          "indexed": true,
          "internalType": "address",
          "name": "recipient",
          "type": "address"
        },
        {
          "indexed": false,
          "internalType": "uint256",
          "name": "amount0",
          "type": "uint256"
        },
        {
          "indexed": false,
          "internalType": "uint256",
          "name": "amount1",
          "type": "uint256"
        },
        {
          "indexed": false,
          "internalType": "uint256",
          "name": "paid0",
          "type": "uint256"
        },
        {
          "indexed": false,
          "internalType": "uint256",
          "name": "paid1",
          "type": "uint256"
        }
      ],
      "name": "Flash",
      "type": "event"
    },
    {
      "anonymous": false,
      "inputs": [
        {
          "indexed": false,
          "internalType": "uint16",
          "name": "observationCardinalityNextOld",
          "type": "uint16"
        },
        {
          "indexed": false,
          "internalType": "uint16",
          "name": "observationCardinalityNextNew",
          "type": "uint16"
        }
      ],
      "name": "IncreaseObservationCardinalityNext",
      "type": "event"
    },
    {
      "anonymous": false,
      "inputs": [
        {
          "indexed": false,
          "internalType": "uint160",
          "name": "sqrtPriceX96",
          "type": "uint160"
        },
        {
          "indexed": false,
          "internalType": "int24",
          "name": "tick",
          "type": "int24"
        }
      ],
      "name": "Initialize",
      "type": "event"
    },
    {
      "anonymous": false,
      "inputs": [
        {
          "indexed": false,
          "internalType": "address",
          "name": "sender",
          "type": "address"
        },
        {
          "indexed": true,
          "internalType": "address",
          "name": "owner",
          "type": "address"
        },
        {
          "indexed": true,
          "internalType": "int24",
          "name": "tickLower",
          "type": "int24"
        },
        {
          "indexed": true,
          "internalType": "int24",
          "name": "tickUpper",
          "type": "int24"
        },
        {
          "indexed": false,
          "internalType": "uint128",
          "name": "amount",
          "type": "uint128"
        },
        {
          "indexed": false,
          "internalType": "uint256",
          "name": "amount0",
          "type": "uint256"
        },
        {
          "indexed": false,
          "internalType": "uint256",
          "name": "amount1",
          "type": "uint256"
        }
      ],
      "name": "Mint",
      "type": "event"
    },
    {
      "anonymous": false,
      "inputs": [
        {
          "indexed": false,
          "internalType": "uint8",
          "name": "feeProtocol0Old",
          "type": "uint8"
        },
        {
          "indexed": false,
          "internalType": "uint8",
          "name": "feeProtocol1Old",
          "type": "uint8"
        },
        {
          "indexed": false,
          "internalType": "uint8",
          "name": "feeProtocol0New",
          "type": "uint8"
        },
        {
          "indexed": false,
          "internalType": "uint8",
          "name": "feeProtocol1New",
          "type": "uint8"
        }
      ],
      "name": "SetFeeProtocol",
      "type": "event"
    },
    {
      "anonymous": false,
      "inputs": [
        {
          "indexed": true,
          "internalType": "address",
          "name": "sender",
          "type": "address"
        },
        {
          "indexed": true,
          "internalType": "address",
          "name": "recipient",
          "type": "address"
        },
        {
          "indexed": false,
          "internalType": "int256",
          "name": "amount0",
          "type": "int256"
        },
        {
          "indexed": false,
          "internalType": "int256",
          "name": "amount1",
          "type": "int256"
        },
        {
          "indexed": false,
          "internalType": "uint160",
          "name": "sqrtPriceX96",
          "type": "uint160"
        },
        {
          "indexed": false,
          "internalType": "uint128",
          "name": "liquidity",
          "type": "uint128"
        },
        {
          "indexed": false,
          "internalType": "int24",
          "name": "tick",
          "type": "int24"
        }
      ],
      "name": "Swap",
      "type": "event"
    },
    {
      "inputs": [
        {
          "internalType": "uint256",
          "name": "by",
          "type": "uint256"
        }
      ],
      "name": "advanceTime",
      "outputs": [],
      "stateMutability": "nonpayable",
      "type": "function"
    },
    {
      "inputs": [
        {
          "internalType": "int24",
          "name": "tickLower",
          "type": "int24"
        },
        {
          "internalType": "int24",
          "name": "tickUpper",
          "type": "int24"
        },
        {
          "internalType": "uint128",
          "name": "amount",
          "type": "uint128"
        }
      ],
      "name": "burn",
      "outputs": [
        {
          "internalType": "uint256",
          "name": "amount0",
          "type": "uint256"
        },
        {
          "internalType": "uint256",
          "name": "amount1",
          "type": "uint256"
        }
      ],
      "stateMutability": "nonpayable",
      "type": "function"
    },
    {
      "inputs": [
        {
          "internalType": "address",
          "name": "recipient",
          "type": "address"
        },
        {
          "internalType": "int24",
          "name": "tickLower",
          "type": "int24"
        },
        {
          "internalType": "int24",
          "name": "tickUpper",
          "type": "int24"
        },
        {
          "internalType": "uint128",
          "name": "amount0Requested",
          "type": "uint128"
        },
        {
          "internalType": "uint128",
          "name": "amount1Requested",
          "type": "uint128"
        }
      ],
      "name": "collect",
      "outputs": [
        {
          "internalType": "uint128",
          "name": "amount0",
          "type": "uint128"
        },
        {
          "internalType": "uint128",
          "name": "amount1",
          "type": "uint128"
        }
      ],
      "stateMutability": "nonpayable",
      "type": "function"
    },
    {
      "inputs": [
        {
          "internalType": "address",
          "name": "recipient",
          "type": "address"
        },
        {
          "internalType": "uint128",
          "name": "amount0Requested",
          "type": "uint128"
        },
        {
          "internalType": "uint128",
          "name": "amount1Requested",
          "type": "uint128"
        }
      ],
      "name": "collectProtocol",
      "outputs": [
        {
          "internalType": "uint128",
          "name": "amount0",
          "type": "uint128"
        },
        {
          "internalType": "uint128",
          "name": "amount1",
          "type": "uint128"
        }
      ],
      "stateMutability": "nonpayable",
      "type": "function"
    },
    {
      "inputs": [],
      "name": "factory",
      "outputs": [
        {
          "internalType": "address",
          "name": "",
          "type": "address"
        }
      ],
      "stateMutability": "view",
      "type": "function"
    },
    {
      "inputs": [],
      "name": "fee",
      "outputs": [
        {
          "internalType": "uint24",
          "name": "",
          "type": "uint24"
        }
      ],
      "stateMutability": "view",
      "type": "function"
    },
    {
      "inputs": [],
      "name": "feeGrowthGlobal0X128",
      "outputs": [
        {
          "internalType": "uint256",
          "name": "",
          "type": "uint256"
        }
      ],
      "stateMutability": "view",
      "type": "function"
    },
    {
      "inputs": [],
      "name": "feeGrowthGlobal1X128",
      "outputs": [
        {
          "internalType": "uint256",
          "name": "",
          "type": "uint256"
        }
      ],
      "stateMutability": "view",
      "type": "function"
    },
    {
      "inputs": [
        {
          "internalType": "address",
          "name": "recipient",
          "type": "address"
        },
        {
          "internalType": "uint256",
          "name": "amount0",
          "type": "uint256"
        },
        {
          "internalType": "uint256",
          "name": "amount1",
          "type": "uint256"
        },
        {
          "internalType": "bytes",
          "name": "data",
          "type": "bytes"
        }
      ],
      "name": "flash",
      "outputs": [],
      "stateMutability": "nonpayable",
      "type": "function"
    },
    {
      "inputs": [
        {
          "internalType": "uint16",
          "name": "observationCardinalityNext",
          "type": "uint16"
        }
      ],
      "name": "increaseObservationCardinalityNext",
      "outputs": [],
      "stateMutability": "nonpayable",
      "type": "function"
    },
    {
      "inputs": [
        {
          "internalType": "uint160",
          "name": "sqrtPriceX96",
          "type": "uint160"
        }
      ],
      "name": "initialize",
      "outputs": [],
      "stateMutability": "nonpayable",
      "type": "function"
    },
    {
      "inputs": [],
      "name": "liquidity",
      "outputs": [
        {
          "internalType": "uint128",
          "name": "",
          "type": "uint128"
        }
      ],
      "stateMutability": "view",
      "type": "function"
    },
    {
      "inputs": [],
      "name": "maxLiquidityPerTick",
      "outputs": [
        {
          "internalType": "uint128",
          "name": "",
          "type": "uint128"
        }
      ],
      "stateMutability": "view",
      "type": "function"
    },
    {
      "inputs": [
        {
          "internalType": "address",
          "name": "recipient",
          "type": "address"
        },
        {
          "internalType": "int24",
          "name": "tickLower",
          "type": "int24"
        },
        {
          "internalType": "int24",
          "name": "tickUpper",
          "type": "int24"
        },
        {
          "internalType": "uint128",
          "name": "amount",
          "type": "uint128"
        },
        {
          "internalType": "bytes",
          "name": "data",
          "type": "bytes"
        }
      ],
      "name": "mint",
      "outputs": [
        {
          "internalType": "uint256",
          "name": "amount0",
          "type": "uint256"
        },
        {
          "internalType": "uint256",
          "name": "amount1",
          "type": "uint256"
        }
      ],
      "stateMutability": "nonpayable",
      "type": "function"
    },
    {
      "inputs": [
        {
          "internalType": "uint256",
          "name": "",
          "type": "uint256"
        }
      ],
      "name": "observations",
      "outputs": [
        {
          "internalType": "uint32",
          "name": "blockTimestamp",
          "type": "uint32"
        },
        {
          "internalType": "int56",
          "name": "tickCumulative",
          "type": "int56"
        },
        {
          "internalType": "uint160",
          "name": "secondsPerLiquidityCumulativeX128",
          "type": "uint160"
        },
        {
          "internalType": "bool",
          "name": "initialized",
          "type": "bool"
        }
      ],
      "stateMutability": "view",
      "type": "function"
    },
    {
      "inputs": [
        {
          "internalType": "uint32[]",
          "name": "secondsAgos",
          "type": "uint32[]"
        }
      ],
      "name": "observe",
      "outputs": [
        {
          "internalType": "int56[]",
          "name": "tickCumulatives",
          "type": "int56[]"
        },
        {
          "internalType": "uint160[]",
          "name": "secondsPerLiquidityCumulativeX128s",
          "type": "uint160[]"
        }
      ],
      "stateMutability": "view",
      "type": "function"
    },
    {
      "inputs": [
        {
          "internalType": "bytes32",
          "name": "",
          "type": "bytes32"
        }
      ],
      "name": "positions",
      "outputs": [
        {
          "internalType": "uint128",
          "name": "liquidity",
          "type": "uint128"
        },
        {
          "internalType": "uint256",
          "name": "feeGrowthInside0LastX128",
          "type": "uint256"
        },
        {
          "internalType": "uint256",
          "name": "feeGrowthInside1LastX128",
          "type": "uint256"
        },
        {
          "internalType": "uint128",
          "name": "tokensOwed0",
          "type": "uint128"
        },
        {
          "internalType": "uint128",
          "name": "tokensOwed1",
          "type": "uint128"
        }
      ],
      "stateMutability": "view",
      "type": "function"
    },
    {
      "inputs": [],
      "name": "protocolFees",
      "outputs": [
        {
          "internalType": "uint128",
          "name": "token0",
          "type": "uint128"
        },
        {
          "internalType": "uint128",
          "name": "token1",
          "type": "uint128"
        }
      ],
      "stateMutability": "view",
      "type": "function"
    },
    {
      "inputs": [
        {
          "internalType": "uint256",
          "name": "_feeGrowthGlobal0X128",
          "type": "uint256"
        }
      ],
      "name": "setFeeGrowthGlobal0X128",
      "outputs": [],
      "stateMutability": "nonpayable",
      "type": "function"
    },
    {
      "inputs": [
        {
          "internalType": "uint256",
          "name": "_feeGrowthGlobal1X128",
          "type": "uint256"
        }
      ],
      "name": "setFeeGrowthGlobal1X128",
      "outputs": [],
      "stateMutability": "nonpayable",
      "type": "function"
    },
    {
      "inputs": [
        {
          "internalType": "uint8",
          "name": "feeProtocol0",
          "type": "uint8"
        },
        {
          "internalType": "uint8",
          "name": "feeProtocol1",
          "type": "uint8"
        }
      ],
      "name": "setFeeProtocol",
      "outputs": [],
      "stateMutability": "nonpayable",
      "type": "function"
    },
    {
      "inputs": [],
      "name": "slot0",
      "outputs": [
        {
          "internalType": "uint160",
          "name": "sqrtPriceX96",
          "type": "uint160"
        },
        {
          "internalType": "int24",
          "name": "tick",
          "type": "int24"
        },
        {
          "internalType": "uint16",
          "name": "observationIndex",
          "type": "uint16"
        },
        {
          "internalType": "uint16",
          "name": "observationCardinality",
          "type": "uint16"
        },
        {
          "internalType": "uint16",
          "name": "observationCardinalityNext",
          "type": "uint16"
        },
        {
          "internalType": "uint8",
          "name": "feeProtocol",
          "type": "uint8"
        },
        {
          "internalType": "bool",
          "name": "unlocked",
          "type": "bool"
        }
      ],
      "stateMutability": "view",
      "type": "function"
    },
    {
      "inputs": [
        {
          "internalType": "int24",
          "name": "tickLower",
          "type": "int24"
        },
        {
          "internalType": "int24",
          "name": "tickUpper",
          "type": "int24"
        }
      ],
      "name": "snapshotCumulativesInside",
      "outputs": [
        {
          "internalType": "int56",
          "name": "tickCumulativeInside",
          "type": "int56"
        },
        {
          "internalType": "uint160",
          "name": "secondsPerLiquidityInsideX128",
          "type": "uint160"
        },
        {
          "internalType": "uint32",
          "name": "secondsInside",
          "type": "uint32"
        }
      ],
      "stateMutability": "view",
      "type": "function"
    },
    {
      "inputs": [
        {
          "internalType": "address",
          "name": "recipient",
          "type": "address"
        },
        {
          "internalType": "bool",
          "name": "zeroForOne",
          "type": "bool"
        },
        {
          "internalType": "int256",
          "name": "amountSpecified",
          "type": "int256"
        },
        {
          "internalType": "uint160",
          "name": "sqrtPriceLimitX96",
          "type": "uint160"
        },
        {
          "internalType": "bytes",
          "name": "data",
          "type": "bytes"
        }
      ],
      "name": "swap",
      "outputs": [
        {
          "internalType": "int256",
          "name": "amount0",
          "type": "int256"
        },
        {
          "internalType": "int256",
          "name": "amount1",
          "type": "int256"
        }
      ],
      "stateMutability": "nonpayable",
      "type": "function"
    },
    {
      "inputs": [
        {
          "internalType": "int16",
          "name": "",
          "type": "int16"
        }
      ],
      "name": "tickBitmap",
      "outputs": [
        {
          "internalType": "uint256",
          "name": "",
          "type": "uint256"
        }
      ],
      "stateMutability": "view",
      "type": "function"
    },
    {
      "inputs": [],
      "name": "tickSpacing",
      "outputs": [
        {
          "internalType": "int24",
          "name": "",
          "type": "int24"
        }
      ],
      "stateMutability": "view",
      "type": "function"
    },
    {
      "inputs": [
        {
          "internalType": "int24",
          "name": "",
          "type": "int24"
        }
      ],
      "name": "ticks",
      "outputs": [
        {
          "internalType": "uint128",
          "name": "liquidityGross",
          "type": "uint128"
        },
        {
          "internalType": "int128",
          "name": "liquidityNet",
          "type": "int128"
        },
        {
          "internalType": "uint256",
          "name": "feeGrowthOutside0X128",
          "type": "uint256"
        },
        {
          "internalType": "uint256",
          "name": "feeGrowthOutside1X128",
          "type": "uint256"
        },
        {
          "internalType": "int56",
          "name": "tickCumulativeOutside",
          "type": "int56"
        },
        {
          "internalType": "uint160",
          "name": "secondsPerLiquidityOutsideX128",
          "type": "uint160"
        },
        {
          "internalType": "uint32",
          "name": "secondsOutside",
          "type": "uint32"
        },
        {
          "internalType": "bool",
          "name": "initialized",
          "type": "bool"
        }
      ],
      "stateMutability": "view",
      "type": "function"
    },
    {
      "inputs": [],
      "name": "time",
      "outputs": [
        {
          "internalType": "uint256",
          "name": "",
          "type": "uint256"
        }
      ],
      "stateMutability": "view",
      "type": "function"
    },
    {
      "inputs": [],
      "name": "token0",
      "outputs": [
        {
          "internalType": "address",
          "name": "",
          "type": "address"
        }
      ],
      "stateMutability": "view",
      "type": "function"
    },
    {
      "inputs": [],
      "name": "token1",
      "outputs": [
        {
          "internalType": "address",
          "name": "",
          "type": "address"
        }
      ],
      "stateMutability": "view",
      "type": "function"
    }
  ],
  "bytecode": "0x610160604052635f7b26e062010007553480156200001c57600080fd5b503060601b60805260408051630890357360e41b81529051600091339163890357309160048082019260a092909190829003018186803b1580156200006057600080fd5b505afa15801562000075573d6000803e3d6000fd5b505050506040513d60a08110156200008c57600080fd5b508051602080830151604084015160608086015160809096015160e896871b6001600160e81b0319166101005291811b6001600160601b031990811660e05292811b831660c0529390931b1660a052600282810b900b90921b6101205291506200010190829062000119811b62002a3217901c565b60801b6001600160801b031916610140525062000187565b60008082600281900b620d89e719816200012f57fe5b05029050600083600281900b620d89e8816200014757fe5b0502905060008460020b83830360020b816200015f57fe5b0560010190508062ffffff166001600160801b038016816200017d57fe5b0495945050505050565b60805160601c60a05160601c60c05160601c60e05160601c6101005160e81c6101205160e81c6101405160801c6154a96200025460003980611ef852806149a852806149df525080610c9052806127e45280614a135280614a45525080610d7f52806118d5528061190c528061283152508061123d528061198f5280611dfe528061233352806128085280613cd7525080610962528061136b528061195e5280611d9852806122ad5280613b8e525080611f85528061216c52806127c0525080612aa952506154a96000f3fe608060405234801561001057600080fd5b50600436106101da5760003560e01c806370cf754a11610104578063d0c93a7c116100a2578063f305839911610071578063f305839914610886578063f30dba931461088e578063f637731d14610910578063f6eb760f14610936576101da565b8063d0c93a7c14610822578063d21220a714610841578063d380c67914610849578063ddca3f4314610866576101da565b8063883bdbfd116100de578063883bdbfd1461067e578063a34123a714610785578063a38807f2146107bf578063c45a01551461081a576101da565b806370cf754a146106115780638206a4d11461061957806385b6672914610641576101da565b806332148f671161017c578063490e6cbc1161014b578063490e6cbc146104bd5780634f1eb3d814610547578063514ea4bf146105985780635339c296146105f1576101da565b806332148f671461039b5780633850c7bd146103bc5780633c8a7d8d1461041557806346141319146104b5576101da565b806316ada547116101b857806316ada547146102cf5780631a686502146102e95780631ad8b03b1461030d578063252c09d714610344576101da565b806307e32f0a146101df5780630dfe1681146101fe578063128acb0814610222575b600080fd5b6101fc600480360360208110156101f557600080fd5b5035610953565b005b610206610960565b604080516001600160a01b039092168252519081900360200190f35b6102b6600480360360a081101561023857600080fd5b6001600160a01b0382358116926020810135151592604082013592606083013516919081019060a081016080820135600160201b81111561027857600080fd5b82018360208201111561028a57600080fd5b803590602001918460018302840111600160201b831117156102ab57600080fd5b509092509050610984565b6040805192835260208301919091528051918290030190f35b6102d7611523565b60408051918252519081900360200190f35b6102f161152b565b604080516001600160801b039092168252519081900360200190f35b61031561153a565b60405180836001600160801b03168152602001826001600160801b031681526020019250505060405180910390f35b6103616004803603602081101561035a57600080fd5b5035611554565b6040805163ffffffff909516855260069390930b60208501526001600160a01b039091168383015215156060830152519081900360800190f35b6101fc600480360360208110156103b157600080fd5b503561ffff16611599565b6103c4611693565b604080516001600160a01b03909816885260029690960b602088015261ffff9485168787015292841660608701529216608085015260ff90911660a0840152151560c0830152519081900360e00190f35b6102b6600480360360a081101561042b57600080fd5b6001600160a01b03823516916020810135600290810b92604083013590910b916001600160801b036060820135169181019060a081016080820135600160201b81111561047757600080fd5b82018360208201111561048957600080fd5b803590602001918460018302840111600160201b831117156104aa57600080fd5b5090925090506116e3565b6102d761182c565b6101fc600480360360808110156104d357600080fd5b6001600160a01b038235169160208101359160408201359190810190608081016060820135600160201b81111561050957600080fd5b82018360208201111561051b57600080fd5b803590602001918460018302840111600160201b8311171561053c57600080fd5b509092509050611832565b610315600480360360a081101561055d57600080fd5b506001600160a01b03813516906020810135600290810b91604081013590910b906001600160801b0360608201358116916080013516611c8d565b6105b5600480360360208110156105ae57600080fd5b5035611ea7565b604080516001600160801b0396871681526020810195909552848101939093529084166060840152909216608082015290519081900360a00190f35b6102d76004803603602081101561060757600080fd5b503560010b611ee4565b6102f1611ef6565b6101fc6004803603604081101561062f57600080fd5b5060ff81358116916020013516611f1a565b6103156004803603606081101561065757600080fd5b506001600160a01b03813516906001600160801b03602082013581169160400135166120fe565b6106ec6004803603602081101561069457600080fd5b810190602081018135600160201b8111156106ae57600080fd5b8201836020820111156106c057600080fd5b803590602001918460208302840111600160201b831117156106e157600080fd5b5090925090506123cb565b604051808060200180602001838103835285818151815260200191508051906020019060200280838360005b83811015610730578181015183820152602001610718565b50505050905001838103825284818151815260200191508051906020019060200280838360005b8381101561076f578181015183820152602001610757565b5050505090500194505050505060405180910390f35b6102b66004803603606081101561079b57600080fd5b508035600290810b91602081013590910b90604001356001600160801b0316612458565b6107e9600480360360408110156107d557600080fd5b508035600290810b9160200135900b6125cf565b6040805160069490940b84526001600160a01b03909216602084015263ffffffff1682820152519081900360600190f35b6102066127be565b61082a6127e2565b6040805160029290920b8252519081900360200190f35b610206612806565b6101fc6004803603602081101561085f57600080fd5b503561282a565b61086e61282f565b6040805162ffffff9092168252519081900360200190f35b6102d7612853565b6108ae600480360360208110156108a457600080fd5b503560020b612859565b604080516001600160801b039099168952600f9790970b602089015287870195909552606087019390935260069190910b60808601526001600160a01b031660a085015263ffffffff1660c0840152151560e083015251908190036101000190f35b6101fc6004803603602081101561092657600080fd5b50356001600160a01b03166128c3565b6101fc6004803603602081101561094c57600080fd5b5035612a2d565b6201000780549091019055565b7f000000000000000000000000000000000000000000000000000000000000000081565b60008061098f612a9e565b856109c6576040805162461bcd60e51b8152602060048201526002602482015261415360f01b604482015290519081900360640190fd5b6040805160e0810182526000546001600160a01b0381168252600160a01b8104600290810b810b900b602083015261ffff600160b81b8204811693830193909352600160c81b810483166060830152600160d81b8104909216608082015260ff600160e81b8304811660a0830152600160f01b909204909116151560c08201819052610a7f576040805162461bcd60e51b81526020600482015260036024820152624c4f4b60e81b604482015290519081900360640190fd5b87610aca5780600001516001600160a01b0316866001600160a01b0316118015610ac5575073fffd8963efd1fc6a506488495d951d5263988d266001600160a01b038716105b610afc565b80600001516001600160a01b0316866001600160a01b0316108015610afc57506401000276a36001600160a01b038716115b610b33576040805162461bcd60e51b815260206004820152600360248201526214d41360ea1b604482015290519081900360640190fd5b6000805460ff60f01b191681556040805160c08101909152808a610b625760048460a0015160ff16901c610b75565b60108460a0015160ff1681610b7357fe5b065b60ff1681526004546001600160801b03166020820152604001610b96612ad5565b63ffffffff168152602001600060060b815260200160006001600160a01b031681526020016000151581525090506000808913905060006040518060e001604052808b81526020016000815260200185600001516001600160a01b03168152602001856020015160020b81526020018c610c1257600254610c16565b6001545b815260200160006001600160801b0316815260200184602001516001600160801b031681525090505b805115801590610c655750886001600160a01b031681604001516001600160a01b031614155b1561102f57610c72615410565b60408201516001600160a01b031681526060820151610cb5906006907f00000000000000000000000000000000000000000000000000000000000000008f612add565b15156040830152600290810b810b60208301819052620d89e719910b1215610ce657620d89e7196020820152610d05565b6020810151620d89e860029190910b1315610d0557620d89e860208201525b610d128160200151612c1f565b6001600160a01b031660608201526040820151610da3908d610d4c578b6001600160a01b031683606001516001600160a01b031611610d66565b8b6001600160a01b031683606001516001600160a01b0316105b610d74578260600151610d76565b8b5b60c085015185517f0000000000000000000000000000000000000000000000000000000000000000612f50565b60c085015260a084015260808301526001600160a01b031660408301528215610e0557610dd98160c00151826080015101613142565b825103825260a0810151610dfb90610df090613142565b602084015190613158565b6020830152610e40565b610e128160a00151613142565b825101825260c08101516080820151610e3a91610e2f9101613142565b602084015190613174565b60208301525b835160ff1615610e86576000846000015160ff168260c0015181610e6057fe5b60c0840180519290910491829003905260a0840180519091016001600160801b03169052505b60c08201516001600160801b031615610ec557610eb98160c00151600160801b8460c001516001600160801b031661318a565b60808301805190910190525b80606001516001600160a01b031682604001516001600160a01b03161415610fee57806040015115610fc5578360a00151610f4f57610f2d846040015160008760200151886040015188602001518a60600151600861323a909695949392919063ffffffff16565b6001600160a01b03166080860152600690810b900b6060850152600160a08501525b6000610f9b82602001518e610f6657600154610f6c565b84608001515b8f610f7b578560800151610f7f565b6002545b608089015160608a015160408b015160059594939291906133cc565b90508c15610fa7576000035b610fb58360c0015182613486565b6001600160801b031660c0840152505b8b610fd4578060200151610fdd565b60018160200151035b600290810b900b6060830152611029565b80600001516001600160a01b031682604001516001600160a01b0316146110295761101c826040015161353c565b600290810b900b60608301525b50610c3f565b836020015160020b816060015160020b146110fd5760008061107d86604001518660400151886020015188602001518a606001518b608001516008613857909695949392919063ffffffff16565b604085015160608601516000805461ffff60c81b1916600160c81b61ffff958616021761ffff60b81b1916600160b81b95909416949094029290921762ffffff60a01b1916600160a01b62ffffff60029490940b9390931692909202919091176001600160a01b0319166001600160a01b03909116179055506111229050565b6040810151600080546001600160a01b0319166001600160a01b039092169190911790555b8060c001516001600160801b031683602001516001600160801b0316146111685760c0810151600480546001600160801b0319166001600160801b039092169190911790555b8a156111b857608081015160015560a08101516001600160801b0316156111b35760a0810151600380546001600160801b031981166001600160801b03918216909301169190911790555b6111fe565b608081015160025560a08101516001600160801b0316156111fe5760a0810151600380546001600160801b03808216600160801b92839004821690940116029190911790555b8115158b15151461121757602081015181518b03611224565b80600001518a0381602001515b90965094508a1561135d576000851215611266576112667f00000000000000000000000000000000000000000000000000000000000000008d876000036139f2565b6000611270613b40565b9050336001600160a01b031663fa461e3388888c8c6040518563ffffffff1660e01b815260040180858152602001848152602001806020018281038252848482818152602001925080828437600081840152601f19601f82011690508083019250505095505050505050600060405180830381600087803b1580156112f457600080fd5b505af1158015611308573d6000803e3d6000fd5b50505050611314613b40565b61131e8289613c79565b1115611357576040805162461bcd60e51b815260206004820152600360248201526249494160e81b604482015290519081900360640190fd5b50611487565b6000861215611394576113947f00000000000000000000000000000000000000000000000000000000000000008d886000036139f2565b600061139e613c89565b9050336001600160a01b031663fa461e3388888c8c6040518563ffffffff1660e01b815260040180858152602001848152602001806020018281038252848482818152602001925080828437600081840152601f19601f82011690508083019250505095505050505050600060405180830381600087803b15801561142257600080fd5b505af1158015611436573d6000803e3d6000fd5b50505050611442613c89565b61144c8288613c79565b1115611485576040805162461bcd60e51b815260206004820152600360248201526249494160e81b604482015290519081900360640190fd5b505b60408082015160c083015160608085015184518b8152602081018b90526001600160a01b03948516818701526001600160801b039093169183019190915260020b60808201529151908e169133917fc42079f94a6350d7e6235f29174924f928cc2ac818eb64fed8004e115fbcca679181900360a00190a350506000805460ff60f01b1916600160f01b17905550919890975095505050505050565b620100075481565b6004546001600160801b031681565b6003546001600160801b0380821691600160801b90041682565b60088161ffff811061156557600080fd5b015463ffffffff81169150600160201b810460060b90600160581b81046001600160a01b031690600160f81b900460ff1684565b600054600160f01b900460ff166115dd576040805162461bcd60e51b81526020600482015260036024820152624c4f4b60e81b604482015290519081900360640190fd5b6000805460ff60f01b191690556115f2612a9e565b60008054600160d81b900461ffff169061160e60088385613d21565b6000805461ffff808416600160d81b810261ffff60d81b199093169290921790925591925083161461167b576040805161ffff80851682528316602082015281517fac49e518f90a358f652e4400164f05a5d8f7e35e7747279bc3a93dbf584e125a929181900390910190a15b50506000805460ff60f01b1916600160f01b17905550565b6000546001600160a01b03811690600160a01b810460020b9061ffff600160b81b8204811691600160c81b8104821691600160d81b8204169060ff600160e81b8204811691600160f01b90041687565b600080548190600160f01b900460ff1661172a576040805162461bcd60e51b81526020600482015260036024820152624c4f4b60e81b604482015290519081900360640190fd5b6000805460ff60f01b191690556001600160801b03851661174a57600080fd5b60008061179860405180608001604052808c6001600160a01b031681526020018b60020b81526020018a60020b815260200161178e8a6001600160801b0316613dc4565b600f0b9052613dd5565b604080513381526001600160801b038c16602082015280820184905260608101839052905192975090955086945085935060028b810b93508c900b916001600160a01b038e16917f7a53080ba414158be7ec69b987b5fb7d07dee101fe85488f0853ae16239d0bde919081900360800190a450506000805460ff60f01b1916600160f01b1790559097909650945050505050565b60025481565b600054600160f01b900460ff16611876576040805162461bcd60e51b81526020600482015260036024820152624c4f4b60e81b604482015290519081900360640190fd5b6000805460ff60f01b1916905561188b612a9e565b6004546001600160801b0316806118cd576040805162461bcd60e51b81526020600482015260016024820152601360fa1b604482015290519081900360640190fd5b6000611902867f000000000000000000000000000000000000000000000000000000000000000062ffffff16620f4240614015565b90506000611939867f000000000000000000000000000000000000000000000000000000000000000062ffffff16620f4240614015565b90506000611945613b40565b90506000611951613c89565b90508815611984576119847f00000000000000000000000000000000000000000000000000000000000000008b8b6139f2565b87156119b5576119b57f00000000000000000000000000000000000000000000000000000000000000008b8a6139f2565b336001600160a01b031663e9cbafb085858a8a6040518563ffffffff1660e01b815260040180858152602001848152602001806020018281038252848482818152602001925080828437600081840152601f19601f82011690508083019250505095505050505050600060405180830381600087803b158015611a3757600080fd5b505af1158015611a4b573d6000803e3d6000fd5b505050506000611a59613b40565b90506000611a65613c89565b905081611a728588613c79565b1115611aaa576040805162461bcd60e51b8152602060048201526002602482015261046360f41b604482015290519081900360640190fd5b80611ab58487613c79565b1115611aed576040805162461bcd60e51b8152602060048201526002602482015261463160f01b604482015290519081900360640190fd5b8382038382038115611b7c5760008054600160e81b9004600f16908115611b20578160ff168481611b1a57fe5b04611b23565b60005b90506001600160801b03811615611b5657600380546001600160801b038082168401166001600160801b03199091161790555b611b70818503600160801b8d6001600160801b031661318a565b60018054909101905550505b8015611c075760008054600160e81b900460041c600f16908115611bac578160ff168381611ba657fe5b04611baf565b60005b90506001600160801b03811615611be157600380546001600160801b03600160801b8083048216850182160291161790555b611bfb818403600160801b8d6001600160801b031661318a565b60028054909101905550505b8d6001600160a01b0316336001600160a01b03167fbdbdb71d7860376ba52b25a5028beea23581364a40522f6bcfb86bb1f2dca6338f8f86866040518085815260200184815260200183815260200182815260200194505050505060405180910390a350506000805460ff60f01b1916600160f01b179055505050505050505050505050565b600080548190600160f01b900460ff16611cd4576040805162461bcd60e51b81526020600482015260036024820152624c4f4b60e81b604482015290519081900360640190fd5b6000805460ff60f01b19168155611cee600733898961404f565b60038101549091506001600160801b0390811690861611611d0f5784611d1e565b60038101546001600160801b03165b60038201549093506001600160801b03600160801b909104811690851611611d465783611d5c565b6003810154600160801b90046001600160801b03165b91506001600160801b03831615611dc1576003810180546001600160801b031981166001600160801b03918216869003821617909155611dc1907f0000000000000000000000000000000000000000000000000000000000000000908a9086166139f2565b6001600160801b03821615611e27576003810180546001600160801b03600160801b808304821686900382160291811691909117909155611e27907f0000000000000000000000000000000000000000000000000000000000000000908a9085166139f2565b604080516001600160a01b038a1681526001600160801b0380861660208301528416818301529051600288810b92908a900b9133917f70935338e69775456a85ddef226c395fb668b63fa0115f5f20610b388e6ca9c0919081900360600190a4506000805460ff60f01b1916600160f01b17905590969095509350505050565b60076020526000908152604090208054600182015460028301546003909301546001600160801b0392831693919281811691600160801b90041685565b60066020526000908152604090205481565b7f000000000000000000000000000000000000000000000000000000000000000081565b600054600160f01b900460ff16611f5e576040805162461bcd60e51b81526020600482015260036024820152624c4f4b60e81b604482015290519081900360640190fd5b6000805460ff60f01b1916905560408051638da5cb5b60e01b815290516001600160a01b037f00000000000000000000000000000000000000000000000000000000000000001691638da5cb5b916004808301926020929190829003018186803b158015611fcb57600080fd5b505afa158015611fdf573d6000803e3d6000fd5b505050506040513d6020811015611ff557600080fd5b50516001600160a01b0316331461200b57600080fd5b60ff8216158061202e575060048260ff161015801561202e5750600a8260ff1611155b8015612058575060ff81161580612058575060048160ff16101580156120585750600a8160ff1611155b61206157600080fd5b60008054610ff0600484901b16840160ff908116600160e81b90810260ff60e81b19841617909355919004167f973d8d92bb299f4af6ce49b52a8adb85ae46b9f214c4c4fc06ac77401237b1336010826040805160ff9390920683168252600f600486901c16602083015286831682820152918516606082015290519081900360800190a150506000805460ff60f01b1916600160f01b17905550565b600080548190600160f01b900460ff16612145576040805162461bcd60e51b81526020600482015260036024820152624c4f4b60e81b604482015290519081900360640190fd5b6000805460ff60f01b1916905560408051638da5cb5b60e01b815290516001600160a01b037f00000000000000000000000000000000000000000000000000000000000000001691638da5cb5b916004808301926020929190829003018186803b1580156121b257600080fd5b505afa1580156121c6573d6000803e3d6000fd5b505050506040513d60208110156121dc57600080fd5b50516001600160a01b031633146121f257600080fd5b6003546001600160801b039081169085161161220e578361221b565b6003546001600160801b03165b6003549092506001600160801b03600160801b9091048116908416116122415782612255565b600354600160801b90046001600160801b03165b90506001600160801b038216156122d6576003546001600160801b038381169116141561228457600019909101905b600380546001600160801b031981166001600160801b039182168590038216179091556122d6907f000000000000000000000000000000000000000000000000000000000000000090879085166139f2565b6001600160801b0381161561235c576003546001600160801b03828116600160801b90920416141561230757600019015b600380546001600160801b03600160801b80830482168590038216029181169190911790915561235c907f000000000000000000000000000000000000000000000000000000000000000090879084166139f2565b604080516001600160801b0380851682528316602082015281516001600160a01b0388169233927f596b573906218d3411850b26a6b437d6c4522fdb43d2d2386263f86d50b8b151929081900390910190a36000805460ff60f01b1916600160f01b1790559094909350915050565b6060806123d6612a9e565b61244d6123e1612ad5565b858580806020026020016040519081016040528093929190818152602001838360200280828437600092018290525054600454600896959450600160a01b820460020b935061ffff600160b81b8304811693506001600160801b0390911691600160c81b9004166140b3565b915091509250929050565b600080548190600160f01b900460ff1661249f576040805162461bcd60e51b81526020600482015260036024820152624c4f4b60e81b604482015290519081900360640190fd5b6000805460ff60f01b1916815560408051608081018252338152600288810b602083015287900b91810191909152819081906124f890606081016124eb6001600160801b038a16613dc4565b600003600f0b9052613dd5565b92509250925081600003945080600003935060008511806125195750600084115b15612558576003830180546001600160801b038082168089018216600160801b93849004831689019092169092029091176001600160801b0319161790555b604080516001600160801b0388168152602081018790528082018690529051600289810b92908b900b9133917f0c396cd989a39f4459b5fa1aed6a9a8dcdbc45908acfd67e028cd568da98982c919081900360600190a450506000805460ff60f01b1916600160f01b179055509094909350915050565b60008060006125dc612a9e565b6125e6858561420d565b600285810b810b60009081526005602052604080822087840b90930b825281206003830154600681900b93600160381b82046001600160a01b0316928492600160d81b810463ffffffff169284929091600160f81b900460ff168061264a57600080fd5b6003820154600681900b9850600160381b81046001600160a01b03169650600160d81b810463ffffffff169450600160f81b900460ff168061268b57600080fd5b50506040805160e0810182526000546001600160a01b0381168252600160a01b8104600290810b810b810b6020840181905261ffff600160b81b8404811695850195909552600160c81b830485166060850152600160d81b8304909416608084015260ff600160e81b8304811660a0850152600160f01b909204909116151560c08301529093508e810b91900b12159050612734575093909403965090039350900390506127b7565b8a60020b816020015160020b12156127a8576000612750612ad5565b6020830151604084015160045460608601519394506000938493612786936008938893879392916001600160801b03169061323a565b9a9003989098039b5050949096039290920396509091030392506127b7915050565b50949093039650039350900390505b9250925092565b7f000000000000000000000000000000000000000000000000000000000000000081565b7f000000000000000000000000000000000000000000000000000000000000000081565b7f000000000000000000000000000000000000000000000000000000000000000081565b600155565b7f000000000000000000000000000000000000000000000000000000000000000081565b60015481565b60056020526000908152604090208054600182015460028301546003909301546001600160801b03831693600160801b909304600f0b9290600681900b90600160381b81046001600160a01b031690600160d81b810463ffffffff1690600160f81b900460ff1688565b6000546001600160a01b031615612906576040805162461bcd60e51b8152602060048201526002602482015261414960f01b604482015290519081900360640190fd5b60006129118261353c565b9050600080612929612921612ad5565b6008906142d6565b6040805160e0810182526001600160a01b038816808252600288810b6020808501829052600085870181905261ffff898116606088018190529089166080880181905260a08801839052600160c0909801979097528154600160f01b6001600160a01b0319909116871762ffffff60a01b1916600160a01b62ffffff9787900b97909716969096029590951763ffffffff60b81b1916600160c81b9091021761ffff60d81b1916600160d81b9096029590951761ffff60e81b191692909217909355835191825281019190915281519395509193507f98636036cb66a9c19a37435efc1e90142190214e8abeb821bdba3f2990dd4c9592918290030190a150505050565b600255565b60008082600281900b620d89e71981612a4757fe5b05029050600083600281900b620d89e881612a5e57fe5b0502905060008460020b83830360020b81612a7557fe5b0560010190508062ffffff166001600160801b03801681612a9257fe5b0493505050505b919050565b306001600160a01b037f00000000000000000000000000000000000000000000000000000000000000001614612ad357600080fd5b565b620100075490565b60008060008460020b8660020b81612af157fe5b05905060008660020b128015612b1857508460020b8660020b81612b1157fe5b0760020b15155b15612b2257600019015b8315612b9757600080612b3483614322565b600182810b810b600090815260208d9052604090205460ff83169190911b80016000190190811680151597509294509092509085612b7957888360ff16860302612b8c565b88612b8382614334565b840360ff168603025b965050505050612c15565b600080612ba683600101614322565b91509150600060018260ff166001901b031990506000818b60008660010b60010b8152602001908152602001600020541690508060001415955085612bf857888360ff0360ff16866001010102612c0e565b8883612c03836143d3565b0360ff168660010101025b9650505050505b5094509492505050565b60008060008360020b12612c36578260020b612c3e565b8260020b6000035b9050620d89e8811115612c7c576040805162461bcd60e51b81526020600482015260016024820152601560fa1b604482015290519081900360640190fd5b600060018216612c9057600160801b612ca2565b6ffffcb933bd6fad37aa2d162d1a5940015b70ffffffffffffffffffffffffffffffffff1690506002821615612cd6576ffff97272373d413259a46990580e213a0260801c5b6004821615612cf5576ffff2e50f5f656932ef12357cf3c7fdcc0260801c5b6008821615612d14576fffe5caca7e10e4e61c3624eaa0941cd00260801c5b6010821615612d33576fffcb9843d60f6159c9db58835c9266440260801c5b6020821615612d52576fff973b41fa98c081472e6896dfb254c00260801c5b6040821615612d71576fff2ea16466c96a3843ec78b326b528610260801c5b6080821615612d90576ffe5dee046a99a2a811c461f1969c30530260801c5b610100821615612db0576ffcbe86c7900a88aedcffc83b479aa3a40260801c5b610200821615612dd0576ff987a7253ac413176f2b074cf7815e540260801c5b610400821615612df0576ff3392b0822b70005940c7a398e4b70f30260801c5b610800821615612e10576fe7159475a2c29b7443b29c7fa6e889d90260801c5b611000821615612e30576fd097f3bdfd2022b8845ad8f792aa58250260801c5b612000821615612e50576fa9f746462d870fdf8a65dc1f90e061e50260801c5b614000821615612e70576f70d869a156d2a1b890bb3df62baf32f70260801c5b618000821615612e90576f31be135f97d08fd981231505542fcfa60260801c5b62010000821615612eb1576f09aa508b5b7a84e1c677de54f3e99bc90260801c5b62020000821615612ed1576e5d6af8dedb81196699c329225ee6040260801c5b62040000821615612ef0576d2216e584f5fa1ea926041bedfe980260801c5b62080000821615612f0d576b048a170391f7dc42444e8fa20260801c5b60008460020b1315612f28578060001981612f2457fe5b0490505b600160201b810615612f3b576001612f3e565b60005b60ff16602082901c0192505050919050565b60008080806001600160a01b03808916908a161015818712801590612fd5576000612f898989620f42400362ffffff16620f424061318a565b905082612fa257612f9d8c8c8c60016144bd565b612faf565b612faf8b8d8c6001614538565b9550858110612fc0578a9650612fcf565b612fcc8c8b83866145e3565b96505b5061301f565b81612fec57612fe78b8b8b6000614538565b612ff9565b612ff98a8c8b60006144bd565b935083886000031061300d5789955061301f565b61301c8b8a8a6000038561462f565b95505b6001600160a01b038a81169087161482156130825780801561303e5750815b6130545761304f878d8c6001614538565b613056565b855b9550808015613063575081155b61307957613074878d8c60006144bd565b61307b565b845b94506130cc565b80801561308c5750815b6130a25761309d8c888c60016144bd565b6130a4565b855b95508080156130b1575081155b6130c7576130c28c888c6000614538565b6130c9565b845b94505b811580156130dc57508860000385115b156130e8578860000394505b81801561310757508a6001600160a01b0316876001600160a01b031614155b15613116578589039350613133565b613130868962ffffff168a620f42400362ffffff16614015565b93505b50505095509550955095915050565b6000600160ff1b821061315457600080fd5b5090565b8082038281131560008312151461316e57600080fd5b92915050565b8181018281121560008312151461316e57600080fd5b60008080600019858709868602925082811090839003039050806131c057600084116131b557600080fd5b508290049050613233565b8084116131cc57600080fd5b6000848688096000868103871696879004966002600389028118808a02820302808a02820302808a02820302808a02820302808a02820302808a02909103029181900381900460010186841190950394909402919094039290920491909117919091029150505b9392505050565b60008063ffffffff87166132e0576000898661ffff1661ffff811061325b57fe5b60408051608081018252919092015463ffffffff808216808452600160201b8304600690810b810b900b6020850152600160581b83046001600160a01b031694840194909452600160f81b90910460ff16151560608301529092508a16146132cc576132c9818a898861467b565b90505b8060200151816040015192509250506133c0565b8688036000806132f58c8c858c8c8c8c61471e565b91509150816000015163ffffffff168363ffffffff1614156133275781602001518260400151945094505050506133c0565b805163ffffffff8481169116141561334f5780602001518160400151945094505050506133c0565b8151815160208085015190840151918390039286039163ffffffff80841692908516910360060b8161337d57fe5b05028460200151018263ffffffff168263ffffffff1686604001518660400151036001600160a01b031602816133af57fe5b048560400151019650965050505050505b97509795505050505050565b600295860b860b60009081526020979097526040909620600181018054909503909455938301805490920390915560038201805463ffffffff600160d81b6001600160a01b03600160381b808504821690960316909402600160381b600160d81b031990921691909117600681810b90960390950b66ffffffffffffff1666ffffffffffffff199095169490941782810485169095039093160263ffffffff60d81b1990931692909217905554600160801b9004600f0b90565b60008082600f0b12156134eb57826001600160801b03168260000384039150816001600160801b0316106134e6576040805162461bcd60e51b81526020600482015260026024820152614c5360f01b604482015290519081900360640190fd5b61316e565b826001600160801b03168284019150816001600160801b0316101561316e576040805162461bcd60e51b81526020600482015260026024820152614c4160f01b604482015290519081900360640190fd5b60006401000276a36001600160a01b03831610801590613578575073fffd8963efd1fc6a506488495d951d5263988d266001600160a01b038316105b6135ad576040805162461bcd60e51b81526020600482015260016024820152602960f91b604482015290519081900360640190fd5b640100000000600160c01b03602083901b166001600160801b03811160071b81811c67ffffffffffffffff811160061b90811c63ffffffff811160051b90811c61ffff811160041b90811c60ff8111600390811b91821c600f811160021b90811c918211600190811b92831c9790881196179094179092171790911717176080811061364157607f810383901c915061364b565b80607f0383901b91505b908002607f81811c60ff83811c9190911c800280831c81831c1c800280841c81841c1c800280851c81851c1c800280861c81861c1c800280871c81871c1c800280881c81881c1c800280891c81891c1c8002808a1c818a1c1c8002808b1c818b1c1c8002808c1c818c1c1c8002808d1c818d1c1c8002808e1c9c81901c9c909c1c80029c8d901c9e9d607f198f0160401b60c09190911c678000000000000000161760c19b909b1c674000000000000000169a909a1760c29990991c672000000000000000169890981760c39790971c671000000000000000169690961760c49590951c670800000000000000169490941760c59390931c670400000000000000169290921760c69190911c670200000000000000161760c79190911c600160381b161760c89190911c6680000000000000161760c99190911c6640000000000000161760ca9190911c6620000000000000161760cb9190911c6610000000000000161760cc9190911c6608000000000000161760cd9190911c66040000000000001617693627a301d71055774c8581026f028f6481ab7f045a5af012a19d003aa9198101608090811d906fdb2df09e81959a81455e260799a0632f8301901d600281810b9083900b1461384857886001600160a01b031661382c82612c1f565b6001600160a01b031611156138415781613843565b805b61384a565b815b9998505050505050505050565b6000806000898961ffff1661ffff811061386d57fe5b60408051608081018252919092015463ffffffff808216808452600160201b8304600690810b810b900b6020850152600160581b83046001600160a01b031694840194909452600160f81b90910460ff1615156060830152909250891614156138dc57888592509250506133c0565b8461ffff168461ffff161180156138fd57506001850361ffff168961ffff16145b1561390a5783915061390e565b8491505b8161ffff168960010161ffff168161392257fe5b0692506139318189898961467b565b8a8461ffff1661ffff811061394257fe5b825191018054602084015160408501516060909501511515600160f81b026001600160f81b036001600160a01b03909616600160581b027fff0000000000000000000000000000000000000000ffffffffffffffffffffff60069390930b66ffffffffffffff16600160201b026affffffffffffff000000001963ffffffff90971663ffffffff199095169490941795909516929092171692909217929092161790555097509795505050505050565b604080516001600160a01b038481166024830152604480830185905283518084039091018152606490920183526020820180516001600160e01b031663a9059cbb60e01b1781529251825160009485949389169392918291908083835b60208310613a6e5780518252601f199092019160209182019101613a4f565b6001836020036101000a0380198251168184511680821785525050505050509050019150506000604051808303816000865af19150503d8060008114613ad0576040519150601f19603f3d011682016040523d82523d6000602084013e613ad5565b606091505b5091509150818015613b03575080511580613b035750808060200190516020811015613b0057600080fd5b50515b613b39576040805162461bcd60e51b81526020600482015260026024820152612a2360f11b604482015290519081900360640190fd5b5050505050565b604080513060248083019190915282518083039091018152604490910182526020810180516001600160e01b03166370a0823160e01b17815291518151600093849384936001600160a01b037f00000000000000000000000000000000000000000000000000000000000000001693919290918291908083835b60208310613bd95780518252601f199092019160209182019101613bba565b6001836020036101000a038019825116818451168082178552505050505050905001915050600060405180830381855afa9150503d8060008114613c39576040519150601f19603f3d011682016040523d82523d6000602084013e613c3e565b606091505b5091509150818015613c5257506020815110155b613c5b57600080fd5b808060200190516020811015613c7057600080fd5b50519250505090565b8082018281101561316e57600080fd5b604080513060248083019190915282518083039091018152604490910182526020810180516001600160e01b03166370a0823160e01b17815291518151600093849384936001600160a01b037f000000000000000000000000000000000000000000000000000000000000000016939192909182919080838360208310613bd95780518252601f199092019160209182019101613bba565b6000808361ffff1611613d5f576040805162461bcd60e51b81526020600482015260016024820152604960f81b604482015290519081900360640190fd5b8261ffff168261ffff1611613d75575081613233565b825b8261ffff168161ffff161015613dbb576001858261ffff1661ffff8110613d9a57fe5b01805463ffffffff191663ffffffff92909216919091179055600101613d77565b50909392505050565b80600f81900b8114612a9957600080fd5b6000806000613de2612a9e565b613df48460200151856040015161420d565b6040805160e0810182526000546001600160a01b0381168252600160a01b8104600290810b810b900b602080840182905261ffff600160b81b8404811685870152600160c81b84048116606080870191909152600160d81b8504909116608086015260ff600160e81b8504811660a0870152600160f01b909404909316151560c085015288519089015194890151928901519394613e989491939092909190614918565b93508460600151600f0b60001461400d57846020015160020b816020015160020b1215613eed57613ee6613ecf8660200151612c1f565b613edc8760400151612c1f565b8760600151614acd565b925061400d565b846040015160020b816020015160020b1215613fe35760045460408201516001600160801b0390911690613f3f90613f23612ad5565b6020850151606086015160808701516008949392918791613857565b6000805461ffff60c81b1916600160c81b61ffff938416021761ffff60b81b1916600160b81b939092169290920217905581516040870151613f8f9190613f8590612c1f565b8860600151614acd565b9350613fad613fa18760200151612c1f565b83516060890151614b11565b9250613fbd818760600151613486565b600480546001600160801b0319166001600160801b03929092169190911790555061400d565b61400a613ff38660200151612c1f565b6140008760400151612c1f565b8760600151614b11565b91505b509193909250565b600061402284848461318a565b90506000828061402e57fe5b848609111561323357600019811061404557600080fd5b6001019392505050565b6040805160609490941b6bffffffffffffffffffffffff1916602080860191909152600293840b60e890811b60348701529290930b90911b60378401528051808403601a018152603a90930181528251928201929092206000908152929052902090565b60608060008361ffff16116140f3576040805162461bcd60e51b81526020600482015260016024820152604960f81b604482015290519081900360640190fd5b865167ffffffffffffffff8111801561410b57600080fd5b50604051908082528060200260200182016040528015614135578160200160208202803683370190505b509150865167ffffffffffffffff8111801561415057600080fd5b5060405190808252806020026020018201604052801561417a578160200160208202803683370190505b50905060005b8751811015614200576141ab8a8a8a848151811061419a57fe5b60200260200101518a8a8a8a61323a565b8483815181106141b757fe5b602002602001018484815181106141ca57fe5b60200260200101826001600160a01b03166001600160a01b03168152508260060b60060b81525050508080600101915050614180565b5097509795505050505050565b8060020b8260020b1261424d576040805162461bcd60e51b8152602060048201526003602482015262544c5560e81b604482015290519081900360640190fd5b620d89e719600283900b1215614290576040805162461bcd60e51b8152602060048201526003602482015262544c4d60e81b604482015290519081900360640190fd5b620d89e8600282900b13156142d2576040805162461bcd60e51b815260206004820152600360248201526254554d60e81b604482015290519081900360640190fd5b5050565b6040805160808101825263ffffffff9283168082526000602083018190529282019290925260016060909101819052835463ffffffff1916909117909116600160f81b17909155908190565b60020b600881901d9161010090910790565b600080821161434257600080fd5b600160801b821061435557608091821c91015b68010000000000000000821061436d57604091821c91015b600160201b821061438057602091821c91015b62010000821061439257601091821c91015b61010082106143a357600891821c91015b601082106143b357600491821c91015b600482106143c357600291821c91015b60028210612a9957600101919050565b60008082116143e157600080fd5b5060ff6001600160801b038216156143fc57607f1901614404565b608082901c91505b67ffffffffffffffff82161561441d57603f1901614425565b604082901c91505b63ffffffff82161561443a57601f1901614442565b602082901c91505b61ffff82161561445557600f190161445d565b601082901c91505b60ff82161561446f5760071901614477565b600882901c91505b600f8216156144895760031901614491565b600482901c91505b60038216156144a357600119016144ab565b600282901c91505b6001821615612a995760001901919050565b6000836001600160a01b0316856001600160a01b031611156144dd579293925b8161450a57614505836001600160801b03168686036001600160a01b0316600160601b61318a565b61452d565b61452d836001600160801b03168686036001600160a01b0316600160601b614015565b90505b949350505050565b6000836001600160a01b0316856001600160a01b03161115614558579293925b600160601b600160e01b03606084901b166001600160a01b03868603811690871661458257600080fd5b836145b257866001600160a01b03166145a58383896001600160a01b031661318a565b816145ac57fe5b046145d8565b6145d86145c98383896001600160a01b0316614015565b886001600160a01b0316614b40565b979650505050505050565b600080856001600160a01b0316116145fa57600080fd5b6000846001600160801b03161161461057600080fd5b81614622576145058585856001614b4b565b61452d8585856001614c2c565b600080856001600160a01b03161161464657600080fd5b6000846001600160801b03161161465c57600080fd5b8161466e576145058585856000614c2c565b61452d8585856000614b4b565b61468361544c565b600085600001518503905060405180608001604052808663ffffffff1681526020018263ffffffff168660020b0288602001510160060b81526020016000856001600160801b0316116146d75760016146d9565b845b6001600160801b031663ffffffff60801b608085901b16816146f757fe5b048860400151016001600160a01b0316815260200160011515815250915050949350505050565b61472661544c565b61472e61544c565b888561ffff1661ffff811061473f57fe5b60408051608081018252919092015463ffffffff8116808352600160201b8204600690810b810b900b6020840152600160581b82046001600160a01b031693830193909352600160f81b900460ff161515606082015292506147a390899089614d0f565b156147db578663ffffffff16826000015163ffffffff1614156147c5576133c0565b816147d28389898861467b565b915091506133c0565b888361ffff168660010161ffff16816147f057fe5b0661ffff1661ffff811061480057fe5b60408051608081018252929091015463ffffffff81168352600160201b8104600690810b810b900b60208401526001600160a01b03600160581b8204169183019190915260ff600160f81b909104161515606082018190529092506148b557604080516080810182528a5463ffffffff81168252600160201b8104600690810b810b900b6020830152600160581b81046001600160a01b031692820192909252600160f81b90910460ff161515606082015291505b6148c488836000015189614d0f565b6148fb576040805162461bcd60e51b815260206004820152600360248201526213d31160ea1b604482015290519081900360640190fd5b6149088989898887614dd0565b9150915097509795505050505050565b6000614927600787878761404f565b60015460025491925090600080600f87900b15614a6d576000614948612ad5565b60008054600454929350909182916149929160089186918591600160a01b810460020b9161ffff600160b81b83048116926001600160801b0390921691600160c81b90041661323a565b90925090506149cc60058d8b8d8b8b87898b60007f0000000000000000000000000000000000000000000000000000000000000000614f6e565b9450614a0360058c8b8d8b8b87898b60017f0000000000000000000000000000000000000000000000000000000000000000614f6e565b93508415614a3757614a3760068d7f0000000000000000000000000000000000000000000000000000000000000000615127565b8315614a6957614a6960068c7f0000000000000000000000000000000000000000000000000000000000000000615127565b5050505b600080614a7f60058c8c8b8a8a61518d565b9092509050614a90878a8484615239565b600089600f0b1215614abe578315614aad57614aad60058c6153ce565b8215614abe57614abe60058b6153ce565b50505050505095945050505050565b60008082600f0b12614af357614aee614ae98585856001614538565b613142565b614530565b614b06614ae98585856000036000614538565b600003949350505050565b60008082600f0b12614b2d57614aee614ae985858560016144bd565b614b06614ae985858560000360006144bd565b808204910615150190565b60008115614bbe5760006001600160a01b03841115614b8157614b7c84600160601b876001600160801b031661318a565b614b99565b6001600160801b038516606085901b81614b9757fe5b045b9050614bb6614bb16001600160a01b03881683613c79565b6153fa565b915050614530565b60006001600160a01b03841115614bec57614be784600160601b876001600160801b0316614015565b614c03565b614c03606085901b6001600160801b038716614b40565b905080866001600160a01b031611614c1a57600080fd5b6001600160a01b038616039050614530565b600082614c3a575083614530565b600160601b600160e01b03606085901b168215614cc8576001600160a01b03861684810290858281614c6857fe5b041415614c9957818101828110614c9757614c8d83896001600160a01b031683614015565b9350505050614530565b505b614cbf82614cba878a6001600160a01b03168681614cb357fe5b0490613c79565b614b40565b92505050614530565b6001600160a01b03861684810290858281614cdf57fe5b04148015614cec57508082115b614cf557600080fd5b808203614c8d614bb1846001600160a01b038b1684614015565b60008363ffffffff168363ffffffff1611158015614d3957508363ffffffff168263ffffffff1611155b15614d55578163ffffffff168363ffffffff1611159050613233565b60008463ffffffff168463ffffffff1611614d7c578363ffffffff16600160201b01614d84565b8363ffffffff165b64ffffffffff16905060008563ffffffff168463ffffffff1611614db4578363ffffffff16600160201b01614dbc565b8363ffffffff165b64ffffffffff169091111595945050505050565b614dd861544c565b614de061544c565b60008361ffff168560010161ffff1681614df657fe5b0661ffff169050600060018561ffff16830103905060005b506002818301048961ffff87168281614e2357fe5b0661ffff8110614e2f57fe5b60408051608081018252929091015463ffffffff81168352600160201b8104600690810b810b900b60208401526001600160a01b03600160581b8204169183019190915260ff600160f81b90910416151560608201819052909550614e9957806001019250614e0e565b898661ffff168260010181614eaa57fe5b0661ffff8110614eb657fe5b60408051608081018252929091015463ffffffff81168352600160201b8104600690810b810b900b60208401526001600160a01b03600160581b8204169183019190915260ff600160f81b90910416151560608201528551909450600090614f20908b908b614d0f565b9050808015614f395750614f398a8a8760000151614d0f565b15614f445750614f61565b80614f5457600182039250614f5b565b8160010193505b50614e0e565b5050509550959350505050565b60028a810b900b600090815260208c90526040812080546001600160801b031682614f99828d613486565b9050846001600160801b0316816001600160801b03161115614fe7576040805162461bcd60e51b81526020600482015260026024820152614c4f60f01b604482015290519081900360640190fd5b6001600160801b03828116159082161581141594501561508c578c60020b8e60020b1361507457600183018b9055600283018a9055600383018054600160381b600160d81b031916600160381b6001600160a01b038c16021766ffffffffffffff191666ffffffffffffff60068b900b161763ffffffff60d81b1916600160d81b63ffffffff8a16021790555b6003830180546001600160f81b0316600160f81b1790555b82546001600160801b0319166001600160801b038216178355856150d55782546150d0906150cb90600160801b9004600f90810b810b908f900b613174565b613dc4565b6150f6565b82546150f6906150cb90600160801b9004600f90810b810b908f900b613158565b8354600f9190910b6001600160801b03908116600160801b0291161790925550909c9b505050505050505050505050565b8060020b8260020b8161513657fe5b0760020b1561514457600080fd5b60008061515f8360020b8560020b8161515957fe5b05614322565b600191820b820b60009081526020979097526040909620805460ff9097169190911b90951890945550505050565b600285810b80820b60009081526020899052604080822088850b850b83529082209193849391929184918291908a900b126151d3575050600182015460028301546151e6565b8360010154880391508360020154870390505b6000808b60020b8b60020b12156152085750506001830154600284015461521b565b84600101548a0391508460020154890390505b92909803979097039b96909503949094039850939650505050505050565b6040805160a08101825285546001600160801b0390811682526001870154602083015260028701549282019290925260038601548083166060830152600160801b900490911660808201526000600f85900b6152d85781516001600160801b03166152d0576040805162461bcd60e51b815260206004820152600260248201526104e560f41b604482015290519081900360640190fd5b5080516152e7565b81516152e49086613486565b90505b600061530b8360200151860384600001516001600160801b0316600160801b61318a565b905060006153318460400151860385600001516001600160801b0316600160801b61318a565b905086600f0b6000146153585787546001600160801b0319166001600160801b0384161788555b60018801869055600288018590556001600160801b03821615158061538657506000816001600160801b0316115b156153c4576003880180546001600160801b031981166001600160801b039182168501821617808216600160801b9182900483168501909216021790555b5050505050505050565b600290810b810b6000908152602092909252604082208281556001810183905590810182905560030155565b806001600160a01b0381168114612a9957600080fd5b6040805160e081018252600080825260208201819052918101829052606081018290526080810182905260a0810182905260c081019190915290565b6040805160808101825260008082526020820181905291810182905260608101919091529056fea2646970667358221220af6cb3a93bafe3f12cc90d596ca3f098c4a18f752736e32d6dbf7318f0dc585064736f6c63430007060033",
  "linkReferences": {},
  "deployedLinkReferences": {}
}