{
  "_format": "hh-sol-artifact-1",
  "contractName": "Receiver",
  "sourceName": "contracts/ccip/Receiver.sol",
  "abi": [
    {
      "inputs": [
        {
          "internalType": "address",
          "name": "router",
          "type": "address"
        }
      ],
      "stateMutability": "nonpayable",
      "type": "constructor"
    },
    {
      "inputs": [
        {
          "internalType": "address",
          "name": "router",
          "type": "address"
        }
      ],
      "name": "InvalidRouter",
      "type": "error"
    },
    {
      "anonymous": false,
      "inputs": [
        {
          "indexed": true,
          "internalType": "bytes32",
          "name": "messageId",
          "type": "bytes32"
        },
        {
          "indexed": true,
          "internalType": "uint64",
          "name": "sourceChainSelector",
          "type": "uint64"
        },
        {
          "indexed": false,
          "internalType": "address",
          "name": "sender",
          "type": "address"
        },
        {
          "indexed": false,
          "internalType": "string",
          "name": "text",
          "type": "string"
        }
      ],
      "name": "MessageReceived",
      "type": "event"
    },
    {
      "inputs": [
        {
          "components": [
            {
              "internalType": "bytes32",
              "name": "messageId",
              "type": "bytes32"
            },
            {
              "internalType": "uint64",
              "name": "sourceChainSelector",
              "type": "uint64"
            },
            {
              "internalType": "bytes",
              "name": "sender",
              "type": "bytes"
            },
            {
              "internalType": "bytes",
              "name": "data",
              "type": "bytes"
            },
            {
              "components": [
                {
                  "internalType": "address",
                  "name": "token",
                  "type": "address"
                },
                {
                  "internalType": "uint256",
                  "name": "amount",
                  "type": "uint256"
                }
              ],
              "internalType": "struct Client.EVMTokenAmount[]",
              "name": "destTokenAmounts",
              "type": "tuple[]"
            }
          ],
          "internalType": "struct Client.Any2EVMMessage",
          "name": "message",
          "type": "tuple"
        }
      ],
      "name": "ccipReceive",
      "outputs": [],
      "stateMutability": "nonpayable",
      "type": "function"
    },
    {
      "inputs": [],
      "name": "getLastReceivedMessageDetails",
      "outputs": [
        {
          "internalType": "bytes32",
          "name": "messageId",
          "type": "bytes32"
        },
        {
          "internalType": "string",
          "name": "text",
          "type": "string"
        }
      ],
      "stateMutability": "view",
      "type": "function"
    },
    {
      "inputs": [],
      "name": "getRouter",
      "outputs": [
        {
          "internalType": "address",
          "name": "",
          "type": "address"
        }
      ],
      "stateMutability": "view",
      "type": "function"
    },
    {
      "inputs": [
        {
          "internalType": "bytes4",
          "name": "interfaceId",
          "type": "bytes4"
        }
      ],
      "name": "supportsInterface",
      "outputs": [
        {
          "internalType": "bool",
          "name": "",
          "type": "bool"
        }
      ],
      "stateMutability": "pure",
      "type": "function"
    }
  ],
  "bytecode": "0x60a060405234801561001057600080fd5b5060405161092e38038061092e83398101604081905261002f91610070565b806001600160a01b03811661005e576040516335fdcccd60e21b81526000600482015260240160405180910390fd5b6001600160a01b0316608052506100a0565b60006020828403121561008257600080fd5b81516001600160a01b038116811461009957600080fd5b9392505050565b60805161086d6100c16000396000818160b101526101ba015261086d6000f3fe608060405234801561001057600080fd5b506004361061004c5760003560e01c806301ffc9a714610051578063263596a51461007957806385572ffb1461008f578063b0f479a1146100a4575b600080fd5b61006461005f3660046102bc565b6100db565b60405190151581526020015b60405180910390f35b610081610112565b60405161007092919061033d565b6100a261009d36600461035e565b6101af565b005b6040516001600160a01b037f0000000000000000000000000000000000000000000000000000000000000000168152602001610070565b60006001600160e01b031982166385572ffb60e01b148061010c57506001600160e01b031982166301ffc9a760e01b145b92915050565b60006060600054600180805461012790610399565b80601f016020809104026020016040519081016040528092919081815260200182805461015390610399565b80156101a05780601f10610175576101008083540402835291602001916101a0565b820191906000526020600020905b81548152906001019060200180831161018357829003601f168201915b50505050509050915091509091565b336001600160a01b037f000000000000000000000000000000000000000000000000000000000000000016146101fe576040516335fdcccd60e21b815233600482015260240160405180910390fd5b61020f61020a826105c3565b610212565b50565b80516000556060810151805161023091602091810182019101610670565b60019061023d9082610736565b50806020015167ffffffffffffffff1681600001517fb1e312a29937cc11967b0e4a346fef1ae132424ebaba9dc6d90249dba053e87c836040015180602001905181019061028b91906107f6565b84606001518060200190518101906102a39190610670565b6040516102b1929190610813565b60405180910390a350565b6000602082840312156102ce57600080fd5b81356001600160e01b0319811681146102e657600080fd5b9392505050565b60005b838110156103085781810151838201526020016102f0565b50506000910152565b600081518084526103298160208601602086016102ed565b601f01601f19169290920160200192915050565b8281526040602082015260006103566040830184610311565b949350505050565b60006020828403121561037057600080fd5b813567ffffffffffffffff81111561038757600080fd5b820160a081850312156102e657600080fd5b600181811c908216806103ad57607f821691505b6020821081036103cd57634e487b7160e01b600052602260045260246000fd5b50919050565b634e487b7160e01b600052604160045260246000fd5b6040805190810167ffffffffffffffff8111828210171561040c5761040c6103d3565b60405290565b60405160a0810167ffffffffffffffff8111828210171561040c5761040c6103d3565b604051601f8201601f1916810167ffffffffffffffff8111828210171561045e5761045e6103d3565b604052919050565b803567ffffffffffffffff8116811461047e57600080fd5b919050565b600067ffffffffffffffff82111561049d5761049d6103d3565b50601f01601f191660200190565b600082601f8301126104bc57600080fd5b81356104cf6104ca82610483565b610435565b8181528460208386010111156104e457600080fd5b816020850160208301376000918101602001919091529392505050565b6001600160a01b038116811461020f57600080fd5b600082601f83011261052757600080fd5b8135602067ffffffffffffffff821115610543576105436103d3565b610551818360051b01610435565b82815260069290921b8401810191818101908684111561057057600080fd5b8286015b848110156105b8576040818903121561058d5760008081fd5b6105956103e9565b81356105a081610501565b81528185013585820152835291830191604001610574565b509695505050505050565b600060a082360312156105d557600080fd5b6105dd610412565b823581526105ed60208401610466565b6020820152604083013567ffffffffffffffff8082111561060d57600080fd5b610619368387016104ab565b6040840152606085013591508082111561063257600080fd5b61063e368387016104ab565b6060840152608085013591508082111561065757600080fd5b5061066436828601610516565b60808301525092915050565b60006020828403121561068257600080fd5b815167ffffffffffffffff81111561069957600080fd5b8201601f810184136106aa57600080fd5b80516106b86104ca82610483565b8181528560208385010111156106cd57600080fd5b6106de8260208301602086016102ed565b95945050505050565b601f82111561073157600081815260208120601f850160051c8101602086101561070e5750805b601f850160051c820191505b8181101561072d5782815560010161071a565b5050505b505050565b815167ffffffffffffffff811115610750576107506103d3565b6107648161075e8454610399565b846106e7565b602080601f83116001811461079957600084156107815750858301515b600019600386901b1c1916600185901b17855561072d565b600085815260208120601f198616915b828110156107c8578886015182559484019460019091019084016107a9565b50858210156107e65787850151600019600388901b60f8161c191681555b5050505050600190811b01905550565b60006020828403121561080857600080fd5b81516102e681610501565b6001600160a01b03831681526040602082018190526000906103569083018461031156fea2646970667358221220f42adc7aaf4c7ad6bd9a7771433150b2e1eac8a7f504d3ce4cb780bc54ae323864736f6c63430008140033",
  "linkReferences": {},
  "deployedLinkReferences": {}
}