{
  "_format": "hh-sol-artifact-1",
  "contractName": "Receiver",
  "sourceName": "contracts/ccip/Receiver.sol",
  "abi": [
    {
      "inputs": [
        {
          "internalType": "address",
          "name": "router",
          "type": "address"
        },
        {
          "internalType": "address",
          "name": "_usdc",
          "type": "address"
        },
        {
          "internalType": "address",
          "name": "_pool",
          "type": "address"
        }
      ],
      "stateMutability": "nonpayable",
      "type": "constructor"
    },
    {
      "inputs": [
        {
          "internalType": "address",
          "name": "router",
          "type": "address"
        }
      ],
      "name": "InvalidRouter",
      "type": "error"
    },
    {
      "anonymous": false,
      "inputs": [
        {
          "indexed": true,
          "internalType": "bytes32",
          "name": "messageId",
          "type": "bytes32"
        },
        {
          "indexed": true,
          "internalType": "uint64",
          "name": "sourceChainSelector",
          "type": "uint64"
        },
        {
          "indexed": false,
          "internalType": "address",
          "name": "sender",
          "type": "address"
        },
        {
          "indexed": false,
          "internalType": "uint256",
          "name": "amount",
          "type": "uint256"
        }
      ],
      "name": "TokensReceived",
      "type": "event"
    },
    {
      "inputs": [
        {
          "components": [
            {
              "internalType": "bytes32",
              "name": "messageId",
              "type": "bytes32"
            },
            {
              "internalType": "uint64",
              "name": "sourceChainSelector",
              "type": "uint64"
            },
            {
              "internalType": "bytes",
              "name": "sender",
              "type": "bytes"
            },
            {
              "internalType": "bytes",
              "name": "data",
              "type": "bytes"
            },
            {
              "components": [
                {
                  "internalType": "address",
                  "name": "token",
                  "type": "address"
                },
                {
                  "internalType": "uint256",
                  "name": "amount",
                  "type": "uint256"
                }
              ],
              "internalType": "struct Client.EVMTokenAmount[]",
              "name": "destTokenAmounts",
              "type": "tuple[]"
            }
          ],
          "internalType": "struct Client.Any2EVMMessage",
          "name": "message",
          "type": "tuple"
        }
      ],
      "name": "ccipReceive",
      "outputs": [],
      "stateMutability": "nonpayable",
      "type": "function"
    },
    {
      "inputs": [],
      "name": "getLastReceivedMessageDetails",
      "outputs": [
        {
          "internalType": "bytes32",
          "name": "messageId",
          "type": "bytes32"
        },
        {
          "internalType": "uint256",
          "name": "amount",
          "type": "uint256"
        }
      ],
      "stateMutability": "view",
      "type": "function"
    },
    {
      "inputs": [],
      "name": "getRouter",
      "outputs": [
        {
          "internalType": "address",
          "name": "",
          "type": "address"
        }
      ],
      "stateMutability": "view",
      "type": "function"
    },
    {
      "inputs": [
        {
          "internalType": "bytes4",
          "name": "interfaceId",
          "type": "bytes4"
        }
      ],
      "name": "supportsInterface",
      "outputs": [
        {
          "internalType": "bool",
          "name": "",
          "type": "bool"
        }
      ],
      "stateMutability": "pure",
      "type": "function"
    },
    {
      "stateMutability": "payable",
      "type": "receive"
    }
  ],
  "bytecode": "0x60a06040523480156200001157600080fd5b5060405162001006380380620010068339818101604052810190620000379190620001d7565b82600073ffffffffffffffffffffffffffffffffffffffff168173ffffffffffffffffffffffffffffffffffffffff1603620000ad5760006040517fd7f73334000000000000000000000000000000000000000000000000000000008152600401620000a4919062000244565b60405180910390fd5b8073ffffffffffffffffffffffffffffffffffffffff1660808173ffffffffffffffffffffffffffffffffffffffff16815250505081600260006101000a81548173ffffffffffffffffffffffffffffffffffffffff021916908373ffffffffffffffffffffffffffffffffffffffff16021790555080600360006101000a81548173ffffffffffffffffffffffffffffffffffffffff021916908373ffffffffffffffffffffffffffffffffffffffff16021790555050505062000261565b600080fd5b600073ffffffffffffffffffffffffffffffffffffffff82169050919050565b60006200019f8262000172565b9050919050565b620001b18162000192565b8114620001bd57600080fd5b50565b600081519050620001d181620001a6565b92915050565b600080600060608486031215620001f357620001f26200016d565b5b60006200020386828701620001c0565b93505060206200021686828701620001c0565b92505060406200022986828701620001c0565b9150509250925092565b6200023e8162000192565b82525050565b60006020820190506200025b600083018462000233565b92915050565b608051610d8262000284600039600081816101f101526102980152610d826000f3fe6080604052600436106100435760003560e01c806301ffc9a71461004f578063263596a51461008c57806385572ffb146100b8578063b0f479a1146100e15761004a565b3661004a57005b600080fd5b34801561005b57600080fd5b50610076600480360381019061007191906104aa565b61010c565b60405161008391906104f2565b60405180910390f35b34801561009857600080fd5b506100a16101de565b6040516100af92919061053f565b60405180910390f35b3480156100c457600080fd5b506100df60048036038101906100da919061058c565b6101ef565b005b3480156100ed57600080fd5b506100f6610294565b6040516101039190610616565b60405180910390f35b60007f85572ffb000000000000000000000000000000000000000000000000000000007bffffffffffffffffffffffffffffffffffffffffffffffffffffffff1916827bffffffffffffffffffffffffffffffffffffffffffffffffffffffff191614806101d757507f01ffc9a7000000000000000000000000000000000000000000000000000000007bffffffffffffffffffffffffffffffffffffffffffffffffffffffff1916827bffffffffffffffffffffffffffffffffffffffffffffffffffffffff1916145b9050919050565b600080600054600154915091509091565b7f000000000000000000000000000000000000000000000000000000000000000073ffffffffffffffffffffffffffffffffffffffff163373ffffffffffffffffffffffffffffffffffffffff161461027f57336040517fd7f733340000000000000000000000000000000000000000000000000000000081526004016102769190610616565b60405180910390fd5b6102918161028c90610a3d565b6102bc565b50565b60007f0000000000000000000000000000000000000000000000000000000000000000905090565b806000015160008190555080606001518060200190518101906102df9190610a65565b600181905550806020015167ffffffffffffffff1681600001517fd75fddd54cb885def98dea3f1d7badb7b04282612d15f1c6613eaeb9a7d7adaf83604001518060200190518101906103329190610ad0565b846060015180602001905181019061034a9190610a65565b604051610358929190610b5c565b60405180910390a3600360009054906101000a900473ffffffffffffffffffffffffffffffffffffffff1673ffffffffffffffffffffffffffffffffffffffff16633c8a7d8d307ffffffffffffffffffffffffffffffffffffffffffffffffffffffffffff277f0620d8810600154604051806020016040528060008152506040518663ffffffff1660e01b81526004016103f7959493929190610cb2565b60408051808303816000875af1158015610415573d6000803e3d6000fd5b505050506040513d601f19601f820116820180604052508101906104399190610d0c565b505050565b6000604051905090565b600080fd5b600080fd5b60007fffffffff0000000000000000000000000000000000000000000000000000000082169050919050565b61048781610452565b811461049257600080fd5b50565b6000813590506104a48161047e565b92915050565b6000602082840312156104c0576104bf610448565b5b60006104ce84828501610495565b91505092915050565b60008115159050919050565b6104ec816104d7565b82525050565b600060208201905061050760008301846104e3565b92915050565b6000819050919050565b6105208161050d565b82525050565b6000819050919050565b61053981610526565b82525050565b60006040820190506105546000830185610517565b6105616020830184610530565b9392505050565b600080fd5b600060a0828403121561058357610582610568565b5b81905092915050565b6000602082840312156105a2576105a1610448565b5b600082013567ffffffffffffffff8111156105c0576105bf61044d565b5b6105cc8482850161056d565b91505092915050565b600073ffffffffffffffffffffffffffffffffffffffff82169050919050565b6000610600826105d5565b9050919050565b610610816105f5565b82525050565b600060208201905061062b6000830184610607565b92915050565b600080fd5b6000601f19601f8301169050919050565b7f4e487b7100000000000000000000000000000000000000000000000000000000600052604160045260246000fd5b61067f82610636565b810181811067ffffffffffffffff8211171561069e5761069d610647565b5b80604052505050565b60006106b161043e565b90506106bd8282610676565b919050565b600080fd5b6106d08161050d565b81146106db57600080fd5b50565b6000813590506106ed816106c7565b92915050565b600067ffffffffffffffff82169050919050565b610710816106f3565b811461071b57600080fd5b50565b60008135905061072d81610707565b92915050565b600080fd5b600080fd5b600067ffffffffffffffff82111561075857610757610647565b5b61076182610636565b9050602081019050919050565b82818337600083830152505050565b600061079061078b8461073d565b6106a7565b9050828152602081018484840111156107ac576107ab610738565b5b6107b784828561076e565b509392505050565b600082601f8301126107d4576107d3610733565b5b81356107e484826020860161077d565b91505092915050565b600067ffffffffffffffff82111561080857610807610647565b5b602082029050602081019050919050565b600080fd5b610827816105f5565b811461083257600080fd5b50565b6000813590506108448161081e565b92915050565b61085381610526565b811461085e57600080fd5b50565b6000813590506108708161084a565b92915050565b60006040828403121561088c5761088b610631565b5b61089660406106a7565b905060006108a684828501610835565b60008301525060206108ba84828501610861565b60208301525092915050565b60006108d96108d4846107ed565b6106a7565b905080838252602082019050604084028301858111156108fc576108fb610819565b5b835b8181101561092557806109118882610876565b8452602084019350506040810190506108fe565b5050509392505050565b600082601f83011261094457610943610733565b5b81356109548482602086016108c6565b91505092915050565b600060a0828403121561097357610972610631565b5b61097d60a06106a7565b9050600061098d848285016106de565b60008301525060206109a18482850161071e565b602083015250604082013567ffffffffffffffff8111156109c5576109c46106c2565b5b6109d1848285016107bf565b604083015250606082013567ffffffffffffffff8111156109f5576109f46106c2565b5b610a01848285016107bf565b606083015250608082013567ffffffffffffffff811115610a2557610a246106c2565b5b610a318482850161092f565b60808301525092915050565b6000610a49368361095d565b9050919050565b600081519050610a5f8161084a565b92915050565b600060208284031215610a7b57610a7a610448565b5b6000610a8984828501610a50565b91505092915050565b6000610a9d826105d5565b9050919050565b610aad81610a92565b8114610ab857600080fd5b50565b600081519050610aca81610aa4565b92915050565b600060208284031215610ae657610ae5610448565b5b6000610af484828501610abb565b91505092915050565b6000819050919050565b6000610b22610b1d610b18846105d5565b610afd565b6105d5565b9050919050565b6000610b3482610b07565b9050919050565b6000610b4682610b29565b9050919050565b610b5681610b3b565b82525050565b6000604082019050610b716000830185610b4d565b610b7e6020830184610530565b9392505050565b6000819050919050565b60008160020b9050919050565b6000610bb7610bb2610bad84610b85565b610afd565b610b8f565b9050919050565b610bc781610b9c565b82525050565b6000819050919050565b6000610bf2610bed610be884610bcd565b610afd565b610b8f565b9050919050565b610c0281610bd7565b82525050565b60006fffffffffffffffffffffffffffffffff82169050919050565b610c2d81610c08565b82525050565b600081519050919050565b600082825260208201905092915050565b60005b83811015610c6d578082015181840152602081019050610c52565b60008484015250505050565b6000610c8482610c33565b610c8e8185610c3e565b9350610c9e818560208601610c4f565b610ca781610636565b840191505092915050565b600060a082019050610cc76000830188610607565b610cd46020830187610bbe565b610ce16040830186610bf9565b610cee6060830185610c24565b8181036080830152610d008184610c79565b90509695505050505050565b60008060408385031215610d2357610d22610448565b5b6000610d3185828601610a50565b9250506020610d4285828601610a50565b915050925092905056fea264697066735822122038f330688c51cd2544c049c710b2b96c651f79a7dcda3d621b176feec82a40b864736f6c63430008140033",
  "linkReferences": {},
  "deployedLinkReferences": {}
}