{"contracts/range/RangeProtocolVault.sol":{"RangeProtocolVault":{"abi":[{"inputs":[{"internalType":"string","name":"_name","type":"string"},{"internalType":"string","name":"_symbol","type":"string"}],"stateMutability":"nonpayable","type":"constructor"},{"inputs":[{"internalType":"address","name":"spender","type":"address"},{"internalType":"uint256","name":"allowance","type":"uint256"},{"internalType":"uint256","name":"needed","type":"uint256"}],"name":"ERC20InsufficientAllowance","type":"error"},{"inputs":[{"internalType":"address","name":"sender","type":"address"},{"internalType":"uint256","name":"balance","type":"uint256"},{"internalType":"uint256","name":"needed","type":"uint256"}],"name":"ERC20InsufficientBalance","type":"error"},{"inputs":[{"internalType":"address","name":"approver","type":"address"}],"name":"ERC20InvalidApprover","type":"error"},{"inputs":[{"internalType":"address","name":"receiver","type":"address"}],"name":"ERC20InvalidReceiver","type":"error"},{"inputs":[{"internalType":"address","name":"sender","type":"address"}],"name":"ERC20InvalidSender","type":"error"},{"inputs":[{"internalType":"address","name":"spender","type":"address"}],"name":"ERC20InvalidSpender","type":"error"},{"inputs":[],"name":"InvalidBurnAmount","type":"error"},{"inputs":[],"name":"InvalidManagingFee","type":"error"},{"inputs":[],"name":"InvalidMintAmount","type":"error"},{"inputs":[],"name":"InvalidPerformanceFee","type":"error"},{"inputs":[],"name":"InvalidTicksSpacing","type":"error"},{"inputs":[],"name":"LiquidityAlreadyAdded","type":"error"},{"inputs":[],"name":"MintNotAllowed","type":"error"},{"inputs":[],"name":"MintNotStarted","type":"error"},{"inputs":[{"internalType":"address","name":"owner","type":"address"}],"name":"OwnableInvalidOwner","type":"error"},{"inputs":[{"internalType":"address","name":"account","type":"address"}],"name":"OwnableUnauthorizedAccount","type":"error"},{"inputs":[],"name":"SlippageExceedThreshold","type":"error"},{"inputs":[],"name":"TicksOutOfRange","type":"error"},{"inputs":[],"name":"ZeroManagerAddress","type":"error"},{"inputs":[],"name":"ZeroMintAmount","type":"error"},{"inputs":[],"name":"ZeroUnderlyingBalance","type":"error"},{"anonymous":false,"inputs":[{"indexed":true,"internalType":"address","name":"owner","type":"address"},{"indexed":true,"internalType":"address","name":"spender","type":"address"},{"indexed":false,"internalType":"uint256","name":"value","type":"uint256"}],"name":"Approval","type":"event"},{"anonymous":false,"inputs":[{"indexed":true,"internalType":"address","name":"receiver","type":"address"},{"indexed":false,"internalType":"uint256","name":"burnAmount","type":"uint256"},{"indexed":false,"internalType":"uint256","name":"amount0Out","type":"uint256"},{"indexed":false,"internalType":"uint256","name":"amount1Out","type":"uint256"}],"name":"Burned","type":"event"},{"anonymous":false,"inputs":[{"indexed":false,"internalType":"uint256","name":"feesEarned0","type":"uint256"},{"indexed":false,"internalType":"uint256","name":"feesEarned1","type":"uint256"}],"name":"FeesEarned","type":"event"},{"anonymous":false,"inputs":[{"indexed":false,"internalType":"uint16","name":"managingFee","type":"uint16"},{"indexed":false,"internalType":"uint16","name":"performanceFee","type":"uint16"}],"name":"FeesUpdated","type":"event"},{"anonymous":false,"inputs":[{"indexed":false,"internalType":"bool","name":"inThePosition","type":"bool"}],"name":"InThePositionStatusSet","type":"event"},{"anonymous":false,"inputs":[{"indexed":false,"internalType":"uint256","name":"liquidityMinted","type":"uint256"},{"indexed":false,"internalType":"int24","name":"tickLower","type":"int24"},{"indexed":false,"internalType":"int24","name":"tickUpper","type":"int24"},{"indexed":false,"internalType":"uint256","name":"amount0In","type":"uint256"},{"indexed":false,"internalType":"uint256","name":"amount1In","type":"uint256"}],"name":"LiquidityAdded","type":"event"},{"anonymous":false,"inputs":[{"indexed":false,"internalType":"uint256","name":"liquidityRemoved","type":"uint256"},{"indexed":false,"internalType":"int24","name":"tickLower","type":"int24"},{"indexed":false,"internalType":"int24","name":"tickUpper","type":"int24"},{"indexed":false,"internalType":"uint256","name":"amount0Out","type":"uint256"},{"indexed":false,"internalType":"uint256","name":"amount1Out","type":"uint256"}],"name":"LiquidityRemoved","type":"event"},{"anonymous":false,"inputs":[],"name":"MintStarted","type":"event"},{"anonymous":false,"inputs":[{"indexed":true,"internalType":"address","name":"receiver","type":"address"},{"indexed":false,"internalType":"uint256","name":"mintAmount","type":"uint256"},{"indexed":false,"internalType":"uint256","name":"amount0In","type":"uint256"},{"indexed":false,"internalType":"uint256","name":"amount1In","type":"uint256"}],"name":"Minted","type":"event"},{"anonymous":false,"inputs":[{"indexed":true,"internalType":"address","name":"previousOwner","type":"address"},{"indexed":true,"internalType":"address","name":"newOwner","type":"address"}],"name":"OwnershipTransferred","type":"event"},{"anonymous":false,"inputs":[{"indexed":false,"internalType":"bool","name":"zeroForOne","type":"bool"},{"indexed":false,"internalType":"int256","name":"amount0","type":"int256"},{"indexed":false,"internalType":"int256","name":"amount1","type":"int256"}],"name":"Swapped","type":"event"},{"anonymous":false,"inputs":[{"indexed":false,"internalType":"int24","name":"lowerTick","type":"int24"},{"indexed":false,"internalType":"int24","name":"upperTick","type":"int24"}],"name":"TicksSet","type":"event"},{"anonymous":false,"inputs":[{"indexed":true,"internalType":"address","name":"from","type":"address"},{"indexed":true,"internalType":"address","name":"to","type":"address"},{"indexed":false,"internalType":"uint256","name":"value","type":"uint256"}],"name":"Transfer","type":"event"},{"inputs":[{"internalType":"int24","name":"newLowerTick","type":"int24"},{"internalType":"int24","name":"newUpperTick","type":"int24"},{"internalType":"uint256","name":"amount0","type":"uint256"},{"internalType":"uint256","name":"amount1","type":"uint256"},{"internalType":"uint256[2]","name":"minAmountsIn","type":"uint256[2]"},{"internalType":"uint256[2]","name":"maxAmountsIn","type":"uint256[2]"}],"name":"addLiquidity","outputs":[{"internalType":"uint256","name":"remainingAmount0","type":"uint256"},{"internalType":"uint256","name":"remainingAmount1","type":"uint256"}],"stateMutability":"nonpayable","type":"function"},{"inputs":[{"internalType":"address","name":"owner","type":"address"},{"internalType":"address","name":"spender","type":"address"}],"name":"allowance","outputs":[{"internalType":"uint256","name":"","type":"uint256"}],"stateMutability":"view","type":"function"},{"inputs":[{"internalType":"address","name":"spender","type":"address"},{"internalType":"uint256","name":"value","type":"uint256"}],"name":"approve","outputs":[{"internalType":"bool","name":"","type":"bool"}],"stateMutability":"nonpayable","type":"function"},{"inputs":[{"internalType":"address","name":"account","type":"address"}],"name":"balanceOf","outputs":[{"internalType":"uint256","name":"","type":"uint256"}],"stateMutability":"view","type":"function"},{"inputs":[{"internalType":"uint256","name":"burnAmount","type":"uint256"},{"internalType":"uint256[2]","name":"minAmountsOut","type":"uint256[2]"}],"name":"burn","outputs":[{"internalType":"uint256","name":"amount0","type":"uint256"},{"internalType":"uint256","name":"amount1","type":"uint256"}],"stateMutability":"nonpayable","type":"function"},{"inputs":[],"name":"decimals","outputs":[{"internalType":"uint8","name":"","type":"uint8"}],"stateMutability":"view","type":"function"},{"inputs":[],"name":"factory","outputs":[{"internalType":"address","name":"","type":"address"}],"stateMutability":"view","type":"function"},{"inputs":[],"name":"getCurrentFees","outputs":[{"internalType":"uint256","name":"fee0","type":"uint256"},{"internalType":"uint256","name":"fee1","type":"uint256"}],"stateMutability":"view","type":"function"},{"inputs":[{"internalType":"uint256","name":"amount0Max","type":"uint256"},{"internalType":"uint256","name":"amount1Max","type":"uint256"}],"name":"getMintAmounts","outputs":[{"internalType":"uint256","name":"amount0","type":"uint256"},{"internalType":"uint256","name":"amount1","type":"uint256"},{"internalType":"uint256","name":"mintAmount","type":"uint256"}],"stateMutability":"view","type":"function"},{"inputs":[],"name":"getPositionID","outputs":[{"internalType":"bytes32","name":"positionID","type":"bytes32"}],"stateMutability":"view","type":"function"},{"inputs":[],"name":"getUnderlyingBalances","outputs":[{"internalType":"uint256","name":"amount0Current","type":"uint256"},{"internalType":"uint256","name":"amount1Current","type":"uint256"}],"stateMutability":"view","type":"function"},{"inputs":[{"internalType":"uint256","name":"shares","type":"uint256"}],"name":"getUnderlyingBalancesByShare","outputs":[{"internalType":"uint256","name":"amount0","type":"uint256"},{"internalType":"uint256","name":"amount1","type":"uint256"}],"stateMutability":"view","type":"function"},{"inputs":[{"internalType":"uint256","name":"fromIdx","type":"uint256"},{"internalType":"uint256","name":"toIdx","type":"uint256"}],"name":"getUserVaults","outputs":[{"components":[{"internalType":"address","name":"user","type":"address"},{"internalType":"uint256","name":"token0","type":"uint256"},{"internalType":"uint256","name":"token1","type":"uint256"}],"internalType":"struct IRangeProtocolVault.UserVaultInfo[]","name":"","type":"tuple[]"}],"stateMutability":"view","type":"function"},{"inputs":[],"name":"inThePosition","outputs":[{"internalType":"bool","name":"","type":"bool"}],"stateMutability":"view","type":"function"},{"inputs":[{"internalType":"address","name":"_pool","type":"address"},{"internalType":"int24","name":"_tickSpacing","type":"int24"},{"internalType":"address","name":"manager","type":"address"}],"name":"initialize","outputs":[],"stateMutability":"nonpayable","type":"function"},{"inputs":[],"name":"lowerTick","outputs":[{"internalType":"int24","name":"","type":"int24"}],"stateMutability":"view","type":"function"},{"inputs":[],"name":"managerBalance0","outputs":[{"internalType":"uint256","name":"","type":"uint256"}],"stateMutability":"view","type":"function"},{"inputs":[],"name":"managerBalance1","outputs":[{"internalType":"uint256","name":"","type":"uint256"}],"stateMutability":"view","type":"function"},{"inputs":[],"name":"managingFee","outputs":[{"internalType":"uint16","name":"","type":"uint16"}],"stateMutability":"view","type":"function"},{"inputs":[{"internalType":"uint256","name":"mintAmount","type":"uint256"},{"internalType":"uint256[2]","name":"maxAmountsIn","type":"uint256[2]"}],"name":"mint","outputs":[{"internalType":"uint256","name":"amount0","type":"uint256"},{"internalType":"uint256","name":"amount1","type":"uint256"}],"stateMutability":"nonpayable","type":"function"},{"inputs":[],"name":"mintStarted","outputs":[{"internalType":"bool","name":"","type":"bool"}],"stateMutability":"view","type":"function"},{"inputs":[],"name":"name","outputs":[{"internalType":"string","name":"","type":"string"}],"stateMutability":"view","type":"function"},{"inputs":[],"name":"owner","outputs":[{"internalType":"address","name":"","type":"address"}],"stateMutability":"view","type":"function"},{"inputs":[],"name":"performanceFee","outputs":[{"internalType":"uint16","name":"","type":"uint16"}],"stateMutability":"view","type":"function"},{"inputs":[],"name":"pool","outputs":[{"internalType":"contract IUniswapV3Pool","name":"","type":"address"}],"stateMutability":"view","type":"function"},{"inputs":[],"name":"pullFeeFromPool","outputs":[],"stateMutability":"nonpayable","type":"function"},{"inputs":[{"internalType":"uint256[2]","name":"minAmountsOut","type":"uint256[2]"}],"name":"removeLiquidity","outputs":[],"stateMutability":"nonpayable","type":"function"},{"inputs":[],"name":"renounceOwnership","outputs":[],"stateMutability":"nonpayable","type":"function"},{"inputs":[{"internalType":"bool","name":"zeroForOne","type":"bool"},{"internalType":"int256","name":"swapAmount","type":"int256"},{"internalType":"uint160","name":"sqrtPriceLimitX96","type":"uint160"},{"internalType":"uint256","name":"minAmountOut","type":"uint256"}],"name":"swap","outputs":[{"internalType":"int256","name":"amount0","type":"int256"},{"internalType":"int256","name":"amount1","type":"int256"}],"stateMutability":"nonpayable","type":"function"},{"inputs":[],"name":"symbol","outputs":[{"internalType":"string","name":"","type":"string"}],"stateMutability":"view","type":"function"},{"inputs":[],"name":"tickSpacing","outputs":[{"internalType":"int24","name":"","type":"int24"}],"stateMutability":"view","type":"function"},{"inputs":[],"name":"token0","outputs":[{"internalType":"contract IERC20","name":"","type":"address"}],"stateMutability":"view","type":"function"},{"inputs":[],"name":"token1","outputs":[{"internalType":"contract IERC20","name":"","type":"address"}],"stateMutability":"view","type":"function"},{"inputs":[],"name":"totalSupply","outputs":[{"internalType":"uint256","name":"","type":"uint256"}],"stateMutability":"view","type":"function"},{"inputs":[{"internalType":"address","name":"to","type":"address"},{"internalType":"uint256","name":"value","type":"uint256"}],"name":"transfer","outputs":[{"internalType":"bool","name":"","type":"bool"}],"stateMutability":"nonpayable","type":"function"},{"inputs":[{"internalType":"address","name":"from","type":"address"},{"internalType":"address","name":"to","type":"address"},{"internalType":"uint256","name":"value","type":"uint256"}],"name":"transferFrom","outputs":[{"internalType":"bool","name":"","type":"bool"}],"stateMutability":"nonpayable","type":"function"},{"inputs":[{"internalType":"address","name":"newOwner","type":"address"}],"name":"transferOwnership","outputs":[],"stateMutability":"nonpayable","type":"function"},{"inputs":[{"internalType":"uint16","name":"newManagingFee","type":"uint16"},{"internalType":"uint16","name":"newPerformanceFee","type":"uint16"}],"name":"updateFees","outputs":[],"stateMutability":"nonpayable","type":"function"},{"inputs":[],"name":"upperTick","outputs":[{"internalType":"int24","name":"","type":"int24"}],"stateMutability":"view","type":"function"},{"inputs":[],"name":"userCount","outputs":[{"internalType":"uint256","name":"","type":"uint256"}],"stateMutability":"view","type":"function"},{"inputs":[{"internalType":"address","name":"","type":"address"}],"name":"userVaults","outputs":[{"internalType":"bool","name":"exists","type":"bool"},{"internalType":"uint256","name":"token0","type":"uint256"},{"internalType":"uint256","name":"token1","type":"uint256"}],"stateMutability":"view","type":"function"},{"inputs":[{"internalType":"uint256","name":"","type":"uint256"}],"name":"users","outputs":[{"internalType":"address","name":"","type":"address"}],"stateMutability":"view","type":"function"}],"evm":{"bytecode":{"linkReferences":{},"object":"60806040523480156200001157600080fd5b506040516200714a3803806200714a833981810160405281019062000037919062000346565b818133600073ffffffffffffffffffffffffffffffffffffffff168173ffffffffffffffffffffffffffffffffffffffff1603620000af5760006040517f1e4fbdf7000000000000000000000000000000000000000000000000000000008152600401620000a6919062000410565b60405180910390fd5b620000c081620000ef60201b60201c565b508160049081620000d2919062000678565b508060059081620000e4919062000678565b50505050506200075f565b60008060009054906101000a900473ffffffffffffffffffffffffffffffffffffffff169050816000806101000a81548173ffffffffffffffffffffffffffffffffffffffff021916908373ffffffffffffffffffffffffffffffffffffffff1602179055508173ffffffffffffffffffffffffffffffffffffffff168173ffffffffffffffffffffffffffffffffffffffff167f8be0079c531659141344cd1fd0a4f28419497f9722a3daafe3b4186f6b6457e060405160405180910390a35050565b6000604051905090565b600080fd5b600080fd5b600080fd5b600080fd5b6000601f19601f8301169050919050565b7f4e487b7100000000000000000000000000000000000000000000000000000000600052604160045260246000fd5b6200021c82620001d1565b810181811067ffffffffffffffff821117156200023e576200023d620001e2565b5b80604052505050565b600062000253620001b3565b905062000261828262000211565b919050565b600067ffffffffffffffff821115620002845762000283620001e2565b5b6200028f82620001d1565b9050602081019050919050565b60005b83811015620002bc5780820151818401526020810190506200029f565b60008484015250505050565b6000620002df620002d98462000266565b62000247565b905082815260208101848484011115620002fe57620002fd620001cc565b5b6200030b8482856200029c565b509392505050565b600082601f8301126200032b576200032a620001c7565b5b81516200033d848260208601620002c8565b91505092915050565b6000806040838503121562000360576200035f620001bd565b5b600083015167ffffffffffffffff811115620003815762000380620001c2565b5b6200038f8582860162000313565b925050602083015167ffffffffffffffff811115620003b357620003b2620001c2565b5b620003c18582860162000313565b9150509250929050565b600073ffffffffffffffffffffffffffffffffffffffff82169050919050565b6000620003f882620003cb565b9050919050565b6200040a81620003eb565b82525050565b6000602082019050620004276000830184620003ff565b92915050565b600081519050919050565b7f4e487b7100000000000000000000000000000000000000000000000000000000600052602260045260246000fd5b600060028204905060018216806200048057607f821691505b60208210810362000496576200049562000438565b5b50919050565b60008190508160005260206000209050919050565b60006020601f8301049050919050565b600082821b905092915050565b600060088302620005007fffffffffffffffffffffffffffffffffffffffffffffffffffffffffffffffff82620004c1565b6200050c8683620004c1565b95508019841693508086168417925050509392505050565b6000819050919050565b6000819050919050565b600062000559620005536200054d8462000524565b6200052e565b62000524565b9050919050565b6000819050919050565b620005758362000538565b6200058d620005848262000560565b848454620004ce565b825550505050565b600090565b620005a462000595565b620005b18184846200056a565b505050565b5b81811015620005d957620005cd6000826200059a565b600181019050620005b7565b5050565b601f8211156200062857620005f2816200049c565b620005fd84620004b1565b810160208510156200060d578190505b620006256200061c85620004b1565b830182620005b6565b50505b505050565b600082821c905092915050565b60006200064d600019846008026200062d565b1980831691505092915050565b60006200066883836200063a565b9150826002028217905092915050565b62000683826200042d565b67ffffffffffffffff8111156200069f576200069e620001e2565b5b620006ab825462000467565b620006b8828285620005dd565b600060209050601f831160018114620006f05760008415620006db578287015190505b620006e785826200065a565b86555062000757565b601f19841662000700866200049c565b60005b828110156200072a5784890151825560018201915060208501945060208101905062000703565b868310156200074a578489015162000746601f8916826200063a565b8355505b6001600288020188555050505b505050505050565b6169db806200076f6000396000f3fe608060405234801561001057600080fd5b506004361061025e5760003560e01c80638778878211610146578063c45a0155116100c3578063dd62ed3e11610087578063dd62ed3e1461073e578063df28408a1461076e578063e059c6601461078c578063f173c7f5146107bd578063f2fde38b146107ee578063f3d2350e1461080a5761025e565b8063c45a0155146106aa578063c653089f146106c8578063d0c93a7c146106f8578063d21220a714610716578063d7e458b5146107345761025e565b80639cd643cc1161010a5780639cd643cc146105de5780639d6933ae146105fa578063a9059cbb1461062b578063a9722cf31461065b578063b341ee9f146106795761025e565b806387788782146105345780638da5cb5b1461055257806395d89b41146105705780639894f21a1461058e5780639b1344ac146105c05761025e565b80632958d031116101df578063601b48a4116101a3578063601b48a41461048357806370a08231146104a1578063715018a6146104d157806371908a03146104db578063727dd228146104fa578063816ec2ea146105185761025e565b80632958d031146103c7578063313ce567146103f9578063365b98b2146104175780634043f5ca1461044757806342fb9d44146104655761025e565b80631322d954116102265780631322d9541461030b57806314a2afb21461032a57806316f0115b1461035b57806318160ddd1461037957806323b872dd146103975761025e565b8063065756db1461026357806306fdde031461028157806307973ccf1461029f578063095ea7b3146102bd5780630dfe1681146102ed575b600080fd5b61026b610826565b6040516102789190615348565b60405180910390f35b61028961082c565b60405161029691906153f3565b60405180910390f35b6102a76108be565b6040516102b49190615348565b60405180910390f35b6102d760048036038101906102d291906154a4565b6108cb565b6040516102e491906154ff565b60405180910390f35b6102f56108ee565b6040516103029190615579565b60405180910390f35b610313610914565b604051610321929190615594565b60405180910390f35b610344600480360381019061033f919061561d565b6109c8565b604051610352929190615594565b60405180910390f35b610363610cc4565b60405161037091906156cc565b60405180910390f35b610381610cea565b60405161038e9190615348565b60405180910390f35b6103b160048036038101906103ac91906156e7565b610cf4565b6040516103be91906154ff565b60405180910390f35b6103e160048036038101906103dc919061573a565b610d23565b6040516103f093929190615767565b60405180910390f35b610401610d5a565b60405161040e91906157ba565b60405180910390f35b610431600480360381019061042c91906157d5565b610d63565b60405161043e9190615811565b60405180910390f35b61044f610da2565b60405161045c91906154ff565b60405180910390f35b61046d610db3565b60405161047a9190615348565b60405180910390f35b61048b610db9565b6040516104989190615849565b60405180910390f35b6104bb60048036038101906104b6919061573a565b610dcd565b6040516104c89190615348565b60405180910390f35b6104d9610e16565b005b6104e3610e2a565b6040516104f1929190615594565b60405180910390f35b610502610ff1565b60405161050f9190615873565b60405180910390f35b610532600480360381019061052d919061588e565b611004565b005b61053c6112cb565b6040516105499190615849565b60405180910390f35b61055a6112df565b6040516105679190615811565b60405180910390f35b610578611308565b60405161058591906153f3565b60405180910390f35b6105a860048036038101906105a391906158e1565b61139a565b6040516105b793929190615921565b60405180910390f35b6105c8611572565b6040516105d59190615873565b60405180910390f35b6105f860048036038101906105f39190615958565b611585565b005b610614600480360381019061060f9190615985565b611820565b604051610622929190615594565b60405180910390f35b610645600480360381019061064091906154a4565b611f90565b60405161065291906154ff565b60405180910390f35b610663611fb3565b60405161067091906154ff565b60405180910390f35b610693600480360381019061068e9190615985565b611fc6565b6040516106a1929190615594565b60405180910390f35b6106b26126ca565b6040516106bf9190615811565b60405180910390f35b6106e260048036038101906106dd91906158e1565b6126f0565b6040516106ef9190615ad4565b60405180910390f35b6107006128fe565b60405161070d9190615873565b60405180910390f35b61071e612911565b60405161072b9190615579565b60405180910390f35b61073c612937565b005b61075860048036038101906107539190615af6565b612941565b6040516107659190615348565b60405180910390f35b6107766129c8565b6040516107839190615b4f565b60405180910390f35b6107a660048036038101906107a19190615bf8565b612a18565b6040516107b4929190615c6e565b60405180910390f35b6107d760048036038101906107d291906157d5565b612b73565b6040516107e5929190615594565b60405180910390f35b6108086004803603810190610803919061573a565b612be6565b005b610824600480360381019061081f9190615cc3565b612c6c565b005b600a5481565b60606004805461083b90615d32565b80601f016020809104026020016040519081016040528092919081815260200182805461086790615d32565b80156108b45780601f10610889576101008083540402835291602001916108b4565b820191906000526020600020905b81548152906001019060200180831161089757829003601f168201915b5050505050905090565b6000600d80549050905090565b6000806108d6612c7a565b90506108e3818585612c82565b600191505092915050565b600760009054906101000a900473ffffffffffffffffffffffffffffffffffffffff1681565b6000806000806006600b9054906101000a900473ffffffffffffffffffffffffffffffffffffffff1673ffffffffffffffffffffffffffffffffffffffff16633850c7bd6040518163ffffffff1660e01b815260040160e060405180830381865afa158015610987573d6000803e3d6000fd5b505050506040513d601f19601f820116820180604052508101906109ab9190615de3565b5050505050915091506109be8282612c94565b9350935050509091565b60008060068054906101000a900460ff1615610a10576040517ffd02b6d000000000000000000000000000000000000000000000000000000000815260040160405180910390fd5b60006006600b9054906101000a900473ffffffffffffffffffffffffffffffffffffffff1673ffffffffffffffffffffffffffffffffffffffff16633850c7bd6040518163ffffffff1660e01b815260040160e060405180830381865afa158015610a7f573d6000803e3d6000fd5b505050506040513d601f19601f82011682018060405250810190610aa39190615de3565b50505050505090506000610ad082610abd8c60020b612fde565b610ac98c60020b612fde565b8b8b6134a9565b90506000816fffffffffffffffffffffffffffffffff161115610cb7576000806006600b9054906101000a900473ffffffffffffffffffffffffffffffffffffffff1673ffffffffffffffffffffffffffffffffffffffff16633c8a7d8d308e8e876040518563ffffffff1660e01b8152600401610b519493929190615ee7565b60408051808303816000875af1158015610b6f573d6000803e3d6000fd5b505050506040513d601f19601f82011682018060405250810190610b939190615f54565b9150915087600060028110610bab57610baa615f94565b5b6020020135821080610bd4575086600060028110610bcc57610bcb615f94565b5b602002013582115b80610bf6575087600160028110610bee57610bed615f94565b5b602002013581105b80610c18575086600160028110610c1057610c0f615f94565b5b602002013581115b15610c4f576040517fe9f34dd200000000000000000000000000000000000000000000000000000000815260040160405180910390fd5b610c598c8c6135d5565b7ffa715a0b1bc7287b5d3581c11478041b0455aad0c17361fc1e55fffbdd4b6c4f838d8d8585604051610c90959493929190615ff4565b60405180910390a1818a610ca49190616076565b95508089610cb29190616076565b945050505b5050965096945050505050565b6006600b9054906101000a900473ffffffffffffffffffffffffffffffffffffffff1681565b6000600354905090565b600080610cff612c7a565b9050610d0c8582856136b2565b610d17858585613746565b60019150509392505050565b600c6020528060005260406000206000915090508060000160009054906101000a900460ff16908060010154908060020154905083565b60006012905090565b600d8181548110610d7357600080fd5b906000526020600020016000915054906101000a900473ffffffffffffffffffffffffffffffffffffffff1681565b60068054906101000a900460ff1681565b600b5481565b600960149054906101000a900461ffff1681565b6000600160008373ffffffffffffffffffffffffffffffffffffffff1673ffffffffffffffffffffffffffffffffffffffff168152602001908152602001600020549050919050565b610e1e61383a565b610e2860006138c1565b565b60008060006006600b9054906101000a900473ffffffffffffffffffffffffffffffffffffffff1673ffffffffffffffffffffffffffffffffffffffff16633850c7bd6040518163ffffffff1660e01b815260040160e060405180830381865afa158015610e9c573d6000803e3d6000fd5b505050506040513d601f19601f82011682018060405250810190610ec09190615de3565b505050505091505060008060008060006006600b9054906101000a900473ffffffffffffffffffffffffffffffffffffffff1673ffffffffffffffffffffffffffffffffffffffff1663514ea4bf610f166129c8565b6040518263ffffffff1660e01b8152600401610f329190615b4f565b60a060405180830381865afa158015610f4f573d6000803e3d6000fd5b505050506040513d601f19601f82011682018060405250810190610f7391906160d6565b94509450945094509450816fffffffffffffffffffffffffffffffff16610f9d6001868989613985565b610fa79190616151565b9750806fffffffffffffffffffffffffffffffff16610fc96000858989613985565b610fd39190616151565b9650610fdf8888613e99565b80985081995050505050505050509091565b600660039054906101000a900460020b81565b600073ffffffffffffffffffffffffffffffffffffffff168173ffffffffffffffffffffffffffffffffffffffff160361106a576040517fd741b0ba00000000000000000000000000000000000000000000000000000000815260040160405180910390fd5b611073816138c1565b826006600b6101000a81548173ffffffffffffffffffffffffffffffffffffffff021916908373ffffffffffffffffffffffffffffffffffffffff1602179055506006600b9054906101000a900473ffffffffffffffffffffffffffffffffffffffff1673ffffffffffffffffffffffffffffffffffffffff16630dfe16816040518163ffffffff1660e01b8152600401602060405180830381865afa158015611121573d6000803e3d6000fd5b505050506040513d601f19601f82011682018060405250810190611145919061619a565b600760006101000a81548173ffffffffffffffffffffffffffffffffffffffff021916908373ffffffffffffffffffffffffffffffffffffffff1602179055506006600b9054906101000a900473ffffffffffffffffffffffffffffffffffffffff1673ffffffffffffffffffffffffffffffffffffffff1663d21220a76040518163ffffffff1660e01b8152600401602060405180830381865afa1580156111f2573d6000803e3d6000fd5b505050506040513d601f19601f82011682018060405250810190611216919061619a565b600860006101000a81548173ffffffffffffffffffffffffffffffffffffffff021916908373ffffffffffffffffffffffffffffffffffffffff16021790555081600660086101000a81548162ffffff021916908360020b62ffffff16021790555033600960006101000a81548173ffffffffffffffffffffffffffffffffffffffff021916908373ffffffffffffffffffffffffffffffffffffffff1602179055506112c660006103e8613f15565b505050565b600960169054906101000a900461ffff1681565b60008060009054906101000a900473ffffffffffffffffffffffffffffffffffffffff16905090565b60606005805461131790615d32565b80601f016020809104026020016040519081016040528092919081815260200182805461134390615d32565b80156113905780601f1061136557610100808354040283529160200191611390565b820191906000526020600020905b81548152906001019060200180831161137357829003601f168201915b5050505050905090565b6000806000600660079054906101000a900460ff166113e5576040517f06290e4e00000000000000000000000000000000000000000000000000000000815260040160405180910390fd5b60006113ef610cea565b905060008111156114165761140581878761402f565b80945081955082965050505061156a565b60068054906101000a900460ff16156115695760006006600b9054906101000a900473ffffffffffffffffffffffffffffffffffffffff1673ffffffffffffffffffffffffffffffffffffffff16633850c7bd6040518163ffffffff1660e01b815260040160e060405180830381865afa158015611498573d6000803e3d6000fd5b505050506040513d601f19601f820116820180604052508101906114bc9190615de3565b50505050505090506000611507826114e5600660009054906101000a900460020b60020b612fde565b611500600660039054906101000a900460020b60020b612fde565b8b8b6134a9565b9050806fffffffffffffffffffffffffffffffff16935061155e8261153d600660009054906101000a900460020b60020b612fde565b611558600660039054906101000a900460020b60020b612fde565b84614176565b809650819750505050505b5b509250925092565b600660009054906101000a900460020b81565b60006006600b9054906101000a900473ffffffffffffffffffffffffffffffffffffffff1673ffffffffffffffffffffffffffffffffffffffff1663514ea4bf6115cd6129c8565b6040518263ffffffff1660e01b81526004016115e99190615b4f565b60a060405180830381865afa158015611606573d6000803e3d6000fd5b505050506040513d601f19601f8201168201806040525081019061162a91906160d6565b5050505090506000816fffffffffffffffffffffffffffffffff161115611799576000600660009054906101000a900460020b90506000600660039054906101000a900460020b905060008060008061168287614268565b93509350935093508760006002811061169e5761169d615f94565b5b60200201358410806116c75750876001600281106116bf576116be615f94565b5b602002013583105b156116fe576040517fe9f34dd200000000000000000000000000000000000000000000000000000000815260040160405180910390fd5b7f6d7e1841bf97c0b736eafb2779459ba1e0af2305cead28a8e97533589ceb2f658787878787604051611735959493929190615ff4565b60405180910390a161174782826146a9565b6117518282613e99565b80925081935050507fc28ad1de9c0c32e5394ba60323e44d8d9536312236a47231772e448a3e49de42828260405161178a929190615594565b60405180910390a15050505050505b600660039054906101000a900460020b600660006101000a81548162ffffff021916908360020b62ffffff16021790555060006006806101000a81548160ff0219169083151502179055507fd9279952b347fd14af9b788aff1029c0d3b1299b7dcce164fc602a1b958c4880600060405161181491906154ff565b60405180910390a15050565b6000806000840361185d576040517f2075cc1000000000000000000000000000000000000000000000000000000000815260040160405180910390fd5b6118656152de565b61186d610cea565b81600001818152505061187f33610dcd565b8160200181815250506118923386614729565b60068054906101000a900460ff1615611bb85760006006600b9054906101000a900473ffffffffffffffffffffffffffffffffffffffff1673ffffffffffffffffffffffffffffffffffffffff1663514ea4bf6118ed6129c8565b6040518263ffffffff1660e01b81526004016119099190615b4f565b60a060405180830381865afa158015611926573d6000803e3d6000fd5b505050506040513d601f19601f8201168201806040525081019061194a91906160d6565b505050509050600061197387836fffffffffffffffffffffffffffffffff1685600001516147ab565b9050600081905060008060008061198985614268565b935093509350935061199b82826146a9565b6119a58282613e99565b80925081935050507fc28ad1de9c0c32e5394ba60323e44d8d9536312236a47231772e448a3e49de4282826040516119de929190615594565b60405180910390a1600084600760009054906101000a900473ffffffffffffffffffffffffffffffffffffffff1673ffffffffffffffffffffffffffffffffffffffff166370a08231306040518263ffffffff1660e01b8152600401611a449190615811565b602060405180830381865afa158015611a61573d6000803e3d6000fd5b505050506040513d601f19601f82011682018060405250810190611a8591906161c7565b611a8f9190616076565b9050600084600860009054906101000a900473ffffffffffffffffffffffffffffffffffffffff1673ffffffffffffffffffffffffffffffffffffffff166370a08231306040518263ffffffff1660e01b8152600401611aef9190615811565b602060405180830381865afa158015611b0c573d6000803e3d6000fd5b505050506040513d601f19601f82011682018060405250810190611b3091906161c7565b611b3a9190616076565b9050600a54821115611b5757600a5482611b549190616076565b91505b600b54811115611b7257600b5481611b6f9190616076565b90505b611b81828f8c600001516147ab565b86611b8c9190616151565b9b50611b9d818f8c600001516147ab565b85611ba89190616151565b9a50505050505050505050611bec565b600080611bc3610914565b91509150611bd6828885600001516147ab565b9450611be7818885600001516147ab565b935050505b83600060028110611c0057611bff615f94565b5b6020020135831080611c29575083600160028110611c2157611c20615f94565b5b602002013582105b15611c60576040517fe9f34dd200000000000000000000000000000000000000000000000000000000815260040160405180910390fd5b611c6a8383614885565b611c748383614905565b80935081945050508060200151858260200151611c919190616076565b600c60003373ffffffffffffffffffffffffffffffffffffffff1673ffffffffffffffffffffffffffffffffffffffff16815260200190815260200160002060010154611cde91906161f4565b611ce89190616265565b600c60003373ffffffffffffffffffffffffffffffffffffffff1673ffffffffffffffffffffffffffffffffffffffff168152602001908152602001600020600101819055506000831115611dd957600760009054906101000a900473ffffffffffffffffffffffffffffffffffffffff1673ffffffffffffffffffffffffffffffffffffffff1663a9059cbb33856040518363ffffffff1660e01b8152600401611d94929190616296565b6020604051808303816000875af1158015611db3573d6000803e3d6000fd5b505050506040513d601f19601f82011682018060405250810190611dd791906162bf565b505b8060200151858260200151611dee9190616076565b600c60003373ffffffffffffffffffffffffffffffffffffffff1673ffffffffffffffffffffffffffffffffffffffff16815260200190815260200160002060020154611e3b91906161f4565b611e459190616265565b600c60003373ffffffffffffffffffffffffffffffffffffffff1673ffffffffffffffffffffffffffffffffffffffff168152602001908152602001600020600201819055506000821115611f3657600860009054906101000a900473ffffffffffffffffffffffffffffffffffffffff1673ffffffffffffffffffffffffffffffffffffffff1663a9059cbb33846040518363ffffffff1660e01b8152600401611ef1929190616296565b6020604051808303816000875af1158015611f10573d6000803e3d6000fd5b505050506040513d601f19601f82011682018060405250810190611f3491906162bf565b505b3373ffffffffffffffffffffffffffffffffffffffff167f4c60206a5c1de41f3376d1d60f0949d96cb682033c90b1c2d9d9a62d4c4120c0868585604051611f8093929190615921565b60405180910390a2509250929050565b600080611f9b612c7a565b9050611fa8818585613746565b600191505092915050565b600660079054906101000a900460ff1681565b600080600660079054906101000a900460ff1661200f576040517f06290e4e00000000000000000000000000000000000000000000000000000000815260040160405180910390fd5b60008403612049576040517fccfad01800000000000000000000000000000000000000000000000000000000815260040160405180910390fd5b6000612053610cea565b9050600060068054906101000a900460ff16905060006006600b9054906101000a900473ffffffffffffffffffffffffffffffffffffffff1673ffffffffffffffffffffffffffffffffffffffff16633850c7bd6040518163ffffffff1660e01b815260040160e060405180830381865afa1580156120d6573d6000803e3d6000fd5b505050506040513d601f19601f820116820180604052508101906120fa9190615de3565b5050505050509050600083111561213b57600080612116610914565b91509150612125828a87614981565b9650612132818a87614981565b955050506121c1565b811561218e5761218181612160600660009054906101000a900460020b60020b612fde565b61217b600660039054906101000a900460020b60020b612fde565b8a614176565b80955081965050506121c0565b6040517f344fa43b00000000000000000000000000000000000000000000000000000000815260040160405180910390fd5b5b856000600281106121d5576121d4615f94565b5b60200201358511806121fe5750856001600281106121f6576121f5615f94565b5b602002013584115b15612235576040517fe9f34dd200000000000000000000000000000000000000000000000000000000815260040160405180910390fd5b600c60003373ffffffffffffffffffffffffffffffffffffffff1673ffffffffffffffffffffffffffffffffffffffff16815260200190815260200160002060000160009054906101000a900460ff16612348576001600c60003373ffffffffffffffffffffffffffffffffffffffff1673ffffffffffffffffffffffffffffffffffffffff16815260200190815260200160002060000160006101000a81548160ff021916908315150217905550600d339080600181540180825580915050600190039060005260206000200160009091909190916101000a81548173ffffffffffffffffffffffffffffffffffffffff021916908373ffffffffffffffffffffffffffffffffffffffff1602179055505b600085111561244e5784600c60003373ffffffffffffffffffffffffffffffffffffffff1673ffffffffffffffffffffffffffffffffffffffff16815260200190815260200160002060010160008282546123a39190616151565b92505081905550600760009054906101000a900473ffffffffffffffffffffffffffffffffffffffff1673ffffffffffffffffffffffffffffffffffffffff166323b872dd3330886040518463ffffffff1660e01b8152600401612409939291906162ec565b6020604051808303816000875af1158015612428573d6000803e3d6000fd5b505050506040513d601f19601f8201168201806040525081019061244c91906162bf565b505b60008411156125545783600c60003373ffffffffffffffffffffffffffffffffffffffff1673ffffffffffffffffffffffffffffffffffffffff16815260200190815260200160002060020160008282546124a99190616151565b92505081905550600860009054906101000a900473ffffffffffffffffffffffffffffffffffffffff1673ffffffffffffffffffffffffffffffffffffffff166323b872dd3330876040518463ffffffff1660e01b815260040161250f939291906162ec565b6020604051808303816000875af115801561252e573d6000803e3d6000fd5b505050506040513d601f19601f8201168201806040525081019061255291906162bf565b505b61255e33886149ec565b811561266e5760006125a782612585600660009054906101000a900460020b60020b612fde565b6125a0600660039054906101000a900460020b60020b612fde565b89896134a9565b90506006600b9054906101000a900473ffffffffffffffffffffffffffffffffffffffff1673ffffffffffffffffffffffffffffffffffffffff16633c8a7d8d30600660009054906101000a900460020b600660039054906101000a900460020b856040518563ffffffff1660e01b81526004016126289493929190615ee7565b60408051808303816000875af1158015612646573d6000803e3d6000fd5b505050506040513d601f19601f8201168201806040525081019061266a9190615f54565b5050505b3373ffffffffffffffffffffffffffffffffffffffff167f5a3358a3d27a5373c0df2604662088d37894d56b7cfd27f315770440f4e0d9198887876040516126b893929190615921565b60405180910390a25050509250929050565b600960009054906101000a900473ffffffffffffffffffffffffffffffffffffffff1681565b60606000831480156127025750600082145b1561271057600d8054905091505b6000838361271e9190616076565b67ffffffffffffffff81111561273757612736616323565b5b60405190808252806020026020018201604052801561277057816020015b61275d6152f8565b8152602001906001900390816127555790505b5090506000808590505b848110156128f2576000600c6000600d848154811061279c5761279b615f94565b5b9060005260206000200160009054906101000a900473ffffffffffffffffffffffffffffffffffffffff1673ffffffffffffffffffffffffffffffffffffffff1673ffffffffffffffffffffffffffffffffffffffff1681526020019081526020016000206040518060600160405290816000820160009054906101000a900460ff161515151581526020016001820154815260200160028201548152505090506040518060600160405280600d848154811061285c5761285b615f94565b5b9060005260206000200160009054906101000a900473ffffffffffffffffffffffffffffffffffffffff1673ffffffffffffffffffffffffffffffffffffffff1681526020018260200151815260200182604001518152508484806128c090616352565b9550815181106128d3576128d2615f94565b5b60200260200101819052505080806128ea90616352565b91505061277a565b50819250505092915050565b600660089054906101000a900460020b81565b600860009054906101000a900473ffffffffffffffffffffffffffffffffffffffff1681565b61293f614a6e565b565b6000600260008473ffffffffffffffffffffffffffffffffffffffff1673ffffffffffffffffffffffffffffffffffffffff16815260200190815260200160002060008373ffffffffffffffffffffffffffffffffffffffff1673ffffffffffffffffffffffffffffffffffffffff16815260200190815260200160002054905092915050565b600030600660009054906101000a900460020b600660039054906101000a900460020b6040516020016129fd93929190616418565b60405160208183030381529060405280519060200120905090565b6000806006600b9054906101000a900473ffffffffffffffffffffffffffffffffffffffff1673ffffffffffffffffffffffffffffffffffffffff1663128acb08308888886040518563ffffffff1660e01b8152600401612a7c9493929190616464565b60408051808303816000875af1158015612a9a573d6000803e3d6000fd5b505050506040513d601f19601f82011682018060405250810190612abe91906164d1565b8092508193505050858015612adb57508281612ad990616511565b105b80612af8575085158015612af757508282612af590616511565b105b5b15612b2f576040517fe9f34dd200000000000000000000000000000000000000000000000000000000815260040160405180910390fd5b7fbf511038cfa32cfb7971e976074c0e6aeda010e6afcbb38d87b4f91030501494868383604051612b6293929190616559565b60405180910390a194509492505050565b6000806000612b80610cea565b905060008114612be057600080612b95610914565b91509150828287612ba691906161f4565b612bb09190616265565b9450828187612bbf91906161f4565b612bc99190616265565b9350612bd58585614905565b809550819650505050505b50915091565b612bee61383a565b600073ffffffffffffffffffffffffffffffffffffffff168173ffffffffffffffffffffffffffffffffffffffff1603612c605760006040517f1e4fbdf7000000000000000000000000000000000000000000000000000000008152600401612c579190615811565b60405180910390fd5b612c69816138c1565b50565b612c768282613f15565b5050565b600033905090565b612c8f8383836001614ada565b505050565b60008060008060008060006006600b9054906101000a900473ffffffffffffffffffffffffffffffffffffffff1673ffffffffffffffffffffffffffffffffffffffff1663514ea4bf612ce56129c8565b6040518263ffffffff1660e01b8152600401612d019190615b4f565b60a060405180830381865afa158015612d1e573d6000803e3d6000fd5b505050506040513d601f19601f82011682018060405250810190612d4291906160d6565b945094509450945094506000806000876fffffffffffffffffffffffffffffffff1614612e3857612da98b612d88600660009054906101000a900460020b60020b612fde565b612da3600660039054906101000a900460020b60020b612fde565b8a614176565b809950819a505050836fffffffffffffffffffffffffffffffff16612dd16001888d8b613985565b612ddb9190616151565b9150826fffffffffffffffffffffffffffffffff16612dfd6000878d8b613985565b612e079190616151565b9050612e138282613e99565b80925081935050508189612e279190616151565b98508088612e359190616151565b97505b6000600760009054906101000a900473ffffffffffffffffffffffffffffffffffffffff1673ffffffffffffffffffffffffffffffffffffffff166370a08231306040518263ffffffff1660e01b8152600401612e959190615811565b602060405180830381865afa158015612eb2573d6000803e3d6000fd5b505050506040513d601f19601f82011682018060405250810190612ed691906161c7565b90506000600860009054906101000a900473ffffffffffffffffffffffffffffffffffffffff1673ffffffffffffffffffffffffffffffffffffffff166370a08231306040518263ffffffff1660e01b8152600401612f359190615811565b602060405180830381865afa158015612f52573d6000803e3d6000fd5b505050506040513d601f19601f82011682018060405250810190612f7691906161c7565b9050600a548211612f875781612f96565b600a5482612f959190616076565b5b8b612fa19190616151565b9a50600b548111612fb25780612fc1565b600b5481612fc09190616076565b5b8a612fcc9190616151565b99505050505050505050509250929050565b60008060008360020b12612ff5578260020b613003565b8260020b61300290616511565b5b90507ffffffffffffffffffffffffffffffffffffffffffffffffffffffffffff2761861302f90616590565b60020b811115613074576040517f08c379a000000000000000000000000000000000000000000000000000000000815260040161306b90616624565b60405180910390fd5b6000806001831603613097577001000000000000000000000000000000006130a9565b6ffffcb933bd6fad37aa2d162d1a5940015b70ffffffffffffffffffffffffffffffffff169050600060028316146130ec5760806ffff97272373d413259a46990580e213a826130e791906161f4565b901c90505b6000600483161461311a5760806ffff2e50f5f656932ef12357cf3c7fdcc8261311591906161f4565b901c90505b600060088316146131485760806fffe5caca7e10e4e61c3624eaa0941cd08261314391906161f4565b901c90505b600060108316146131765760806fffcb9843d60f6159c9db58835c9266448261317191906161f4565b901c90505b600060208316146131a45760806fff973b41fa98c081472e6896dfb254c08261319f91906161f4565b901c90505b600060408316146131d25760806fff2ea16466c96a3843ec78b326b52861826131cd91906161f4565b901c90505b600060808316146132005760806ffe5dee046a99a2a811c461f1969c3053826131fb91906161f4565b901c90505b600061010083161461322f5760806ffcbe86c7900a88aedcffc83b479aa3a48261322a91906161f4565b901c90505b600061020083161461325e5760806ff987a7253ac413176f2b074cf7815e548261325991906161f4565b901c90505b600061040083161461328d5760806ff3392b0822b70005940c7a398e4b70f38261328891906161f4565b901c90505b60006108008316146132bc5760806fe7159475a2c29b7443b29c7fa6e889d9826132b791906161f4565b901c90505b60006110008316146132eb5760806fd097f3bdfd2022b8845ad8f792aa5825826132e691906161f4565b901c90505b600061200083161461331a5760806fa9f746462d870fdf8a65dc1f90e061e58261331591906161f4565b901c90505b60006140008316146133495760806f70d869a156d2a1b890bb3df62baf32f78261334491906161f4565b901c90505b60006180008316146133785760806f31be135f97d08fd981231505542fcfa68261337391906161f4565b901c90505b6000620100008316146133a85760806f09aa508b5b7a84e1c677de54f3e99bc9826133a391906161f4565b901c90505b6000620200008316146133d75760806e5d6af8dedb81196699c329225ee604826133d291906161f4565b901c90505b6000620400008316146134055760806d2216e584f5fa1ea926041bedfe988261340091906161f4565b901c90505b6000620800008316146134315760806b048a170391f7dc42444e8fa28261342c91906161f4565b901c90505b60008460020b131561346c57807fffffffffffffffffffffffffffffffffffffffffffffffffffffffffffffffff6134699190616265565b90505b60006401000000008261347f9190616644565b1461348b57600161348e565b60005b60ff16602082901c6134a09190616151565b92505050919050565b60008373ffffffffffffffffffffffffffffffffffffffff168573ffffffffffffffffffffffffffffffffffffffff1611156134ea57838580955081965050505b8473ffffffffffffffffffffffffffffffffffffffff168673ffffffffffffffffffffffffffffffffffffffff161161352f57613528858585614cb1565b90506135cc565b8373ffffffffffffffffffffffffffffffffffffffff168673ffffffffffffffffffffffffffffffffffffffff1610156135bd576000613570878686614cb1565b9050600061357f878986614d78565b9050806fffffffffffffffffffffffffffffffff16826fffffffffffffffffffffffffffffffff16106135b257806135b4565b815b925050506135cb565b6135c8858584614d78565b90505b5b95945050505050565b6135df8282614e03565b81600660006101000a81548162ffffff021916908360020b62ffffff16021790555080600660036101000a81548162ffffff021916908360020b62ffffff16021790555060016006806101000a81548160ff0219169083151502179055507fd9279952b347fd14af9b788aff1029c0d3b1299b7dcce164fc602a1b958c4880600160405161366d91906154ff565b60405180910390a17f8e3ac6cc9b82795b40740ca4e954df8f6655fe35e80cdc6fb33d50c3423fcd1682826040516136a6929190616675565b60405180910390a15050565b60006136be8484612941565b90507fffffffffffffffffffffffffffffffffffffffffffffffffffffffffffffffff81146137405781811015613730578281836040517ffb8f41b20000000000000000000000000000000000000000000000000000000081526004016137279392919061669e565b60405180910390fd5b61373f84848484036000614ada565b5b50505050565b600073ffffffffffffffffffffffffffffffffffffffff168373ffffffffffffffffffffffffffffffffffffffff16036137b85760006040517f96c6fd1e0000000000000000000000000000000000000000000000000000000081526004016137af9190615811565b60405180910390fd5b600073ffffffffffffffffffffffffffffffffffffffff168273ffffffffffffffffffffffffffffffffffffffff160361382a5760006040517fec442f050000000000000000000000000000000000000000000000000000000081526004016138219190615811565b60405180910390fd5b613835838383614f33565b505050565b613842612c7a565b73ffffffffffffffffffffffffffffffffffffffff166138606112df565b73ffffffffffffffffffffffffffffffffffffffff16146138bf57613883612c7a565b6040517f118cdaa70000000000000000000000000000000000000000000000000000000081526004016138b69190615811565b60405180910390fd5b565b60008060009054906101000a900473ffffffffffffffffffffffffffffffffffffffff169050816000806101000a81548173ffffffffffffffffffffffffffffffffffffffff021916908373ffffffffffffffffffffffffffffffffffffffff1602179055508173ffffffffffffffffffffffffffffffffffffffff168173ffffffffffffffffffffffffffffffffffffffff167f8be0079c531659141344cd1fd0a4f28419497f9722a3daafe3b4186f6b6457e060405160405180910390a35050565b6000806000808715613bc5576006600b9054906101000a900473ffffffffffffffffffffffffffffffffffffffff1673ffffffffffffffffffffffffffffffffffffffff1663f30583996040518163ffffffff1660e01b8152600401602060405180830381865afa1580156139fe573d6000803e3d6000fd5b505050506040513d601f19601f82011682018060405250810190613a2291906161c7565b90506006600b9054906101000a900473ffffffffffffffffffffffffffffffffffffffff1673ffffffffffffffffffffffffffffffffffffffff1663f30dba93600660009054906101000a900460020b6040518263ffffffff1660e01b8152600401613a8e9190615873565b61010060405180830381865afa158015613aac573d6000803e3d6000fd5b505050506040513d601f19601f82011682018060405250810190613ad09190616783565b909192939495965090919293949550909192935090919250909150905050809350506006600b9054906101000a900473ffffffffffffffffffffffffffffffffffffffff1673ffffffffffffffffffffffffffffffffffffffff1663f30dba93600660039054906101000a900460020b6040518263ffffffff1660e01b8152600401613b5c9190615873565b61010060405180830381865afa158015613b7a573d6000803e3d6000fd5b505050506040513d601f19601f82011682018060405250810190613b9e9190616783565b90919293949596509091929394955090919293509091925090915090505080925050613df7565b6006600b9054906101000a900473ffffffffffffffffffffffffffffffffffffffff1673ffffffffffffffffffffffffffffffffffffffff1663461413196040518163ffffffff1660e01b8152600401602060405180830381865afa158015613c32573d6000803e3d6000fd5b505050506040513d601f19601f82011682018060405250810190613c5691906161c7565b90506006600b9054906101000a900473ffffffffffffffffffffffffffffffffffffffff1673ffffffffffffffffffffffffffffffffffffffff1663f30dba93600660009054906101000a900460020b6040518263ffffffff1660e01b8152600401613cc29190615873565b61010060405180830381865afa158015613ce0573d6000803e3d6000fd5b505050506040513d601f19601f82011682018060405250810190613d049190616783565b90919293949596509091929394955090919293945090919250909150905050809350506006600b9054906101000a900473ffffffffffffffffffffffffffffffffffffffff1673ffffffffffffffffffffffffffffffffffffffff1663f30dba93600660039054906101000a900460020b6040518263ffffffff1660e01b8152600401613d919190615873565b61010060405180830381865afa158015613daf573d6000803e3d6000fd5b505050506040513d601f19601f82011682018060405250810190613dd39190616783565b90919293949596509091929394955090919293945090919250909150905050809250505b6000600660009054906101000a900460020b60020b8760020b12613e1d57839050613e23565b83820390505b6000600660039054906101000a900460020b60020b8860020b1215613e4a57839050613e50565b83830390505b600081838503039050613e89886fffffffffffffffffffffffffffffffff168b83037001000000000000000000000000000000006147ab565b9650505050505050949350505050565b6000806000600960169054906101000a900461ffff1661ffff16905060006127108287613ec691906161f4565b613ed09190616265565b905060006127108387613ee391906161f4565b613eed9190616265565b90508187613efb9190616076565b94508086613f099190616076565b93505050509250929050565b606461ffff168261ffff161115613f58576040517f9fc8785800000000000000000000000000000000000000000000000000000000815260040160405180910390fd5b6107d061ffff168161ffff161115613f9c576040517ff14508d000000000000000000000000000000000000000000000000000000000815260040160405180910390fd5b60068054906101000a900460ff1615613fb857613fb7614a6e565b5b81600960146101000a81548161ffff021916908361ffff16021790555080600960166101000a81548161ffff021916908361ffff1602179055507f2ac80c14c28700f7b5e36f947d572149fe2e3947bac32c3a8c098f3e03722c118282604051614023929190616839565b60405180910390a15050565b600080600080600061403f610914565b915091506000821480156140535750600081115b1561406a576140638689836147ab565b9250614151565b60008114801561407a5750600082115b156140915761408a8789846147ab565b9250614150565b6000821480156140a15750600081145b156140d8576040517ff912977700000000000000000000000000000000000000000000000000000000815260040160405180910390fd5b60006140e5888a856147ab565b905060006140f4888b856147ab565b905060008214806141055750600081145b1561413c576040517f215b990c00000000000000000000000000000000000000000000000000000000815260040160405180910390fd5b808210614149578061414b565b815b945050505b5b61415c83838a614981565b945061416983828a614981565b9350505093509350939050565b6000808373ffffffffffffffffffffffffffffffffffffffff168573ffffffffffffffffffffffffffffffffffffffff1611156141b857838580955081965050505b8473ffffffffffffffffffffffffffffffffffffffff168673ffffffffffffffffffffffffffffffffffffffff16116141fd576141f685858561515b565b915061425f565b8373ffffffffffffffffffffffffffffffffffffffff168673ffffffffffffffffffffffffffffffffffffffff1610156142505761423c86858561515b565b9150614249858785615221565b905061425e565b61425b858585615221565b90505b5b94509492505050565b6000806000806000600660009054906101000a900460020b90506000600660039054906101000a900460020b90506000600760009054906101000a900473ffffffffffffffffffffffffffffffffffffffff1673ffffffffffffffffffffffffffffffffffffffff166370a08231306040518263ffffffff1660e01b81526004016142f39190615811565b602060405180830381865afa158015614310573d6000803e3d6000fd5b505050506040513d601f19601f8201168201806040525081019061433491906161c7565b90506000600860009054906101000a900473ffffffffffffffffffffffffffffffffffffffff1673ffffffffffffffffffffffffffffffffffffffff166370a08231306040518263ffffffff1660e01b81526004016143939190615811565b602060405180830381865afa1580156143b0573d6000803e3d6000fd5b505050506040513d601f19601f820116820180604052508101906143d491906161c7565b90506006600b9054906101000a900473ffffffffffffffffffffffffffffffffffffffff1673ffffffffffffffffffffffffffffffffffffffff1663a34123a785858c6040518463ffffffff1660e01b815260040161443593929190616862565b60408051808303816000875af1158015614453573d6000803e3d6000fd5b505050506040513d601f19601f820116820180604052508101906144779190615f54565b80985081995050506006600b9054906101000a900473ffffffffffffffffffffffffffffffffffffffff1673ffffffffffffffffffffffffffffffffffffffff16634f1eb3d83086866fffffffffffffffffffffffffffffffff806040518663ffffffff1660e01b81526004016144f2959493929190616899565b60408051808303816000875af1158015614510573d6000803e3d6000fd5b505050506040513d601f19601f8201168201806040525081019061453491906168ec565b50508782600760009054906101000a900473ffffffffffffffffffffffffffffffffffffffff1673ffffffffffffffffffffffffffffffffffffffff166370a08231306040518263ffffffff1660e01b81526004016145939190615811565b602060405180830381865afa1580156145b0573d6000803e3d6000fd5b505050506040513d601f19601f820116820180604052508101906145d491906161c7565b6145de9190616076565b6145e89190616076565b95508681600860009054906101000a900473ffffffffffffffffffffffffffffffffffffffff1673ffffffffffffffffffffffffffffffffffffffff166370a08231306040518263ffffffff1660e01b81526004016146479190615811565b602060405180830381865afa158015614664573d6000803e3d6000fd5b505050506040513d601f19601f8201168201806040525081019061468891906161c7565b6146929190616076565b61469c9190616076565b9450505050509193509193565b6000600960169054906101000a900461ffff1661ffff16905061271081846146d191906161f4565b6146db9190616265565b600a60008282546146ec9190616151565b92505081905550612710818361470291906161f4565b61470c9190616265565b600b600082825461471d9190616151565b92505081905550505050565b600073ffffffffffffffffffffffffffffffffffffffff168273ffffffffffffffffffffffffffffffffffffffff160361479b5760006040517f96c6fd1e0000000000000000000000000000000000000000000000000000000081526004016147929190615811565b60405180910390fd5b6147a782600083614f33565b5050565b60008060008019858709858702925082811083820303915050600081036147e557600084116147d957600080fd5b8382049250505061487e565b8084116147f157600080fd5b60008486880990508281118203915080830392506000600186190186169050808604955080840493506001818260000304019050808302841793506000600287600302189050808702600203810290508087026002038102905080870260020381029050808702600203810290508087026002038102905080870260020381029050808502955050505050505b9392505050565b6000600960149054906101000a900461ffff1661ffff16905061271081846148ad91906161f4565b6148b79190616265565b600a60008282546148c89190616151565b9250508190555061271081836148de91906161f4565b6148e89190616265565b600b60008282546148f99190616151565b92505081905550505050565b6000806000600960149054906101000a900461ffff1661ffff1690506000612710828761493291906161f4565b61493c9190616265565b90506000612710838761494f91906161f4565b6149599190616265565b905081876149679190616076565b945080866149759190616076565b93505050509250929050565b600061498e8484846147ab565b9050600082806149a1576149a0616236565b5b84860911156149e5577fffffffffffffffffffffffffffffffffffffffffffffffffffffffffffffffff81106149d657600080fd5b80806149e190616352565b9150505b9392505050565b600073ffffffffffffffffffffffffffffffffffffffff168273ffffffffffffffffffffffffffffffffffffffff1603614a5e5760006040517fec442f05000000000000000000000000000000000000000000000000000000008152600401614a559190615811565b60405180910390fd5b614a6a60008383614f33565b5050565b600080614a7b6000614268565b935093505050614a8b82826146a9565b614a958282613e99565b80925081935050507fc28ad1de9c0c32e5394ba60323e44d8d9536312236a47231772e448a3e49de428282604051614ace929190615594565b60405180910390a15050565b600073ffffffffffffffffffffffffffffffffffffffff168473ffffffffffffffffffffffffffffffffffffffff1603614b4c5760006040517fe602df05000000000000000000000000000000000000000000000000000000008152600401614b439190615811565b60405180910390fd5b600073ffffffffffffffffffffffffffffffffffffffff168373ffffffffffffffffffffffffffffffffffffffff1603614bbe5760006040517f94280d62000000000000000000000000000000000000000000000000000000008152600401614bb59190615811565b60405180910390fd5b81600260008673ffffffffffffffffffffffffffffffffffffffff1673ffffffffffffffffffffffffffffffffffffffff16815260200190815260200160002060008573ffffffffffffffffffffffffffffffffffffffff1673ffffffffffffffffffffffffffffffffffffffff168152602001908152602001600020819055508015614cab578273ffffffffffffffffffffffffffffffffffffffff168473ffffffffffffffffffffffffffffffffffffffff167f8c5be1e5ebec7d5bd14f71427d1e84f3dd0314c0f7b2291e5b200ac8c7c3b92584604051614ca29190615348565b60405180910390a35b50505050565b60008273ffffffffffffffffffffffffffffffffffffffff168473ffffffffffffffffffffffffffffffffffffffff161115614cf257828480945081955050505b6000614d388573ffffffffffffffffffffffffffffffffffffffff168573ffffffffffffffffffffffffffffffffffffffff166c010000000000000000000000006147ab565b9050614d6e614d6984838888614d4e919061692c565b73ffffffffffffffffffffffffffffffffffffffff166147ab565b6152b6565b9150509392505050565b60008273ffffffffffffffffffffffffffffffffffffffff168473ffffffffffffffffffffffffffffffffffffffff161115614db957828480945081955050505b614dfa614df5836c010000000000000000000000008787614dda919061692c565b73ffffffffffffffffffffffffffffffffffffffff166147ab565b6152b6565b90509392505050565b7ffffffffffffffffffffffffffffffffffffffffffffffffffffffffffff2761860020b8260020b1280614e6557507ffffffffffffffffffffffffffffffffffffffffffffffffffffffffffff27618614e5c90616590565b60020b8160020b135b15614e9c576040517f4ded8e7400000000000000000000000000000000000000000000000000000000815260040160405180910390fd5b8060020b8260020b121580614ecf57506000600660089054906101000a900460020b83614ec99190616974565b60020b14155b80614ef857506000600660089054906101000a900460020b82614ef29190616974565b60020b14155b15614f2f576040517f7302721600000000000000000000000000000000000000000000000000000000815260040160405180910390fd5b5050565b600073ffffffffffffffffffffffffffffffffffffffff168373ffffffffffffffffffffffffffffffffffffffff1603614f85578060036000828254614f799190616151565b9250508190555061505a565b6000600160008573ffffffffffffffffffffffffffffffffffffffff1673ffffffffffffffffffffffffffffffffffffffff16815260200190815260200160002054905081811015615012578381836040517fe450d38c0000000000000000000000000000000000000000000000000000000081526004016150099392919061669e565b60405180910390fd5b818103600160008673ffffffffffffffffffffffffffffffffffffffff1673ffffffffffffffffffffffffffffffffffffffff16815260200190815260200160002081905550505b600073ffffffffffffffffffffffffffffffffffffffff168273ffffffffffffffffffffffffffffffffffffffff16036150a357806003600082825403925050819055506150f1565b80600160008473ffffffffffffffffffffffffffffffffffffffff1673ffffffffffffffffffffffffffffffffffffffff168152602001908152602001600020600082825401925050819055505b8173ffffffffffffffffffffffffffffffffffffffff168373ffffffffffffffffffffffffffffffffffffffff167fddf252ad1be2c89b69c2b068fc378daa952ba7f163c4a11628f55a4df523b3ef8360405161514e9190615348565b60405180910390a3505050565b60008273ffffffffffffffffffffffffffffffffffffffff168473ffffffffffffffffffffffffffffffffffffffff16111561519c57828480945081955050505b8373ffffffffffffffffffffffffffffffffffffffff1661520e606060ff16846fffffffffffffffffffffffffffffffff16901b86866151dc919061692c565b73ffffffffffffffffffffffffffffffffffffffff168673ffffffffffffffffffffffffffffffffffffffff166147ab565b6152189190616265565b90509392505050565b60008273ffffffffffffffffffffffffffffffffffffffff168473ffffffffffffffffffffffffffffffffffffffff16111561526257828480945081955050505b6152ad826fffffffffffffffffffffffffffffffff168585615284919061692c565b73ffffffffffffffffffffffffffffffffffffffff166c010000000000000000000000006147ab565b90509392505050565b600081829150816fffffffffffffffffffffffffffffffff16146152d957600080fd5b919050565b604051806040016040528060008152602001600081525090565b6040518060600160405280600073ffffffffffffffffffffffffffffffffffffffff16815260200160008152602001600081525090565b6000819050919050565b6153428161532f565b82525050565b600060208201905061535d6000830184615339565b92915050565b600081519050919050565b600082825260208201905092915050565b60005b8381101561539d578082015181840152602081019050615382565b60008484015250505050565b6000601f19601f8301169050919050565b60006153c582615363565b6153cf818561536e565b93506153df81856020860161537f565b6153e8816153a9565b840191505092915050565b6000602082019050818103600083015261540d81846153ba565b905092915050565b600080fd5b600073ffffffffffffffffffffffffffffffffffffffff82169050919050565b60006154458261541a565b9050919050565b6154558161543a565b811461546057600080fd5b50565b6000813590506154728161544c565b92915050565b6154818161532f565b811461548c57600080fd5b50565b60008135905061549e81615478565b92915050565b600080604083850312156154bb576154ba615415565b5b60006154c985828601615463565b92505060206154da8582860161548f565b9150509250929050565b60008115159050919050565b6154f9816154e4565b82525050565b600060208201905061551460008301846154f0565b92915050565b6000819050919050565b600061553f61553a6155358461541a565b61551a565b61541a565b9050919050565b600061555182615524565b9050919050565b600061556382615546565b9050919050565b61557381615558565b82525050565b600060208201905061558e600083018461556a565b92915050565b60006040820190506155a96000830185615339565b6155b66020830184615339565b9392505050565b60008160020b9050919050565b6155d3816155bd565b81146155de57600080fd5b50565b6000813590506155f0816155ca565b92915050565b600080fd5b600081905082602060020282011115615617576156166155f6565b5b92915050565b600080600080600080610100878903121561563b5761563a615415565b5b600061564989828a016155e1565b965050602061565a89828a016155e1565b955050604061566b89828a0161548f565b945050606061567c89828a0161548f565b935050608061568d89828a016155fb565b92505060c061569e89828a016155fb565b9150509295509295509295565b60006156b682615546565b9050919050565b6156c6816156ab565b82525050565b60006020820190506156e160008301846156bd565b92915050565b600080600060608486031215615700576156ff615415565b5b600061570e86828701615463565b935050602061571f86828701615463565b92505060406157308682870161548f565b9150509250925092565b6000602082840312156157505761574f615415565b5b600061575e84828501615463565b91505092915050565b600060608201905061577c60008301866154f0565b6157896020830185615339565b6157966040830184615339565b949350505050565b600060ff82169050919050565b6157b48161579e565b82525050565b60006020820190506157cf60008301846157ab565b92915050565b6000602082840312156157eb576157ea615415565b5b60006157f98482850161548f565b91505092915050565b61580b8161543a565b82525050565b60006020820190506158266000830184615802565b92915050565b600061ffff82169050919050565b6158438161582c565b82525050565b600060208201905061585e600083018461583a565b92915050565b61586d816155bd565b82525050565b60006020820190506158886000830184615864565b92915050565b6000806000606084860312156158a7576158a6615415565b5b60006158b586828701615463565b93505060206158c6868287016155e1565b92505060406158d786828701615463565b9150509250925092565b600080604083850312156158f8576158f7615415565b5b60006159068582860161548f565b92505060206159178582860161548f565b9150509250929050565b60006060820190506159366000830186615339565b6159436020830185615339565b6159506040830184615339565b949350505050565b60006040828403121561596e5761596d615415565b5b600061597c848285016155fb565b91505092915050565b6000806060838503121561599c5761599b615415565b5b60006159aa8582860161548f565b92505060206159bb858286016155fb565b9150509250929050565b600081519050919050565b600082825260208201905092915050565b6000819050602082019050919050565b6159fa8161543a565b82525050565b615a098161532f565b82525050565b606082016000820151615a2560008501826159f1565b506020820151615a386020850182615a00565b506040820151615a4b6040850182615a00565b50505050565b6000615a5d8383615a0f565b60608301905092915050565b6000602082019050919050565b6000615a81826159c5565b615a8b81856159d0565b9350615a96836159e1565b8060005b83811015615ac7578151615aae8882615a51565b9750615ab983615a69565b925050600181019050615a9a565b5085935050505092915050565b60006020820190508181036000830152615aee8184615a76565b905092915050565b60008060408385031215615b0d57615b0c615415565b5b6000615b1b85828601615463565b9250506020615b2c85828601615463565b9150509250929050565b6000819050919050565b615b4981615b36565b82525050565b6000602082019050615b646000830184615b40565b92915050565b615b73816154e4565b8114615b7e57600080fd5b50565b600081359050615b9081615b6a565b92915050565b6000819050919050565b615ba981615b96565b8114615bb457600080fd5b50565b600081359050615bc681615ba0565b92915050565b615bd58161541a565b8114615be057600080fd5b50565b600081359050615bf281615bcc565b92915050565b60008060008060808587031215615c1257615c11615415565b5b6000615c2087828801615b81565b9450506020615c3187828801615bb7565b9350506040615c4287828801615be3565b9250506060615c538782880161548f565b91505092959194509250565b615c6881615b96565b82525050565b6000604082019050615c836000830185615c5f565b615c906020830184615c5f565b9392505050565b615ca08161582c565b8114615cab57600080fd5b50565b600081359050615cbd81615c97565b92915050565b60008060408385031215615cda57615cd9615415565b5b6000615ce885828601615cae565b9250506020615cf985828601615cae565b9150509250929050565b7f4e487b7100000000000000000000000000000000000000000000000000000000600052602260045260246000fd5b60006002820490506001821680615d4a57607f821691505b602082108103615d5d57615d5c615d03565b5b50919050565b600081519050615d7281615bcc565b92915050565b600081519050615d87816155ca565b92915050565b600081519050615d9c81615c97565b92915050565b615dab8161579e565b8114615db657600080fd5b50565b600081519050615dc881615da2565b92915050565b600081519050615ddd81615b6a565b92915050565b600080600080600080600060e0888a031215615e0257615e01615415565b5b6000615e108a828b01615d63565b9750506020615e218a828b01615d78565b9650506040615e328a828b01615d8d565b9550506060615e438a828b01615d8d565b9450506080615e548a828b01615d8d565b93505060a0615e658a828b01615db9565b92505060c0615e768a828b01615dce565b91505092959891949750929550565b60006fffffffffffffffffffffffffffffffff82169050919050565b615eaa81615e85565b82525050565b600082825260208201905092915050565b50565b6000615ed1600083615eb0565b9150615edc82615ec1565b600082019050919050565b600060a082019050615efc6000830187615802565b615f096020830186615864565b615f166040830185615864565b615f236060830184615ea1565b8181036080830152615f3481615ec4565b905095945050505050565b600081519050615f4e81615478565b92915050565b60008060408385031215615f6b57615f6a615415565b5b6000615f7985828601615f3f565b9250506020615f8a85828601615f3f565b9150509250929050565b7f4e487b7100000000000000000000000000000000000000000000000000000000600052603260045260246000fd5b6000615fde615fd9615fd484615e85565b61551a565b61532f565b9050919050565b615fee81615fc3565b82525050565b600060a0820190506160096000830188615fe5565b6160166020830187615864565b6160236040830186615864565b6160306060830185615339565b61603d6080830184615339565b9695505050505050565b7f4e487b7100000000000000000000000000000000000000000000000000000000600052601160045260246000fd5b60006160818261532f565b915061608c8361532f565b92508282039050818111156160a4576160a3616047565b5b92915050565b6160b381615e85565b81146160be57600080fd5b50565b6000815190506160d0816160aa565b92915050565b600080600080600060a086880312156160f2576160f1615415565b5b6000616100888289016160c1565b955050602061611188828901615f3f565b945050604061612288828901615f3f565b9350506060616133888289016160c1565b9250506080616144888289016160c1565b9150509295509295909350565b600061615c8261532f565b91506161678361532f565b925082820190508082111561617f5761617e616047565b5b92915050565b6000815190506161948161544c565b92915050565b6000602082840312156161b0576161af615415565b5b60006161be84828501616185565b91505092915050565b6000602082840312156161dd576161dc615415565b5b60006161eb84828501615f3f565b91505092915050565b60006161ff8261532f565b915061620a8361532f565b92508282026162188161532f565b9150828204841483151761622f5761622e616047565b5b5092915050565b7f4e487b7100000000000000000000000000000000000000000000000000000000600052601260045260246000fd5b60006162708261532f565b915061627b8361532f565b92508261628b5761628a616236565b5b828204905092915050565b60006040820190506162ab6000830185615802565b6162b86020830184615339565b9392505050565b6000602082840312156162d5576162d4615415565b5b60006162e384828501615dce565b91505092915050565b60006060820190506163016000830186615802565b61630e6020830185615802565b61631b6040830184615339565b949350505050565b7f4e487b7100000000000000000000000000000000000000000000000000000000600052604160045260246000fd5b600061635d8261532f565b91507fffffffffffffffffffffffffffffffffffffffffffffffffffffffffffffffff820361638f5761638e616047565b5b600182019050919050565b60008160601b9050919050565b60006163b28261639a565b9050919050565b60006163c4826163a7565b9050919050565b6163dc6163d78261543a565b6163b9565b82525050565b60008160e81b9050919050565b60006163fa826163e2565b9050919050565b61641261640d826155bd565b6163ef565b82525050565b600061642482866163cb565b6014820191506164348285616401565b6003820191506164448284616401565b600382019150819050949350505050565b61645e8161541a565b82525050565b600060a0820190506164796000830187615802565b61648660208301866154f0565b6164936040830185615c5f565b6164a06060830184616455565b81810360808301526164b181615ec4565b905095945050505050565b6000815190506164cb81615ba0565b92915050565b600080604083850312156164e8576164e7615415565b5b60006164f6858286016164bc565b9250506020616507858286016164bc565b9150509250929050565b600061651c82615b96565b91507f8000000000000000000000000000000000000000000000000000000000000000820361654e5761654d616047565b5b816000039050919050565b600060608201905061656e60008301866154f0565b61657b6020830185615c5f565b6165886040830184615c5f565b949350505050565b600061659b826155bd565b91507fffffffffffffffffffffffffffffffffffffffffffffffffffffffffff80000082036165cd576165cc616047565b5b816000039050919050565b7f5400000000000000000000000000000000000000000000000000000000000000600082015250565b600061660e60018361536e565b9150616619826165d8565b602082019050919050565b6000602082019050818103600083015261663d81616601565b9050919050565b600061664f8261532f565b915061665a8361532f565b92508261666a57616669616236565b5b828206905092915050565b600060408201905061668a6000830185615864565b6166976020830184615864565b9392505050565b60006060820190506166b36000830186615802565b6166c06020830185615339565b6166cd6040830184615339565b949350505050565b600081600f0b9050919050565b6166eb816166d5565b81146166f657600080fd5b50565b600081519050616708816166e2565b92915050565b60008160060b9050919050565b6167248161670e565b811461672f57600080fd5b50565b6000815190506167418161671b565b92915050565b600063ffffffff82169050919050565b61676081616747565b811461676b57600080fd5b50565b60008151905061677d81616757565b92915050565b600080600080600080600080610100898b0312156167a4576167a3615415565b5b60006167b28b828c016160c1565b98505060206167c38b828c016166f9565b97505060406167d48b828c01615f3f565b96505060606167e58b828c01615f3f565b95505060806167f68b828c01616732565b94505060a06168078b828c01615d63565b93505060c06168188b828c0161676e565b92505060e06168298b828c01615dce565b9150509295985092959890939650565b600060408201905061684e600083018561583a565b61685b602083018461583a565b9392505050565b60006060820190506168776000830186615864565b6168846020830185615864565b6168916040830184615ea1565b949350505050565b600060a0820190506168ae6000830188615802565b6168bb6020830187615864565b6168c86040830186615864565b6168d56060830185615ea1565b6168e26080830184615ea1565b9695505050505050565b6000806040838503121561690357616902615415565b5b6000616911858286016160c1565b9250506020616922858286016160c1565b9150509250929050565b60006169378261541a565b91506169428361541a565b9250828203905073ffffffffffffffffffffffffffffffffffffffff81111561696e5761696d616047565b5b92915050565b600061697f826155bd565b915061698a836155bd565b92508261699a57616999616236565b5b82820790509291505056fea264697066735822122082f6de2d5f4da5e6e12ad8a054a420d88a25eeec21dd41eff422478f3e2cbdcf64736f6c63430008140033","opcodes":"PUSH1 0x80 PUSH1 0x40 MSTORE CALLVALUE DUP1 ISZERO PUSH3 0x11 JUMPI PUSH1 0x0 DUP1 REVERT JUMPDEST POP PUSH1 0x40 MLOAD PUSH3 0x714A CODESIZE SUB DUP1 PUSH3 0x714A DUP4 CODECOPY DUP2 DUP2 ADD PUSH1 0x40 MSTORE DUP2 ADD SWAP1 PUSH3 0x37 SWAP2 SWAP1 PUSH3 0x346 JUMP JUMPDEST DUP2 DUP2 CALLER PUSH1 0x0 PUSH20 0xFFFFFFFFFFFFFFFFFFFFFFFFFFFFFFFFFFFFFFFF AND DUP2 PUSH20 0xFFFFFFFFFFFFFFFFFFFFFFFFFFFFFFFFFFFFFFFF AND SUB PUSH3 0xAF JUMPI PUSH1 0x0 PUSH1 0x40 MLOAD PUSH32 0x1E4FBDF700000000000000000000000000000000000000000000000000000000 DUP2 MSTORE PUSH1 0x4 ADD PUSH3 0xA6 SWAP2 SWAP1 PUSH3 0x410 JUMP JUMPDEST PUSH1 0x40 MLOAD DUP1 SWAP2 SUB SWAP1 REVERT JUMPDEST PUSH3 0xC0 DUP2 PUSH3 0xEF PUSH1 0x20 SHL PUSH1 0x20 SHR JUMP JUMPDEST POP DUP2 PUSH1 0x4 SWAP1 DUP2 PUSH3 0xD2 SWAP2 SWAP1 PUSH3 0x678 JUMP JUMPDEST POP DUP1 PUSH1 0x5 SWAP1 DUP2 PUSH3 0xE4 SWAP2 SWAP1 PUSH3 0x678 JUMP JUMPDEST POP POP POP POP POP PUSH3 0x75F JUMP JUMPDEST PUSH1 0x0 DUP1 PUSH1 0x0 SWAP1 SLOAD SWAP1 PUSH2 0x100 EXP SWAP1 DIV PUSH20 0xFFFFFFFFFFFFFFFFFFFFFFFFFFFFFFFFFFFFFFFF AND SWAP1 POP DUP2 PUSH1 0x0 DUP1 PUSH2 0x100 EXP DUP2 SLOAD DUP2 PUSH20 0xFFFFFFFFFFFFFFFFFFFFFFFFFFFFFFFFFFFFFFFF MUL NOT AND SWAP1 DUP4 PUSH20 0xFFFFFFFFFFFFFFFFFFFFFFFFFFFFFFFFFFFFFFFF AND MUL OR SWAP1 SSTORE POP DUP2 PUSH20 0xFFFFFFFFFFFFFFFFFFFFFFFFFFFFFFFFFFFFFFFF AND DUP2 PUSH20 0xFFFFFFFFFFFFFFFFFFFFFFFFFFFFFFFFFFFFFFFF AND PUSH32 0x8BE0079C531659141344CD1FD0A4F28419497F9722A3DAAFE3B4186F6B6457E0 PUSH1 0x40 MLOAD PUSH1 0x40 MLOAD DUP1 SWAP2 SUB SWAP1 LOG3 POP POP JUMP JUMPDEST PUSH1 0x0 PUSH1 0x40 MLOAD SWAP1 POP SWAP1 JUMP JUMPDEST PUSH1 0x0 DUP1 REVERT JUMPDEST PUSH1 0x0 DUP1 REVERT JUMPDEST PUSH1 0x0 DUP1 REVERT JUMPDEST PUSH1 0x0 DUP1 REVERT JUMPDEST PUSH1 0x0 PUSH1 0x1F NOT PUSH1 0x1F DUP4 ADD AND SWAP1 POP SWAP2 SWAP1 POP JUMP JUMPDEST PUSH32 0x4E487B7100000000000000000000000000000000000000000000000000000000 PUSH1 0x0 MSTORE PUSH1 0x41 PUSH1 0x4 MSTORE PUSH1 0x24 PUSH1 0x0 REVERT JUMPDEST PUSH3 0x21C DUP3 PUSH3 0x1D1 JUMP JUMPDEST DUP2 ADD DUP2 DUP2 LT PUSH8 0xFFFFFFFFFFFFFFFF DUP3 GT OR ISZERO PUSH3 0x23E JUMPI PUSH3 0x23D PUSH3 0x1E2 JUMP JUMPDEST JUMPDEST DUP1 PUSH1 0x40 MSTORE POP POP POP JUMP JUMPDEST PUSH1 0x0 PUSH3 0x253 PUSH3 0x1B3 JUMP JUMPDEST SWAP1 POP PUSH3 0x261 DUP3 DUP3 PUSH3 0x211 JUMP JUMPDEST SWAP2 SWAP1 POP JUMP JUMPDEST PUSH1 0x0 PUSH8 0xFFFFFFFFFFFFFFFF DUP3 GT ISZERO PUSH3 0x284 JUMPI PUSH3 0x283 PUSH3 0x1E2 JUMP JUMPDEST JUMPDEST PUSH3 0x28F DUP3 PUSH3 0x1D1 JUMP JUMPDEST SWAP1 POP PUSH1 0x20 DUP2 ADD SWAP1 POP SWAP2 SWAP1 POP JUMP JUMPDEST PUSH1 0x0 JUMPDEST DUP4 DUP2 LT ISZERO PUSH3 0x2BC JUMPI DUP1 DUP3 ADD MLOAD DUP2 DUP5 ADD MSTORE PUSH1 0x20 DUP2 ADD SWAP1 POP PUSH3 0x29F JUMP JUMPDEST PUSH1 0x0 DUP5 DUP5 ADD MSTORE POP POP POP POP JUMP JUMPDEST PUSH1 0x0 PUSH3 0x2DF PUSH3 0x2D9 DUP5 PUSH3 0x266 JUMP JUMPDEST PUSH3 0x247 JUMP JUMPDEST SWAP1 POP DUP3 DUP2 MSTORE PUSH1 0x20 DUP2 ADD DUP5 DUP5 DUP5 ADD GT ISZERO PUSH3 0x2FE JUMPI PUSH3 0x2FD PUSH3 0x1CC JUMP JUMPDEST JUMPDEST PUSH3 0x30B DUP5 DUP3 DUP6 PUSH3 0x29C JUMP JUMPDEST POP SWAP4 SWAP3 POP POP POP JUMP JUMPDEST PUSH1 0x0 DUP3 PUSH1 0x1F DUP4 ADD SLT PUSH3 0x32B JUMPI PUSH3 0x32A PUSH3 0x1C7 JUMP JUMPDEST JUMPDEST DUP2 MLOAD PUSH3 0x33D DUP5 DUP3 PUSH1 0x20 DUP7 ADD PUSH3 0x2C8 JUMP JUMPDEST SWAP2 POP POP SWAP3 SWAP2 POP POP JUMP JUMPDEST PUSH1 0x0 DUP1 PUSH1 0x40 DUP4 DUP6 SUB SLT ISZERO PUSH3 0x360 JUMPI PUSH3 0x35F PUSH3 0x1BD JUMP JUMPDEST JUMPDEST PUSH1 0x0 DUP4 ADD MLOAD PUSH8 0xFFFFFFFFFFFFFFFF DUP2 GT ISZERO PUSH3 0x381 JUMPI PUSH3 0x380 PUSH3 0x1C2 JUMP JUMPDEST JUMPDEST PUSH3 0x38F DUP6 DUP3 DUP7 ADD PUSH3 0x313 JUMP JUMPDEST SWAP3 POP POP PUSH1 0x20 DUP4 ADD MLOAD PUSH8 0xFFFFFFFFFFFFFFFF DUP2 GT ISZERO PUSH3 0x3B3 JUMPI PUSH3 0x3B2 PUSH3 0x1C2 JUMP JUMPDEST JUMPDEST PUSH3 0x3C1 DUP6 DUP3 DUP7 ADD PUSH3 0x313 JUMP JUMPDEST SWAP2 POP POP SWAP3 POP SWAP3 SWAP1 POP JUMP JUMPDEST PUSH1 0x0 PUSH20 0xFFFFFFFFFFFFFFFFFFFFFFFFFFFFFFFFFFFFFFFF DUP3 AND SWAP1 POP SWAP2 SWAP1 POP JUMP JUMPDEST PUSH1 0x0 PUSH3 0x3F8 DUP3 PUSH3 0x3CB JUMP JUMPDEST SWAP1 POP SWAP2 SWAP1 POP JUMP JUMPDEST PUSH3 0x40A DUP2 PUSH3 0x3EB JUMP JUMPDEST DUP3 MSTORE POP POP JUMP JUMPDEST PUSH1 0x0 PUSH1 0x20 DUP3 ADD SWAP1 POP PUSH3 0x427 PUSH1 0x0 DUP4 ADD DUP5 PUSH3 0x3FF JUMP JUMPDEST SWAP3 SWAP2 POP POP JUMP JUMPDEST PUSH1 0x0 DUP2 MLOAD SWAP1 POP SWAP2 SWAP1 POP JUMP JUMPDEST PUSH32 0x4E487B7100000000000000000000000000000000000000000000000000000000 PUSH1 0x0 MSTORE PUSH1 0x22 PUSH1 0x4 MSTORE PUSH1 0x24 PUSH1 0x0 REVERT JUMPDEST PUSH1 0x0 PUSH1 0x2 DUP3 DIV SWAP1 POP PUSH1 0x1 DUP3 AND DUP1 PUSH3 0x480 JUMPI PUSH1 0x7F DUP3 AND SWAP2 POP JUMPDEST PUSH1 0x20 DUP3 LT DUP2 SUB PUSH3 0x496 JUMPI PUSH3 0x495 PUSH3 0x438 JUMP JUMPDEST JUMPDEST POP SWAP2 SWAP1 POP JUMP JUMPDEST PUSH1 0x0 DUP2 SWAP1 POP DUP2 PUSH1 0x0 MSTORE PUSH1 0x20 PUSH1 0x0 KECCAK256 SWAP1 POP SWAP2 SWAP1 POP JUMP JUMPDEST PUSH1 0x0 PUSH1 0x20 PUSH1 0x1F DUP4 ADD DIV SWAP1 POP SWAP2 SWAP1 POP JUMP JUMPDEST PUSH1 0x0 DUP3 DUP3 SHL SWAP1 POP SWAP3 SWAP2 POP POP JUMP JUMPDEST PUSH1 0x0 PUSH1 0x8 DUP4 MUL PUSH3 0x500 PUSH32 0xFFFFFFFFFFFFFFFFFFFFFFFFFFFFFFFFFFFFFFFFFFFFFFFFFFFFFFFFFFFFFFFF DUP3 PUSH3 0x4C1 JUMP JUMPDEST PUSH3 0x50C DUP7 DUP4 PUSH3 0x4C1 JUMP JUMPDEST SWAP6 POP DUP1 NOT DUP5 AND SWAP4 POP DUP1 DUP7 AND DUP5 OR SWAP3 POP POP POP SWAP4 SWAP3 POP POP POP JUMP JUMPDEST PUSH1 0x0 DUP2 SWAP1 POP SWAP2 SWAP1 POP JUMP JUMPDEST PUSH1 0x0 DUP2 SWAP1 POP SWAP2 SWAP1 POP JUMP JUMPDEST PUSH1 0x0 PUSH3 0x559 PUSH3 0x553 PUSH3 0x54D DUP5 PUSH3 0x524 JUMP JUMPDEST PUSH3 0x52E JUMP JUMPDEST PUSH3 0x524 JUMP JUMPDEST SWAP1 POP SWAP2 SWAP1 POP JUMP JUMPDEST PUSH1 0x0 DUP2 SWAP1 POP SWAP2 SWAP1 POP JUMP JUMPDEST PUSH3 0x575 DUP4 PUSH3 0x538 JUMP JUMPDEST PUSH3 0x58D PUSH3 0x584 DUP3 PUSH3 0x560 JUMP JUMPDEST DUP5 DUP5 SLOAD PUSH3 0x4CE JUMP JUMPDEST DUP3 SSTORE POP POP POP POP JUMP JUMPDEST PUSH1 0x0 SWAP1 JUMP JUMPDEST PUSH3 0x5A4 PUSH3 0x595 JUMP JUMPDEST PUSH3 0x5B1 DUP2 DUP5 DUP5 PUSH3 0x56A JUMP JUMPDEST POP POP POP JUMP JUMPDEST JUMPDEST DUP2 DUP2 LT ISZERO PUSH3 0x5D9 JUMPI PUSH3 0x5CD PUSH1 0x0 DUP3 PUSH3 0x59A JUMP JUMPDEST PUSH1 0x1 DUP2 ADD SWAP1 POP PUSH3 0x5B7 JUMP JUMPDEST POP POP JUMP JUMPDEST PUSH1 0x1F DUP3 GT ISZERO PUSH3 0x628 JUMPI PUSH3 0x5F2 DUP2 PUSH3 0x49C JUMP JUMPDEST PUSH3 0x5FD DUP5 PUSH3 0x4B1 JUMP JUMPDEST DUP2 ADD PUSH1 0x20 DUP6 LT ISZERO PUSH3 0x60D JUMPI DUP2 SWAP1 POP JUMPDEST PUSH3 0x625 PUSH3 0x61C DUP6 PUSH3 0x4B1 JUMP JUMPDEST DUP4 ADD DUP3 PUSH3 0x5B6 JUMP JUMPDEST POP POP JUMPDEST POP POP POP JUMP JUMPDEST PUSH1 0x0 DUP3 DUP3 SHR SWAP1 POP SWAP3 SWAP2 POP POP JUMP JUMPDEST PUSH1 0x0 PUSH3 0x64D PUSH1 0x0 NOT DUP5 PUSH1 0x8 MUL PUSH3 0x62D JUMP JUMPDEST NOT DUP1 DUP4 AND SWAP2 POP POP SWAP3 SWAP2 POP POP JUMP JUMPDEST PUSH1 0x0 PUSH3 0x668 DUP4 DUP4 PUSH3 0x63A JUMP JUMPDEST SWAP2 POP DUP3 PUSH1 0x2 MUL DUP3 OR SWAP1 POP SWAP3 SWAP2 POP POP JUMP JUMPDEST PUSH3 0x683 DUP3 PUSH3 0x42D JUMP JUMPDEST PUSH8 0xFFFFFFFFFFFFFFFF DUP2 GT ISZERO PUSH3 0x69F JUMPI PUSH3 0x69E PUSH3 0x1E2 JUMP JUMPDEST JUMPDEST PUSH3 0x6AB DUP3 SLOAD PUSH3 0x467 JUMP JUMPDEST PUSH3 0x6B8 DUP3 DUP3 DUP6 PUSH3 0x5DD JUMP JUMPDEST PUSH1 0x0 PUSH1 0x20 SWAP1 POP PUSH1 0x1F DUP4 GT PUSH1 0x1 DUP2 EQ PUSH3 0x6F0 JUMPI PUSH1 0x0 DUP5 ISZERO PUSH3 0x6DB JUMPI DUP3 DUP8 ADD MLOAD SWAP1 POP JUMPDEST PUSH3 0x6E7 DUP6 DUP3 PUSH3 0x65A JUMP JUMPDEST DUP7 SSTORE POP PUSH3 0x757 JUMP JUMPDEST PUSH1 0x1F NOT DUP5 AND PUSH3 0x700 DUP7 PUSH3 0x49C JUMP JUMPDEST PUSH1 0x0 JUMPDEST DUP3 DUP2 LT ISZERO PUSH3 0x72A JUMPI DUP5 DUP10 ADD MLOAD DUP3 SSTORE PUSH1 0x1 DUP3 ADD SWAP2 POP PUSH1 0x20 DUP6 ADD SWAP5 POP PUSH1 0x20 DUP2 ADD SWAP1 POP PUSH3 0x703 JUMP JUMPDEST DUP7 DUP4 LT ISZERO PUSH3 0x74A JUMPI DUP5 DUP10 ADD MLOAD PUSH3 0x746 PUSH1 0x1F DUP10 AND DUP3 PUSH3 0x63A JUMP JUMPDEST DUP4 SSTORE POP JUMPDEST PUSH1 0x1 PUSH1 0x2 DUP9 MUL ADD DUP9 SSTORE POP POP POP JUMPDEST POP POP POP POP POP POP JUMP JUMPDEST PUSH2 0x69DB DUP1 PUSH3 0x76F PUSH1 0x0 CODECOPY PUSH1 0x0 RETURN INVALID PUSH1 0x80 PUSH1 0x40 MSTORE CALLVALUE DUP1 ISZERO PUSH2 0x10 JUMPI PUSH1 0x0 DUP1 REVERT JUMPDEST POP PUSH1 0x4 CALLDATASIZE LT PUSH2 0x25E JUMPI PUSH1 0x0 CALLDATALOAD PUSH1 0xE0 SHR DUP1 PUSH4 0x87788782 GT PUSH2 0x146 JUMPI DUP1 PUSH4 0xC45A0155 GT PUSH2 0xC3 JUMPI DUP1 PUSH4 0xDD62ED3E GT PUSH2 0x87 JUMPI DUP1 PUSH4 0xDD62ED3E EQ PUSH2 0x73E JUMPI DUP1 PUSH4 0xDF28408A EQ PUSH2 0x76E JUMPI DUP1 PUSH4 0xE059C660 EQ PUSH2 0x78C JUMPI DUP1 PUSH4 0xF173C7F5 EQ PUSH2 0x7BD JUMPI DUP1 PUSH4 0xF2FDE38B EQ PUSH2 0x7EE JUMPI DUP1 PUSH4 0xF3D2350E EQ PUSH2 0x80A JUMPI PUSH2 0x25E JUMP JUMPDEST DUP1 PUSH4 0xC45A0155 EQ PUSH2 0x6AA JUMPI DUP1 PUSH4 0xC653089F EQ PUSH2 0x6C8 JUMPI DUP1 PUSH4 0xD0C93A7C EQ PUSH2 0x6F8 JUMPI DUP1 PUSH4 0xD21220A7 EQ PUSH2 0x716 JUMPI DUP1 PUSH4 0xD7E458B5 EQ PUSH2 0x734 JUMPI PUSH2 0x25E JUMP JUMPDEST DUP1 PUSH4 0x9CD643CC GT PUSH2 0x10A JUMPI DUP1 PUSH4 0x9CD643CC EQ PUSH2 0x5DE JUMPI DUP1 PUSH4 0x9D6933AE EQ PUSH2 0x5FA JUMPI DUP1 PUSH4 0xA9059CBB EQ PUSH2 0x62B JUMPI DUP1 PUSH4 0xA9722CF3 EQ PUSH2 0x65B JUMPI DUP1 PUSH4 0xB341EE9F EQ PUSH2 0x679 JUMPI PUSH2 0x25E JUMP JUMPDEST DUP1 PUSH4 0x87788782 EQ PUSH2 0x534 JUMPI DUP1 PUSH4 0x8DA5CB5B EQ PUSH2 0x552 JUMPI DUP1 PUSH4 0x95D89B41 EQ PUSH2 0x570 JUMPI DUP1 PUSH4 0x9894F21A EQ PUSH2 0x58E JUMPI DUP1 PUSH4 0x9B1344AC EQ PUSH2 0x5C0 JUMPI PUSH2 0x25E JUMP JUMPDEST DUP1 PUSH4 0x2958D031 GT PUSH2 0x1DF JUMPI DUP1 PUSH4 0x601B48A4 GT PUSH2 0x1A3 JUMPI DUP1 PUSH4 0x601B48A4 EQ PUSH2 0x483 JUMPI DUP1 PUSH4 0x70A08231 EQ PUSH2 0x4A1 JUMPI DUP1 PUSH4 0x715018A6 EQ PUSH2 0x4D1 JUMPI DUP1 PUSH4 0x71908A03 EQ PUSH2 0x4DB JUMPI DUP1 PUSH4 0x727DD228 EQ PUSH2 0x4FA JUMPI DUP1 PUSH4 0x816EC2EA EQ PUSH2 0x518 JUMPI PUSH2 0x25E JUMP JUMPDEST DUP1 PUSH4 0x2958D031 EQ PUSH2 0x3C7 JUMPI DUP1 PUSH4 0x313CE567 EQ PUSH2 0x3F9 JUMPI DUP1 PUSH4 0x365B98B2 EQ PUSH2 0x417 JUMPI DUP1 PUSH4 0x4043F5CA EQ PUSH2 0x447 JUMPI DUP1 PUSH4 0x42FB9D44 EQ PUSH2 0x465 JUMPI PUSH2 0x25E JUMP JUMPDEST DUP1 PUSH4 0x1322D954 GT PUSH2 0x226 JUMPI DUP1 PUSH4 0x1322D954 EQ PUSH2 0x30B JUMPI DUP1 PUSH4 0x14A2AFB2 EQ PUSH2 0x32A JUMPI DUP1 PUSH4 0x16F0115B EQ PUSH2 0x35B JUMPI DUP1 PUSH4 0x18160DDD EQ PUSH2 0x379 JUMPI DUP1 PUSH4 0x23B872DD EQ PUSH2 0x397 JUMPI PUSH2 0x25E JUMP JUMPDEST DUP1 PUSH4 0x65756DB EQ PUSH2 0x263 JUMPI DUP1 PUSH4 0x6FDDE03 EQ PUSH2 0x281 JUMPI DUP1 PUSH4 0x7973CCF EQ PUSH2 0x29F JUMPI DUP1 PUSH4 0x95EA7B3 EQ PUSH2 0x2BD JUMPI DUP1 PUSH4 0xDFE1681 EQ PUSH2 0x2ED JUMPI JUMPDEST PUSH1 0x0 DUP1 REVERT JUMPDEST PUSH2 0x26B PUSH2 0x826 JUMP JUMPDEST PUSH1 0x40 MLOAD PUSH2 0x278 SWAP2 SWAP1 PUSH2 0x5348 JUMP JUMPDEST PUSH1 0x40 MLOAD DUP1 SWAP2 SUB SWAP1 RETURN JUMPDEST PUSH2 0x289 PUSH2 0x82C JUMP JUMPDEST PUSH1 0x40 MLOAD PUSH2 0x296 SWAP2 SWAP1 PUSH2 0x53F3 JUMP JUMPDEST PUSH1 0x40 MLOAD DUP1 SWAP2 SUB SWAP1 RETURN JUMPDEST PUSH2 0x2A7 PUSH2 0x8BE JUMP JUMPDEST PUSH1 0x40 MLOAD PUSH2 0x2B4 SWAP2 SWAP1 PUSH2 0x5348 JUMP JUMPDEST PUSH1 0x40 MLOAD DUP1 SWAP2 SUB SWAP1 RETURN JUMPDEST PUSH2 0x2D7 PUSH1 0x4 DUP1 CALLDATASIZE SUB DUP2 ADD SWAP1 PUSH2 0x2D2 SWAP2 SWAP1 PUSH2 0x54A4 JUMP JUMPDEST PUSH2 0x8CB JUMP JUMPDEST PUSH1 0x40 MLOAD PUSH2 0x2E4 SWAP2 SWAP1 PUSH2 0x54FF JUMP JUMPDEST PUSH1 0x40 MLOAD DUP1 SWAP2 SUB SWAP1 RETURN JUMPDEST PUSH2 0x2F5 PUSH2 0x8EE JUMP JUMPDEST PUSH1 0x40 MLOAD PUSH2 0x302 SWAP2 SWAP1 PUSH2 0x5579 JUMP JUMPDEST PUSH1 0x40 MLOAD DUP1 SWAP2 SUB SWAP1 RETURN JUMPDEST PUSH2 0x313 PUSH2 0x914 JUMP JUMPDEST PUSH1 0x40 MLOAD PUSH2 0x321 SWAP3 SWAP2 SWAP1 PUSH2 0x5594 JUMP JUMPDEST PUSH1 0x40 MLOAD DUP1 SWAP2 SUB SWAP1 RETURN JUMPDEST PUSH2 0x344 PUSH1 0x4 DUP1 CALLDATASIZE SUB DUP2 ADD SWAP1 PUSH2 0x33F SWAP2 SWAP1 PUSH2 0x561D JUMP JUMPDEST PUSH2 0x9C8 JUMP JUMPDEST PUSH1 0x40 MLOAD PUSH2 0x352 SWAP3 SWAP2 SWAP1 PUSH2 0x5594 JUMP JUMPDEST PUSH1 0x40 MLOAD DUP1 SWAP2 SUB SWAP1 RETURN JUMPDEST PUSH2 0x363 PUSH2 0xCC4 JUMP JUMPDEST PUSH1 0x40 MLOAD PUSH2 0x370 SWAP2 SWAP1 PUSH2 0x56CC JUMP JUMPDEST PUSH1 0x40 MLOAD DUP1 SWAP2 SUB SWAP1 RETURN JUMPDEST PUSH2 0x381 PUSH2 0xCEA JUMP JUMPDEST PUSH1 0x40 MLOAD PUSH2 0x38E SWAP2 SWAP1 PUSH2 0x5348 JUMP JUMPDEST PUSH1 0x40 MLOAD DUP1 SWAP2 SUB SWAP1 RETURN JUMPDEST PUSH2 0x3B1 PUSH1 0x4 DUP1 CALLDATASIZE SUB DUP2 ADD SWAP1 PUSH2 0x3AC SWAP2 SWAP1 PUSH2 0x56E7 JUMP JUMPDEST PUSH2 0xCF4 JUMP JUMPDEST PUSH1 0x40 MLOAD PUSH2 0x3BE SWAP2 SWAP1 PUSH2 0x54FF JUMP JUMPDEST PUSH1 0x40 MLOAD DUP1 SWAP2 SUB SWAP1 RETURN JUMPDEST PUSH2 0x3E1 PUSH1 0x4 DUP1 CALLDATASIZE SUB DUP2 ADD SWAP1 PUSH2 0x3DC SWAP2 SWAP1 PUSH2 0x573A JUMP JUMPDEST PUSH2 0xD23 JUMP JUMPDEST PUSH1 0x40 MLOAD PUSH2 0x3F0 SWAP4 SWAP3 SWAP2 SWAP1 PUSH2 0x5767 JUMP JUMPDEST PUSH1 0x40 MLOAD DUP1 SWAP2 SUB SWAP1 RETURN JUMPDEST PUSH2 0x401 PUSH2 0xD5A JUMP JUMPDEST PUSH1 0x40 MLOAD PUSH2 0x40E SWAP2 SWAP1 PUSH2 0x57BA JUMP JUMPDEST PUSH1 0x40 MLOAD DUP1 SWAP2 SUB SWAP1 RETURN JUMPDEST PUSH2 0x431 PUSH1 0x4 DUP1 CALLDATASIZE SUB DUP2 ADD SWAP1 PUSH2 0x42C SWAP2 SWAP1 PUSH2 0x57D5 JUMP JUMPDEST PUSH2 0xD63 JUMP JUMPDEST PUSH1 0x40 MLOAD PUSH2 0x43E SWAP2 SWAP1 PUSH2 0x5811 JUMP JUMPDEST PUSH1 0x40 MLOAD DUP1 SWAP2 SUB SWAP1 RETURN JUMPDEST PUSH2 0x44F PUSH2 0xDA2 JUMP JUMPDEST PUSH1 0x40 MLOAD PUSH2 0x45C SWAP2 SWAP1 PUSH2 0x54FF JUMP JUMPDEST PUSH1 0x40 MLOAD DUP1 SWAP2 SUB SWAP1 RETURN JUMPDEST PUSH2 0x46D PUSH2 0xDB3 JUMP JUMPDEST PUSH1 0x40 MLOAD PUSH2 0x47A SWAP2 SWAP1 PUSH2 0x5348 JUMP JUMPDEST PUSH1 0x40 MLOAD DUP1 SWAP2 SUB SWAP1 RETURN JUMPDEST PUSH2 0x48B PUSH2 0xDB9 JUMP JUMPDEST PUSH1 0x40 MLOAD PUSH2 0x498 SWAP2 SWAP1 PUSH2 0x5849 JUMP JUMPDEST PUSH1 0x40 MLOAD DUP1 SWAP2 SUB SWAP1 RETURN JUMPDEST PUSH2 0x4BB PUSH1 0x4 DUP1 CALLDATASIZE SUB DUP2 ADD SWAP1 PUSH2 0x4B6 SWAP2 SWAP1 PUSH2 0x573A JUMP JUMPDEST PUSH2 0xDCD JUMP JUMPDEST PUSH1 0x40 MLOAD PUSH2 0x4C8 SWAP2 SWAP1 PUSH2 0x5348 JUMP JUMPDEST PUSH1 0x40 MLOAD DUP1 SWAP2 SUB SWAP1 RETURN JUMPDEST PUSH2 0x4D9 PUSH2 0xE16 JUMP JUMPDEST STOP JUMPDEST PUSH2 0x4E3 PUSH2 0xE2A JUMP JUMPDEST PUSH1 0x40 MLOAD PUSH2 0x4F1 SWAP3 SWAP2 SWAP1 PUSH2 0x5594 JUMP JUMPDEST PUSH1 0x40 MLOAD DUP1 SWAP2 SUB SWAP1 RETURN JUMPDEST PUSH2 0x502 PUSH2 0xFF1 JUMP JUMPDEST PUSH1 0x40 MLOAD PUSH2 0x50F SWAP2 SWAP1 PUSH2 0x5873 JUMP JUMPDEST PUSH1 0x40 MLOAD DUP1 SWAP2 SUB SWAP1 RETURN JUMPDEST PUSH2 0x532 PUSH1 0x4 DUP1 CALLDATASIZE SUB DUP2 ADD SWAP1 PUSH2 0x52D SWAP2 SWAP1 PUSH2 0x588E JUMP JUMPDEST PUSH2 0x1004 JUMP JUMPDEST STOP JUMPDEST PUSH2 0x53C PUSH2 0x12CB JUMP JUMPDEST PUSH1 0x40 MLOAD PUSH2 0x549 SWAP2 SWAP1 PUSH2 0x5849 JUMP JUMPDEST PUSH1 0x40 MLOAD DUP1 SWAP2 SUB SWAP1 RETURN JUMPDEST PUSH2 0x55A PUSH2 0x12DF JUMP JUMPDEST PUSH1 0x40 MLOAD PUSH2 0x567 SWAP2 SWAP1 PUSH2 0x5811 JUMP JUMPDEST PUSH1 0x40 MLOAD DUP1 SWAP2 SUB SWAP1 RETURN JUMPDEST PUSH2 0x578 PUSH2 0x1308 JUMP JUMPDEST PUSH1 0x40 MLOAD PUSH2 0x585 SWAP2 SWAP1 PUSH2 0x53F3 JUMP JUMPDEST PUSH1 0x40 MLOAD DUP1 SWAP2 SUB SWAP1 RETURN JUMPDEST PUSH2 0x5A8 PUSH1 0x4 DUP1 CALLDATASIZE SUB DUP2 ADD SWAP1 PUSH2 0x5A3 SWAP2 SWAP1 PUSH2 0x58E1 JUMP JUMPDEST PUSH2 0x139A JUMP JUMPDEST PUSH1 0x40 MLOAD PUSH2 0x5B7 SWAP4 SWAP3 SWAP2 SWAP1 PUSH2 0x5921 JUMP JUMPDEST PUSH1 0x40 MLOAD DUP1 SWAP2 SUB SWAP1 RETURN JUMPDEST PUSH2 0x5C8 PUSH2 0x1572 JUMP JUMPDEST PUSH1 0x40 MLOAD PUSH2 0x5D5 SWAP2 SWAP1 PUSH2 0x5873 JUMP JUMPDEST PUSH1 0x40 MLOAD DUP1 SWAP2 SUB SWAP1 RETURN JUMPDEST PUSH2 0x5F8 PUSH1 0x4 DUP1 CALLDATASIZE SUB DUP2 ADD SWAP1 PUSH2 0x5F3 SWAP2 SWAP1 PUSH2 0x5958 JUMP JUMPDEST PUSH2 0x1585 JUMP JUMPDEST STOP JUMPDEST PUSH2 0x614 PUSH1 0x4 DUP1 CALLDATASIZE SUB DUP2 ADD SWAP1 PUSH2 0x60F SWAP2 SWAP1 PUSH2 0x5985 JUMP JUMPDEST PUSH2 0x1820 JUMP JUMPDEST PUSH1 0x40 MLOAD PUSH2 0x622 SWAP3 SWAP2 SWAP1 PUSH2 0x5594 JUMP JUMPDEST PUSH1 0x40 MLOAD DUP1 SWAP2 SUB SWAP1 RETURN JUMPDEST PUSH2 0x645 PUSH1 0x4 DUP1 CALLDATASIZE SUB DUP2 ADD SWAP1 PUSH2 0x640 SWAP2 SWAP1 PUSH2 0x54A4 JUMP JUMPDEST PUSH2 0x1F90 JUMP JUMPDEST PUSH1 0x40 MLOAD PUSH2 0x652 SWAP2 SWAP1 PUSH2 0x54FF JUMP JUMPDEST PUSH1 0x40 MLOAD DUP1 SWAP2 SUB SWAP1 RETURN JUMPDEST PUSH2 0x663 PUSH2 0x1FB3 JUMP JUMPDEST PUSH1 0x40 MLOAD PUSH2 0x670 SWAP2 SWAP1 PUSH2 0x54FF JUMP JUMPDEST PUSH1 0x40 MLOAD DUP1 SWAP2 SUB SWAP1 RETURN JUMPDEST PUSH2 0x693 PUSH1 0x4 DUP1 CALLDATASIZE SUB DUP2 ADD SWAP1 PUSH2 0x68E SWAP2 SWAP1 PUSH2 0x5985 JUMP JUMPDEST PUSH2 0x1FC6 JUMP JUMPDEST PUSH1 0x40 MLOAD PUSH2 0x6A1 SWAP3 SWAP2 SWAP1 PUSH2 0x5594 JUMP JUMPDEST PUSH1 0x40 MLOAD DUP1 SWAP2 SUB SWAP1 RETURN JUMPDEST PUSH2 0x6B2 PUSH2 0x26CA JUMP JUMPDEST PUSH1 0x40 MLOAD PUSH2 0x6BF SWAP2 SWAP1 PUSH2 0x5811 JUMP JUMPDEST PUSH1 0x40 MLOAD DUP1 SWAP2 SUB SWAP1 RETURN JUMPDEST PUSH2 0x6E2 PUSH1 0x4 DUP1 CALLDATASIZE SUB DUP2 ADD SWAP1 PUSH2 0x6DD SWAP2 SWAP1 PUSH2 0x58E1 JUMP JUMPDEST PUSH2 0x26F0 JUMP JUMPDEST PUSH1 0x40 MLOAD PUSH2 0x6EF SWAP2 SWAP1 PUSH2 0x5AD4 JUMP JUMPDEST PUSH1 0x40 MLOAD DUP1 SWAP2 SUB SWAP1 RETURN JUMPDEST PUSH2 0x700 PUSH2 0x28FE JUMP JUMPDEST PUSH1 0x40 MLOAD PUSH2 0x70D SWAP2 SWAP1 PUSH2 0x5873 JUMP JUMPDEST PUSH1 0x40 MLOAD DUP1 SWAP2 SUB SWAP1 RETURN JUMPDEST PUSH2 0x71E PUSH2 0x2911 JUMP JUMPDEST PUSH1 0x40 MLOAD PUSH2 0x72B SWAP2 SWAP1 PUSH2 0x5579 JUMP JUMPDEST PUSH1 0x40 MLOAD DUP1 SWAP2 SUB SWAP1 RETURN JUMPDEST PUSH2 0x73C PUSH2 0x2937 JUMP JUMPDEST STOP JUMPDEST PUSH2 0x758 PUSH1 0x4 DUP1 CALLDATASIZE SUB DUP2 ADD SWAP1 PUSH2 0x753 SWAP2 SWAP1 PUSH2 0x5AF6 JUMP JUMPDEST PUSH2 0x2941 JUMP JUMPDEST PUSH1 0x40 MLOAD PUSH2 0x765 SWAP2 SWAP1 PUSH2 0x5348 JUMP JUMPDEST PUSH1 0x40 MLOAD DUP1 SWAP2 SUB SWAP1 RETURN JUMPDEST PUSH2 0x776 PUSH2 0x29C8 JUMP JUMPDEST PUSH1 0x40 MLOAD PUSH2 0x783 SWAP2 SWAP1 PUSH2 0x5B4F JUMP JUMPDEST PUSH1 0x40 MLOAD DUP1 SWAP2 SUB SWAP1 RETURN JUMPDEST PUSH2 0x7A6 PUSH1 0x4 DUP1 CALLDATASIZE SUB DUP2 ADD SWAP1 PUSH2 0x7A1 SWAP2 SWAP1 PUSH2 0x5BF8 JUMP JUMPDEST PUSH2 0x2A18 JUMP JUMPDEST PUSH1 0x40 MLOAD PUSH2 0x7B4 SWAP3 SWAP2 SWAP1 PUSH2 0x5C6E JUMP JUMPDEST PUSH1 0x40 MLOAD DUP1 SWAP2 SUB SWAP1 RETURN JUMPDEST PUSH2 0x7D7 PUSH1 0x4 DUP1 CALLDATASIZE SUB DUP2 ADD SWAP1 PUSH2 0x7D2 SWAP2 SWAP1 PUSH2 0x57D5 JUMP JUMPDEST PUSH2 0x2B73 JUMP JUMPDEST PUSH1 0x40 MLOAD PUSH2 0x7E5 SWAP3 SWAP2 SWAP1 PUSH2 0x5594 JUMP JUMPDEST PUSH1 0x40 MLOAD DUP1 SWAP2 SUB SWAP1 RETURN JUMPDEST PUSH2 0x808 PUSH1 0x4 DUP1 CALLDATASIZE SUB DUP2 ADD SWAP1 PUSH2 0x803 SWAP2 SWAP1 PUSH2 0x573A JUMP JUMPDEST PUSH2 0x2BE6 JUMP JUMPDEST STOP JUMPDEST PUSH2 0x824 PUSH1 0x4 DUP1 CALLDATASIZE SUB DUP2 ADD SWAP1 PUSH2 0x81F SWAP2 SWAP1 PUSH2 0x5CC3 JUMP JUMPDEST PUSH2 0x2C6C JUMP JUMPDEST STOP JUMPDEST PUSH1 0xA SLOAD DUP2 JUMP JUMPDEST PUSH1 0x60 PUSH1 0x4 DUP1 SLOAD PUSH2 0x83B SWAP1 PUSH2 0x5D32 JUMP JUMPDEST DUP1 PUSH1 0x1F ADD PUSH1 0x20 DUP1 SWAP2 DIV MUL PUSH1 0x20 ADD PUSH1 0x40 MLOAD SWAP1 DUP2 ADD PUSH1 0x40 MSTORE DUP1 SWAP3 SWAP2 SWAP1 DUP2 DUP2 MSTORE PUSH1 0x20 ADD DUP3 DUP1 SLOAD PUSH2 0x867 SWAP1 PUSH2 0x5D32 JUMP JUMPDEST DUP1 ISZERO PUSH2 0x8B4 JUMPI DUP1 PUSH1 0x1F LT PUSH2 0x889 JUMPI PUSH2 0x100 DUP1 DUP4 SLOAD DIV MUL DUP4 MSTORE SWAP2 PUSH1 0x20 ADD SWAP2 PUSH2 0x8B4 JUMP JUMPDEST DUP3 ADD SWAP2 SWAP1 PUSH1 0x0 MSTORE PUSH1 0x20 PUSH1 0x0 KECCAK256 SWAP1 JUMPDEST DUP2 SLOAD DUP2 MSTORE SWAP1 PUSH1 0x1 ADD SWAP1 PUSH1 0x20 ADD DUP1 DUP4 GT PUSH2 0x897 JUMPI DUP3 SWAP1 SUB PUSH1 0x1F AND DUP3 ADD SWAP2 JUMPDEST POP POP POP POP POP SWAP1 POP SWAP1 JUMP JUMPDEST PUSH1 0x0 PUSH1 0xD DUP1 SLOAD SWAP1 POP SWAP1 POP SWAP1 JUMP JUMPDEST PUSH1 0x0 DUP1 PUSH2 0x8D6 PUSH2 0x2C7A JUMP JUMPDEST SWAP1 POP PUSH2 0x8E3 DUP2 DUP6 DUP6 PUSH2 0x2C82 JUMP JUMPDEST PUSH1 0x1 SWAP2 POP POP SWAP3 SWAP2 POP POP JUMP JUMPDEST PUSH1 0x7 PUSH1 0x0 SWAP1 SLOAD SWAP1 PUSH2 0x100 EXP SWAP1 DIV PUSH20 0xFFFFFFFFFFFFFFFFFFFFFFFFFFFFFFFFFFFFFFFF AND DUP2 JUMP JUMPDEST PUSH1 0x0 DUP1 PUSH1 0x0 DUP1 PUSH1 0x6 PUSH1 0xB SWAP1 SLOAD SWAP1 PUSH2 0x100 EXP SWAP1 DIV PUSH20 0xFFFFFFFFFFFFFFFFFFFFFFFFFFFFFFFFFFFFFFFF AND PUSH20 0xFFFFFFFFFFFFFFFFFFFFFFFFFFFFFFFFFFFFFFFF AND PUSH4 0x3850C7BD PUSH1 0x40 MLOAD DUP2 PUSH4 0xFFFFFFFF AND PUSH1 0xE0 SHL DUP2 MSTORE PUSH1 0x4 ADD PUSH1 0xE0 PUSH1 0x40 MLOAD DUP1 DUP4 SUB DUP2 DUP7 GAS STATICCALL ISZERO DUP1 ISZERO PUSH2 0x987 JUMPI RETURNDATASIZE PUSH1 0x0 DUP1 RETURNDATACOPY RETURNDATASIZE PUSH1 0x0 REVERT JUMPDEST POP POP POP POP PUSH1 0x40 MLOAD RETURNDATASIZE PUSH1 0x1F NOT PUSH1 0x1F DUP3 ADD AND DUP3 ADD DUP1 PUSH1 0x40 MSTORE POP DUP2 ADD SWAP1 PUSH2 0x9AB SWAP2 SWAP1 PUSH2 0x5DE3 JUMP JUMPDEST POP POP POP POP POP SWAP2 POP SWAP2 POP PUSH2 0x9BE DUP3 DUP3 PUSH2 0x2C94 JUMP JUMPDEST SWAP4 POP SWAP4 POP POP POP SWAP1 SWAP2 JUMP JUMPDEST PUSH1 0x0 DUP1 PUSH1 0x6 DUP1 SLOAD SWAP1 PUSH2 0x100 EXP SWAP1 DIV PUSH1 0xFF AND ISZERO PUSH2 0xA10 JUMPI PUSH1 0x40 MLOAD PUSH32 0xFD02B6D000000000000000000000000000000000000000000000000000000000 DUP2 MSTORE PUSH1 0x4 ADD PUSH1 0x40 MLOAD DUP1 SWAP2 SUB SWAP1 REVERT JUMPDEST PUSH1 0x0 PUSH1 0x6 PUSH1 0xB SWAP1 SLOAD SWAP1 PUSH2 0x100 EXP SWAP1 DIV PUSH20 0xFFFFFFFFFFFFFFFFFFFFFFFFFFFFFFFFFFFFFFFF AND PUSH20 0xFFFFFFFFFFFFFFFFFFFFFFFFFFFFFFFFFFFFFFFF AND PUSH4 0x3850C7BD PUSH1 0x40 MLOAD DUP2 PUSH4 0xFFFFFFFF AND PUSH1 0xE0 SHL DUP2 MSTORE PUSH1 0x4 ADD PUSH1 0xE0 PUSH1 0x40 MLOAD DUP1 DUP4 SUB DUP2 DUP7 GAS STATICCALL ISZERO DUP1 ISZERO PUSH2 0xA7F JUMPI RETURNDATASIZE PUSH1 0x0 DUP1 RETURNDATACOPY RETURNDATASIZE PUSH1 0x0 REVERT JUMPDEST POP POP POP POP PUSH1 0x40 MLOAD RETURNDATASIZE PUSH1 0x1F NOT PUSH1 0x1F DUP3 ADD AND DUP3 ADD DUP1 PUSH1 0x40 MSTORE POP DUP2 ADD SWAP1 PUSH2 0xAA3 SWAP2 SWAP1 PUSH2 0x5DE3 JUMP JUMPDEST POP POP POP POP POP POP SWAP1 POP PUSH1 0x0 PUSH2 0xAD0 DUP3 PUSH2 0xABD DUP13 PUSH1 0x2 SIGNEXTEND PUSH2 0x2FDE JUMP JUMPDEST PUSH2 0xAC9 DUP13 PUSH1 0x2 SIGNEXTEND PUSH2 0x2FDE JUMP JUMPDEST DUP12 DUP12 PUSH2 0x34A9 JUMP JUMPDEST SWAP1 POP PUSH1 0x0 DUP2 PUSH16 0xFFFFFFFFFFFFFFFFFFFFFFFFFFFFFFFF AND GT ISZERO PUSH2 0xCB7 JUMPI PUSH1 0x0 DUP1 PUSH1 0x6 PUSH1 0xB SWAP1 SLOAD SWAP1 PUSH2 0x100 EXP SWAP1 DIV PUSH20 0xFFFFFFFFFFFFFFFFFFFFFFFFFFFFFFFFFFFFFFFF AND PUSH20 0xFFFFFFFFFFFFFFFFFFFFFFFFFFFFFFFFFFFFFFFF AND PUSH4 0x3C8A7D8D ADDRESS DUP15 DUP15 DUP8 PUSH1 0x40 MLOAD DUP6 PUSH4 0xFFFFFFFF AND PUSH1 0xE0 SHL DUP2 MSTORE PUSH1 0x4 ADD PUSH2 0xB51 SWAP5 SWAP4 SWAP3 SWAP2 SWAP1 PUSH2 0x5EE7 JUMP JUMPDEST PUSH1 0x40 DUP1 MLOAD DUP1 DUP4 SUB DUP2 PUSH1 0x0 DUP8 GAS CALL ISZERO DUP1 ISZERO PUSH2 0xB6F JUMPI RETURNDATASIZE PUSH1 0x0 DUP1 RETURNDATACOPY RETURNDATASIZE PUSH1 0x0 REVERT JUMPDEST POP POP POP POP PUSH1 0x40 MLOAD RETURNDATASIZE PUSH1 0x1F NOT PUSH1 0x1F DUP3 ADD AND DUP3 ADD DUP1 PUSH1 0x40 MSTORE POP DUP2 ADD SWAP1 PUSH2 0xB93 SWAP2 SWAP1 PUSH2 0x5F54 JUMP JUMPDEST SWAP2 POP SWAP2 POP DUP8 PUSH1 0x0 PUSH1 0x2 DUP2 LT PUSH2 0xBAB JUMPI PUSH2 0xBAA PUSH2 0x5F94 JUMP JUMPDEST JUMPDEST PUSH1 0x20 MUL ADD CALLDATALOAD DUP3 LT DUP1 PUSH2 0xBD4 JUMPI POP DUP7 PUSH1 0x0 PUSH1 0x2 DUP2 LT PUSH2 0xBCC JUMPI PUSH2 0xBCB PUSH2 0x5F94 JUMP JUMPDEST JUMPDEST PUSH1 0x20 MUL ADD CALLDATALOAD DUP3 GT JUMPDEST DUP1 PUSH2 0xBF6 JUMPI POP DUP8 PUSH1 0x1 PUSH1 0x2 DUP2 LT PUSH2 0xBEE JUMPI PUSH2 0xBED PUSH2 0x5F94 JUMP JUMPDEST JUMPDEST PUSH1 0x20 MUL ADD CALLDATALOAD DUP2 LT JUMPDEST DUP1 PUSH2 0xC18 JUMPI POP DUP7 PUSH1 0x1 PUSH1 0x2 DUP2 LT PUSH2 0xC10 JUMPI PUSH2 0xC0F PUSH2 0x5F94 JUMP JUMPDEST JUMPDEST PUSH1 0x20 MUL ADD CALLDATALOAD DUP2 GT JUMPDEST ISZERO PUSH2 0xC4F JUMPI PUSH1 0x40 MLOAD PUSH32 0xE9F34DD200000000000000000000000000000000000000000000000000000000 DUP2 MSTORE PUSH1 0x4 ADD PUSH1 0x40 MLOAD DUP1 SWAP2 SUB SWAP1 REVERT JUMPDEST PUSH2 0xC59 DUP13 DUP13 PUSH2 0x35D5 JUMP JUMPDEST PUSH32 0xFA715A0B1BC7287B5D3581C11478041B0455AAD0C17361FC1E55FFFBDD4B6C4F DUP4 DUP14 DUP14 DUP6 DUP6 PUSH1 0x40 MLOAD PUSH2 0xC90 SWAP6 SWAP5 SWAP4 SWAP3 SWAP2 SWAP1 PUSH2 0x5FF4 JUMP JUMPDEST PUSH1 0x40 MLOAD DUP1 SWAP2 SUB SWAP1 LOG1 DUP2 DUP11 PUSH2 0xCA4 SWAP2 SWAP1 PUSH2 0x6076 JUMP JUMPDEST SWAP6 POP DUP1 DUP10 PUSH2 0xCB2 SWAP2 SWAP1 PUSH2 0x6076 JUMP JUMPDEST SWAP5 POP POP POP JUMPDEST POP POP SWAP7 POP SWAP7 SWAP5 POP POP POP POP POP JUMP JUMPDEST PUSH1 0x6 PUSH1 0xB SWAP1 SLOAD SWAP1 PUSH2 0x100 EXP SWAP1 DIV PUSH20 0xFFFFFFFFFFFFFFFFFFFFFFFFFFFFFFFFFFFFFFFF AND DUP2 JUMP JUMPDEST PUSH1 0x0 PUSH1 0x3 SLOAD SWAP1 POP SWAP1 JUMP JUMPDEST PUSH1 0x0 DUP1 PUSH2 0xCFF PUSH2 0x2C7A JUMP JUMPDEST SWAP1 POP PUSH2 0xD0C DUP6 DUP3 DUP6 PUSH2 0x36B2 JUMP JUMPDEST PUSH2 0xD17 DUP6 DUP6 DUP6 PUSH2 0x3746 JUMP JUMPDEST PUSH1 0x1 SWAP2 POP POP SWAP4 SWAP3 POP POP POP JUMP JUMPDEST PUSH1 0xC PUSH1 0x20 MSTORE DUP1 PUSH1 0x0 MSTORE PUSH1 0x40 PUSH1 0x0 KECCAK256 PUSH1 0x0 SWAP2 POP SWAP1 POP DUP1 PUSH1 0x0 ADD PUSH1 0x0 SWAP1 SLOAD SWAP1 PUSH2 0x100 EXP SWAP1 DIV PUSH1 0xFF AND SWAP1 DUP1 PUSH1 0x1 ADD SLOAD SWAP1 DUP1 PUSH1 0x2 ADD SLOAD SWAP1 POP DUP4 JUMP JUMPDEST PUSH1 0x0 PUSH1 0x12 SWAP1 POP SWAP1 JUMP JUMPDEST PUSH1 0xD DUP2 DUP2 SLOAD DUP2 LT PUSH2 0xD73 JUMPI PUSH1 0x0 DUP1 REVERT JUMPDEST SWAP1 PUSH1 0x0 MSTORE PUSH1 0x20 PUSH1 0x0 KECCAK256 ADD PUSH1 0x0 SWAP2 POP SLOAD SWAP1 PUSH2 0x100 EXP SWAP1 DIV PUSH20 0xFFFFFFFFFFFFFFFFFFFFFFFFFFFFFFFFFFFFFFFF AND DUP2 JUMP JUMPDEST PUSH1 0x6 DUP1 SLOAD SWAP1 PUSH2 0x100 EXP SWAP1 DIV PUSH1 0xFF AND DUP2 JUMP JUMPDEST PUSH1 0xB SLOAD DUP2 JUMP JUMPDEST PUSH1 0x9 PUSH1 0x14 SWAP1 SLOAD SWAP1 PUSH2 0x100 EXP SWAP1 DIV PUSH2 0xFFFF AND DUP2 JUMP JUMPDEST PUSH1 0x0 PUSH1 0x1 PUSH1 0x0 DUP4 PUSH20 0xFFFFFFFFFFFFFFFFFFFFFFFFFFFFFFFFFFFFFFFF AND PUSH20 0xFFFFFFFFFFFFFFFFFFFFFFFFFFFFFFFFFFFFFFFF AND DUP2 MSTORE PUSH1 0x20 ADD SWAP1 DUP2 MSTORE PUSH1 0x20 ADD PUSH1 0x0 KECCAK256 SLOAD SWAP1 POP SWAP2 SWAP1 POP JUMP JUMPDEST PUSH2 0xE1E PUSH2 0x383A JUMP JUMPDEST PUSH2 0xE28 PUSH1 0x0 PUSH2 0x38C1 JUMP JUMPDEST JUMP JUMPDEST PUSH1 0x0 DUP1 PUSH1 0x0 PUSH1 0x6 PUSH1 0xB SWAP1 SLOAD SWAP1 PUSH2 0x100 EXP SWAP1 DIV PUSH20 0xFFFFFFFFFFFFFFFFFFFFFFFFFFFFFFFFFFFFFFFF AND PUSH20 0xFFFFFFFFFFFFFFFFFFFFFFFFFFFFFFFFFFFFFFFF AND PUSH4 0x3850C7BD PUSH1 0x40 MLOAD DUP2 PUSH4 0xFFFFFFFF AND PUSH1 0xE0 SHL DUP2 MSTORE PUSH1 0x4 ADD PUSH1 0xE0 PUSH1 0x40 MLOAD DUP1 DUP4 SUB DUP2 DUP7 GAS STATICCALL ISZERO DUP1 ISZERO PUSH2 0xE9C JUMPI RETURNDATASIZE PUSH1 0x0 DUP1 RETURNDATACOPY RETURNDATASIZE PUSH1 0x0 REVERT JUMPDEST POP POP POP POP PUSH1 0x40 MLOAD RETURNDATASIZE PUSH1 0x1F NOT PUSH1 0x1F DUP3 ADD AND DUP3 ADD DUP1 PUSH1 0x40 MSTORE POP DUP2 ADD SWAP1 PUSH2 0xEC0 SWAP2 SWAP1 PUSH2 0x5DE3 JUMP JUMPDEST POP POP POP POP POP SWAP2 POP POP PUSH1 0x0 DUP1 PUSH1 0x0 DUP1 PUSH1 0x0 PUSH1 0x6 PUSH1 0xB SWAP1 SLOAD SWAP1 PUSH2 0x100 EXP SWAP1 DIV PUSH20 0xFFFFFFFFFFFFFFFFFFFFFFFFFFFFFFFFFFFFFFFF AND PUSH20 0xFFFFFFFFFFFFFFFFFFFFFFFFFFFFFFFFFFFFFFFF AND PUSH4 0x514EA4BF PUSH2 0xF16 PUSH2 0x29C8 JUMP JUMPDEST PUSH1 0x40 MLOAD DUP3 PUSH4 0xFFFFFFFF AND PUSH1 0xE0 SHL DUP2 MSTORE PUSH1 0x4 ADD PUSH2 0xF32 SWAP2 SWAP1 PUSH2 0x5B4F JUMP JUMPDEST PUSH1 0xA0 PUSH1 0x40 MLOAD DUP1 DUP4 SUB DUP2 DUP7 GAS STATICCALL ISZERO DUP1 ISZERO PUSH2 0xF4F JUMPI RETURNDATASIZE PUSH1 0x0 DUP1 RETURNDATACOPY RETURNDATASIZE PUSH1 0x0 REVERT JUMPDEST POP POP POP POP PUSH1 0x40 MLOAD RETURNDATASIZE PUSH1 0x1F NOT PUSH1 0x1F DUP3 ADD AND DUP3 ADD DUP1 PUSH1 0x40 MSTORE POP DUP2 ADD SWAP1 PUSH2 0xF73 SWAP2 SWAP1 PUSH2 0x60D6 JUMP JUMPDEST SWAP5 POP SWAP5 POP SWAP5 POP SWAP5 POP SWAP5 POP DUP2 PUSH16 0xFFFFFFFFFFFFFFFFFFFFFFFFFFFFFFFF AND PUSH2 0xF9D PUSH1 0x1 DUP7 DUP10 DUP10 PUSH2 0x3985 JUMP JUMPDEST PUSH2 0xFA7 SWAP2 SWAP1 PUSH2 0x6151 JUMP JUMPDEST SWAP8 POP DUP1 PUSH16 0xFFFFFFFFFFFFFFFFFFFFFFFFFFFFFFFF AND PUSH2 0xFC9 PUSH1 0x0 DUP6 DUP10 DUP10 PUSH2 0x3985 JUMP JUMPDEST PUSH2 0xFD3 SWAP2 SWAP1 PUSH2 0x6151 JUMP JUMPDEST SWAP7 POP PUSH2 0xFDF DUP9 DUP9 PUSH2 0x3E99 JUMP JUMPDEST DUP1 SWAP9 POP DUP2 SWAP10 POP POP POP POP POP POP POP POP POP SWAP1 SWAP2 JUMP JUMPDEST PUSH1 0x6 PUSH1 0x3 SWAP1 SLOAD SWAP1 PUSH2 0x100 EXP SWAP1 DIV PUSH1 0x2 SIGNEXTEND DUP2 JUMP JUMPDEST PUSH1 0x0 PUSH20 0xFFFFFFFFFFFFFFFFFFFFFFFFFFFFFFFFFFFFFFFF AND DUP2 PUSH20 0xFFFFFFFFFFFFFFFFFFFFFFFFFFFFFFFFFFFFFFFF AND SUB PUSH2 0x106A JUMPI PUSH1 0x40 MLOAD PUSH32 0xD741B0BA00000000000000000000000000000000000000000000000000000000 DUP2 MSTORE PUSH1 0x4 ADD PUSH1 0x40 MLOAD DUP1 SWAP2 SUB SWAP1 REVERT JUMPDEST PUSH2 0x1073 DUP2 PUSH2 0x38C1 JUMP JUMPDEST DUP3 PUSH1 0x6 PUSH1 0xB PUSH2 0x100 EXP DUP2 SLOAD DUP2 PUSH20 0xFFFFFFFFFFFFFFFFFFFFFFFFFFFFFFFFFFFFFFFF MUL NOT AND SWAP1 DUP4 PUSH20 0xFFFFFFFFFFFFFFFFFFFFFFFFFFFFFFFFFFFFFFFF AND MUL OR SWAP1 SSTORE POP PUSH1 0x6 PUSH1 0xB SWAP1 SLOAD SWAP1 PUSH2 0x100 EXP SWAP1 DIV PUSH20 0xFFFFFFFFFFFFFFFFFFFFFFFFFFFFFFFFFFFFFFFF AND PUSH20 0xFFFFFFFFFFFFFFFFFFFFFFFFFFFFFFFFFFFFFFFF AND PUSH4 0xDFE1681 PUSH1 0x40 MLOAD DUP2 PUSH4 0xFFFFFFFF AND PUSH1 0xE0 SHL DUP2 MSTORE PUSH1 0x4 ADD PUSH1 0x20 PUSH1 0x40 MLOAD DUP1 DUP4 SUB DUP2 DUP7 GAS STATICCALL ISZERO DUP1 ISZERO PUSH2 0x1121 JUMPI RETURNDATASIZE PUSH1 0x0 DUP1 RETURNDATACOPY RETURNDATASIZE PUSH1 0x0 REVERT JUMPDEST POP POP POP POP PUSH1 0x40 MLOAD RETURNDATASIZE PUSH1 0x1F NOT PUSH1 0x1F DUP3 ADD AND DUP3 ADD DUP1 PUSH1 0x40 MSTORE POP DUP2 ADD SWAP1 PUSH2 0x1145 SWAP2 SWAP1 PUSH2 0x619A JUMP JUMPDEST PUSH1 0x7 PUSH1 0x0 PUSH2 0x100 EXP DUP2 SLOAD DUP2 PUSH20 0xFFFFFFFFFFFFFFFFFFFFFFFFFFFFFFFFFFFFFFFF MUL NOT AND SWAP1 DUP4 PUSH20 0xFFFFFFFFFFFFFFFFFFFFFFFFFFFFFFFFFFFFFFFF AND MUL OR SWAP1 SSTORE POP PUSH1 0x6 PUSH1 0xB SWAP1 SLOAD SWAP1 PUSH2 0x100 EXP SWAP1 DIV PUSH20 0xFFFFFFFFFFFFFFFFFFFFFFFFFFFFFFFFFFFFFFFF AND PUSH20 0xFFFFFFFFFFFFFFFFFFFFFFFFFFFFFFFFFFFFFFFF AND PUSH4 0xD21220A7 PUSH1 0x40 MLOAD DUP2 PUSH4 0xFFFFFFFF AND PUSH1 0xE0 SHL DUP2 MSTORE PUSH1 0x4 ADD PUSH1 0x20 PUSH1 0x40 MLOAD DUP1 DUP4 SUB DUP2 DUP7 GAS STATICCALL ISZERO DUP1 ISZERO PUSH2 0x11F2 JUMPI RETURNDATASIZE PUSH1 0x0 DUP1 RETURNDATACOPY RETURNDATASIZE PUSH1 0x0 REVERT JUMPDEST POP POP POP POP PUSH1 0x40 MLOAD RETURNDATASIZE PUSH1 0x1F NOT PUSH1 0x1F DUP3 ADD AND DUP3 ADD DUP1 PUSH1 0x40 MSTORE POP DUP2 ADD SWAP1 PUSH2 0x1216 SWAP2 SWAP1 PUSH2 0x619A JUMP JUMPDEST PUSH1 0x8 PUSH1 0x0 PUSH2 0x100 EXP DUP2 SLOAD DUP2 PUSH20 0xFFFFFFFFFFFFFFFFFFFFFFFFFFFFFFFFFFFFFFFF MUL NOT AND SWAP1 DUP4 PUSH20 0xFFFFFFFFFFFFFFFFFFFFFFFFFFFFFFFFFFFFFFFF AND MUL OR SWAP1 SSTORE POP DUP2 PUSH1 0x6 PUSH1 0x8 PUSH2 0x100 EXP DUP2 SLOAD DUP2 PUSH3 0xFFFFFF MUL NOT AND SWAP1 DUP4 PUSH1 0x2 SIGNEXTEND PUSH3 0xFFFFFF AND MUL OR SWAP1 SSTORE POP CALLER PUSH1 0x9 PUSH1 0x0 PUSH2 0x100 EXP DUP2 SLOAD DUP2 PUSH20 0xFFFFFFFFFFFFFFFFFFFFFFFFFFFFFFFFFFFFFFFF MUL NOT AND SWAP1 DUP4 PUSH20 0xFFFFFFFFFFFFFFFFFFFFFFFFFFFFFFFFFFFFFFFF AND MUL OR SWAP1 SSTORE POP PUSH2 0x12C6 PUSH1 0x0 PUSH2 0x3E8 PUSH2 0x3F15 JUMP JUMPDEST POP POP POP JUMP JUMPDEST PUSH1 0x9 PUSH1 0x16 SWAP1 SLOAD SWAP1 PUSH2 0x100 EXP SWAP1 DIV PUSH2 0xFFFF AND DUP2 JUMP JUMPDEST PUSH1 0x0 DUP1 PUSH1 0x0 SWAP1 SLOAD SWAP1 PUSH2 0x100 EXP SWAP1 DIV PUSH20 0xFFFFFFFFFFFFFFFFFFFFFFFFFFFFFFFFFFFFFFFF AND SWAP1 POP SWAP1 JUMP JUMPDEST PUSH1 0x60 PUSH1 0x5 DUP1 SLOAD PUSH2 0x1317 SWAP1 PUSH2 0x5D32 JUMP JUMPDEST DUP1 PUSH1 0x1F ADD PUSH1 0x20 DUP1 SWAP2 DIV MUL PUSH1 0x20 ADD PUSH1 0x40 MLOAD SWAP1 DUP2 ADD PUSH1 0x40 MSTORE DUP1 SWAP3 SWAP2 SWAP1 DUP2 DUP2 MSTORE PUSH1 0x20 ADD DUP3 DUP1 SLOAD PUSH2 0x1343 SWAP1 PUSH2 0x5D32 JUMP JUMPDEST DUP1 ISZERO PUSH2 0x1390 JUMPI DUP1 PUSH1 0x1F LT PUSH2 0x1365 JUMPI PUSH2 0x100 DUP1 DUP4 SLOAD DIV MUL DUP4 MSTORE SWAP2 PUSH1 0x20 ADD SWAP2 PUSH2 0x1390 JUMP JUMPDEST DUP3 ADD SWAP2 SWAP1 PUSH1 0x0 MSTORE PUSH1 0x20 PUSH1 0x0 KECCAK256 SWAP1 JUMPDEST DUP2 SLOAD DUP2 MSTORE SWAP1 PUSH1 0x1 ADD SWAP1 PUSH1 0x20 ADD DUP1 DUP4 GT PUSH2 0x1373 JUMPI DUP3 SWAP1 SUB PUSH1 0x1F AND DUP3 ADD SWAP2 JUMPDEST POP POP POP POP POP SWAP1 POP SWAP1 JUMP JUMPDEST PUSH1 0x0 DUP1 PUSH1 0x0 PUSH1 0x6 PUSH1 0x7 SWAP1 SLOAD SWAP1 PUSH2 0x100 EXP SWAP1 DIV PUSH1 0xFF AND PUSH2 0x13E5 JUMPI PUSH1 0x40 MLOAD PUSH32 0x6290E4E00000000000000000000000000000000000000000000000000000000 DUP2 MSTORE PUSH1 0x4 ADD PUSH1 0x40 MLOAD DUP1 SWAP2 SUB SWAP1 REVERT JUMPDEST PUSH1 0x0 PUSH2 0x13EF PUSH2 0xCEA JUMP JUMPDEST SWAP1 POP PUSH1 0x0 DUP2 GT ISZERO PUSH2 0x1416 JUMPI PUSH2 0x1405 DUP2 DUP8 DUP8 PUSH2 0x402F JUMP JUMPDEST DUP1 SWAP5 POP DUP2 SWAP6 POP DUP3 SWAP7 POP POP POP POP PUSH2 0x156A JUMP JUMPDEST PUSH1 0x6 DUP1 SLOAD SWAP1 PUSH2 0x100 EXP SWAP1 DIV PUSH1 0xFF AND ISZERO PUSH2 0x1569 JUMPI PUSH1 0x0 PUSH1 0x6 PUSH1 0xB SWAP1 SLOAD SWAP1 PUSH2 0x100 EXP SWAP1 DIV PUSH20 0xFFFFFFFFFFFFFFFFFFFFFFFFFFFFFFFFFFFFFFFF AND PUSH20 0xFFFFFFFFFFFFFFFFFFFFFFFFFFFFFFFFFFFFFFFF AND PUSH4 0x3850C7BD PUSH1 0x40 MLOAD DUP2 PUSH4 0xFFFFFFFF AND PUSH1 0xE0 SHL DUP2 MSTORE PUSH1 0x4 ADD PUSH1 0xE0 PUSH1 0x40 MLOAD DUP1 DUP4 SUB DUP2 DUP7 GAS STATICCALL ISZERO DUP1 ISZERO PUSH2 0x1498 JUMPI RETURNDATASIZE PUSH1 0x0 DUP1 RETURNDATACOPY RETURNDATASIZE PUSH1 0x0 REVERT JUMPDEST POP POP POP POP PUSH1 0x40 MLOAD RETURNDATASIZE PUSH1 0x1F NOT PUSH1 0x1F DUP3 ADD AND DUP3 ADD DUP1 PUSH1 0x40 MSTORE POP DUP2 ADD SWAP1 PUSH2 0x14BC SWAP2 SWAP1 PUSH2 0x5DE3 JUMP JUMPDEST POP POP POP POP POP POP SWAP1 POP PUSH1 0x0 PUSH2 0x1507 DUP3 PUSH2 0x14E5 PUSH1 0x6 PUSH1 0x0 SWAP1 SLOAD SWAP1 PUSH2 0x100 EXP SWAP1 DIV PUSH1 0x2 SIGNEXTEND PUSH1 0x2 SIGNEXTEND PUSH2 0x2FDE JUMP JUMPDEST PUSH2 0x1500 PUSH1 0x6 PUSH1 0x3 SWAP1 SLOAD SWAP1 PUSH2 0x100 EXP SWAP1 DIV PUSH1 0x2 SIGNEXTEND PUSH1 0x2 SIGNEXTEND PUSH2 0x2FDE JUMP JUMPDEST DUP12 DUP12 PUSH2 0x34A9 JUMP JUMPDEST SWAP1 POP DUP1 PUSH16 0xFFFFFFFFFFFFFFFFFFFFFFFFFFFFFFFF AND SWAP4 POP PUSH2 0x155E DUP3 PUSH2 0x153D PUSH1 0x6 PUSH1 0x0 SWAP1 SLOAD SWAP1 PUSH2 0x100 EXP SWAP1 DIV PUSH1 0x2 SIGNEXTEND PUSH1 0x2 SIGNEXTEND PUSH2 0x2FDE JUMP JUMPDEST PUSH2 0x1558 PUSH1 0x6 PUSH1 0x3 SWAP1 SLOAD SWAP1 PUSH2 0x100 EXP SWAP1 DIV PUSH1 0x2 SIGNEXTEND PUSH1 0x2 SIGNEXTEND PUSH2 0x2FDE JUMP JUMPDEST DUP5 PUSH2 0x4176 JUMP JUMPDEST DUP1 SWAP7 POP DUP2 SWAP8 POP POP POP POP POP JUMPDEST JUMPDEST POP SWAP3 POP SWAP3 POP SWAP3 JUMP JUMPDEST PUSH1 0x6 PUSH1 0x0 SWAP1 SLOAD SWAP1 PUSH2 0x100 EXP SWAP1 DIV PUSH1 0x2 SIGNEXTEND DUP2 JUMP JUMPDEST PUSH1 0x0 PUSH1 0x6 PUSH1 0xB SWAP1 SLOAD SWAP1 PUSH2 0x100 EXP SWAP1 DIV PUSH20 0xFFFFFFFFFFFFFFFFFFFFFFFFFFFFFFFFFFFFFFFF AND PUSH20 0xFFFFFFFFFFFFFFFFFFFFFFFFFFFFFFFFFFFFFFFF AND PUSH4 0x514EA4BF PUSH2 0x15CD PUSH2 0x29C8 JUMP JUMPDEST PUSH1 0x40 MLOAD DUP3 PUSH4 0xFFFFFFFF AND PUSH1 0xE0 SHL DUP2 MSTORE PUSH1 0x4 ADD PUSH2 0x15E9 SWAP2 SWAP1 PUSH2 0x5B4F JUMP JUMPDEST PUSH1 0xA0 PUSH1 0x40 MLOAD DUP1 DUP4 SUB DUP2 DUP7 GAS STATICCALL ISZERO DUP1 ISZERO PUSH2 0x1606 JUMPI RETURNDATASIZE PUSH1 0x0 DUP1 RETURNDATACOPY RETURNDATASIZE PUSH1 0x0 REVERT JUMPDEST POP POP POP POP PUSH1 0x40 MLOAD RETURNDATASIZE PUSH1 0x1F NOT PUSH1 0x1F DUP3 ADD AND DUP3 ADD DUP1 PUSH1 0x40 MSTORE POP DUP2 ADD SWAP1 PUSH2 0x162A SWAP2 SWAP1 PUSH2 0x60D6 JUMP JUMPDEST POP POP POP POP SWAP1 POP PUSH1 0x0 DUP2 PUSH16 0xFFFFFFFFFFFFFFFFFFFFFFFFFFFFFFFF AND GT ISZERO PUSH2 0x1799 JUMPI PUSH1 0x0 PUSH1 0x6 PUSH1 0x0 SWAP1 SLOAD SWAP1 PUSH2 0x100 EXP SWAP1 DIV PUSH1 0x2 SIGNEXTEND SWAP1 POP PUSH1 0x0 PUSH1 0x6 PUSH1 0x3 SWAP1 SLOAD SWAP1 PUSH2 0x100 EXP SWAP1 DIV PUSH1 0x2 SIGNEXTEND SWAP1 POP PUSH1 0x0 DUP1 PUSH1 0x0 DUP1 PUSH2 0x1682 DUP8 PUSH2 0x4268 JUMP JUMPDEST SWAP4 POP SWAP4 POP SWAP4 POP SWAP4 POP DUP8 PUSH1 0x0 PUSH1 0x2 DUP2 LT PUSH2 0x169E JUMPI PUSH2 0x169D PUSH2 0x5F94 JUMP JUMPDEST JUMPDEST PUSH1 0x20 MUL ADD CALLDATALOAD DUP5 LT DUP1 PUSH2 0x16C7 JUMPI POP DUP8 PUSH1 0x1 PUSH1 0x2 DUP2 LT PUSH2 0x16BF JUMPI PUSH2 0x16BE PUSH2 0x5F94 JUMP JUMPDEST JUMPDEST PUSH1 0x20 MUL ADD CALLDATALOAD DUP4 LT JUMPDEST ISZERO PUSH2 0x16FE JUMPI PUSH1 0x40 MLOAD PUSH32 0xE9F34DD200000000000000000000000000000000000000000000000000000000 DUP2 MSTORE PUSH1 0x4 ADD PUSH1 0x40 MLOAD DUP1 SWAP2 SUB SWAP1 REVERT JUMPDEST PUSH32 0x6D7E1841BF97C0B736EAFB2779459BA1E0AF2305CEAD28A8E97533589CEB2F65 DUP8 DUP8 DUP8 DUP8 DUP8 PUSH1 0x40 MLOAD PUSH2 0x1735 SWAP6 SWAP5 SWAP4 SWAP3 SWAP2 SWAP1 PUSH2 0x5FF4 JUMP JUMPDEST PUSH1 0x40 MLOAD DUP1 SWAP2 SUB SWAP1 LOG1 PUSH2 0x1747 DUP3 DUP3 PUSH2 0x46A9 JUMP JUMPDEST PUSH2 0x1751 DUP3 DUP3 PUSH2 0x3E99 JUMP JUMPDEST DUP1 SWAP3 POP DUP2 SWAP4 POP POP POP PUSH32 0xC28AD1DE9C0C32E5394BA60323E44D8D9536312236A47231772E448A3E49DE42 DUP3 DUP3 PUSH1 0x40 MLOAD PUSH2 0x178A SWAP3 SWAP2 SWAP1 PUSH2 0x5594 JUMP JUMPDEST PUSH1 0x40 MLOAD DUP1 SWAP2 SUB SWAP1 LOG1 POP POP POP POP POP POP JUMPDEST PUSH1 0x6 PUSH1 0x3 SWAP1 SLOAD SWAP1 PUSH2 0x100 EXP SWAP1 DIV PUSH1 0x2 SIGNEXTEND PUSH1 0x6 PUSH1 0x0 PUSH2 0x100 EXP DUP2 SLOAD DUP2 PUSH3 0xFFFFFF MUL NOT AND SWAP1 DUP4 PUSH1 0x2 SIGNEXTEND PUSH3 0xFFFFFF AND MUL OR SWAP1 SSTORE POP PUSH1 0x0 PUSH1 0x6 DUP1 PUSH2 0x100 EXP DUP2 SLOAD DUP2 PUSH1 0xFF MUL NOT AND SWAP1 DUP4 ISZERO ISZERO MUL OR SWAP1 SSTORE POP PUSH32 0xD9279952B347FD14AF9B788AFF1029C0D3B1299B7DCCE164FC602A1B958C4880 PUSH1 0x0 PUSH1 0x40 MLOAD PUSH2 0x1814 SWAP2 SWAP1 PUSH2 0x54FF JUMP JUMPDEST PUSH1 0x40 MLOAD DUP1 SWAP2 SUB SWAP1 LOG1 POP POP JUMP JUMPDEST PUSH1 0x0 DUP1 PUSH1 0x0 DUP5 SUB PUSH2 0x185D JUMPI PUSH1 0x40 MLOAD PUSH32 0x2075CC1000000000000000000000000000000000000000000000000000000000 DUP2 MSTORE PUSH1 0x4 ADD PUSH1 0x40 MLOAD DUP1 SWAP2 SUB SWAP1 REVERT JUMPDEST PUSH2 0x1865 PUSH2 0x52DE JUMP JUMPDEST PUSH2 0x186D PUSH2 0xCEA JUMP JUMPDEST DUP2 PUSH1 0x0 ADD DUP2 DUP2 MSTORE POP POP PUSH2 0x187F CALLER PUSH2 0xDCD JUMP JUMPDEST DUP2 PUSH1 0x20 ADD DUP2 DUP2 MSTORE POP POP PUSH2 0x1892 CALLER DUP7 PUSH2 0x4729 JUMP JUMPDEST PUSH1 0x6 DUP1 SLOAD SWAP1 PUSH2 0x100 EXP SWAP1 DIV PUSH1 0xFF AND ISZERO PUSH2 0x1BB8 JUMPI PUSH1 0x0 PUSH1 0x6 PUSH1 0xB SWAP1 SLOAD SWAP1 PUSH2 0x100 EXP SWAP1 DIV PUSH20 0xFFFFFFFFFFFFFFFFFFFFFFFFFFFFFFFFFFFFFFFF AND PUSH20 0xFFFFFFFFFFFFFFFFFFFFFFFFFFFFFFFFFFFFFFFF AND PUSH4 0x514EA4BF PUSH2 0x18ED PUSH2 0x29C8 JUMP JUMPDEST PUSH1 0x40 MLOAD DUP3 PUSH4 0xFFFFFFFF AND PUSH1 0xE0 SHL DUP2 MSTORE PUSH1 0x4 ADD PUSH2 0x1909 SWAP2 SWAP1 PUSH2 0x5B4F JUMP JUMPDEST PUSH1 0xA0 PUSH1 0x40 MLOAD DUP1 DUP4 SUB DUP2 DUP7 GAS STATICCALL ISZERO DUP1 ISZERO PUSH2 0x1926 JUMPI RETURNDATASIZE PUSH1 0x0 DUP1 RETURNDATACOPY RETURNDATASIZE PUSH1 0x0 REVERT JUMPDEST POP POP POP POP PUSH1 0x40 MLOAD RETURNDATASIZE PUSH1 0x1F NOT PUSH1 0x1F DUP3 ADD AND DUP3 ADD DUP1 PUSH1 0x40 MSTORE POP DUP2 ADD SWAP1 PUSH2 0x194A SWAP2 SWAP1 PUSH2 0x60D6 JUMP JUMPDEST POP POP POP POP SWAP1 POP PUSH1 0x0 PUSH2 0x1973 DUP8 DUP4 PUSH16 0xFFFFFFFFFFFFFFFFFFFFFFFFFFFFFFFF AND DUP6 PUSH1 0x0 ADD MLOAD PUSH2 0x47AB JUMP JUMPDEST SWAP1 POP PUSH1 0x0 DUP2 SWAP1 POP PUSH1 0x0 DUP1 PUSH1 0x0 DUP1 PUSH2 0x1989 DUP6 PUSH2 0x4268 JUMP JUMPDEST SWAP4 POP SWAP4 POP SWAP4 POP SWAP4 POP PUSH2 0x199B DUP3 DUP3 PUSH2 0x46A9 JUMP JUMPDEST PUSH2 0x19A5 DUP3 DUP3 PUSH2 0x3E99 JUMP JUMPDEST DUP1 SWAP3 POP DUP2 SWAP4 POP POP POP PUSH32 0xC28AD1DE9C0C32E5394BA60323E44D8D9536312236A47231772E448A3E49DE42 DUP3 DUP3 PUSH1 0x40 MLOAD PUSH2 0x19DE SWAP3 SWAP2 SWAP1 PUSH2 0x5594 JUMP JUMPDEST PUSH1 0x40 MLOAD DUP1 SWAP2 SUB SWAP1 LOG1 PUSH1 0x0 DUP5 PUSH1 0x7 PUSH1 0x0 SWAP1 SLOAD SWAP1 PUSH2 0x100 EXP SWAP1 DIV PUSH20 0xFFFFFFFFFFFFFFFFFFFFFFFFFFFFFFFFFFFFFFFF AND PUSH20 0xFFFFFFFFFFFFFFFFFFFFFFFFFFFFFFFFFFFFFFFF AND PUSH4 0x70A08231 ADDRESS PUSH1 0x40 MLOAD DUP3 PUSH4 0xFFFFFFFF AND PUSH1 0xE0 SHL DUP2 MSTORE PUSH1 0x4 ADD PUSH2 0x1A44 SWAP2 SWAP1 PUSH2 0x5811 JUMP JUMPDEST PUSH1 0x20 PUSH1 0x40 MLOAD DUP1 DUP4 SUB DUP2 DUP7 GAS STATICCALL ISZERO DUP1 ISZERO PUSH2 0x1A61 JUMPI RETURNDATASIZE PUSH1 0x0 DUP1 RETURNDATACOPY RETURNDATASIZE PUSH1 0x0 REVERT JUMPDEST POP POP POP POP PUSH1 0x40 MLOAD RETURNDATASIZE PUSH1 0x1F NOT PUSH1 0x1F DUP3 ADD AND DUP3 ADD DUP1 PUSH1 0x40 MSTORE POP DUP2 ADD SWAP1 PUSH2 0x1A85 SWAP2 SWAP1 PUSH2 0x61C7 JUMP JUMPDEST PUSH2 0x1A8F SWAP2 SWAP1 PUSH2 0x6076 JUMP JUMPDEST SWAP1 POP PUSH1 0x0 DUP5 PUSH1 0x8 PUSH1 0x0 SWAP1 SLOAD SWAP1 PUSH2 0x100 EXP SWAP1 DIV PUSH20 0xFFFFFFFFFFFFFFFFFFFFFFFFFFFFFFFFFFFFFFFF AND PUSH20 0xFFFFFFFFFFFFFFFFFFFFFFFFFFFFFFFFFFFFFFFF AND PUSH4 0x70A08231 ADDRESS PUSH1 0x40 MLOAD DUP3 PUSH4 0xFFFFFFFF AND PUSH1 0xE0 SHL DUP2 MSTORE PUSH1 0x4 ADD PUSH2 0x1AEF SWAP2 SWAP1 PUSH2 0x5811 JUMP JUMPDEST PUSH1 0x20 PUSH1 0x40 MLOAD DUP1 DUP4 SUB DUP2 DUP7 GAS STATICCALL ISZERO DUP1 ISZERO PUSH2 0x1B0C JUMPI RETURNDATASIZE PUSH1 0x0 DUP1 RETURNDATACOPY RETURNDATASIZE PUSH1 0x0 REVERT JUMPDEST POP POP POP POP PUSH1 0x40 MLOAD RETURNDATASIZE PUSH1 0x1F NOT PUSH1 0x1F DUP3 ADD AND DUP3 ADD DUP1 PUSH1 0x40 MSTORE POP DUP2 ADD SWAP1 PUSH2 0x1B30 SWAP2 SWAP1 PUSH2 0x61C7 JUMP JUMPDEST PUSH2 0x1B3A SWAP2 SWAP1 PUSH2 0x6076 JUMP JUMPDEST SWAP1 POP PUSH1 0xA SLOAD DUP3 GT ISZERO PUSH2 0x1B57 JUMPI PUSH1 0xA SLOAD DUP3 PUSH2 0x1B54 SWAP2 SWAP1 PUSH2 0x6076 JUMP JUMPDEST SWAP2 POP JUMPDEST PUSH1 0xB SLOAD DUP2 GT ISZERO PUSH2 0x1B72 JUMPI PUSH1 0xB SLOAD DUP2 PUSH2 0x1B6F SWAP2 SWAP1 PUSH2 0x6076 JUMP JUMPDEST SWAP1 POP JUMPDEST PUSH2 0x1B81 DUP3 DUP16 DUP13 PUSH1 0x0 ADD MLOAD PUSH2 0x47AB JUMP JUMPDEST DUP7 PUSH2 0x1B8C SWAP2 SWAP1 PUSH2 0x6151 JUMP JUMPDEST SWAP12 POP PUSH2 0x1B9D DUP2 DUP16 DUP13 PUSH1 0x0 ADD MLOAD PUSH2 0x47AB JUMP JUMPDEST DUP6 PUSH2 0x1BA8 SWAP2 SWAP1 PUSH2 0x6151 JUMP JUMPDEST SWAP11 POP POP POP POP POP POP POP POP POP POP PUSH2 0x1BEC JUMP JUMPDEST PUSH1 0x0 DUP1 PUSH2 0x1BC3 PUSH2 0x914 JUMP JUMPDEST SWAP2 POP SWAP2 POP PUSH2 0x1BD6 DUP3 DUP9 DUP6 PUSH1 0x0 ADD MLOAD PUSH2 0x47AB JUMP JUMPDEST SWAP5 POP PUSH2 0x1BE7 DUP2 DUP9 DUP6 PUSH1 0x0 ADD MLOAD PUSH2 0x47AB JUMP JUMPDEST SWAP4 POP POP POP JUMPDEST DUP4 PUSH1 0x0 PUSH1 0x2 DUP2 LT PUSH2 0x1C00 JUMPI PUSH2 0x1BFF PUSH2 0x5F94 JUMP JUMPDEST JUMPDEST PUSH1 0x20 MUL ADD CALLDATALOAD DUP4 LT DUP1 PUSH2 0x1C29 JUMPI POP DUP4 PUSH1 0x1 PUSH1 0x2 DUP2 LT PUSH2 0x1C21 JUMPI PUSH2 0x1C20 PUSH2 0x5F94 JUMP JUMPDEST JUMPDEST PUSH1 0x20 MUL ADD CALLDATALOAD DUP3 LT JUMPDEST ISZERO PUSH2 0x1C60 JUMPI PUSH1 0x40 MLOAD PUSH32 0xE9F34DD200000000000000000000000000000000000000000000000000000000 DUP2 MSTORE PUSH1 0x4 ADD PUSH1 0x40 MLOAD DUP1 SWAP2 SUB SWAP1 REVERT JUMPDEST PUSH2 0x1C6A DUP4 DUP4 PUSH2 0x4885 JUMP JUMPDEST PUSH2 0x1C74 DUP4 DUP4 PUSH2 0x4905 JUMP JUMPDEST DUP1 SWAP4 POP DUP2 SWAP5 POP POP POP DUP1 PUSH1 0x20 ADD MLOAD DUP6 DUP3 PUSH1 0x20 ADD MLOAD PUSH2 0x1C91 SWAP2 SWAP1 PUSH2 0x6076 JUMP JUMPDEST PUSH1 0xC PUSH1 0x0 CALLER PUSH20 0xFFFFFFFFFFFFFFFFFFFFFFFFFFFFFFFFFFFFFFFF AND PUSH20 0xFFFFFFFFFFFFFFFFFFFFFFFFFFFFFFFFFFFFFFFF AND DUP2 MSTORE PUSH1 0x20 ADD SWAP1 DUP2 MSTORE PUSH1 0x20 ADD PUSH1 0x0 KECCAK256 PUSH1 0x1 ADD SLOAD PUSH2 0x1CDE SWAP2 SWAP1 PUSH2 0x61F4 JUMP JUMPDEST PUSH2 0x1CE8 SWAP2 SWAP1 PUSH2 0x6265 JUMP JUMPDEST PUSH1 0xC PUSH1 0x0 CALLER PUSH20 0xFFFFFFFFFFFFFFFFFFFFFFFFFFFFFFFFFFFFFFFF AND PUSH20 0xFFFFFFFFFFFFFFFFFFFFFFFFFFFFFFFFFFFFFFFF AND DUP2 MSTORE PUSH1 0x20 ADD SWAP1 DUP2 MSTORE PUSH1 0x20 ADD PUSH1 0x0 KECCAK256 PUSH1 0x1 ADD DUP2 SWAP1 SSTORE POP PUSH1 0x0 DUP4 GT ISZERO PUSH2 0x1DD9 JUMPI PUSH1 0x7 PUSH1 0x0 SWAP1 SLOAD SWAP1 PUSH2 0x100 EXP SWAP1 DIV PUSH20 0xFFFFFFFFFFFFFFFFFFFFFFFFFFFFFFFFFFFFFFFF AND PUSH20 0xFFFFFFFFFFFFFFFFFFFFFFFFFFFFFFFFFFFFFFFF AND PUSH4 0xA9059CBB CALLER DUP6 PUSH1 0x40 MLOAD DUP4 PUSH4 0xFFFFFFFF AND PUSH1 0xE0 SHL DUP2 MSTORE PUSH1 0x4 ADD PUSH2 0x1D94 SWAP3 SWAP2 SWAP1 PUSH2 0x6296 JUMP JUMPDEST PUSH1 0x20 PUSH1 0x40 MLOAD DUP1 DUP4 SUB DUP2 PUSH1 0x0 DUP8 GAS CALL ISZERO DUP1 ISZERO PUSH2 0x1DB3 JUMPI RETURNDATASIZE PUSH1 0x0 DUP1 RETURNDATACOPY RETURNDATASIZE PUSH1 0x0 REVERT JUMPDEST POP POP POP POP PUSH1 0x40 MLOAD RETURNDATASIZE PUSH1 0x1F NOT PUSH1 0x1F DUP3 ADD AND DUP3 ADD DUP1 PUSH1 0x40 MSTORE POP DUP2 ADD SWAP1 PUSH2 0x1DD7 SWAP2 SWAP1 PUSH2 0x62BF JUMP JUMPDEST POP JUMPDEST DUP1 PUSH1 0x20 ADD MLOAD DUP6 DUP3 PUSH1 0x20 ADD MLOAD PUSH2 0x1DEE SWAP2 SWAP1 PUSH2 0x6076 JUMP JUMPDEST PUSH1 0xC PUSH1 0x0 CALLER PUSH20 0xFFFFFFFFFFFFFFFFFFFFFFFFFFFFFFFFFFFFFFFF AND PUSH20 0xFFFFFFFFFFFFFFFFFFFFFFFFFFFFFFFFFFFFFFFF AND DUP2 MSTORE PUSH1 0x20 ADD SWAP1 DUP2 MSTORE PUSH1 0x20 ADD PUSH1 0x0 KECCAK256 PUSH1 0x2 ADD SLOAD PUSH2 0x1E3B SWAP2 SWAP1 PUSH2 0x61F4 JUMP JUMPDEST PUSH2 0x1E45 SWAP2 SWAP1 PUSH2 0x6265 JUMP JUMPDEST PUSH1 0xC PUSH1 0x0 CALLER PUSH20 0xFFFFFFFFFFFFFFFFFFFFFFFFFFFFFFFFFFFFFFFF AND PUSH20 0xFFFFFFFFFFFFFFFFFFFFFFFFFFFFFFFFFFFFFFFF AND DUP2 MSTORE PUSH1 0x20 ADD SWAP1 DUP2 MSTORE PUSH1 0x20 ADD PUSH1 0x0 KECCAK256 PUSH1 0x2 ADD DUP2 SWAP1 SSTORE POP PUSH1 0x0 DUP3 GT ISZERO PUSH2 0x1F36 JUMPI PUSH1 0x8 PUSH1 0x0 SWAP1 SLOAD SWAP1 PUSH2 0x100 EXP SWAP1 DIV PUSH20 0xFFFFFFFFFFFFFFFFFFFFFFFFFFFFFFFFFFFFFFFF AND PUSH20 0xFFFFFFFFFFFFFFFFFFFFFFFFFFFFFFFFFFFFFFFF AND PUSH4 0xA9059CBB CALLER DUP5 PUSH1 0x40 MLOAD DUP4 PUSH4 0xFFFFFFFF AND PUSH1 0xE0 SHL DUP2 MSTORE PUSH1 0x4 ADD PUSH2 0x1EF1 SWAP3 SWAP2 SWAP1 PUSH2 0x6296 JUMP JUMPDEST PUSH1 0x20 PUSH1 0x40 MLOAD DUP1 DUP4 SUB DUP2 PUSH1 0x0 DUP8 GAS CALL ISZERO DUP1 ISZERO PUSH2 0x1F10 JUMPI RETURNDATASIZE PUSH1 0x0 DUP1 RETURNDATACOPY RETURNDATASIZE PUSH1 0x0 REVERT JUMPDEST POP POP POP POP PUSH1 0x40 MLOAD RETURNDATASIZE PUSH1 0x1F NOT PUSH1 0x1F DUP3 ADD AND DUP3 ADD DUP1 PUSH1 0x40 MSTORE POP DUP2 ADD SWAP1 PUSH2 0x1F34 SWAP2 SWAP1 PUSH2 0x62BF JUMP JUMPDEST POP JUMPDEST CALLER PUSH20 0xFFFFFFFFFFFFFFFFFFFFFFFFFFFFFFFFFFFFFFFF AND PUSH32 0x4C60206A5C1DE41F3376D1D60F0949D96CB682033C90B1C2D9D9A62D4C4120C0 DUP7 DUP6 DUP6 PUSH1 0x40 MLOAD PUSH2 0x1F80 SWAP4 SWAP3 SWAP2 SWAP1 PUSH2 0x5921 JUMP JUMPDEST PUSH1 0x40 MLOAD DUP1 SWAP2 SUB SWAP1 LOG2 POP SWAP3 POP SWAP3 SWAP1 POP JUMP JUMPDEST PUSH1 0x0 DUP1 PUSH2 0x1F9B PUSH2 0x2C7A JUMP JUMPDEST SWAP1 POP PUSH2 0x1FA8 DUP2 DUP6 DUP6 PUSH2 0x3746 JUMP JUMPDEST PUSH1 0x1 SWAP2 POP POP SWAP3 SWAP2 POP POP JUMP JUMPDEST PUSH1 0x6 PUSH1 0x7 SWAP1 SLOAD SWAP1 PUSH2 0x100 EXP SWAP1 DIV PUSH1 0xFF AND DUP2 JUMP JUMPDEST PUSH1 0x0 DUP1 PUSH1 0x6 PUSH1 0x7 SWAP1 SLOAD SWAP1 PUSH2 0x100 EXP SWAP1 DIV PUSH1 0xFF AND PUSH2 0x200F JUMPI PUSH1 0x40 MLOAD PUSH32 0x6290E4E00000000000000000000000000000000000000000000000000000000 DUP2 MSTORE PUSH1 0x4 ADD PUSH1 0x40 MLOAD DUP1 SWAP2 SUB SWAP1 REVERT JUMPDEST PUSH1 0x0 DUP5 SUB PUSH2 0x2049 JUMPI PUSH1 0x40 MLOAD PUSH32 0xCCFAD01800000000000000000000000000000000000000000000000000000000 DUP2 MSTORE PUSH1 0x4 ADD PUSH1 0x40 MLOAD DUP1 SWAP2 SUB SWAP1 REVERT JUMPDEST PUSH1 0x0 PUSH2 0x2053 PUSH2 0xCEA JUMP JUMPDEST SWAP1 POP PUSH1 0x0 PUSH1 0x6 DUP1 SLOAD SWAP1 PUSH2 0x100 EXP SWAP1 DIV PUSH1 0xFF AND SWAP1 POP PUSH1 0x0 PUSH1 0x6 PUSH1 0xB SWAP1 SLOAD SWAP1 PUSH2 0x100 EXP SWAP1 DIV PUSH20 0xFFFFFFFFFFFFFFFFFFFFFFFFFFFFFFFFFFFFFFFF AND PUSH20 0xFFFFFFFFFFFFFFFFFFFFFFFFFFFFFFFFFFFFFFFF AND PUSH4 0x3850C7BD PUSH1 0x40 MLOAD DUP2 PUSH4 0xFFFFFFFF AND PUSH1 0xE0 SHL DUP2 MSTORE PUSH1 0x4 ADD PUSH1 0xE0 PUSH1 0x40 MLOAD DUP1 DUP4 SUB DUP2 DUP7 GAS STATICCALL ISZERO DUP1 ISZERO PUSH2 0x20D6 JUMPI RETURNDATASIZE PUSH1 0x0 DUP1 RETURNDATACOPY RETURNDATASIZE PUSH1 0x0 REVERT JUMPDEST POP POP POP POP PUSH1 0x40 MLOAD RETURNDATASIZE PUSH1 0x1F NOT PUSH1 0x1F DUP3 ADD AND DUP3 ADD DUP1 PUSH1 0x40 MSTORE POP DUP2 ADD SWAP1 PUSH2 0x20FA SWAP2 SWAP1 PUSH2 0x5DE3 JUMP JUMPDEST POP POP POP POP POP POP SWAP1 POP PUSH1 0x0 DUP4 GT ISZERO PUSH2 0x213B JUMPI PUSH1 0x0 DUP1 PUSH2 0x2116 PUSH2 0x914 JUMP JUMPDEST SWAP2 POP SWAP2 POP PUSH2 0x2125 DUP3 DUP11 DUP8 PUSH2 0x4981 JUMP JUMPDEST SWAP7 POP PUSH2 0x2132 DUP2 DUP11 DUP8 PUSH2 0x4981 JUMP JUMPDEST SWAP6 POP POP POP PUSH2 0x21C1 JUMP JUMPDEST DUP2 ISZERO PUSH2 0x218E JUMPI PUSH2 0x2181 DUP2 PUSH2 0x2160 PUSH1 0x6 PUSH1 0x0 SWAP1 SLOAD SWAP1 PUSH2 0x100 EXP SWAP1 DIV PUSH1 0x2 SIGNEXTEND PUSH1 0x2 SIGNEXTEND PUSH2 0x2FDE JUMP JUMPDEST PUSH2 0x217B PUSH1 0x6 PUSH1 0x3 SWAP1 SLOAD SWAP1 PUSH2 0x100 EXP SWAP1 DIV PUSH1 0x2 SIGNEXTEND PUSH1 0x2 SIGNEXTEND PUSH2 0x2FDE JUMP JUMPDEST DUP11 PUSH2 0x4176 JUMP JUMPDEST DUP1 SWAP6 POP DUP2 SWAP7 POP POP POP PUSH2 0x21C0 JUMP JUMPDEST PUSH1 0x40 MLOAD PUSH32 0x344FA43B00000000000000000000000000000000000000000000000000000000 DUP2 MSTORE PUSH1 0x4 ADD PUSH1 0x40 MLOAD DUP1 SWAP2 SUB SWAP1 REVERT JUMPDEST JUMPDEST DUP6 PUSH1 0x0 PUSH1 0x2 DUP2 LT PUSH2 0x21D5 JUMPI PUSH2 0x21D4 PUSH2 0x5F94 JUMP JUMPDEST JUMPDEST PUSH1 0x20 MUL ADD CALLDATALOAD DUP6 GT DUP1 PUSH2 0x21FE JUMPI POP DUP6 PUSH1 0x1 PUSH1 0x2 DUP2 LT PUSH2 0x21F6 JUMPI PUSH2 0x21F5 PUSH2 0x5F94 JUMP JUMPDEST JUMPDEST PUSH1 0x20 MUL ADD CALLDATALOAD DUP5 GT JUMPDEST ISZERO PUSH2 0x2235 JUMPI PUSH1 0x40 MLOAD PUSH32 0xE9F34DD200000000000000000000000000000000000000000000000000000000 DUP2 MSTORE PUSH1 0x4 ADD PUSH1 0x40 MLOAD DUP1 SWAP2 SUB SWAP1 REVERT JUMPDEST PUSH1 0xC PUSH1 0x0 CALLER PUSH20 0xFFFFFFFFFFFFFFFFFFFFFFFFFFFFFFFFFFFFFFFF AND PUSH20 0xFFFFFFFFFFFFFFFFFFFFFFFFFFFFFFFFFFFFFFFF AND DUP2 MSTORE PUSH1 0x20 ADD SWAP1 DUP2 MSTORE PUSH1 0x20 ADD PUSH1 0x0 KECCAK256 PUSH1 0x0 ADD PUSH1 0x0 SWAP1 SLOAD SWAP1 PUSH2 0x100 EXP SWAP1 DIV PUSH1 0xFF AND PUSH2 0x2348 JUMPI PUSH1 0x1 PUSH1 0xC PUSH1 0x0 CALLER PUSH20 0xFFFFFFFFFFFFFFFFFFFFFFFFFFFFFFFFFFFFFFFF AND PUSH20 0xFFFFFFFFFFFFFFFFFFFFFFFFFFFFFFFFFFFFFFFF AND DUP2 MSTORE PUSH1 0x20 ADD SWAP1 DUP2 MSTORE PUSH1 0x20 ADD PUSH1 0x0 KECCAK256 PUSH1 0x0 ADD PUSH1 0x0 PUSH2 0x100 EXP DUP2 SLOAD DUP2 PUSH1 0xFF MUL NOT AND SWAP1 DUP4 ISZERO ISZERO MUL OR SWAP1 SSTORE POP PUSH1 0xD CALLER SWAP1 DUP1 PUSH1 0x1 DUP2 SLOAD ADD DUP1 DUP3 SSTORE DUP1 SWAP2 POP POP PUSH1 0x1 SWAP1 SUB SWAP1 PUSH1 0x0 MSTORE PUSH1 0x20 PUSH1 0x0 KECCAK256 ADD PUSH1 0x0 SWAP1 SWAP2 SWAP1 SWAP2 SWAP1 SWAP2 PUSH2 0x100 EXP DUP2 SLOAD DUP2 PUSH20 0xFFFFFFFFFFFFFFFFFFFFFFFFFFFFFFFFFFFFFFFF MUL NOT AND SWAP1 DUP4 PUSH20 0xFFFFFFFFFFFFFFFFFFFFFFFFFFFFFFFFFFFFFFFF AND MUL OR SWAP1 SSTORE POP JUMPDEST PUSH1 0x0 DUP6 GT ISZERO PUSH2 0x244E JUMPI DUP5 PUSH1 0xC PUSH1 0x0 CALLER PUSH20 0xFFFFFFFFFFFFFFFFFFFFFFFFFFFFFFFFFFFFFFFF AND PUSH20 0xFFFFFFFFFFFFFFFFFFFFFFFFFFFFFFFFFFFFFFFF AND DUP2 MSTORE PUSH1 0x20 ADD SWAP1 DUP2 MSTORE PUSH1 0x20 ADD PUSH1 0x0 KECCAK256 PUSH1 0x1 ADD PUSH1 0x0 DUP3 DUP3 SLOAD PUSH2 0x23A3 SWAP2 SWAP1 PUSH2 0x6151 JUMP JUMPDEST SWAP3 POP POP DUP2 SWAP1 SSTORE POP PUSH1 0x7 PUSH1 0x0 SWAP1 SLOAD SWAP1 PUSH2 0x100 EXP SWAP1 DIV PUSH20 0xFFFFFFFFFFFFFFFFFFFFFFFFFFFFFFFFFFFFFFFF AND PUSH20 0xFFFFFFFFFFFFFFFFFFFFFFFFFFFFFFFFFFFFFFFF AND PUSH4 0x23B872DD CALLER ADDRESS DUP9 PUSH1 0x40 MLOAD DUP5 PUSH4 0xFFFFFFFF AND PUSH1 0xE0 SHL DUP2 MSTORE PUSH1 0x4 ADD PUSH2 0x2409 SWAP4 SWAP3 SWAP2 SWAP1 PUSH2 0x62EC JUMP JUMPDEST PUSH1 0x20 PUSH1 0x40 MLOAD DUP1 DUP4 SUB DUP2 PUSH1 0x0 DUP8 GAS CALL ISZERO DUP1 ISZERO PUSH2 0x2428 JUMPI RETURNDATASIZE PUSH1 0x0 DUP1 RETURNDATACOPY RETURNDATASIZE PUSH1 0x0 REVERT JUMPDEST POP POP POP POP PUSH1 0x40 MLOAD RETURNDATASIZE PUSH1 0x1F NOT PUSH1 0x1F DUP3 ADD AND DUP3 ADD DUP1 PUSH1 0x40 MSTORE POP DUP2 ADD SWAP1 PUSH2 0x244C SWAP2 SWAP1 PUSH2 0x62BF JUMP JUMPDEST POP JUMPDEST PUSH1 0x0 DUP5 GT ISZERO PUSH2 0x2554 JUMPI DUP4 PUSH1 0xC PUSH1 0x0 CALLER PUSH20 0xFFFFFFFFFFFFFFFFFFFFFFFFFFFFFFFFFFFFFFFF AND PUSH20 0xFFFFFFFFFFFFFFFFFFFFFFFFFFFFFFFFFFFFFFFF AND DUP2 MSTORE PUSH1 0x20 ADD SWAP1 DUP2 MSTORE PUSH1 0x20 ADD PUSH1 0x0 KECCAK256 PUSH1 0x2 ADD PUSH1 0x0 DUP3 DUP3 SLOAD PUSH2 0x24A9 SWAP2 SWAP1 PUSH2 0x6151 JUMP JUMPDEST SWAP3 POP POP DUP2 SWAP1 SSTORE POP PUSH1 0x8 PUSH1 0x0 SWAP1 SLOAD SWAP1 PUSH2 0x100 EXP SWAP1 DIV PUSH20 0xFFFFFFFFFFFFFFFFFFFFFFFFFFFFFFFFFFFFFFFF AND PUSH20 0xFFFFFFFFFFFFFFFFFFFFFFFFFFFFFFFFFFFFFFFF AND PUSH4 0x23B872DD CALLER ADDRESS DUP8 PUSH1 0x40 MLOAD DUP5 PUSH4 0xFFFFFFFF AND PUSH1 0xE0 SHL DUP2 MSTORE PUSH1 0x4 ADD PUSH2 0x250F SWAP4 SWAP3 SWAP2 SWAP1 PUSH2 0x62EC JUMP JUMPDEST PUSH1 0x20 PUSH1 0x40 MLOAD DUP1 DUP4 SUB DUP2 PUSH1 0x0 DUP8 GAS CALL ISZERO DUP1 ISZERO PUSH2 0x252E JUMPI RETURNDATASIZE PUSH1 0x0 DUP1 RETURNDATACOPY RETURNDATASIZE PUSH1 0x0 REVERT JUMPDEST POP POP POP POP PUSH1 0x40 MLOAD RETURNDATASIZE PUSH1 0x1F NOT PUSH1 0x1F DUP3 ADD AND DUP3 ADD DUP1 PUSH1 0x40 MSTORE POP DUP2 ADD SWAP1 PUSH2 0x2552 SWAP2 SWAP1 PUSH2 0x62BF JUMP JUMPDEST POP JUMPDEST PUSH2 0x255E CALLER DUP9 PUSH2 0x49EC JUMP JUMPDEST DUP2 ISZERO PUSH2 0x266E JUMPI PUSH1 0x0 PUSH2 0x25A7 DUP3 PUSH2 0x2585 PUSH1 0x6 PUSH1 0x0 SWAP1 SLOAD SWAP1 PUSH2 0x100 EXP SWAP1 DIV PUSH1 0x2 SIGNEXTEND PUSH1 0x2 SIGNEXTEND PUSH2 0x2FDE JUMP JUMPDEST PUSH2 0x25A0 PUSH1 0x6 PUSH1 0x3 SWAP1 SLOAD SWAP1 PUSH2 0x100 EXP SWAP1 DIV PUSH1 0x2 SIGNEXTEND PUSH1 0x2 SIGNEXTEND PUSH2 0x2FDE JUMP JUMPDEST DUP10 DUP10 PUSH2 0x34A9 JUMP JUMPDEST SWAP1 POP PUSH1 0x6 PUSH1 0xB SWAP1 SLOAD SWAP1 PUSH2 0x100 EXP SWAP1 DIV PUSH20 0xFFFFFFFFFFFFFFFFFFFFFFFFFFFFFFFFFFFFFFFF AND PUSH20 0xFFFFFFFFFFFFFFFFFFFFFFFFFFFFFFFFFFFFFFFF AND PUSH4 0x3C8A7D8D ADDRESS PUSH1 0x6 PUSH1 0x0 SWAP1 SLOAD SWAP1 PUSH2 0x100 EXP SWAP1 DIV PUSH1 0x2 SIGNEXTEND PUSH1 0x6 PUSH1 0x3 SWAP1 SLOAD SWAP1 PUSH2 0x100 EXP SWAP1 DIV PUSH1 0x2 SIGNEXTEND DUP6 PUSH1 0x40 MLOAD DUP6 PUSH4 0xFFFFFFFF AND PUSH1 0xE0 SHL DUP2 MSTORE PUSH1 0x4 ADD PUSH2 0x2628 SWAP5 SWAP4 SWAP3 SWAP2 SWAP1 PUSH2 0x5EE7 JUMP JUMPDEST PUSH1 0x40 DUP1 MLOAD DUP1 DUP4 SUB DUP2 PUSH1 0x0 DUP8 GAS CALL ISZERO DUP1 ISZERO PUSH2 0x2646 JUMPI RETURNDATASIZE PUSH1 0x0 DUP1 RETURNDATACOPY RETURNDATASIZE PUSH1 0x0 REVERT JUMPDEST POP POP POP POP PUSH1 0x40 MLOAD RETURNDATASIZE PUSH1 0x1F NOT PUSH1 0x1F DUP3 ADD AND DUP3 ADD DUP1 PUSH1 0x40 MSTORE POP DUP2 ADD SWAP1 PUSH2 0x266A SWAP2 SWAP1 PUSH2 0x5F54 JUMP JUMPDEST POP POP POP JUMPDEST CALLER PUSH20 0xFFFFFFFFFFFFFFFFFFFFFFFFFFFFFFFFFFFFFFFF AND PUSH32 0x5A3358A3D27A5373C0DF2604662088D37894D56B7CFD27F315770440F4E0D919 DUP9 DUP8 DUP8 PUSH1 0x40 MLOAD PUSH2 0x26B8 SWAP4 SWAP3 SWAP2 SWAP1 PUSH2 0x5921 JUMP JUMPDEST PUSH1 0x40 MLOAD DUP1 SWAP2 SUB SWAP1 LOG2 POP POP POP SWAP3 POP SWAP3 SWAP1 POP JUMP JUMPDEST PUSH1 0x9 PUSH1 0x0 SWAP1 SLOAD SWAP1 PUSH2 0x100 EXP SWAP1 DIV PUSH20 0xFFFFFFFFFFFFFFFFFFFFFFFFFFFFFFFFFFFFFFFF AND DUP2 JUMP JUMPDEST PUSH1 0x60 PUSH1 0x0 DUP4 EQ DUP1 ISZERO PUSH2 0x2702 JUMPI POP PUSH1 0x0 DUP3 EQ JUMPDEST ISZERO PUSH2 0x2710 JUMPI PUSH1 0xD DUP1 SLOAD SWAP1 POP SWAP2 POP JUMPDEST PUSH1 0x0 DUP4 DUP4 PUSH2 0x271E SWAP2 SWAP1 PUSH2 0x6076 JUMP JUMPDEST PUSH8 0xFFFFFFFFFFFFFFFF DUP2 GT ISZERO PUSH2 0x2737 JUMPI PUSH2 0x2736 PUSH2 0x6323 JUMP JUMPDEST JUMPDEST PUSH1 0x40 MLOAD SWAP1 DUP1 DUP3 MSTORE DUP1 PUSH1 0x20 MUL PUSH1 0x20 ADD DUP3 ADD PUSH1 0x40 MSTORE DUP1 ISZERO PUSH2 0x2770 JUMPI DUP2 PUSH1 0x20 ADD JUMPDEST PUSH2 0x275D PUSH2 0x52F8 JUMP JUMPDEST DUP2 MSTORE PUSH1 0x20 ADD SWAP1 PUSH1 0x1 SWAP1 SUB SWAP1 DUP2 PUSH2 0x2755 JUMPI SWAP1 POP JUMPDEST POP SWAP1 POP PUSH1 0x0 DUP1 DUP6 SWAP1 POP JUMPDEST DUP5 DUP2 LT ISZERO PUSH2 0x28F2 JUMPI PUSH1 0x0 PUSH1 0xC PUSH1 0x0 PUSH1 0xD DUP5 DUP2 SLOAD DUP2 LT PUSH2 0x279C JUMPI PUSH2 0x279B PUSH2 0x5F94 JUMP JUMPDEST JUMPDEST SWAP1 PUSH1 0x0 MSTORE PUSH1 0x20 PUSH1 0x0 KECCAK256 ADD PUSH1 0x0 SWAP1 SLOAD SWAP1 PUSH2 0x100 EXP SWAP1 DIV PUSH20 0xFFFFFFFFFFFFFFFFFFFFFFFFFFFFFFFFFFFFFFFF AND PUSH20 0xFFFFFFFFFFFFFFFFFFFFFFFFFFFFFFFFFFFFFFFF AND PUSH20 0xFFFFFFFFFFFFFFFFFFFFFFFFFFFFFFFFFFFFFFFF AND DUP2 MSTORE PUSH1 0x20 ADD SWAP1 DUP2 MSTORE PUSH1 0x20 ADD PUSH1 0x0 KECCAK256 PUSH1 0x40 MLOAD DUP1 PUSH1 0x60 ADD PUSH1 0x40 MSTORE SWAP1 DUP2 PUSH1 0x0 DUP3 ADD PUSH1 0x0 SWAP1 SLOAD SWAP1 PUSH2 0x100 EXP SWAP1 DIV PUSH1 0xFF AND ISZERO ISZERO ISZERO ISZERO DUP2 MSTORE PUSH1 0x20 ADD PUSH1 0x1 DUP3 ADD SLOAD DUP2 MSTORE PUSH1 0x20 ADD PUSH1 0x2 DUP3 ADD SLOAD DUP2 MSTORE POP POP SWAP1 POP PUSH1 0x40 MLOAD DUP1 PUSH1 0x60 ADD PUSH1 0x40 MSTORE DUP1 PUSH1 0xD DUP5 DUP2 SLOAD DUP2 LT PUSH2 0x285C JUMPI PUSH2 0x285B PUSH2 0x5F94 JUMP JUMPDEST JUMPDEST SWAP1 PUSH1 0x0 MSTORE PUSH1 0x20 PUSH1 0x0 KECCAK256 ADD PUSH1 0x0 SWAP1 SLOAD SWAP1 PUSH2 0x100 EXP SWAP1 DIV PUSH20 0xFFFFFFFFFFFFFFFFFFFFFFFFFFFFFFFFFFFFFFFF AND PUSH20 0xFFFFFFFFFFFFFFFFFFFFFFFFFFFFFFFFFFFFFFFF AND DUP2 MSTORE PUSH1 0x20 ADD DUP3 PUSH1 0x20 ADD MLOAD DUP2 MSTORE PUSH1 0x20 ADD DUP3 PUSH1 0x40 ADD MLOAD DUP2 MSTORE POP DUP5 DUP5 DUP1 PUSH2 0x28C0 SWAP1 PUSH2 0x6352 JUMP JUMPDEST SWAP6 POP DUP2 MLOAD DUP2 LT PUSH2 0x28D3 JUMPI PUSH2 0x28D2 PUSH2 0x5F94 JUMP JUMPDEST JUMPDEST PUSH1 0x20 MUL PUSH1 0x20 ADD ADD DUP2 SWAP1 MSTORE POP POP DUP1 DUP1 PUSH2 0x28EA SWAP1 PUSH2 0x6352 JUMP JUMPDEST SWAP2 POP POP PUSH2 0x277A JUMP JUMPDEST POP DUP2 SWAP3 POP POP POP SWAP3 SWAP2 POP POP JUMP JUMPDEST PUSH1 0x6 PUSH1 0x8 SWAP1 SLOAD SWAP1 PUSH2 0x100 EXP SWAP1 DIV PUSH1 0x2 SIGNEXTEND DUP2 JUMP JUMPDEST PUSH1 0x8 PUSH1 0x0 SWAP1 SLOAD SWAP1 PUSH2 0x100 EXP SWAP1 DIV PUSH20 0xFFFFFFFFFFFFFFFFFFFFFFFFFFFFFFFFFFFFFFFF AND DUP2 JUMP JUMPDEST PUSH2 0x293F PUSH2 0x4A6E JUMP JUMPDEST JUMP JUMPDEST PUSH1 0x0 PUSH1 0x2 PUSH1 0x0 DUP5 PUSH20 0xFFFFFFFFFFFFFFFFFFFFFFFFFFFFFFFFFFFFFFFF AND PUSH20 0xFFFFFFFFFFFFFFFFFFFFFFFFFFFFFFFFFFFFFFFF AND DUP2 MSTORE PUSH1 0x20 ADD SWAP1 DUP2 MSTORE PUSH1 0x20 ADD PUSH1 0x0 KECCAK256 PUSH1 0x0 DUP4 PUSH20 0xFFFFFFFFFFFFFFFFFFFFFFFFFFFFFFFFFFFFFFFF AND PUSH20 0xFFFFFFFFFFFFFFFFFFFFFFFFFFFFFFFFFFFFFFFF AND DUP2 MSTORE PUSH1 0x20 ADD SWAP1 DUP2 MSTORE PUSH1 0x20 ADD PUSH1 0x0 KECCAK256 SLOAD SWAP1 POP SWAP3 SWAP2 POP POP JUMP JUMPDEST PUSH1 0x0 ADDRESS PUSH1 0x6 PUSH1 0x0 SWAP1 SLOAD SWAP1 PUSH2 0x100 EXP SWAP1 DIV PUSH1 0x2 SIGNEXTEND PUSH1 0x6 PUSH1 0x3 SWAP1 SLOAD SWAP1 PUSH2 0x100 EXP SWAP1 DIV PUSH1 0x2 SIGNEXTEND PUSH1 0x40 MLOAD PUSH1 0x20 ADD PUSH2 0x29FD SWAP4 SWAP3 SWAP2 SWAP1 PUSH2 0x6418 JUMP JUMPDEST PUSH1 0x40 MLOAD PUSH1 0x20 DUP2 DUP4 SUB SUB DUP2 MSTORE SWAP1 PUSH1 0x40 MSTORE DUP1 MLOAD SWAP1 PUSH1 0x20 ADD KECCAK256 SWAP1 POP SWAP1 JUMP JUMPDEST PUSH1 0x0 DUP1 PUSH1 0x6 PUSH1 0xB SWAP1 SLOAD SWAP1 PUSH2 0x100 EXP SWAP1 DIV PUSH20 0xFFFFFFFFFFFFFFFFFFFFFFFFFFFFFFFFFFFFFFFF AND PUSH20 0xFFFFFFFFFFFFFFFFFFFFFFFFFFFFFFFFFFFFFFFF AND PUSH4 0x128ACB08 ADDRESS DUP9 DUP9 DUP9 PUSH1 0x40 MLOAD DUP6 PUSH4 0xFFFFFFFF AND PUSH1 0xE0 SHL DUP2 MSTORE PUSH1 0x4 ADD PUSH2 0x2A7C SWAP5 SWAP4 SWAP3 SWAP2 SWAP1 PUSH2 0x6464 JUMP JUMPDEST PUSH1 0x40 DUP1 MLOAD DUP1 DUP4 SUB DUP2 PUSH1 0x0 DUP8 GAS CALL ISZERO DUP1 ISZERO PUSH2 0x2A9A JUMPI RETURNDATASIZE PUSH1 0x0 DUP1 RETURNDATACOPY RETURNDATASIZE PUSH1 0x0 REVERT JUMPDEST POP POP POP POP PUSH1 0x40 MLOAD RETURNDATASIZE PUSH1 0x1F NOT PUSH1 0x1F DUP3 ADD AND DUP3 ADD DUP1 PUSH1 0x40 MSTORE POP DUP2 ADD SWAP1 PUSH2 0x2ABE SWAP2 SWAP1 PUSH2 0x64D1 JUMP JUMPDEST DUP1 SWAP3 POP DUP2 SWAP4 POP POP POP DUP6 DUP1 ISZERO PUSH2 0x2ADB JUMPI POP DUP3 DUP2 PUSH2 0x2AD9 SWAP1 PUSH2 0x6511 JUMP JUMPDEST LT JUMPDEST DUP1 PUSH2 0x2AF8 JUMPI POP DUP6 ISZERO DUP1 ISZERO PUSH2 0x2AF7 JUMPI POP DUP3 DUP3 PUSH2 0x2AF5 SWAP1 PUSH2 0x6511 JUMP JUMPDEST LT JUMPDEST JUMPDEST ISZERO PUSH2 0x2B2F JUMPI PUSH1 0x40 MLOAD PUSH32 0xE9F34DD200000000000000000000000000000000000000000000000000000000 DUP2 MSTORE PUSH1 0x4 ADD PUSH1 0x40 MLOAD DUP1 SWAP2 SUB SWAP1 REVERT JUMPDEST PUSH32 0xBF511038CFA32CFB7971E976074C0E6AEDA010E6AFCBB38D87B4F91030501494 DUP7 DUP4 DUP4 PUSH1 0x40 MLOAD PUSH2 0x2B62 SWAP4 SWAP3 SWAP2 SWAP1 PUSH2 0x6559 JUMP JUMPDEST PUSH1 0x40 MLOAD DUP1 SWAP2 SUB SWAP1 LOG1 SWAP5 POP SWAP5 SWAP3 POP POP POP JUMP JUMPDEST PUSH1 0x0 DUP1 PUSH1 0x0 PUSH2 0x2B80 PUSH2 0xCEA JUMP JUMPDEST SWAP1 POP PUSH1 0x0 DUP2 EQ PUSH2 0x2BE0 JUMPI PUSH1 0x0 DUP1 PUSH2 0x2B95 PUSH2 0x914 JUMP JUMPDEST SWAP2 POP SWAP2 POP DUP3 DUP3 DUP8 PUSH2 0x2BA6 SWAP2 SWAP1 PUSH2 0x61F4 JUMP JUMPDEST PUSH2 0x2BB0 SWAP2 SWAP1 PUSH2 0x6265 JUMP JUMPDEST SWAP5 POP DUP3 DUP2 DUP8 PUSH2 0x2BBF SWAP2 SWAP1 PUSH2 0x61F4 JUMP JUMPDEST PUSH2 0x2BC9 SWAP2 SWAP1 PUSH2 0x6265 JUMP JUMPDEST SWAP4 POP PUSH2 0x2BD5 DUP6 DUP6 PUSH2 0x4905 JUMP JUMPDEST DUP1 SWAP6 POP DUP2 SWAP7 POP POP POP POP POP JUMPDEST POP SWAP2 POP SWAP2 JUMP JUMPDEST PUSH2 0x2BEE PUSH2 0x383A JUMP JUMPDEST PUSH1 0x0 PUSH20 0xFFFFFFFFFFFFFFFFFFFFFFFFFFFFFFFFFFFFFFFF AND DUP2 PUSH20 0xFFFFFFFFFFFFFFFFFFFFFFFFFFFFFFFFFFFFFFFF AND SUB PUSH2 0x2C60 JUMPI PUSH1 0x0 PUSH1 0x40 MLOAD PUSH32 0x1E4FBDF700000000000000000000000000000000000000000000000000000000 DUP2 MSTORE PUSH1 0x4 ADD PUSH2 0x2C57 SWAP2 SWAP1 PUSH2 0x5811 JUMP JUMPDEST PUSH1 0x40 MLOAD DUP1 SWAP2 SUB SWAP1 REVERT JUMPDEST PUSH2 0x2C69 DUP2 PUSH2 0x38C1 JUMP JUMPDEST POP JUMP JUMPDEST PUSH2 0x2C76 DUP3 DUP3 PUSH2 0x3F15 JUMP JUMPDEST POP POP JUMP JUMPDEST PUSH1 0x0 CALLER SWAP1 POP SWAP1 JUMP JUMPDEST PUSH2 0x2C8F DUP4 DUP4 DUP4 PUSH1 0x1 PUSH2 0x4ADA JUMP JUMPDEST POP POP POP JUMP JUMPDEST PUSH1 0x0 DUP1 PUSH1 0x0 DUP1 PUSH1 0x0 DUP1 PUSH1 0x0 PUSH1 0x6 PUSH1 0xB SWAP1 SLOAD SWAP1 PUSH2 0x100 EXP SWAP1 DIV PUSH20 0xFFFFFFFFFFFFFFFFFFFFFFFFFFFFFFFFFFFFFFFF AND PUSH20 0xFFFFFFFFFFFFFFFFFFFFFFFFFFFFFFFFFFFFFFFF AND PUSH4 0x514EA4BF PUSH2 0x2CE5 PUSH2 0x29C8 JUMP JUMPDEST PUSH1 0x40 MLOAD DUP3 PUSH4 0xFFFFFFFF AND PUSH1 0xE0 SHL DUP2 MSTORE PUSH1 0x4 ADD PUSH2 0x2D01 SWAP2 SWAP1 PUSH2 0x5B4F JUMP JUMPDEST PUSH1 0xA0 PUSH1 0x40 MLOAD DUP1 DUP4 SUB DUP2 DUP7 GAS STATICCALL ISZERO DUP1 ISZERO PUSH2 0x2D1E JUMPI RETURNDATASIZE PUSH1 0x0 DUP1 RETURNDATACOPY RETURNDATASIZE PUSH1 0x0 REVERT JUMPDEST POP POP POP POP PUSH1 0x40 MLOAD RETURNDATASIZE PUSH1 0x1F NOT PUSH1 0x1F DUP3 ADD AND DUP3 ADD DUP1 PUSH1 0x40 MSTORE POP DUP2 ADD SWAP1 PUSH2 0x2D42 SWAP2 SWAP1 PUSH2 0x60D6 JUMP JUMPDEST SWAP5 POP SWAP5 POP SWAP5 POP SWAP5 POP SWAP5 POP PUSH1 0x0 DUP1 PUSH1 0x0 DUP8 PUSH16 0xFFFFFFFFFFFFFFFFFFFFFFFFFFFFFFFF AND EQ PUSH2 0x2E38 JUMPI PUSH2 0x2DA9 DUP12 PUSH2 0x2D88 PUSH1 0x6 PUSH1 0x0 SWAP1 SLOAD SWAP1 PUSH2 0x100 EXP SWAP1 DIV PUSH1 0x2 SIGNEXTEND PUSH1 0x2 SIGNEXTEND PUSH2 0x2FDE JUMP JUMPDEST PUSH2 0x2DA3 PUSH1 0x6 PUSH1 0x3 SWAP1 SLOAD SWAP1 PUSH2 0x100 EXP SWAP1 DIV PUSH1 0x2 SIGNEXTEND PUSH1 0x2 SIGNEXTEND PUSH2 0x2FDE JUMP JUMPDEST DUP11 PUSH2 0x4176 JUMP JUMPDEST DUP1 SWAP10 POP DUP2 SWAP11 POP POP POP DUP4 PUSH16 0xFFFFFFFFFFFFFFFFFFFFFFFFFFFFFFFF AND PUSH2 0x2DD1 PUSH1 0x1 DUP9 DUP14 DUP12 PUSH2 0x3985 JUMP JUMPDEST PUSH2 0x2DDB SWAP2 SWAP1 PUSH2 0x6151 JUMP JUMPDEST SWAP2 POP DUP3 PUSH16 0xFFFFFFFFFFFFFFFFFFFFFFFFFFFFFFFF AND PUSH2 0x2DFD PUSH1 0x0 DUP8 DUP14 DUP12 PUSH2 0x3985 JUMP JUMPDEST PUSH2 0x2E07 SWAP2 SWAP1 PUSH2 0x6151 JUMP JUMPDEST SWAP1 POP PUSH2 0x2E13 DUP3 DUP3 PUSH2 0x3E99 JUMP JUMPDEST DUP1 SWAP3 POP DUP2 SWAP4 POP POP POP DUP2 DUP10 PUSH2 0x2E27 SWAP2 SWAP1 PUSH2 0x6151 JUMP JUMPDEST SWAP9 POP DUP1 DUP9 PUSH2 0x2E35 SWAP2 SWAP1 PUSH2 0x6151 JUMP JUMPDEST SWAP8 POP JUMPDEST PUSH1 0x0 PUSH1 0x7 PUSH1 0x0 SWAP1 SLOAD SWAP1 PUSH2 0x100 EXP SWAP1 DIV PUSH20 0xFFFFFFFFFFFFFFFFFFFFFFFFFFFFFFFFFFFFFFFF AND PUSH20 0xFFFFFFFFFFFFFFFFFFFFFFFFFFFFFFFFFFFFFFFF AND PUSH4 0x70A08231 ADDRESS PUSH1 0x40 MLOAD DUP3 PUSH4 0xFFFFFFFF AND PUSH1 0xE0 SHL DUP2 MSTORE PUSH1 0x4 ADD PUSH2 0x2E95 SWAP2 SWAP1 PUSH2 0x5811 JUMP JUMPDEST PUSH1 0x20 PUSH1 0x40 MLOAD DUP1 DUP4 SUB DUP2 DUP7 GAS STATICCALL ISZERO DUP1 ISZERO PUSH2 0x2EB2 JUMPI RETURNDATASIZE PUSH1 0x0 DUP1 RETURNDATACOPY RETURNDATASIZE PUSH1 0x0 REVERT JUMPDEST POP POP POP POP PUSH1 0x40 MLOAD RETURNDATASIZE PUSH1 0x1F NOT PUSH1 0x1F DUP3 ADD AND DUP3 ADD DUP1 PUSH1 0x40 MSTORE POP DUP2 ADD SWAP1 PUSH2 0x2ED6 SWAP2 SWAP1 PUSH2 0x61C7 JUMP JUMPDEST SWAP1 POP PUSH1 0x0 PUSH1 0x8 PUSH1 0x0 SWAP1 SLOAD SWAP1 PUSH2 0x100 EXP SWAP1 DIV PUSH20 0xFFFFFFFFFFFFFFFFFFFFFFFFFFFFFFFFFFFFFFFF AND PUSH20 0xFFFFFFFFFFFFFFFFFFFFFFFFFFFFFFFFFFFFFFFF AND PUSH4 0x70A08231 ADDRESS PUSH1 0x40 MLOAD DUP3 PUSH4 0xFFFFFFFF AND PUSH1 0xE0 SHL DUP2 MSTORE PUSH1 0x4 ADD PUSH2 0x2F35 SWAP2 SWAP1 PUSH2 0x5811 JUMP JUMPDEST PUSH1 0x20 PUSH1 0x40 MLOAD DUP1 DUP4 SUB DUP2 DUP7 GAS STATICCALL ISZERO DUP1 ISZERO PUSH2 0x2F52 JUMPI RETURNDATASIZE PUSH1 0x0 DUP1 RETURNDATACOPY RETURNDATASIZE PUSH1 0x0 REVERT JUMPDEST POP POP POP POP PUSH1 0x40 MLOAD RETURNDATASIZE PUSH1 0x1F NOT PUSH1 0x1F DUP3 ADD AND DUP3 ADD DUP1 PUSH1 0x40 MSTORE POP DUP2 ADD SWAP1 PUSH2 0x2F76 SWAP2 SWAP1 PUSH2 0x61C7 JUMP JUMPDEST SWAP1 POP PUSH1 0xA SLOAD DUP3 GT PUSH2 0x2F87 JUMPI DUP2 PUSH2 0x2F96 JUMP JUMPDEST PUSH1 0xA SLOAD DUP3 PUSH2 0x2F95 SWAP2 SWAP1 PUSH2 0x6076 JUMP JUMPDEST JUMPDEST DUP12 PUSH2 0x2FA1 SWAP2 SWAP1 PUSH2 0x6151 JUMP JUMPDEST SWAP11 POP PUSH1 0xB SLOAD DUP2 GT PUSH2 0x2FB2 JUMPI DUP1 PUSH2 0x2FC1 JUMP JUMPDEST PUSH1 0xB SLOAD DUP2 PUSH2 0x2FC0 SWAP2 SWAP1 PUSH2 0x6076 JUMP JUMPDEST JUMPDEST DUP11 PUSH2 0x2FCC SWAP2 SWAP1 PUSH2 0x6151 JUMP JUMPDEST SWAP10 POP POP POP POP POP POP POP POP POP POP SWAP3 POP SWAP3 SWAP1 POP JUMP JUMPDEST PUSH1 0x0 DUP1 PUSH1 0x0 DUP4 PUSH1 0x2 SIGNEXTEND SLT PUSH2 0x2FF5 JUMPI DUP3 PUSH1 0x2 SIGNEXTEND PUSH2 0x3003 JUMP JUMPDEST DUP3 PUSH1 0x2 SIGNEXTEND PUSH2 0x3002 SWAP1 PUSH2 0x6511 JUMP JUMPDEST JUMPDEST SWAP1 POP PUSH32 0xFFFFFFFFFFFFFFFFFFFFFFFFFFFFFFFFFFFFFFFFFFFFFFFFFFFFFFFFFFF27618 PUSH2 0x302F SWAP1 PUSH2 0x6590 JUMP JUMPDEST PUSH1 0x2 SIGNEXTEND DUP2 GT ISZERO PUSH2 0x3074 JUMPI PUSH1 0x40 MLOAD PUSH32 0x8C379A000000000000000000000000000000000000000000000000000000000 DUP2 MSTORE PUSH1 0x4 ADD PUSH2 0x306B SWAP1 PUSH2 0x6624 JUMP JUMPDEST PUSH1 0x40 MLOAD DUP1 SWAP2 SUB SWAP1 REVERT JUMPDEST PUSH1 0x0 DUP1 PUSH1 0x1 DUP4 AND SUB PUSH2 0x3097 JUMPI PUSH17 0x100000000000000000000000000000000 PUSH2 0x30A9 JUMP JUMPDEST PUSH16 0xFFFCB933BD6FAD37AA2D162D1A594001 JUMPDEST PUSH17 0xFFFFFFFFFFFFFFFFFFFFFFFFFFFFFFFFFF AND SWAP1 POP PUSH1 0x0 PUSH1 0x2 DUP4 AND EQ PUSH2 0x30EC JUMPI PUSH1 0x80 PUSH16 0xFFF97272373D413259A46990580E213A DUP3 PUSH2 0x30E7 SWAP2 SWAP1 PUSH2 0x61F4 JUMP JUMPDEST SWAP1 SHR SWAP1 POP JUMPDEST PUSH1 0x0 PUSH1 0x4 DUP4 AND EQ PUSH2 0x311A JUMPI PUSH1 0x80 PUSH16 0xFFF2E50F5F656932EF12357CF3C7FDCC DUP3 PUSH2 0x3115 SWAP2 SWAP1 PUSH2 0x61F4 JUMP JUMPDEST SWAP1 SHR SWAP1 POP JUMPDEST PUSH1 0x0 PUSH1 0x8 DUP4 AND EQ PUSH2 0x3148 JUMPI PUSH1 0x80 PUSH16 0xFFE5CACA7E10E4E61C3624EAA0941CD0 DUP3 PUSH2 0x3143 SWAP2 SWAP1 PUSH2 0x61F4 JUMP JUMPDEST SWAP1 SHR SWAP1 POP JUMPDEST PUSH1 0x0 PUSH1 0x10 DUP4 AND EQ PUSH2 0x3176 JUMPI PUSH1 0x80 PUSH16 0xFFCB9843D60F6159C9DB58835C926644 DUP3 PUSH2 0x3171 SWAP2 SWAP1 PUSH2 0x61F4 JUMP JUMPDEST SWAP1 SHR SWAP1 POP JUMPDEST PUSH1 0x0 PUSH1 0x20 DUP4 AND EQ PUSH2 0x31A4 JUMPI PUSH1 0x80 PUSH16 0xFF973B41FA98C081472E6896DFB254C0 DUP3 PUSH2 0x319F SWAP2 SWAP1 PUSH2 0x61F4 JUMP JUMPDEST SWAP1 SHR SWAP1 POP JUMPDEST PUSH1 0x0 PUSH1 0x40 DUP4 AND EQ PUSH2 0x31D2 JUMPI PUSH1 0x80 PUSH16 0xFF2EA16466C96A3843EC78B326B52861 DUP3 PUSH2 0x31CD SWAP2 SWAP1 PUSH2 0x61F4 JUMP JUMPDEST SWAP1 SHR SWAP1 POP JUMPDEST PUSH1 0x0 PUSH1 0x80 DUP4 AND EQ PUSH2 0x3200 JUMPI PUSH1 0x80 PUSH16 0xFE5DEE046A99A2A811C461F1969C3053 DUP3 PUSH2 0x31FB SWAP2 SWAP1 PUSH2 0x61F4 JUMP JUMPDEST SWAP1 SHR SWAP1 POP JUMPDEST PUSH1 0x0 PUSH2 0x100 DUP4 AND EQ PUSH2 0x322F JUMPI PUSH1 0x80 PUSH16 0xFCBE86C7900A88AEDCFFC83B479AA3A4 DUP3 PUSH2 0x322A SWAP2 SWAP1 PUSH2 0x61F4 JUMP JUMPDEST SWAP1 SHR SWAP1 POP JUMPDEST PUSH1 0x0 PUSH2 0x200 DUP4 AND EQ PUSH2 0x325E JUMPI PUSH1 0x80 PUSH16 0xF987A7253AC413176F2B074CF7815E54 DUP3 PUSH2 0x3259 SWAP2 SWAP1 PUSH2 0x61F4 JUMP JUMPDEST SWAP1 SHR SWAP1 POP JUMPDEST PUSH1 0x0 PUSH2 0x400 DUP4 AND EQ PUSH2 0x328D JUMPI PUSH1 0x80 PUSH16 0xF3392B0822B70005940C7A398E4B70F3 DUP3 PUSH2 0x3288 SWAP2 SWAP1 PUSH2 0x61F4 JUMP JUMPDEST SWAP1 SHR SWAP1 POP JUMPDEST PUSH1 0x0 PUSH2 0x800 DUP4 AND EQ PUSH2 0x32BC JUMPI PUSH1 0x80 PUSH16 0xE7159475A2C29B7443B29C7FA6E889D9 DUP3 PUSH2 0x32B7 SWAP2 SWAP1 PUSH2 0x61F4 JUMP JUMPDEST SWAP1 SHR SWAP1 POP JUMPDEST PUSH1 0x0 PUSH2 0x1000 DUP4 AND EQ PUSH2 0x32EB JUMPI PUSH1 0x80 PUSH16 0xD097F3BDFD2022B8845AD8F792AA5825 DUP3 PUSH2 0x32E6 SWAP2 SWAP1 PUSH2 0x61F4 JUMP JUMPDEST SWAP1 SHR SWAP1 POP JUMPDEST PUSH1 0x0 PUSH2 0x2000 DUP4 AND EQ PUSH2 0x331A JUMPI PUSH1 0x80 PUSH16 0xA9F746462D870FDF8A65DC1F90E061E5 DUP3 PUSH2 0x3315 SWAP2 SWAP1 PUSH2 0x61F4 JUMP JUMPDEST SWAP1 SHR SWAP1 POP JUMPDEST PUSH1 0x0 PUSH2 0x4000 DUP4 AND EQ PUSH2 0x3349 JUMPI PUSH1 0x80 PUSH16 0x70D869A156D2A1B890BB3DF62BAF32F7 DUP3 PUSH2 0x3344 SWAP2 SWAP1 PUSH2 0x61F4 JUMP JUMPDEST SWAP1 SHR SWAP1 POP JUMPDEST PUSH1 0x0 PUSH2 0x8000 DUP4 AND EQ PUSH2 0x3378 JUMPI PUSH1 0x80 PUSH16 0x31BE135F97D08FD981231505542FCFA6 DUP3 PUSH2 0x3373 SWAP2 SWAP1 PUSH2 0x61F4 JUMP JUMPDEST SWAP1 SHR SWAP1 POP JUMPDEST PUSH1 0x0 PUSH3 0x10000 DUP4 AND EQ PUSH2 0x33A8 JUMPI PUSH1 0x80 PUSH16 0x9AA508B5B7A84E1C677DE54F3E99BC9 DUP3 PUSH2 0x33A3 SWAP2 SWAP1 PUSH2 0x61F4 JUMP JUMPDEST SWAP1 SHR SWAP1 POP JUMPDEST PUSH1 0x0 PUSH3 0x20000 DUP4 AND EQ PUSH2 0x33D7 JUMPI PUSH1 0x80 PUSH15 0x5D6AF8DEDB81196699C329225EE604 DUP3 PUSH2 0x33D2 SWAP2 SWAP1 PUSH2 0x61F4 JUMP JUMPDEST SWAP1 SHR SWAP1 POP JUMPDEST PUSH1 0x0 PUSH3 0x40000 DUP4 AND EQ PUSH2 0x3405 JUMPI PUSH1 0x80 PUSH14 0x2216E584F5FA1EA926041BEDFE98 DUP3 PUSH2 0x3400 SWAP2 SWAP1 PUSH2 0x61F4 JUMP JUMPDEST SWAP1 SHR SWAP1 POP JUMPDEST PUSH1 0x0 PUSH3 0x80000 DUP4 AND EQ PUSH2 0x3431 JUMPI PUSH1 0x80 PUSH12 0x48A170391F7DC42444E8FA2 DUP3 PUSH2 0x342C SWAP2 SWAP1 PUSH2 0x61F4 JUMP JUMPDEST SWAP1 SHR SWAP1 POP JUMPDEST PUSH1 0x0 DUP5 PUSH1 0x2 SIGNEXTEND SGT ISZERO PUSH2 0x346C JUMPI DUP1 PUSH32 0xFFFFFFFFFFFFFFFFFFFFFFFFFFFFFFFFFFFFFFFFFFFFFFFFFFFFFFFFFFFFFFFF PUSH2 0x3469 SWAP2 SWAP1 PUSH2 0x6265 JUMP JUMPDEST SWAP1 POP JUMPDEST PUSH1 0x0 PUSH5 0x100000000 DUP3 PUSH2 0x347F SWAP2 SWAP1 PUSH2 0x6644 JUMP JUMPDEST EQ PUSH2 0x348B JUMPI PUSH1 0x1 PUSH2 0x348E JUMP JUMPDEST PUSH1 0x0 JUMPDEST PUSH1 0xFF AND PUSH1 0x20 DUP3 SWAP1 SHR PUSH2 0x34A0 SWAP2 SWAP1 PUSH2 0x6151 JUMP JUMPDEST SWAP3 POP POP POP SWAP2 SWAP1 POP JUMP JUMPDEST PUSH1 0x0 DUP4 PUSH20 0xFFFFFFFFFFFFFFFFFFFFFFFFFFFFFFFFFFFFFFFF AND DUP6 PUSH20 0xFFFFFFFFFFFFFFFFFFFFFFFFFFFFFFFFFFFFFFFF AND GT ISZERO PUSH2 0x34EA JUMPI DUP4 DUP6 DUP1 SWAP6 POP DUP2 SWAP7 POP POP POP JUMPDEST DUP5 PUSH20 0xFFFFFFFFFFFFFFFFFFFFFFFFFFFFFFFFFFFFFFFF AND DUP7 PUSH20 0xFFFFFFFFFFFFFFFFFFFFFFFFFFFFFFFFFFFFFFFF AND GT PUSH2 0x352F JUMPI PUSH2 0x3528 DUP6 DUP6 DUP6 PUSH2 0x4CB1 JUMP JUMPDEST SWAP1 POP PUSH2 0x35CC JUMP JUMPDEST DUP4 PUSH20 0xFFFFFFFFFFFFFFFFFFFFFFFFFFFFFFFFFFFFFFFF AND DUP7 PUSH20 0xFFFFFFFFFFFFFFFFFFFFFFFFFFFFFFFFFFFFFFFF AND LT ISZERO PUSH2 0x35BD JUMPI PUSH1 0x0 PUSH2 0x3570 DUP8 DUP7 DUP7 PUSH2 0x4CB1 JUMP JUMPDEST SWAP1 POP PUSH1 0x0 PUSH2 0x357F DUP8 DUP10 DUP7 PUSH2 0x4D78 JUMP JUMPDEST SWAP1 POP DUP1 PUSH16 0xFFFFFFFFFFFFFFFFFFFFFFFFFFFFFFFF AND DUP3 PUSH16 0xFFFFFFFFFFFFFFFFFFFFFFFFFFFFFFFF AND LT PUSH2 0x35B2 JUMPI DUP1 PUSH2 0x35B4 JUMP JUMPDEST DUP2 JUMPDEST SWAP3 POP POP POP PUSH2 0x35CB JUMP JUMPDEST PUSH2 0x35C8 DUP6 DUP6 DUP5 PUSH2 0x4D78 JUMP JUMPDEST SWAP1 POP JUMPDEST JUMPDEST SWAP6 SWAP5 POP POP POP POP POP JUMP JUMPDEST PUSH2 0x35DF DUP3 DUP3 PUSH2 0x4E03 JUMP JUMPDEST DUP2 PUSH1 0x6 PUSH1 0x0 PUSH2 0x100 EXP DUP2 SLOAD DUP2 PUSH3 0xFFFFFF MUL NOT AND SWAP1 DUP4 PUSH1 0x2 SIGNEXTEND PUSH3 0xFFFFFF AND MUL OR SWAP1 SSTORE POP DUP1 PUSH1 0x6 PUSH1 0x3 PUSH2 0x100 EXP DUP2 SLOAD DUP2 PUSH3 0xFFFFFF MUL NOT AND SWAP1 DUP4 PUSH1 0x2 SIGNEXTEND PUSH3 0xFFFFFF AND MUL OR SWAP1 SSTORE POP PUSH1 0x1 PUSH1 0x6 DUP1 PUSH2 0x100 EXP DUP2 SLOAD DUP2 PUSH1 0xFF MUL NOT AND SWAP1 DUP4 ISZERO ISZERO MUL OR SWAP1 SSTORE POP PUSH32 0xD9279952B347FD14AF9B788AFF1029C0D3B1299B7DCCE164FC602A1B958C4880 PUSH1 0x1 PUSH1 0x40 MLOAD PUSH2 0x366D SWAP2 SWAP1 PUSH2 0x54FF JUMP JUMPDEST PUSH1 0x40 MLOAD DUP1 SWAP2 SUB SWAP1 LOG1 PUSH32 0x8E3AC6CC9B82795B40740CA4E954DF8F6655FE35E80CDC6FB33D50C3423FCD16 DUP3 DUP3 PUSH1 0x40 MLOAD PUSH2 0x36A6 SWAP3 SWAP2 SWAP1 PUSH2 0x6675 JUMP JUMPDEST PUSH1 0x40 MLOAD DUP1 SWAP2 SUB SWAP1 LOG1 POP POP JUMP JUMPDEST PUSH1 0x0 PUSH2 0x36BE DUP5 DUP5 PUSH2 0x2941 JUMP JUMPDEST SWAP1 POP PUSH32 0xFFFFFFFFFFFFFFFFFFFFFFFFFFFFFFFFFFFFFFFFFFFFFFFFFFFFFFFFFFFFFFFF DUP2 EQ PUSH2 0x3740 JUMPI DUP2 DUP2 LT ISZERO PUSH2 0x3730 JUMPI DUP3 DUP2 DUP4 PUSH1 0x40 MLOAD PUSH32 0xFB8F41B200000000000000000000000000000000000000000000000000000000 DUP2 MSTORE PUSH1 0x4 ADD PUSH2 0x3727 SWAP4 SWAP3 SWAP2 SWAP1 PUSH2 0x669E JUMP JUMPDEST PUSH1 0x40 MLOAD DUP1 SWAP2 SUB SWAP1 REVERT JUMPDEST PUSH2 0x373F DUP5 DUP5 DUP5 DUP5 SUB PUSH1 0x0 PUSH2 0x4ADA JUMP JUMPDEST JUMPDEST POP POP POP POP JUMP JUMPDEST PUSH1 0x0 PUSH20 0xFFFFFFFFFFFFFFFFFFFFFFFFFFFFFFFFFFFFFFFF AND DUP4 PUSH20 0xFFFFFFFFFFFFFFFFFFFFFFFFFFFFFFFFFFFFFFFF AND SUB PUSH2 0x37B8 JUMPI PUSH1 0x0 PUSH1 0x40 MLOAD PUSH32 0x96C6FD1E00000000000000000000000000000000000000000000000000000000 DUP2 MSTORE PUSH1 0x4 ADD PUSH2 0x37AF SWAP2 SWAP1 PUSH2 0x5811 JUMP JUMPDEST PUSH1 0x40 MLOAD DUP1 SWAP2 SUB SWAP1 REVERT JUMPDEST PUSH1 0x0 PUSH20 0xFFFFFFFFFFFFFFFFFFFFFFFFFFFFFFFFFFFFFFFF AND DUP3 PUSH20 0xFFFFFFFFFFFFFFFFFFFFFFFFFFFFFFFFFFFFFFFF AND SUB PUSH2 0x382A JUMPI PUSH1 0x0 PUSH1 0x40 MLOAD PUSH32 0xEC442F0500000000000000000000000000000000000000000000000000000000 DUP2 MSTORE PUSH1 0x4 ADD PUSH2 0x3821 SWAP2 SWAP1 PUSH2 0x5811 JUMP JUMPDEST PUSH1 0x40 MLOAD DUP1 SWAP2 SUB SWAP1 REVERT JUMPDEST PUSH2 0x3835 DUP4 DUP4 DUP4 PUSH2 0x4F33 JUMP JUMPDEST POP POP POP JUMP JUMPDEST PUSH2 0x3842 PUSH2 0x2C7A JUMP JUMPDEST PUSH20 0xFFFFFFFFFFFFFFFFFFFFFFFFFFFFFFFFFFFFFFFF AND PUSH2 0x3860 PUSH2 0x12DF JUMP JUMPDEST PUSH20 0xFFFFFFFFFFFFFFFFFFFFFFFFFFFFFFFFFFFFFFFF AND EQ PUSH2 0x38BF JUMPI PUSH2 0x3883 PUSH2 0x2C7A JUMP JUMPDEST PUSH1 0x40 MLOAD PUSH32 0x118CDAA700000000000000000000000000000000000000000000000000000000 DUP2 MSTORE PUSH1 0x4 ADD PUSH2 0x38B6 SWAP2 SWAP1 PUSH2 0x5811 JUMP JUMPDEST PUSH1 0x40 MLOAD DUP1 SWAP2 SUB SWAP1 REVERT JUMPDEST JUMP JUMPDEST PUSH1 0x0 DUP1 PUSH1 0x0 SWAP1 SLOAD SWAP1 PUSH2 0x100 EXP SWAP1 DIV PUSH20 0xFFFFFFFFFFFFFFFFFFFFFFFFFFFFFFFFFFFFFFFF AND SWAP1 POP DUP2 PUSH1 0x0 DUP1 PUSH2 0x100 EXP DUP2 SLOAD DUP2 PUSH20 0xFFFFFFFFFFFFFFFFFFFFFFFFFFFFFFFFFFFFFFFF MUL NOT AND SWAP1 DUP4 PUSH20 0xFFFFFFFFFFFFFFFFFFFFFFFFFFFFFFFFFFFFFFFF AND MUL OR SWAP1 SSTORE POP DUP2 PUSH20 0xFFFFFFFFFFFFFFFFFFFFFFFFFFFFFFFFFFFFFFFF AND DUP2 PUSH20 0xFFFFFFFFFFFFFFFFFFFFFFFFFFFFFFFFFFFFFFFF AND PUSH32 0x8BE0079C531659141344CD1FD0A4F28419497F9722A3DAAFE3B4186F6B6457E0 PUSH1 0x40 MLOAD PUSH1 0x40 MLOAD DUP1 SWAP2 SUB SWAP1 LOG3 POP POP JUMP JUMPDEST PUSH1 0x0 DUP1 PUSH1 0x0 DUP1 DUP8 ISZERO PUSH2 0x3BC5 JUMPI PUSH1 0x6 PUSH1 0xB SWAP1 SLOAD SWAP1 PUSH2 0x100 EXP SWAP1 DIV PUSH20 0xFFFFFFFFFFFFFFFFFFFFFFFFFFFFFFFFFFFFFFFF AND PUSH20 0xFFFFFFFFFFFFFFFFFFFFFFFFFFFFFFFFFFFFFFFF AND PUSH4 0xF3058399 PUSH1 0x40 MLOAD DUP2 PUSH4 0xFFFFFFFF AND PUSH1 0xE0 SHL DUP2 MSTORE PUSH1 0x4 ADD PUSH1 0x20 PUSH1 0x40 MLOAD DUP1 DUP4 SUB DUP2 DUP7 GAS STATICCALL ISZERO DUP1 ISZERO PUSH2 0x39FE JUMPI RETURNDATASIZE PUSH1 0x0 DUP1 RETURNDATACOPY RETURNDATASIZE PUSH1 0x0 REVERT JUMPDEST POP POP POP POP PUSH1 0x40 MLOAD RETURNDATASIZE PUSH1 0x1F NOT PUSH1 0x1F DUP3 ADD AND DUP3 ADD DUP1 PUSH1 0x40 MSTORE POP DUP2 ADD SWAP1 PUSH2 0x3A22 SWAP2 SWAP1 PUSH2 0x61C7 JUMP JUMPDEST SWAP1 POP PUSH1 0x6 PUSH1 0xB SWAP1 SLOAD SWAP1 PUSH2 0x100 EXP SWAP1 DIV PUSH20 0xFFFFFFFFFFFFFFFFFFFFFFFFFFFFFFFFFFFFFFFF AND PUSH20 0xFFFFFFFFFFFFFFFFFFFFFFFFFFFFFFFFFFFFFFFF AND PUSH4 0xF30DBA93 PUSH1 0x6 PUSH1 0x0 SWAP1 SLOAD SWAP1 PUSH2 0x100 EXP SWAP1 DIV PUSH1 0x2 SIGNEXTEND PUSH1 0x40 MLOAD DUP3 PUSH4 0xFFFFFFFF AND PUSH1 0xE0 SHL DUP2 MSTORE PUSH1 0x4 ADD PUSH2 0x3A8E SWAP2 SWAP1 PUSH2 0x5873 JUMP JUMPDEST PUSH2 0x100 PUSH1 0x40 MLOAD DUP1 DUP4 SUB DUP2 DUP7 GAS STATICCALL ISZERO DUP1 ISZERO PUSH2 0x3AAC JUMPI RETURNDATASIZE PUSH1 0x0 DUP1 RETURNDATACOPY RETURNDATASIZE PUSH1 0x0 REVERT JUMPDEST POP POP POP POP PUSH1 0x40 MLOAD RETURNDATASIZE PUSH1 0x1F NOT PUSH1 0x1F DUP3 ADD AND DUP3 ADD DUP1 PUSH1 0x40 MSTORE POP DUP2 ADD SWAP1 PUSH2 0x3AD0 SWAP2 SWAP1 PUSH2 0x6783 JUMP JUMPDEST SWAP1 SWAP2 SWAP3 SWAP4 SWAP5 SWAP6 SWAP7 POP SWAP1 SWAP2 SWAP3 SWAP4 SWAP5 SWAP6 POP SWAP1 SWAP2 SWAP3 SWAP4 POP SWAP1 SWAP2 SWAP3 POP SWAP1 SWAP2 POP SWAP1 POP POP DUP1 SWAP4 POP POP PUSH1 0x6 PUSH1 0xB SWAP1 SLOAD SWAP1 PUSH2 0x100 EXP SWAP1 DIV PUSH20 0xFFFFFFFFFFFFFFFFFFFFFFFFFFFFFFFFFFFFFFFF AND PUSH20 0xFFFFFFFFFFFFFFFFFFFFFFFFFFFFFFFFFFFFFFFF AND PUSH4 0xF30DBA93 PUSH1 0x6 PUSH1 0x3 SWAP1 SLOAD SWAP1 PUSH2 0x100 EXP SWAP1 DIV PUSH1 0x2 SIGNEXTEND PUSH1 0x40 MLOAD DUP3 PUSH4 0xFFFFFFFF AND PUSH1 0xE0 SHL DUP2 MSTORE PUSH1 0x4 ADD PUSH2 0x3B5C SWAP2 SWAP1 PUSH2 0x5873 JUMP JUMPDEST PUSH2 0x100 PUSH1 0x40 MLOAD DUP1 DUP4 SUB DUP2 DUP7 GAS STATICCALL ISZERO DUP1 ISZERO PUSH2 0x3B7A JUMPI RETURNDATASIZE PUSH1 0x0 DUP1 RETURNDATACOPY RETURNDATASIZE PUSH1 0x0 REVERT JUMPDEST POP POP POP POP PUSH1 0x40 MLOAD RETURNDATASIZE PUSH1 0x1F NOT PUSH1 0x1F DUP3 ADD AND DUP3 ADD DUP1 PUSH1 0x40 MSTORE POP DUP2 ADD SWAP1 PUSH2 0x3B9E SWAP2 SWAP1 PUSH2 0x6783 JUMP JUMPDEST SWAP1 SWAP2 SWAP3 SWAP4 SWAP5 SWAP6 SWAP7 POP SWAP1 SWAP2 SWAP3 SWAP4 SWAP5 SWAP6 POP SWAP1 SWAP2 SWAP3 SWAP4 POP SWAP1 SWAP2 SWAP3 POP SWAP1 SWAP2 POP SWAP1 POP POP DUP1 SWAP3 POP POP PUSH2 0x3DF7 JUMP JUMPDEST PUSH1 0x6 PUSH1 0xB SWAP1 SLOAD SWAP1 PUSH2 0x100 EXP SWAP1 DIV PUSH20 0xFFFFFFFFFFFFFFFFFFFFFFFFFFFFFFFFFFFFFFFF AND PUSH20 0xFFFFFFFFFFFFFFFFFFFFFFFFFFFFFFFFFFFFFFFF AND PUSH4 0x46141319 PUSH1 0x40 MLOAD DUP2 PUSH4 0xFFFFFFFF AND PUSH1 0xE0 SHL DUP2 MSTORE PUSH1 0x4 ADD PUSH1 0x20 PUSH1 0x40 MLOAD DUP1 DUP4 SUB DUP2 DUP7 GAS STATICCALL ISZERO DUP1 ISZERO PUSH2 0x3C32 JUMPI RETURNDATASIZE PUSH1 0x0 DUP1 RETURNDATACOPY RETURNDATASIZE PUSH1 0x0 REVERT JUMPDEST POP POP POP POP PUSH1 0x40 MLOAD RETURNDATASIZE PUSH1 0x1F NOT PUSH1 0x1F DUP3 ADD AND DUP3 ADD DUP1 PUSH1 0x40 MSTORE POP DUP2 ADD SWAP1 PUSH2 0x3C56 SWAP2 SWAP1 PUSH2 0x61C7 JUMP JUMPDEST SWAP1 POP PUSH1 0x6 PUSH1 0xB SWAP1 SLOAD SWAP1 PUSH2 0x100 EXP SWAP1 DIV PUSH20 0xFFFFFFFFFFFFFFFFFFFFFFFFFFFFFFFFFFFFFFFF AND PUSH20 0xFFFFFFFFFFFFFFFFFFFFFFFFFFFFFFFFFFFFFFFF AND PUSH4 0xF30DBA93 PUSH1 0x6 PUSH1 0x0 SWAP1 SLOAD SWAP1 PUSH2 0x100 EXP SWAP1 DIV PUSH1 0x2 SIGNEXTEND PUSH1 0x40 MLOAD DUP3 PUSH4 0xFFFFFFFF AND PUSH1 0xE0 SHL DUP2 MSTORE PUSH1 0x4 ADD PUSH2 0x3CC2 SWAP2 SWAP1 PUSH2 0x5873 JUMP JUMPDEST PUSH2 0x100 PUSH1 0x40 MLOAD DUP1 DUP4 SUB DUP2 DUP7 GAS STATICCALL ISZERO DUP1 ISZERO PUSH2 0x3CE0 JUMPI RETURNDATASIZE PUSH1 0x0 DUP1 RETURNDATACOPY RETURNDATASIZE PUSH1 0x0 REVERT JUMPDEST POP POP POP POP PUSH1 0x40 MLOAD RETURNDATASIZE PUSH1 0x1F NOT PUSH1 0x1F DUP3 ADD AND DUP3 ADD DUP1 PUSH1 0x40 MSTORE POP DUP2 ADD SWAP1 PUSH2 0x3D04 SWAP2 SWAP1 PUSH2 0x6783 JUMP JUMPDEST SWAP1 SWAP2 SWAP3 SWAP4 SWAP5 SWAP6 SWAP7 POP SWAP1 SWAP2 SWAP3 SWAP4 SWAP5 SWAP6 POP SWAP1 SWAP2 SWAP3 SWAP4 SWAP5 POP SWAP1 SWAP2 SWAP3 POP SWAP1 SWAP2 POP SWAP1 POP POP DUP1 SWAP4 POP POP PUSH1 0x6 PUSH1 0xB SWAP1 SLOAD SWAP1 PUSH2 0x100 EXP SWAP1 DIV PUSH20 0xFFFFFFFFFFFFFFFFFFFFFFFFFFFFFFFFFFFFFFFF AND PUSH20 0xFFFFFFFFFFFFFFFFFFFFFFFFFFFFFFFFFFFFFFFF AND PUSH4 0xF30DBA93 PUSH1 0x6 PUSH1 0x3 SWAP1 SLOAD SWAP1 PUSH2 0x100 EXP SWAP1 DIV PUSH1 0x2 SIGNEXTEND PUSH1 0x40 MLOAD DUP3 PUSH4 0xFFFFFFFF AND PUSH1 0xE0 SHL DUP2 MSTORE PUSH1 0x4 ADD PUSH2 0x3D91 SWAP2 SWAP1 PUSH2 0x5873 JUMP JUMPDEST PUSH2 0x100 PUSH1 0x40 MLOAD DUP1 DUP4 SUB DUP2 DUP7 GAS STATICCALL ISZERO DUP1 ISZERO PUSH2 0x3DAF JUMPI RETURNDATASIZE PUSH1 0x0 DUP1 RETURNDATACOPY RETURNDATASIZE PUSH1 0x0 REVERT JUMPDEST POP POP POP POP PUSH1 0x40 MLOAD RETURNDATASIZE PUSH1 0x1F NOT PUSH1 0x1F DUP3 ADD AND DUP3 ADD DUP1 PUSH1 0x40 MSTORE POP DUP2 ADD SWAP1 PUSH2 0x3DD3 SWAP2 SWAP1 PUSH2 0x6783 JUMP JUMPDEST SWAP1 SWAP2 SWAP3 SWAP4 SWAP5 SWAP6 SWAP7 POP SWAP1 SWAP2 SWAP3 SWAP4 SWAP5 SWAP6 POP SWAP1 SWAP2 SWAP3 SWAP4 SWAP5 POP SWAP1 SWAP2 SWAP3 POP SWAP1 SWAP2 POP SWAP1 POP POP DUP1 SWAP3 POP POP JUMPDEST PUSH1 0x0 PUSH1 0x6 PUSH1 0x0 SWAP1 SLOAD SWAP1 PUSH2 0x100 EXP SWAP1 DIV PUSH1 0x2 SIGNEXTEND PUSH1 0x2 SIGNEXTEND DUP8 PUSH1 0x2 SIGNEXTEND SLT PUSH2 0x3E1D JUMPI DUP4 SWAP1 POP PUSH2 0x3E23 JUMP JUMPDEST DUP4 DUP3 SUB SWAP1 POP JUMPDEST PUSH1 0x0 PUSH1 0x6 PUSH1 0x3 SWAP1 SLOAD SWAP1 PUSH2 0x100 EXP SWAP1 DIV PUSH1 0x2 SIGNEXTEND PUSH1 0x2 SIGNEXTEND DUP9 PUSH1 0x2 SIGNEXTEND SLT ISZERO PUSH2 0x3E4A JUMPI DUP4 SWAP1 POP PUSH2 0x3E50 JUMP JUMPDEST DUP4 DUP4 SUB SWAP1 POP JUMPDEST PUSH1 0x0 DUP2 DUP4 DUP6 SUB SUB SWAP1 POP PUSH2 0x3E89 DUP9 PUSH16 0xFFFFFFFFFFFFFFFFFFFFFFFFFFFFFFFF AND DUP12 DUP4 SUB PUSH17 0x100000000000000000000000000000000 PUSH2 0x47AB JUMP JUMPDEST SWAP7 POP POP POP POP POP POP POP SWAP5 SWAP4 POP POP POP POP JUMP JUMPDEST PUSH1 0x0 DUP1 PUSH1 0x0 PUSH1 0x9 PUSH1 0x16 SWAP1 SLOAD SWAP1 PUSH2 0x100 EXP SWAP1 DIV PUSH2 0xFFFF AND PUSH2 0xFFFF AND SWAP1 POP PUSH1 0x0 PUSH2 0x2710 DUP3 DUP8 PUSH2 0x3EC6 SWAP2 SWAP1 PUSH2 0x61F4 JUMP JUMPDEST PUSH2 0x3ED0 SWAP2 SWAP1 PUSH2 0x6265 JUMP JUMPDEST SWAP1 POP PUSH1 0x0 PUSH2 0x2710 DUP4 DUP8 PUSH2 0x3EE3 SWAP2 SWAP1 PUSH2 0x61F4 JUMP JUMPDEST PUSH2 0x3EED SWAP2 SWAP1 PUSH2 0x6265 JUMP JUMPDEST SWAP1 POP DUP2 DUP8 PUSH2 0x3EFB SWAP2 SWAP1 PUSH2 0x6076 JUMP JUMPDEST SWAP5 POP DUP1 DUP7 PUSH2 0x3F09 SWAP2 SWAP1 PUSH2 0x6076 JUMP JUMPDEST SWAP4 POP POP POP POP SWAP3 POP SWAP3 SWAP1 POP JUMP JUMPDEST PUSH1 0x64 PUSH2 0xFFFF AND DUP3 PUSH2 0xFFFF AND GT ISZERO PUSH2 0x3F58 JUMPI PUSH1 0x40 MLOAD PUSH32 0x9FC8785800000000000000000000000000000000000000000000000000000000 DUP2 MSTORE PUSH1 0x4 ADD PUSH1 0x40 MLOAD DUP1 SWAP2 SUB SWAP1 REVERT JUMPDEST PUSH2 0x7D0 PUSH2 0xFFFF AND DUP2 PUSH2 0xFFFF AND GT ISZERO PUSH2 0x3F9C JUMPI PUSH1 0x40 MLOAD PUSH32 0xF14508D000000000000000000000000000000000000000000000000000000000 DUP2 MSTORE PUSH1 0x4 ADD PUSH1 0x40 MLOAD DUP1 SWAP2 SUB SWAP1 REVERT JUMPDEST PUSH1 0x6 DUP1 SLOAD SWAP1 PUSH2 0x100 EXP SWAP1 DIV PUSH1 0xFF AND ISZERO PUSH2 0x3FB8 JUMPI PUSH2 0x3FB7 PUSH2 0x4A6E JUMP JUMPDEST JUMPDEST DUP2 PUSH1 0x9 PUSH1 0x14 PUSH2 0x100 EXP DUP2 SLOAD DUP2 PUSH2 0xFFFF MUL NOT AND SWAP1 DUP4 PUSH2 0xFFFF AND MUL OR SWAP1 SSTORE POP DUP1 PUSH1 0x9 PUSH1 0x16 PUSH2 0x100 EXP DUP2 SLOAD DUP2 PUSH2 0xFFFF MUL NOT AND SWAP1 DUP4 PUSH2 0xFFFF AND MUL OR SWAP1 SSTORE POP PUSH32 0x2AC80C14C28700F7B5E36F947D572149FE2E3947BAC32C3A8C098F3E03722C11 DUP3 DUP3 PUSH1 0x40 MLOAD PUSH2 0x4023 SWAP3 SWAP2 SWAP1 PUSH2 0x6839 JUMP JUMPDEST PUSH1 0x40 MLOAD DUP1 SWAP2 SUB SWAP1 LOG1 POP POP JUMP JUMPDEST PUSH1 0x0 DUP1 PUSH1 0x0 DUP1 PUSH1 0x0 PUSH2 0x403F PUSH2 0x914 JUMP JUMPDEST SWAP2 POP SWAP2 POP PUSH1 0x0 DUP3 EQ DUP1 ISZERO PUSH2 0x4053 JUMPI POP PUSH1 0x0 DUP2 GT JUMPDEST ISZERO PUSH2 0x406A JUMPI PUSH2 0x4063 DUP7 DUP10 DUP4 PUSH2 0x47AB JUMP JUMPDEST SWAP3 POP PUSH2 0x4151 JUMP JUMPDEST PUSH1 0x0 DUP2 EQ DUP1 ISZERO PUSH2 0x407A JUMPI POP PUSH1 0x0 DUP3 GT JUMPDEST ISZERO PUSH2 0x4091 JUMPI PUSH2 0x408A DUP8 DUP10 DUP5 PUSH2 0x47AB JUMP JUMPDEST SWAP3 POP PUSH2 0x4150 JUMP JUMPDEST PUSH1 0x0 DUP3 EQ DUP1 ISZERO PUSH2 0x40A1 JUMPI POP PUSH1 0x0 DUP2 EQ JUMPDEST ISZERO PUSH2 0x40D8 JUMPI PUSH1 0x40 MLOAD PUSH32 0xF912977700000000000000000000000000000000000000000000000000000000 DUP2 MSTORE PUSH1 0x4 ADD PUSH1 0x40 MLOAD DUP1 SWAP2 SUB SWAP1 REVERT JUMPDEST PUSH1 0x0 PUSH2 0x40E5 DUP9 DUP11 DUP6 PUSH2 0x47AB JUMP JUMPDEST SWAP1 POP PUSH1 0x0 PUSH2 0x40F4 DUP9 DUP12 DUP6 PUSH2 0x47AB JUMP JUMPDEST SWAP1 POP PUSH1 0x0 DUP3 EQ DUP1 PUSH2 0x4105 JUMPI POP PUSH1 0x0 DUP2 EQ JUMPDEST ISZERO PUSH2 0x413C JUMPI PUSH1 0x40 MLOAD PUSH32 0x215B990C00000000000000000000000000000000000000000000000000000000 DUP2 MSTORE PUSH1 0x4 ADD PUSH1 0x40 MLOAD DUP1 SWAP2 SUB SWAP1 REVERT JUMPDEST DUP1 DUP3 LT PUSH2 0x4149 JUMPI DUP1 PUSH2 0x414B JUMP JUMPDEST DUP2 JUMPDEST SWAP5 POP POP POP JUMPDEST JUMPDEST PUSH2 0x415C DUP4 DUP4 DUP11 PUSH2 0x4981 JUMP JUMPDEST SWAP5 POP PUSH2 0x4169 DUP4 DUP3 DUP11 PUSH2 0x4981 JUMP JUMPDEST SWAP4 POP POP POP SWAP4 POP SWAP4 POP SWAP4 SWAP1 POP JUMP JUMPDEST PUSH1 0x0 DUP1 DUP4 PUSH20 0xFFFFFFFFFFFFFFFFFFFFFFFFFFFFFFFFFFFFFFFF AND DUP6 PUSH20 0xFFFFFFFFFFFFFFFFFFFFFFFFFFFFFFFFFFFFFFFF AND GT ISZERO PUSH2 0x41B8 JUMPI DUP4 DUP6 DUP1 SWAP6 POP DUP2 SWAP7 POP POP POP JUMPDEST DUP5 PUSH20 0xFFFFFFFFFFFFFFFFFFFFFFFFFFFFFFFFFFFFFFFF AND DUP7 PUSH20 0xFFFFFFFFFFFFFFFFFFFFFFFFFFFFFFFFFFFFFFFF AND GT PUSH2 0x41FD JUMPI PUSH2 0x41F6 DUP6 DUP6 DUP6 PUSH2 0x515B JUMP JUMPDEST SWAP2 POP PUSH2 0x425F JUMP JUMPDEST DUP4 PUSH20 0xFFFFFFFFFFFFFFFFFFFFFFFFFFFFFFFFFFFFFFFF AND DUP7 PUSH20 0xFFFFFFFFFFFFFFFFFFFFFFFFFFFFFFFFFFFFFFFF AND LT ISZERO PUSH2 0x4250 JUMPI PUSH2 0x423C DUP7 DUP6 DUP6 PUSH2 0x515B JUMP JUMPDEST SWAP2 POP PUSH2 0x4249 DUP6 DUP8 DUP6 PUSH2 0x5221 JUMP JUMPDEST SWAP1 POP PUSH2 0x425E JUMP JUMPDEST PUSH2 0x425B DUP6 DUP6 DUP6 PUSH2 0x5221 JUMP JUMPDEST SWAP1 POP JUMPDEST JUMPDEST SWAP5 POP SWAP5 SWAP3 POP POP POP JUMP JUMPDEST PUSH1 0x0 DUP1 PUSH1 0x0 DUP1 PUSH1 0x0 PUSH1 0x6 PUSH1 0x0 SWAP1 SLOAD SWAP1 PUSH2 0x100 EXP SWAP1 DIV PUSH1 0x2 SIGNEXTEND SWAP1 POP PUSH1 0x0 PUSH1 0x6 PUSH1 0x3 SWAP1 SLOAD SWAP1 PUSH2 0x100 EXP SWAP1 DIV PUSH1 0x2 SIGNEXTEND SWAP1 POP PUSH1 0x0 PUSH1 0x7 PUSH1 0x0 SWAP1 SLOAD SWAP1 PUSH2 0x100 EXP SWAP1 DIV PUSH20 0xFFFFFFFFFFFFFFFFFFFFFFFFFFFFFFFFFFFFFFFF AND PUSH20 0xFFFFFFFFFFFFFFFFFFFFFFFFFFFFFFFFFFFFFFFF AND PUSH4 0x70A08231 ADDRESS PUSH1 0x40 MLOAD DUP3 PUSH4 0xFFFFFFFF AND PUSH1 0xE0 SHL DUP2 MSTORE PUSH1 0x4 ADD PUSH2 0x42F3 SWAP2 SWAP1 PUSH2 0x5811 JUMP JUMPDEST PUSH1 0x20 PUSH1 0x40 MLOAD DUP1 DUP4 SUB DUP2 DUP7 GAS STATICCALL ISZERO DUP1 ISZERO PUSH2 0x4310 JUMPI RETURNDATASIZE PUSH1 0x0 DUP1 RETURNDATACOPY RETURNDATASIZE PUSH1 0x0 REVERT JUMPDEST POP POP POP POP PUSH1 0x40 MLOAD RETURNDATASIZE PUSH1 0x1F NOT PUSH1 0x1F DUP3 ADD AND DUP3 ADD DUP1 PUSH1 0x40 MSTORE POP DUP2 ADD SWAP1 PUSH2 0x4334 SWAP2 SWAP1 PUSH2 0x61C7 JUMP JUMPDEST SWAP1 POP PUSH1 0x0 PUSH1 0x8 PUSH1 0x0 SWAP1 SLOAD SWAP1 PUSH2 0x100 EXP SWAP1 DIV PUSH20 0xFFFFFFFFFFFFFFFFFFFFFFFFFFFFFFFFFFFFFFFF AND PUSH20 0xFFFFFFFFFFFFFFFFFFFFFFFFFFFFFFFFFFFFFFFF AND PUSH4 0x70A08231 ADDRESS PUSH1 0x40 MLOAD DUP3 PUSH4 0xFFFFFFFF AND PUSH1 0xE0 SHL DUP2 MSTORE PUSH1 0x4 ADD PUSH2 0x4393 SWAP2 SWAP1 PUSH2 0x5811 JUMP JUMPDEST PUSH1 0x20 PUSH1 0x40 MLOAD DUP1 DUP4 SUB DUP2 DUP7 GAS STATICCALL ISZERO DUP1 ISZERO PUSH2 0x43B0 JUMPI RETURNDATASIZE PUSH1 0x0 DUP1 RETURNDATACOPY RETURNDATASIZE PUSH1 0x0 REVERT JUMPDEST POP POP POP POP PUSH1 0x40 MLOAD RETURNDATASIZE PUSH1 0x1F NOT PUSH1 0x1F DUP3 ADD AND DUP3 ADD DUP1 PUSH1 0x40 MSTORE POP DUP2 ADD SWAP1 PUSH2 0x43D4 SWAP2 SWAP1 PUSH2 0x61C7 JUMP JUMPDEST SWAP1 POP PUSH1 0x6 PUSH1 0xB SWAP1 SLOAD SWAP1 PUSH2 0x100 EXP SWAP1 DIV PUSH20 0xFFFFFFFFFFFFFFFFFFFFFFFFFFFFFFFFFFFFFFFF AND PUSH20 0xFFFFFFFFFFFFFFFFFFFFFFFFFFFFFFFFFFFFFFFF AND PUSH4 0xA34123A7 DUP6 DUP6 DUP13 PUSH1 0x40 MLOAD DUP5 PUSH4 0xFFFFFFFF AND PUSH1 0xE0 SHL DUP2 MSTORE PUSH1 0x4 ADD PUSH2 0x4435 SWAP4 SWAP3 SWAP2 SWAP1 PUSH2 0x6862 JUMP JUMPDEST PUSH1 0x40 DUP1 MLOAD DUP1 DUP4 SUB DUP2 PUSH1 0x0 DUP8 GAS CALL ISZERO DUP1 ISZERO PUSH2 0x4453 JUMPI RETURNDATASIZE PUSH1 0x0 DUP1 RETURNDATACOPY RETURNDATASIZE PUSH1 0x0 REVERT JUMPDEST POP POP POP POP PUSH1 0x40 MLOAD RETURNDATASIZE PUSH1 0x1F NOT PUSH1 0x1F DUP3 ADD AND DUP3 ADD DUP1 PUSH1 0x40 MSTORE POP DUP2 ADD SWAP1 PUSH2 0x4477 SWAP2 SWAP1 PUSH2 0x5F54 JUMP JUMPDEST DUP1 SWAP9 POP DUP2 SWAP10 POP POP POP PUSH1 0x6 PUSH1 0xB SWAP1 SLOAD SWAP1 PUSH2 0x100 EXP SWAP1 DIV PUSH20 0xFFFFFFFFFFFFFFFFFFFFFFFFFFFFFFFFFFFFFFFF AND PUSH20 0xFFFFFFFFFFFFFFFFFFFFFFFFFFFFFFFFFFFFFFFF AND PUSH4 0x4F1EB3D8 ADDRESS DUP7 DUP7 PUSH16 0xFFFFFFFFFFFFFFFFFFFFFFFFFFFFFFFF DUP1 PUSH1 0x40 MLOAD DUP7 PUSH4 0xFFFFFFFF AND PUSH1 0xE0 SHL DUP2 MSTORE PUSH1 0x4 ADD PUSH2 0x44F2 SWAP6 SWAP5 SWAP4 SWAP3 SWAP2 SWAP1 PUSH2 0x6899 JUMP JUMPDEST PUSH1 0x40 DUP1 MLOAD DUP1 DUP4 SUB DUP2 PUSH1 0x0 DUP8 GAS CALL ISZERO DUP1 ISZERO PUSH2 0x4510 JUMPI RETURNDATASIZE PUSH1 0x0 DUP1 RETURNDATACOPY RETURNDATASIZE PUSH1 0x0 REVERT JUMPDEST POP POP POP POP PUSH1 0x40 MLOAD RETURNDATASIZE PUSH1 0x1F NOT PUSH1 0x1F DUP3 ADD AND DUP3 ADD DUP1 PUSH1 0x40 MSTORE POP DUP2 ADD SWAP1 PUSH2 0x4534 SWAP2 SWAP1 PUSH2 0x68EC JUMP JUMPDEST POP POP DUP8 DUP3 PUSH1 0x7 PUSH1 0x0 SWAP1 SLOAD SWAP1 PUSH2 0x100 EXP SWAP1 DIV PUSH20 0xFFFFFFFFFFFFFFFFFFFFFFFFFFFFFFFFFFFFFFFF AND PUSH20 0xFFFFFFFFFFFFFFFFFFFFFFFFFFFFFFFFFFFFFFFF AND PUSH4 0x70A08231 ADDRESS PUSH1 0x40 MLOAD DUP3 PUSH4 0xFFFFFFFF AND PUSH1 0xE0 SHL DUP2 MSTORE PUSH1 0x4 ADD PUSH2 0x4593 SWAP2 SWAP1 PUSH2 0x5811 JUMP JUMPDEST PUSH1 0x20 PUSH1 0x40 MLOAD DUP1 DUP4 SUB DUP2 DUP7 GAS STATICCALL ISZERO DUP1 ISZERO PUSH2 0x45B0 JUMPI RETURNDATASIZE PUSH1 0x0 DUP1 RETURNDATACOPY RETURNDATASIZE PUSH1 0x0 REVERT JUMPDEST POP POP POP POP PUSH1 0x40 MLOAD RETURNDATASIZE PUSH1 0x1F NOT PUSH1 0x1F DUP3 ADD AND DUP3 ADD DUP1 PUSH1 0x40 MSTORE POP DUP2 ADD SWAP1 PUSH2 0x45D4 SWAP2 SWAP1 PUSH2 0x61C7 JUMP JUMPDEST PUSH2 0x45DE SWAP2 SWAP1 PUSH2 0x6076 JUMP JUMPDEST PUSH2 0x45E8 SWAP2 SWAP1 PUSH2 0x6076 JUMP JUMPDEST SWAP6 POP DUP7 DUP2 PUSH1 0x8 PUSH1 0x0 SWAP1 SLOAD SWAP1 PUSH2 0x100 EXP SWAP1 DIV PUSH20 0xFFFFFFFFFFFFFFFFFFFFFFFFFFFFFFFFFFFFFFFF AND PUSH20 0xFFFFFFFFFFFFFFFFFFFFFFFFFFFFFFFFFFFFFFFF AND PUSH4 0x70A08231 ADDRESS PUSH1 0x40 MLOAD DUP3 PUSH4 0xFFFFFFFF AND PUSH1 0xE0 SHL DUP2 MSTORE PUSH1 0x4 ADD PUSH2 0x4647 SWAP2 SWAP1 PUSH2 0x5811 JUMP JUMPDEST PUSH1 0x20 PUSH1 0x40 MLOAD DUP1 DUP4 SUB DUP2 DUP7 GAS STATICCALL ISZERO DUP1 ISZERO PUSH2 0x4664 JUMPI RETURNDATASIZE PUSH1 0x0 DUP1 RETURNDATACOPY RETURNDATASIZE PUSH1 0x0 REVERT JUMPDEST POP POP POP POP PUSH1 0x40 MLOAD RETURNDATASIZE PUSH1 0x1F NOT PUSH1 0x1F DUP3 ADD AND DUP3 ADD DUP1 PUSH1 0x40 MSTORE POP DUP2 ADD SWAP1 PUSH2 0x4688 SWAP2 SWAP1 PUSH2 0x61C7 JUMP JUMPDEST PUSH2 0x4692 SWAP2 SWAP1 PUSH2 0x6076 JUMP JUMPDEST PUSH2 0x469C SWAP2 SWAP1 PUSH2 0x6076 JUMP JUMPDEST SWAP5 POP POP POP POP POP SWAP2 SWAP4 POP SWAP2 SWAP4 JUMP JUMPDEST PUSH1 0x0 PUSH1 0x9 PUSH1 0x16 SWAP1 SLOAD SWAP1 PUSH2 0x100 EXP SWAP1 DIV PUSH2 0xFFFF AND PUSH2 0xFFFF AND SWAP1 POP PUSH2 0x2710 DUP2 DUP5 PUSH2 0x46D1 SWAP2 SWAP1 PUSH2 0x61F4 JUMP JUMPDEST PUSH2 0x46DB SWAP2 SWAP1 PUSH2 0x6265 JUMP JUMPDEST PUSH1 0xA PUSH1 0x0 DUP3 DUP3 SLOAD PUSH2 0x46EC SWAP2 SWAP1 PUSH2 0x6151 JUMP JUMPDEST SWAP3 POP POP DUP2 SWAP1 SSTORE POP PUSH2 0x2710 DUP2 DUP4 PUSH2 0x4702 SWAP2 SWAP1 PUSH2 0x61F4 JUMP JUMPDEST PUSH2 0x470C SWAP2 SWAP1 PUSH2 0x6265 JUMP JUMPDEST PUSH1 0xB PUSH1 0x0 DUP3 DUP3 SLOAD PUSH2 0x471D SWAP2 SWAP1 PUSH2 0x6151 JUMP JUMPDEST SWAP3 POP POP DUP2 SWAP1 SSTORE POP POP POP POP JUMP JUMPDEST PUSH1 0x0 PUSH20 0xFFFFFFFFFFFFFFFFFFFFFFFFFFFFFFFFFFFFFFFF AND DUP3 PUSH20 0xFFFFFFFFFFFFFFFFFFFFFFFFFFFFFFFFFFFFFFFF AND SUB PUSH2 0x479B JUMPI PUSH1 0x0 PUSH1 0x40 MLOAD PUSH32 0x96C6FD1E00000000000000000000000000000000000000000000000000000000 DUP2 MSTORE PUSH1 0x4 ADD PUSH2 0x4792 SWAP2 SWAP1 PUSH2 0x5811 JUMP JUMPDEST PUSH1 0x40 MLOAD DUP1 SWAP2 SUB SWAP1 REVERT JUMPDEST PUSH2 0x47A7 DUP3 PUSH1 0x0 DUP4 PUSH2 0x4F33 JUMP JUMPDEST POP POP JUMP JUMPDEST PUSH1 0x0 DUP1 PUSH1 0x0 DUP1 NOT DUP6 DUP8 MULMOD DUP6 DUP8 MUL SWAP3 POP DUP3 DUP2 LT DUP4 DUP3 SUB SUB SWAP2 POP POP PUSH1 0x0 DUP2 SUB PUSH2 0x47E5 JUMPI PUSH1 0x0 DUP5 GT PUSH2 0x47D9 JUMPI PUSH1 0x0 DUP1 REVERT JUMPDEST DUP4 DUP3 DIV SWAP3 POP POP POP PUSH2 0x487E JUMP JUMPDEST DUP1 DUP5 GT PUSH2 0x47F1 JUMPI PUSH1 0x0 DUP1 REVERT JUMPDEST PUSH1 0x0 DUP5 DUP7 DUP9 MULMOD SWAP1 POP DUP3 DUP2 GT DUP3 SUB SWAP2 POP DUP1 DUP4 SUB SWAP3 POP PUSH1 0x0 PUSH1 0x1 DUP7 NOT ADD DUP7 AND SWAP1 POP DUP1 DUP7 DIV SWAP6 POP DUP1 DUP5 DIV SWAP4 POP PUSH1 0x1 DUP2 DUP3 PUSH1 0x0 SUB DIV ADD SWAP1 POP DUP1 DUP4 MUL DUP5 OR SWAP4 POP PUSH1 0x0 PUSH1 0x2 DUP8 PUSH1 0x3 MUL XOR SWAP1 POP DUP1 DUP8 MUL PUSH1 0x2 SUB DUP2 MUL SWAP1 POP DUP1 DUP8 MUL PUSH1 0x2 SUB DUP2 MUL SWAP1 POP DUP1 DUP8 MUL PUSH1 0x2 SUB DUP2 MUL SWAP1 POP DUP1 DUP8 MUL PUSH1 0x2 SUB DUP2 MUL SWAP1 POP DUP1 DUP8 MUL PUSH1 0x2 SUB DUP2 MUL SWAP1 POP DUP1 DUP8 MUL PUSH1 0x2 SUB DUP2 MUL SWAP1 POP DUP1 DUP6 MUL SWAP6 POP POP POP POP POP POP JUMPDEST SWAP4 SWAP3 POP POP POP JUMP JUMPDEST PUSH1 0x0 PUSH1 0x9 PUSH1 0x14 SWAP1 SLOAD SWAP1 PUSH2 0x100 EXP SWAP1 DIV PUSH2 0xFFFF AND PUSH2 0xFFFF AND SWAP1 POP PUSH2 0x2710 DUP2 DUP5 PUSH2 0x48AD SWAP2 SWAP1 PUSH2 0x61F4 JUMP JUMPDEST PUSH2 0x48B7 SWAP2 SWAP1 PUSH2 0x6265 JUMP JUMPDEST PUSH1 0xA PUSH1 0x0 DUP3 DUP3 SLOAD PUSH2 0x48C8 SWAP2 SWAP1 PUSH2 0x6151 JUMP JUMPDEST SWAP3 POP POP DUP2 SWAP1 SSTORE POP PUSH2 0x2710 DUP2 DUP4 PUSH2 0x48DE SWAP2 SWAP1 PUSH2 0x61F4 JUMP JUMPDEST PUSH2 0x48E8 SWAP2 SWAP1 PUSH2 0x6265 JUMP JUMPDEST PUSH1 0xB PUSH1 0x0 DUP3 DUP3 SLOAD PUSH2 0x48F9 SWAP2 SWAP1 PUSH2 0x6151 JUMP JUMPDEST SWAP3 POP POP DUP2 SWAP1 SSTORE POP POP POP POP JUMP JUMPDEST PUSH1 0x0 DUP1 PUSH1 0x0 PUSH1 0x9 PUSH1 0x14 SWAP1 SLOAD SWAP1 PUSH2 0x100 EXP SWAP1 DIV PUSH2 0xFFFF AND PUSH2 0xFFFF AND SWAP1 POP PUSH1 0x0 PUSH2 0x2710 DUP3 DUP8 PUSH2 0x4932 SWAP2 SWAP1 PUSH2 0x61F4 JUMP JUMPDEST PUSH2 0x493C SWAP2 SWAP1 PUSH2 0x6265 JUMP JUMPDEST SWAP1 POP PUSH1 0x0 PUSH2 0x2710 DUP4 DUP8 PUSH2 0x494F SWAP2 SWAP1 PUSH2 0x61F4 JUMP JUMPDEST PUSH2 0x4959 SWAP2 SWAP1 PUSH2 0x6265 JUMP JUMPDEST SWAP1 POP DUP2 DUP8 PUSH2 0x4967 SWAP2 SWAP1 PUSH2 0x6076 JUMP JUMPDEST SWAP5 POP DUP1 DUP7 PUSH2 0x4975 SWAP2 SWAP1 PUSH2 0x6076 JUMP JUMPDEST SWAP4 POP POP POP POP SWAP3 POP SWAP3 SWAP1 POP JUMP JUMPDEST PUSH1 0x0 PUSH2 0x498E DUP5 DUP5 DUP5 PUSH2 0x47AB JUMP JUMPDEST SWAP1 POP PUSH1 0x0 DUP3 DUP1 PUSH2 0x49A1 JUMPI PUSH2 0x49A0 PUSH2 0x6236 JUMP JUMPDEST JUMPDEST DUP5 DUP7 MULMOD GT ISZERO PUSH2 0x49E5 JUMPI PUSH32 0xFFFFFFFFFFFFFFFFFFFFFFFFFFFFFFFFFFFFFFFFFFFFFFFFFFFFFFFFFFFFFFFF DUP2 LT PUSH2 0x49D6 JUMPI PUSH1 0x0 DUP1 REVERT JUMPDEST DUP1 DUP1 PUSH2 0x49E1 SWAP1 PUSH2 0x6352 JUMP JUMPDEST SWAP2 POP POP JUMPDEST SWAP4 SWAP3 POP POP POP JUMP JUMPDEST PUSH1 0x0 PUSH20 0xFFFFFFFFFFFFFFFFFFFFFFFFFFFFFFFFFFFFFFFF AND DUP3 PUSH20 0xFFFFFFFFFFFFFFFFFFFFFFFFFFFFFFFFFFFFFFFF AND SUB PUSH2 0x4A5E JUMPI PUSH1 0x0 PUSH1 0x40 MLOAD PUSH32 0xEC442F0500000000000000000000000000000000000000000000000000000000 DUP2 MSTORE PUSH1 0x4 ADD PUSH2 0x4A55 SWAP2 SWAP1 PUSH2 0x5811 JUMP JUMPDEST PUSH1 0x40 MLOAD DUP1 SWAP2 SUB SWAP1 REVERT JUMPDEST PUSH2 0x4A6A PUSH1 0x0 DUP4 DUP4 PUSH2 0x4F33 JUMP JUMPDEST POP POP JUMP JUMPDEST PUSH1 0x0 DUP1 PUSH2 0x4A7B PUSH1 0x0 PUSH2 0x4268 JUMP JUMPDEST SWAP4 POP SWAP4 POP POP POP PUSH2 0x4A8B DUP3 DUP3 PUSH2 0x46A9 JUMP JUMPDEST PUSH2 0x4A95 DUP3 DUP3 PUSH2 0x3E99 JUMP JUMPDEST DUP1 SWAP3 POP DUP2 SWAP4 POP POP POP PUSH32 0xC28AD1DE9C0C32E5394BA60323E44D8D9536312236A47231772E448A3E49DE42 DUP3 DUP3 PUSH1 0x40 MLOAD PUSH2 0x4ACE SWAP3 SWAP2 SWAP1 PUSH2 0x5594 JUMP JUMPDEST PUSH1 0x40 MLOAD DUP1 SWAP2 SUB SWAP1 LOG1 POP POP JUMP JUMPDEST PUSH1 0x0 PUSH20 0xFFFFFFFFFFFFFFFFFFFFFFFFFFFFFFFFFFFFFFFF AND DUP5 PUSH20 0xFFFFFFFFFFFFFFFFFFFFFFFFFFFFFFFFFFFFFFFF AND SUB PUSH2 0x4B4C JUMPI PUSH1 0x0 PUSH1 0x40 MLOAD PUSH32 0xE602DF0500000000000000000000000000000000000000000000000000000000 DUP2 MSTORE PUSH1 0x4 ADD PUSH2 0x4B43 SWAP2 SWAP1 PUSH2 0x5811 JUMP JUMPDEST PUSH1 0x40 MLOAD DUP1 SWAP2 SUB SWAP1 REVERT JUMPDEST PUSH1 0x0 PUSH20 0xFFFFFFFFFFFFFFFFFFFFFFFFFFFFFFFFFFFFFFFF AND DUP4 PUSH20 0xFFFFFFFFFFFFFFFFFFFFFFFFFFFFFFFFFFFFFFFF AND SUB PUSH2 0x4BBE JUMPI PUSH1 0x0 PUSH1 0x40 MLOAD PUSH32 0x94280D6200000000000000000000000000000000000000000000000000000000 DUP2 MSTORE PUSH1 0x4 ADD PUSH2 0x4BB5 SWAP2 SWAP1 PUSH2 0x5811 JUMP JUMPDEST PUSH1 0x40 MLOAD DUP1 SWAP2 SUB SWAP1 REVERT JUMPDEST DUP2 PUSH1 0x2 PUSH1 0x0 DUP7 PUSH20 0xFFFFFFFFFFFFFFFFFFFFFFFFFFFFFFFFFFFFFFFF AND PUSH20 0xFFFFFFFFFFFFFFFFFFFFFFFFFFFFFFFFFFFFFFFF AND DUP2 MSTORE PUSH1 0x20 ADD SWAP1 DUP2 MSTORE PUSH1 0x20 ADD PUSH1 0x0 KECCAK256 PUSH1 0x0 DUP6 PUSH20 0xFFFFFFFFFFFFFFFFFFFFFFFFFFFFFFFFFFFFFFFF AND PUSH20 0xFFFFFFFFFFFFFFFFFFFFFFFFFFFFFFFFFFFFFFFF AND DUP2 MSTORE PUSH1 0x20 ADD SWAP1 DUP2 MSTORE PUSH1 0x20 ADD PUSH1 0x0 KECCAK256 DUP2 SWAP1 SSTORE POP DUP1 ISZERO PUSH2 0x4CAB JUMPI DUP3 PUSH20 0xFFFFFFFFFFFFFFFFFFFFFFFFFFFFFFFFFFFFFFFF AND DUP5 PUSH20 0xFFFFFFFFFFFFFFFFFFFFFFFFFFFFFFFFFFFFFFFF AND PUSH32 0x8C5BE1E5EBEC7D5BD14F71427D1E84F3DD0314C0F7B2291E5B200AC8C7C3B925 DUP5 PUSH1 0x40 MLOAD PUSH2 0x4CA2 SWAP2 SWAP1 PUSH2 0x5348 JUMP JUMPDEST PUSH1 0x40 MLOAD DUP1 SWAP2 SUB SWAP1 LOG3 JUMPDEST POP POP POP POP JUMP JUMPDEST PUSH1 0x0 DUP3 PUSH20 0xFFFFFFFFFFFFFFFFFFFFFFFFFFFFFFFFFFFFFFFF AND DUP5 PUSH20 0xFFFFFFFFFFFFFFFFFFFFFFFFFFFFFFFFFFFFFFFF AND GT ISZERO PUSH2 0x4CF2 JUMPI DUP3 DUP5 DUP1 SWAP5 POP DUP2 SWAP6 POP POP POP JUMPDEST PUSH1 0x0 PUSH2 0x4D38 DUP6 PUSH20 0xFFFFFFFFFFFFFFFFFFFFFFFFFFFFFFFFFFFFFFFF AND DUP6 PUSH20 0xFFFFFFFFFFFFFFFFFFFFFFFFFFFFFFFFFFFFFFFF AND PUSH13 0x1000000000000000000000000 PUSH2 0x47AB JUMP JUMPDEST SWAP1 POP PUSH2 0x4D6E PUSH2 0x4D69 DUP5 DUP4 DUP9 DUP9 PUSH2 0x4D4E SWAP2 SWAP1 PUSH2 0x692C JUMP JUMPDEST PUSH20 0xFFFFFFFFFFFFFFFFFFFFFFFFFFFFFFFFFFFFFFFF AND PUSH2 0x47AB JUMP JUMPDEST PUSH2 0x52B6 JUMP JUMPDEST SWAP2 POP POP SWAP4 SWAP3 POP POP POP JUMP JUMPDEST PUSH1 0x0 DUP3 PUSH20 0xFFFFFFFFFFFFFFFFFFFFFFFFFFFFFFFFFFFFFFFF AND DUP5 PUSH20 0xFFFFFFFFFFFFFFFFFFFFFFFFFFFFFFFFFFFFFFFF AND GT ISZERO PUSH2 0x4DB9 JUMPI DUP3 DUP5 DUP1 SWAP5 POP DUP2 SWAP6 POP POP POP JUMPDEST PUSH2 0x4DFA PUSH2 0x4DF5 DUP4 PUSH13 0x1000000000000000000000000 DUP8 DUP8 PUSH2 0x4DDA SWAP2 SWAP1 PUSH2 0x692C JUMP JUMPDEST PUSH20 0xFFFFFFFFFFFFFFFFFFFFFFFFFFFFFFFFFFFFFFFF AND PUSH2 0x47AB JUMP JUMPDEST PUSH2 0x52B6 JUMP JUMPDEST SWAP1 POP SWAP4 SWAP3 POP POP POP JUMP JUMPDEST PUSH32 0xFFFFFFFFFFFFFFFFFFFFFFFFFFFFFFFFFFFFFFFFFFFFFFFFFFFFFFFFFFF27618 PUSH1 0x2 SIGNEXTEND DUP3 PUSH1 0x2 SIGNEXTEND SLT DUP1 PUSH2 0x4E65 JUMPI POP PUSH32 0xFFFFFFFFFFFFFFFFFFFFFFFFFFFFFFFFFFFFFFFFFFFFFFFFFFFFFFFFFFF27618 PUSH2 0x4E5C SWAP1 PUSH2 0x6590 JUMP JUMPDEST PUSH1 0x2 SIGNEXTEND DUP2 PUSH1 0x2 SIGNEXTEND SGT JUMPDEST ISZERO PUSH2 0x4E9C JUMPI PUSH1 0x40 MLOAD PUSH32 0x4DED8E7400000000000000000000000000000000000000000000000000000000 DUP2 MSTORE PUSH1 0x4 ADD PUSH1 0x40 MLOAD DUP1 SWAP2 SUB SWAP1 REVERT JUMPDEST DUP1 PUSH1 0x2 SIGNEXTEND DUP3 PUSH1 0x2 SIGNEXTEND SLT ISZERO DUP1 PUSH2 0x4ECF JUMPI POP PUSH1 0x0 PUSH1 0x6 PUSH1 0x8 SWAP1 SLOAD SWAP1 PUSH2 0x100 EXP SWAP1 DIV PUSH1 0x2 SIGNEXTEND DUP4 PUSH2 0x4EC9 SWAP2 SWAP1 PUSH2 0x6974 JUMP JUMPDEST PUSH1 0x2 SIGNEXTEND EQ ISZERO JUMPDEST DUP1 PUSH2 0x4EF8 JUMPI POP PUSH1 0x0 PUSH1 0x6 PUSH1 0x8 SWAP1 SLOAD SWAP1 PUSH2 0x100 EXP SWAP1 DIV PUSH1 0x2 SIGNEXTEND DUP3 PUSH2 0x4EF2 SWAP2 SWAP1 PUSH2 0x6974 JUMP JUMPDEST PUSH1 0x2 SIGNEXTEND EQ ISZERO JUMPDEST ISZERO PUSH2 0x4F2F JUMPI PUSH1 0x40 MLOAD PUSH32 0x7302721600000000000000000000000000000000000000000000000000000000 DUP2 MSTORE PUSH1 0x4 ADD PUSH1 0x40 MLOAD DUP1 SWAP2 SUB SWAP1 REVERT JUMPDEST POP POP JUMP JUMPDEST PUSH1 0x0 PUSH20 0xFFFFFFFFFFFFFFFFFFFFFFFFFFFFFFFFFFFFFFFF AND DUP4 PUSH20 0xFFFFFFFFFFFFFFFFFFFFFFFFFFFFFFFFFFFFFFFF AND SUB PUSH2 0x4F85 JUMPI DUP1 PUSH1 0x3 PUSH1 0x0 DUP3 DUP3 SLOAD PUSH2 0x4F79 SWAP2 SWAP1 PUSH2 0x6151 JUMP JUMPDEST SWAP3 POP POP DUP2 SWAP1 SSTORE POP PUSH2 0x505A JUMP JUMPDEST PUSH1 0x0 PUSH1 0x1 PUSH1 0x0 DUP6 PUSH20 0xFFFFFFFFFFFFFFFFFFFFFFFFFFFFFFFFFFFFFFFF AND PUSH20 0xFFFFFFFFFFFFFFFFFFFFFFFFFFFFFFFFFFFFFFFF AND DUP2 MSTORE PUSH1 0x20 ADD SWAP1 DUP2 MSTORE PUSH1 0x20 ADD PUSH1 0x0 KECCAK256 SLOAD SWAP1 POP DUP2 DUP2 LT ISZERO PUSH2 0x5012 JUMPI DUP4 DUP2 DUP4 PUSH1 0x40 MLOAD PUSH32 0xE450D38C00000000000000000000000000000000000000000000000000000000 DUP2 MSTORE PUSH1 0x4 ADD PUSH2 0x5009 SWAP4 SWAP3 SWAP2 SWAP1 PUSH2 0x669E JUMP JUMPDEST PUSH1 0x40 MLOAD DUP1 SWAP2 SUB SWAP1 REVERT JUMPDEST DUP2 DUP2 SUB PUSH1 0x1 PUSH1 0x0 DUP7 PUSH20 0xFFFFFFFFFFFFFFFFFFFFFFFFFFFFFFFFFFFFFFFF AND PUSH20 0xFFFFFFFFFFFFFFFFFFFFFFFFFFFFFFFFFFFFFFFF AND DUP2 MSTORE PUSH1 0x20 ADD SWAP1 DUP2 MSTORE PUSH1 0x20 ADD PUSH1 0x0 KECCAK256 DUP2 SWAP1 SSTORE POP POP JUMPDEST PUSH1 0x0 PUSH20 0xFFFFFFFFFFFFFFFFFFFFFFFFFFFFFFFFFFFFFFFF AND DUP3 PUSH20 0xFFFFFFFFFFFFFFFFFFFFFFFFFFFFFFFFFFFFFFFF AND SUB PUSH2 0x50A3 JUMPI DUP1 PUSH1 0x3 PUSH1 0x0 DUP3 DUP3 SLOAD SUB SWAP3 POP POP DUP2 SWAP1 SSTORE POP PUSH2 0x50F1 JUMP JUMPDEST DUP1 PUSH1 0x1 PUSH1 0x0 DUP5 PUSH20 0xFFFFFFFFFFFFFFFFFFFFFFFFFFFFFFFFFFFFFFFF AND PUSH20 0xFFFFFFFFFFFFFFFFFFFFFFFFFFFFFFFFFFFFFFFF AND DUP2 MSTORE PUSH1 0x20 ADD SWAP1 DUP2 MSTORE PUSH1 0x20 ADD PUSH1 0x0 KECCAK256 PUSH1 0x0 DUP3 DUP3 SLOAD ADD SWAP3 POP POP DUP2 SWAP1 SSTORE POP JUMPDEST DUP2 PUSH20 0xFFFFFFFFFFFFFFFFFFFFFFFFFFFFFFFFFFFFFFFF AND DUP4 PUSH20 0xFFFFFFFFFFFFFFFFFFFFFFFFFFFFFFFFFFFFFFFF AND PUSH32 0xDDF252AD1BE2C89B69C2B068FC378DAA952BA7F163C4A11628F55A4DF523B3EF DUP4 PUSH1 0x40 MLOAD PUSH2 0x514E SWAP2 SWAP1 PUSH2 0x5348 JUMP JUMPDEST PUSH1 0x40 MLOAD DUP1 SWAP2 SUB SWAP1 LOG3 POP POP POP JUMP JUMPDEST PUSH1 0x0 DUP3 PUSH20 0xFFFFFFFFFFFFFFFFFFFFFFFFFFFFFFFFFFFFFFFF AND DUP5 PUSH20 0xFFFFFFFFFFFFFFFFFFFFFFFFFFFFFFFFFFFFFFFF AND GT ISZERO PUSH2 0x519C JUMPI DUP3 DUP5 DUP1 SWAP5 POP DUP2 SWAP6 POP POP POP JUMPDEST DUP4 PUSH20 0xFFFFFFFFFFFFFFFFFFFFFFFFFFFFFFFFFFFFFFFF AND PUSH2 0x520E PUSH1 0x60 PUSH1 0xFF AND DUP5 PUSH16 0xFFFFFFFFFFFFFFFFFFFFFFFFFFFFFFFF AND SWAP1 SHL DUP7 DUP7 PUSH2 0x51DC SWAP2 SWAP1 PUSH2 0x692C JUMP JUMPDEST PUSH20 0xFFFFFFFFFFFFFFFFFFFFFFFFFFFFFFFFFFFFFFFF AND DUP7 PUSH20 0xFFFFFFFFFFFFFFFFFFFFFFFFFFFFFFFFFFFFFFFF AND PUSH2 0x47AB JUMP JUMPDEST PUSH2 0x5218 SWAP2 SWAP1 PUSH2 0x6265 JUMP JUMPDEST SWAP1 POP SWAP4 SWAP3 POP POP POP JUMP JUMPDEST PUSH1 0x0 DUP3 PUSH20 0xFFFFFFFFFFFFFFFFFFFFFFFFFFFFFFFFFFFFFFFF AND DUP5 PUSH20 0xFFFFFFFFFFFFFFFFFFFFFFFFFFFFFFFFFFFFFFFF AND GT ISZERO PUSH2 0x5262 JUMPI DUP3 DUP5 DUP1 SWAP5 POP DUP2 SWAP6 POP POP POP JUMPDEST PUSH2 0x52AD DUP3 PUSH16 0xFFFFFFFFFFFFFFFFFFFFFFFFFFFFFFFF AND DUP6 DUP6 PUSH2 0x5284 SWAP2 SWAP1 PUSH2 0x692C JUMP JUMPDEST PUSH20 0xFFFFFFFFFFFFFFFFFFFFFFFFFFFFFFFFFFFFFFFF AND PUSH13 0x1000000000000000000000000 PUSH2 0x47AB JUMP JUMPDEST SWAP1 POP SWAP4 SWAP3 POP POP POP JUMP JUMPDEST PUSH1 0x0 DUP2 DUP3 SWAP2 POP DUP2 PUSH16 0xFFFFFFFFFFFFFFFFFFFFFFFFFFFFFFFF AND EQ PUSH2 0x52D9 JUMPI PUSH1 0x0 DUP1 REVERT JUMPDEST SWAP2 SWAP1 POP JUMP JUMPDEST PUSH1 0x40 MLOAD DUP1 PUSH1 0x40 ADD PUSH1 0x40 MSTORE DUP1 PUSH1 0x0 DUP2 MSTORE PUSH1 0x20 ADD PUSH1 0x0 DUP2 MSTORE POP SWAP1 JUMP JUMPDEST PUSH1 0x40 MLOAD DUP1 PUSH1 0x60 ADD PUSH1 0x40 MSTORE DUP1 PUSH1 0x0 PUSH20 0xFFFFFFFFFFFFFFFFFFFFFFFFFFFFFFFFFFFFFFFF AND DUP2 MSTORE PUSH1 0x20 ADD PUSH1 0x0 DUP2 MSTORE PUSH1 0x20 ADD PUSH1 0x0 DUP2 MSTORE POP SWAP1 JUMP JUMPDEST PUSH1 0x0 DUP2 SWAP1 POP SWAP2 SWAP1 POP JUMP JUMPDEST PUSH2 0x5342 DUP2 PUSH2 0x532F JUMP JUMPDEST DUP3 MSTORE POP POP JUMP JUMPDEST PUSH1 0x0 PUSH1 0x20 DUP3 ADD SWAP1 POP PUSH2 0x535D PUSH1 0x0 DUP4 ADD DUP5 PUSH2 0x5339 JUMP JUMPDEST SWAP3 SWAP2 POP POP JUMP JUMPDEST PUSH1 0x0 DUP2 MLOAD SWAP1 POP SWAP2 SWAP1 POP JUMP JUMPDEST PUSH1 0x0 DUP3 DUP3 MSTORE PUSH1 0x20 DUP3 ADD SWAP1 POP SWAP3 SWAP2 POP POP JUMP JUMPDEST PUSH1 0x0 JUMPDEST DUP4 DUP2 LT ISZERO PUSH2 0x539D JUMPI DUP1 DUP3 ADD MLOAD DUP2 DUP5 ADD MSTORE PUSH1 0x20 DUP2 ADD SWAP1 POP PUSH2 0x5382 JUMP JUMPDEST PUSH1 0x0 DUP5 DUP5 ADD MSTORE POP POP POP POP JUMP JUMPDEST PUSH1 0x0 PUSH1 0x1F NOT PUSH1 0x1F DUP4 ADD AND SWAP1 POP SWAP2 SWAP1 POP JUMP JUMPDEST PUSH1 0x0 PUSH2 0x53C5 DUP3 PUSH2 0x5363 JUMP JUMPDEST PUSH2 0x53CF DUP2 DUP6 PUSH2 0x536E JUMP JUMPDEST SWAP4 POP PUSH2 0x53DF DUP2 DUP6 PUSH1 0x20 DUP7 ADD PUSH2 0x537F JUMP JUMPDEST PUSH2 0x53E8 DUP2 PUSH2 0x53A9 JUMP JUMPDEST DUP5 ADD SWAP2 POP POP SWAP3 SWAP2 POP POP JUMP JUMPDEST PUSH1 0x0 PUSH1 0x20 DUP3 ADD SWAP1 POP DUP2 DUP2 SUB PUSH1 0x0 DUP4 ADD MSTORE PUSH2 0x540D DUP2 DUP5 PUSH2 0x53BA JUMP JUMPDEST SWAP1 POP SWAP3 SWAP2 POP POP JUMP JUMPDEST PUSH1 0x0 DUP1 REVERT JUMPDEST PUSH1 0x0 PUSH20 0xFFFFFFFFFFFFFFFFFFFFFFFFFFFFFFFFFFFFFFFF DUP3 AND SWAP1 POP SWAP2 SWAP1 POP JUMP JUMPDEST PUSH1 0x0 PUSH2 0x5445 DUP3 PUSH2 0x541A JUMP JUMPDEST SWAP1 POP SWAP2 SWAP1 POP JUMP JUMPDEST PUSH2 0x5455 DUP2 PUSH2 0x543A JUMP JUMPDEST DUP2 EQ PUSH2 0x5460 JUMPI PUSH1 0x0 DUP1 REVERT JUMPDEST POP JUMP JUMPDEST PUSH1 0x0 DUP2 CALLDATALOAD SWAP1 POP PUSH2 0x5472 DUP2 PUSH2 0x544C JUMP JUMPDEST SWAP3 SWAP2 POP POP JUMP JUMPDEST PUSH2 0x5481 DUP2 PUSH2 0x532F JUMP JUMPDEST DUP2 EQ PUSH2 0x548C JUMPI PUSH1 0x0 DUP1 REVERT JUMPDEST POP JUMP JUMPDEST PUSH1 0x0 DUP2 CALLDATALOAD SWAP1 POP PUSH2 0x549E DUP2 PUSH2 0x5478 JUMP JUMPDEST SWAP3 SWAP2 POP POP JUMP JUMPDEST PUSH1 0x0 DUP1 PUSH1 0x40 DUP4 DUP6 SUB SLT ISZERO PUSH2 0x54BB JUMPI PUSH2 0x54BA PUSH2 0x5415 JUMP JUMPDEST JUMPDEST PUSH1 0x0 PUSH2 0x54C9 DUP6 DUP3 DUP7 ADD PUSH2 0x5463 JUMP JUMPDEST SWAP3 POP POP PUSH1 0x20 PUSH2 0x54DA DUP6 DUP3 DUP7 ADD PUSH2 0x548F JUMP JUMPDEST SWAP2 POP POP SWAP3 POP SWAP3 SWAP1 POP JUMP JUMPDEST PUSH1 0x0 DUP2 ISZERO ISZERO SWAP1 POP SWAP2 SWAP1 POP JUMP JUMPDEST PUSH2 0x54F9 DUP2 PUSH2 0x54E4 JUMP JUMPDEST DUP3 MSTORE POP POP JUMP JUMPDEST PUSH1 0x0 PUSH1 0x20 DUP3 ADD SWAP1 POP PUSH2 0x5514 PUSH1 0x0 DUP4 ADD DUP5 PUSH2 0x54F0 JUMP JUMPDEST SWAP3 SWAP2 POP POP JUMP JUMPDEST PUSH1 0x0 DUP2 SWAP1 POP SWAP2 SWAP1 POP JUMP JUMPDEST PUSH1 0x0 PUSH2 0x553F PUSH2 0x553A PUSH2 0x5535 DUP5 PUSH2 0x541A JUMP JUMPDEST PUSH2 0x551A JUMP JUMPDEST PUSH2 0x541A JUMP JUMPDEST SWAP1 POP SWAP2 SWAP1 POP JUMP JUMPDEST PUSH1 0x0 PUSH2 0x5551 DUP3 PUSH2 0x5524 JUMP JUMPDEST SWAP1 POP SWAP2 SWAP1 POP JUMP JUMPDEST PUSH1 0x0 PUSH2 0x5563 DUP3 PUSH2 0x5546 JUMP JUMPDEST SWAP1 POP SWAP2 SWAP1 POP JUMP JUMPDEST PUSH2 0x5573 DUP2 PUSH2 0x5558 JUMP JUMPDEST DUP3 MSTORE POP POP JUMP JUMPDEST PUSH1 0x0 PUSH1 0x20 DUP3 ADD SWAP1 POP PUSH2 0x558E PUSH1 0x0 DUP4 ADD DUP5 PUSH2 0x556A JUMP JUMPDEST SWAP3 SWAP2 POP POP JUMP JUMPDEST PUSH1 0x0 PUSH1 0x40 DUP3 ADD SWAP1 POP PUSH2 0x55A9 PUSH1 0x0 DUP4 ADD DUP6 PUSH2 0x5339 JUMP JUMPDEST PUSH2 0x55B6 PUSH1 0x20 DUP4 ADD DUP5 PUSH2 0x5339 JUMP JUMPDEST SWAP4 SWAP3 POP POP POP JUMP JUMPDEST PUSH1 0x0 DUP2 PUSH1 0x2 SIGNEXTEND SWAP1 POP SWAP2 SWAP1 POP JUMP JUMPDEST PUSH2 0x55D3 DUP2 PUSH2 0x55BD JUMP JUMPDEST DUP2 EQ PUSH2 0x55DE JUMPI PUSH1 0x0 DUP1 REVERT JUMPDEST POP JUMP JUMPDEST PUSH1 0x0 DUP2 CALLDATALOAD SWAP1 POP PUSH2 0x55F0 DUP2 PUSH2 0x55CA JUMP JUMPDEST SWAP3 SWAP2 POP POP JUMP JUMPDEST PUSH1 0x0 DUP1 REVERT JUMPDEST PUSH1 0x0 DUP2 SWAP1 POP DUP3 PUSH1 0x20 PUSH1 0x2 MUL DUP3 ADD GT ISZERO PUSH2 0x5617 JUMPI PUSH2 0x5616 PUSH2 0x55F6 JUMP JUMPDEST JUMPDEST SWAP3 SWAP2 POP POP JUMP JUMPDEST PUSH1 0x0 DUP1 PUSH1 0x0 DUP1 PUSH1 0x0 DUP1 PUSH2 0x100 DUP8 DUP10 SUB SLT ISZERO PUSH2 0x563B JUMPI PUSH2 0x563A PUSH2 0x5415 JUMP JUMPDEST JUMPDEST PUSH1 0x0 PUSH2 0x5649 DUP10 DUP3 DUP11 ADD PUSH2 0x55E1 JUMP JUMPDEST SWAP7 POP POP PUSH1 0x20 PUSH2 0x565A DUP10 DUP3 DUP11 ADD PUSH2 0x55E1 JUMP JUMPDEST SWAP6 POP POP PUSH1 0x40 PUSH2 0x566B DUP10 DUP3 DUP11 ADD PUSH2 0x548F JUMP JUMPDEST SWAP5 POP POP PUSH1 0x60 PUSH2 0x567C DUP10 DUP3 DUP11 ADD PUSH2 0x548F JUMP JUMPDEST SWAP4 POP POP PUSH1 0x80 PUSH2 0x568D DUP10 DUP3 DUP11 ADD PUSH2 0x55FB JUMP JUMPDEST SWAP3 POP POP PUSH1 0xC0 PUSH2 0x569E DUP10 DUP3 DUP11 ADD PUSH2 0x55FB JUMP JUMPDEST SWAP2 POP POP SWAP3 SWAP6 POP SWAP3 SWAP6 POP SWAP3 SWAP6 JUMP JUMPDEST PUSH1 0x0 PUSH2 0x56B6 DUP3 PUSH2 0x5546 JUMP JUMPDEST SWAP1 POP SWAP2 SWAP1 POP JUMP JUMPDEST PUSH2 0x56C6 DUP2 PUSH2 0x56AB JUMP JUMPDEST DUP3 MSTORE POP POP JUMP JUMPDEST PUSH1 0x0 PUSH1 0x20 DUP3 ADD SWAP1 POP PUSH2 0x56E1 PUSH1 0x0 DUP4 ADD DUP5 PUSH2 0x56BD JUMP JUMPDEST SWAP3 SWAP2 POP POP JUMP JUMPDEST PUSH1 0x0 DUP1 PUSH1 0x0 PUSH1 0x60 DUP5 DUP7 SUB SLT ISZERO PUSH2 0x5700 JUMPI PUSH2 0x56FF PUSH2 0x5415 JUMP JUMPDEST JUMPDEST PUSH1 0x0 PUSH2 0x570E DUP7 DUP3 DUP8 ADD PUSH2 0x5463 JUMP JUMPDEST SWAP4 POP POP PUSH1 0x20 PUSH2 0x571F DUP7 DUP3 DUP8 ADD PUSH2 0x5463 JUMP JUMPDEST SWAP3 POP POP PUSH1 0x40 PUSH2 0x5730 DUP7 DUP3 DUP8 ADD PUSH2 0x548F JUMP JUMPDEST SWAP2 POP POP SWAP3 POP SWAP3 POP SWAP3 JUMP JUMPDEST PUSH1 0x0 PUSH1 0x20 DUP3 DUP5 SUB SLT ISZERO PUSH2 0x5750 JUMPI PUSH2 0x574F PUSH2 0x5415 JUMP JUMPDEST JUMPDEST PUSH1 0x0 PUSH2 0x575E DUP5 DUP3 DUP6 ADD PUSH2 0x5463 JUMP JUMPDEST SWAP2 POP POP SWAP3 SWAP2 POP POP JUMP JUMPDEST PUSH1 0x0 PUSH1 0x60 DUP3 ADD SWAP1 POP PUSH2 0x577C PUSH1 0x0 DUP4 ADD DUP7 PUSH2 0x54F0 JUMP JUMPDEST PUSH2 0x5789 PUSH1 0x20 DUP4 ADD DUP6 PUSH2 0x5339 JUMP JUMPDEST PUSH2 0x5796 PUSH1 0x40 DUP4 ADD DUP5 PUSH2 0x5339 JUMP JUMPDEST SWAP5 SWAP4 POP POP POP POP JUMP JUMPDEST PUSH1 0x0 PUSH1 0xFF DUP3 AND SWAP1 POP SWAP2 SWAP1 POP JUMP JUMPDEST PUSH2 0x57B4 DUP2 PUSH2 0x579E JUMP JUMPDEST DUP3 MSTORE POP POP JUMP JUMPDEST PUSH1 0x0 PUSH1 0x20 DUP3 ADD SWAP1 POP PUSH2 0x57CF PUSH1 0x0 DUP4 ADD DUP5 PUSH2 0x57AB JUMP JUMPDEST SWAP3 SWAP2 POP POP JUMP JUMPDEST PUSH1 0x0 PUSH1 0x20 DUP3 DUP5 SUB SLT ISZERO PUSH2 0x57EB JUMPI PUSH2 0x57EA PUSH2 0x5415 JUMP JUMPDEST JUMPDEST PUSH1 0x0 PUSH2 0x57F9 DUP5 DUP3 DUP6 ADD PUSH2 0x548F JUMP JUMPDEST SWAP2 POP POP SWAP3 SWAP2 POP POP JUMP JUMPDEST PUSH2 0x580B DUP2 PUSH2 0x543A JUMP JUMPDEST DUP3 MSTORE POP POP JUMP JUMPDEST PUSH1 0x0 PUSH1 0x20 DUP3 ADD SWAP1 POP PUSH2 0x5826 PUSH1 0x0 DUP4 ADD DUP5 PUSH2 0x5802 JUMP JUMPDEST SWAP3 SWAP2 POP POP JUMP JUMPDEST PUSH1 0x0 PUSH2 0xFFFF DUP3 AND SWAP1 POP SWAP2 SWAP1 POP JUMP JUMPDEST PUSH2 0x5843 DUP2 PUSH2 0x582C JUMP JUMPDEST DUP3 MSTORE POP POP JUMP JUMPDEST PUSH1 0x0 PUSH1 0x20 DUP3 ADD SWAP1 POP PUSH2 0x585E PUSH1 0x0 DUP4 ADD DUP5 PUSH2 0x583A JUMP JUMPDEST SWAP3 SWAP2 POP POP JUMP JUMPDEST PUSH2 0x586D DUP2 PUSH2 0x55BD JUMP JUMPDEST DUP3 MSTORE POP POP JUMP JUMPDEST PUSH1 0x0 PUSH1 0x20 DUP3 ADD SWAP1 POP PUSH2 0x5888 PUSH1 0x0 DUP4 ADD DUP5 PUSH2 0x5864 JUMP JUMPDEST SWAP3 SWAP2 POP POP JUMP JUMPDEST PUSH1 0x0 DUP1 PUSH1 0x0 PUSH1 0x60 DUP5 DUP7 SUB SLT ISZERO PUSH2 0x58A7 JUMPI PUSH2 0x58A6 PUSH2 0x5415 JUMP JUMPDEST JUMPDEST PUSH1 0x0 PUSH2 0x58B5 DUP7 DUP3 DUP8 ADD PUSH2 0x5463 JUMP JUMPDEST SWAP4 POP POP PUSH1 0x20 PUSH2 0x58C6 DUP7 DUP3 DUP8 ADD PUSH2 0x55E1 JUMP JUMPDEST SWAP3 POP POP PUSH1 0x40 PUSH2 0x58D7 DUP7 DUP3 DUP8 ADD PUSH2 0x5463 JUMP JUMPDEST SWAP2 POP POP SWAP3 POP SWAP3 POP SWAP3 JUMP JUMPDEST PUSH1 0x0 DUP1 PUSH1 0x40 DUP4 DUP6 SUB SLT ISZERO PUSH2 0x58F8 JUMPI PUSH2 0x58F7 PUSH2 0x5415 JUMP JUMPDEST JUMPDEST PUSH1 0x0 PUSH2 0x5906 DUP6 DUP3 DUP7 ADD PUSH2 0x548F JUMP JUMPDEST SWAP3 POP POP PUSH1 0x20 PUSH2 0x5917 DUP6 DUP3 DUP7 ADD PUSH2 0x548F JUMP JUMPDEST SWAP2 POP POP SWAP3 POP SWAP3 SWAP1 POP JUMP JUMPDEST PUSH1 0x0 PUSH1 0x60 DUP3 ADD SWAP1 POP PUSH2 0x5936 PUSH1 0x0 DUP4 ADD DUP7 PUSH2 0x5339 JUMP JUMPDEST PUSH2 0x5943 PUSH1 0x20 DUP4 ADD DUP6 PUSH2 0x5339 JUMP JUMPDEST PUSH2 0x5950 PUSH1 0x40 DUP4 ADD DUP5 PUSH2 0x5339 JUMP JUMPDEST SWAP5 SWAP4 POP POP POP POP JUMP JUMPDEST PUSH1 0x0 PUSH1 0x40 DUP3 DUP5 SUB SLT ISZERO PUSH2 0x596E JUMPI PUSH2 0x596D PUSH2 0x5415 JUMP JUMPDEST JUMPDEST PUSH1 0x0 PUSH2 0x597C DUP5 DUP3 DUP6 ADD PUSH2 0x55FB JUMP JUMPDEST SWAP2 POP POP SWAP3 SWAP2 POP POP JUMP JUMPDEST PUSH1 0x0 DUP1 PUSH1 0x60 DUP4 DUP6 SUB SLT ISZERO PUSH2 0x599C JUMPI PUSH2 0x599B PUSH2 0x5415 JUMP JUMPDEST JUMPDEST PUSH1 0x0 PUSH2 0x59AA DUP6 DUP3 DUP7 ADD PUSH2 0x548F JUMP JUMPDEST SWAP3 POP POP PUSH1 0x20 PUSH2 0x59BB DUP6 DUP3 DUP7 ADD PUSH2 0x55FB JUMP JUMPDEST SWAP2 POP POP SWAP3 POP SWAP3 SWAP1 POP JUMP JUMPDEST PUSH1 0x0 DUP2 MLOAD SWAP1 POP SWAP2 SWAP1 POP JUMP JUMPDEST PUSH1 0x0 DUP3 DUP3 MSTORE PUSH1 0x20 DUP3 ADD SWAP1 POP SWAP3 SWAP2 POP POP JUMP JUMPDEST PUSH1 0x0 DUP2 SWAP1 POP PUSH1 0x20 DUP3 ADD SWAP1 POP SWAP2 SWAP1 POP JUMP JUMPDEST PUSH2 0x59FA DUP2 PUSH2 0x543A JUMP JUMPDEST DUP3 MSTORE POP POP JUMP JUMPDEST PUSH2 0x5A09 DUP2 PUSH2 0x532F JUMP JUMPDEST DUP3 MSTORE POP POP JUMP JUMPDEST PUSH1 0x60 DUP3 ADD PUSH1 0x0 DUP3 ADD MLOAD PUSH2 0x5A25 PUSH1 0x0 DUP6 ADD DUP3 PUSH2 0x59F1 JUMP JUMPDEST POP PUSH1 0x20 DUP3 ADD MLOAD PUSH2 0x5A38 PUSH1 0x20 DUP6 ADD DUP3 PUSH2 0x5A00 JUMP JUMPDEST POP PUSH1 0x40 DUP3 ADD MLOAD PUSH2 0x5A4B PUSH1 0x40 DUP6 ADD DUP3 PUSH2 0x5A00 JUMP JUMPDEST POP POP POP POP JUMP JUMPDEST PUSH1 0x0 PUSH2 0x5A5D DUP4 DUP4 PUSH2 0x5A0F JUMP JUMPDEST PUSH1 0x60 DUP4 ADD SWAP1 POP SWAP3 SWAP2 POP POP JUMP JUMPDEST PUSH1 0x0 PUSH1 0x20 DUP3 ADD SWAP1 POP SWAP2 SWAP1 POP JUMP JUMPDEST PUSH1 0x0 PUSH2 0x5A81 DUP3 PUSH2 0x59C5 JUMP JUMPDEST PUSH2 0x5A8B DUP2 DUP6 PUSH2 0x59D0 JUMP JUMPDEST SWAP4 POP PUSH2 0x5A96 DUP4 PUSH2 0x59E1 JUMP JUMPDEST DUP1 PUSH1 0x0 JUMPDEST DUP4 DUP2 LT ISZERO PUSH2 0x5AC7 JUMPI DUP2 MLOAD PUSH2 0x5AAE DUP9 DUP3 PUSH2 0x5A51 JUMP JUMPDEST SWAP8 POP PUSH2 0x5AB9 DUP4 PUSH2 0x5A69 JUMP JUMPDEST SWAP3 POP POP PUSH1 0x1 DUP2 ADD SWAP1 POP PUSH2 0x5A9A JUMP JUMPDEST POP DUP6 SWAP4 POP POP POP POP SWAP3 SWAP2 POP POP JUMP JUMPDEST PUSH1 0x0 PUSH1 0x20 DUP3 ADD SWAP1 POP DUP2 DUP2 SUB PUSH1 0x0 DUP4 ADD MSTORE PUSH2 0x5AEE DUP2 DUP5 PUSH2 0x5A76 JUMP JUMPDEST SWAP1 POP SWAP3 SWAP2 POP POP JUMP JUMPDEST PUSH1 0x0 DUP1 PUSH1 0x40 DUP4 DUP6 SUB SLT ISZERO PUSH2 0x5B0D JUMPI PUSH2 0x5B0C PUSH2 0x5415 JUMP JUMPDEST JUMPDEST PUSH1 0x0 PUSH2 0x5B1B DUP6 DUP3 DUP7 ADD PUSH2 0x5463 JUMP JUMPDEST SWAP3 POP POP PUSH1 0x20 PUSH2 0x5B2C DUP6 DUP3 DUP7 ADD PUSH2 0x5463 JUMP JUMPDEST SWAP2 POP POP SWAP3 POP SWAP3 SWAP1 POP JUMP JUMPDEST PUSH1 0x0 DUP2 SWAP1 POP SWAP2 SWAP1 POP JUMP JUMPDEST PUSH2 0x5B49 DUP2 PUSH2 0x5B36 JUMP JUMPDEST DUP3 MSTORE POP POP JUMP JUMPDEST PUSH1 0x0 PUSH1 0x20 DUP3 ADD SWAP1 POP PUSH2 0x5B64 PUSH1 0x0 DUP4 ADD DUP5 PUSH2 0x5B40 JUMP JUMPDEST SWAP3 SWAP2 POP POP JUMP JUMPDEST PUSH2 0x5B73 DUP2 PUSH2 0x54E4 JUMP JUMPDEST DUP2 EQ PUSH2 0x5B7E JUMPI PUSH1 0x0 DUP1 REVERT JUMPDEST POP JUMP JUMPDEST PUSH1 0x0 DUP2 CALLDATALOAD SWAP1 POP PUSH2 0x5B90 DUP2 PUSH2 0x5B6A JUMP JUMPDEST SWAP3 SWAP2 POP POP JUMP JUMPDEST PUSH1 0x0 DUP2 SWAP1 POP SWAP2 SWAP1 POP JUMP JUMPDEST PUSH2 0x5BA9 DUP2 PUSH2 0x5B96 JUMP JUMPDEST DUP2 EQ PUSH2 0x5BB4 JUMPI PUSH1 0x0 DUP1 REVERT JUMPDEST POP JUMP JUMPDEST PUSH1 0x0 DUP2 CALLDATALOAD SWAP1 POP PUSH2 0x5BC6 DUP2 PUSH2 0x5BA0 JUMP JUMPDEST SWAP3 SWAP2 POP POP JUMP JUMPDEST PUSH2 0x5BD5 DUP2 PUSH2 0x541A JUMP JUMPDEST DUP2 EQ PUSH2 0x5BE0 JUMPI PUSH1 0x0 DUP1 REVERT JUMPDEST POP JUMP JUMPDEST PUSH1 0x0 DUP2 CALLDATALOAD SWAP1 POP PUSH2 0x5BF2 DUP2 PUSH2 0x5BCC JUMP JUMPDEST SWAP3 SWAP2 POP POP JUMP JUMPDEST PUSH1 0x0 DUP1 PUSH1 0x0 DUP1 PUSH1 0x80 DUP6 DUP8 SUB SLT ISZERO PUSH2 0x5C12 JUMPI PUSH2 0x5C11 PUSH2 0x5415 JUMP JUMPDEST JUMPDEST PUSH1 0x0 PUSH2 0x5C20 DUP8 DUP3 DUP9 ADD PUSH2 0x5B81 JUMP JUMPDEST SWAP5 POP POP PUSH1 0x20 PUSH2 0x5C31 DUP8 DUP3 DUP9 ADD PUSH2 0x5BB7 JUMP JUMPDEST SWAP4 POP POP PUSH1 0x40 PUSH2 0x5C42 DUP8 DUP3 DUP9 ADD PUSH2 0x5BE3 JUMP JUMPDEST SWAP3 POP POP PUSH1 0x60 PUSH2 0x5C53 DUP8 DUP3 DUP9 ADD PUSH2 0x548F JUMP JUMPDEST SWAP2 POP POP SWAP3 SWAP6 SWAP2 SWAP5 POP SWAP3 POP JUMP JUMPDEST PUSH2 0x5C68 DUP2 PUSH2 0x5B96 JUMP JUMPDEST DUP3 MSTORE POP POP JUMP JUMPDEST PUSH1 0x0 PUSH1 0x40 DUP3 ADD SWAP1 POP PUSH2 0x5C83 PUSH1 0x0 DUP4 ADD DUP6 PUSH2 0x5C5F JUMP JUMPDEST PUSH2 0x5C90 PUSH1 0x20 DUP4 ADD DUP5 PUSH2 0x5C5F JUMP JUMPDEST SWAP4 SWAP3 POP POP POP JUMP JUMPDEST PUSH2 0x5CA0 DUP2 PUSH2 0x582C JUMP JUMPDEST DUP2 EQ PUSH2 0x5CAB JUMPI PUSH1 0x0 DUP1 REVERT JUMPDEST POP JUMP JUMPDEST PUSH1 0x0 DUP2 CALLDATALOAD SWAP1 POP PUSH2 0x5CBD DUP2 PUSH2 0x5C97 JUMP JUMPDEST SWAP3 SWAP2 POP POP JUMP JUMPDEST PUSH1 0x0 DUP1 PUSH1 0x40 DUP4 DUP6 SUB SLT ISZERO PUSH2 0x5CDA JUMPI PUSH2 0x5CD9 PUSH2 0x5415 JUMP JUMPDEST JUMPDEST PUSH1 0x0 PUSH2 0x5CE8 DUP6 DUP3 DUP7 ADD PUSH2 0x5CAE JUMP JUMPDEST SWAP3 POP POP PUSH1 0x20 PUSH2 0x5CF9 DUP6 DUP3 DUP7 ADD PUSH2 0x5CAE JUMP JUMPDEST SWAP2 POP POP SWAP3 POP SWAP3 SWAP1 POP JUMP JUMPDEST PUSH32 0x4E487B7100000000000000000000000000000000000000000000000000000000 PUSH1 0x0 MSTORE PUSH1 0x22 PUSH1 0x4 MSTORE PUSH1 0x24 PUSH1 0x0 REVERT JUMPDEST PUSH1 0x0 PUSH1 0x2 DUP3 DIV SWAP1 POP PUSH1 0x1 DUP3 AND DUP1 PUSH2 0x5D4A JUMPI PUSH1 0x7F DUP3 AND SWAP2 POP JUMPDEST PUSH1 0x20 DUP3 LT DUP2 SUB PUSH2 0x5D5D JUMPI PUSH2 0x5D5C PUSH2 0x5D03 JUMP JUMPDEST JUMPDEST POP SWAP2 SWAP1 POP JUMP JUMPDEST PUSH1 0x0 DUP2 MLOAD SWAP1 POP PUSH2 0x5D72 DUP2 PUSH2 0x5BCC JUMP JUMPDEST SWAP3 SWAP2 POP POP JUMP JUMPDEST PUSH1 0x0 DUP2 MLOAD SWAP1 POP PUSH2 0x5D87 DUP2 PUSH2 0x55CA JUMP JUMPDEST SWAP3 SWAP2 POP POP JUMP JUMPDEST PUSH1 0x0 DUP2 MLOAD SWAP1 POP PUSH2 0x5D9C DUP2 PUSH2 0x5C97 JUMP JUMPDEST SWAP3 SWAP2 POP POP JUMP JUMPDEST PUSH2 0x5DAB DUP2 PUSH2 0x579E JUMP JUMPDEST DUP2 EQ PUSH2 0x5DB6 JUMPI PUSH1 0x0 DUP1 REVERT JUMPDEST POP JUMP JUMPDEST PUSH1 0x0 DUP2 MLOAD SWAP1 POP PUSH2 0x5DC8 DUP2 PUSH2 0x5DA2 JUMP JUMPDEST SWAP3 SWAP2 POP POP JUMP JUMPDEST PUSH1 0x0 DUP2 MLOAD SWAP1 POP PUSH2 0x5DDD DUP2 PUSH2 0x5B6A JUMP JUMPDEST SWAP3 SWAP2 POP POP JUMP JUMPDEST PUSH1 0x0 DUP1 PUSH1 0x0 DUP1 PUSH1 0x0 DUP1 PUSH1 0x0 PUSH1 0xE0 DUP9 DUP11 SUB SLT ISZERO PUSH2 0x5E02 JUMPI PUSH2 0x5E01 PUSH2 0x5415 JUMP JUMPDEST JUMPDEST PUSH1 0x0 PUSH2 0x5E10 DUP11 DUP3 DUP12 ADD PUSH2 0x5D63 JUMP JUMPDEST SWAP8 POP POP PUSH1 0x20 PUSH2 0x5E21 DUP11 DUP3 DUP12 ADD PUSH2 0x5D78 JUMP JUMPDEST SWAP7 POP POP PUSH1 0x40 PUSH2 0x5E32 DUP11 DUP3 DUP12 ADD PUSH2 0x5D8D JUMP JUMPDEST SWAP6 POP POP PUSH1 0x60 PUSH2 0x5E43 DUP11 DUP3 DUP12 ADD PUSH2 0x5D8D JUMP JUMPDEST SWAP5 POP POP PUSH1 0x80 PUSH2 0x5E54 DUP11 DUP3 DUP12 ADD PUSH2 0x5D8D JUMP JUMPDEST SWAP4 POP POP PUSH1 0xA0 PUSH2 0x5E65 DUP11 DUP3 DUP12 ADD PUSH2 0x5DB9 JUMP JUMPDEST SWAP3 POP POP PUSH1 0xC0 PUSH2 0x5E76 DUP11 DUP3 DUP12 ADD PUSH2 0x5DCE JUMP JUMPDEST SWAP2 POP POP SWAP3 SWAP6 SWAP9 SWAP2 SWAP5 SWAP8 POP SWAP3 SWAP6 POP JUMP JUMPDEST PUSH1 0x0 PUSH16 0xFFFFFFFFFFFFFFFFFFFFFFFFFFFFFFFF DUP3 AND SWAP1 POP SWAP2 SWAP1 POP JUMP JUMPDEST PUSH2 0x5EAA DUP2 PUSH2 0x5E85 JUMP JUMPDEST DUP3 MSTORE POP POP JUMP JUMPDEST PUSH1 0x0 DUP3 DUP3 MSTORE PUSH1 0x20 DUP3 ADD SWAP1 POP SWAP3 SWAP2 POP POP JUMP JUMPDEST POP JUMP JUMPDEST PUSH1 0x0 PUSH2 0x5ED1 PUSH1 0x0 DUP4 PUSH2 0x5EB0 JUMP JUMPDEST SWAP2 POP PUSH2 0x5EDC DUP3 PUSH2 0x5EC1 JUMP JUMPDEST PUSH1 0x0 DUP3 ADD SWAP1 POP SWAP2 SWAP1 POP JUMP JUMPDEST PUSH1 0x0 PUSH1 0xA0 DUP3 ADD SWAP1 POP PUSH2 0x5EFC PUSH1 0x0 DUP4 ADD DUP8 PUSH2 0x5802 JUMP JUMPDEST PUSH2 0x5F09 PUSH1 0x20 DUP4 ADD DUP7 PUSH2 0x5864 JUMP JUMPDEST PUSH2 0x5F16 PUSH1 0x40 DUP4 ADD DUP6 PUSH2 0x5864 JUMP JUMPDEST PUSH2 0x5F23 PUSH1 0x60 DUP4 ADD DUP5 PUSH2 0x5EA1 JUMP JUMPDEST DUP2 DUP2 SUB PUSH1 0x80 DUP4 ADD MSTORE PUSH2 0x5F34 DUP2 PUSH2 0x5EC4 JUMP JUMPDEST SWAP1 POP SWAP6 SWAP5 POP POP POP POP POP JUMP JUMPDEST PUSH1 0x0 DUP2 MLOAD SWAP1 POP PUSH2 0x5F4E DUP2 PUSH2 0x5478 JUMP JUMPDEST SWAP3 SWAP2 POP POP JUMP JUMPDEST PUSH1 0x0 DUP1 PUSH1 0x40 DUP4 DUP6 SUB SLT ISZERO PUSH2 0x5F6B JUMPI PUSH2 0x5F6A PUSH2 0x5415 JUMP JUMPDEST JUMPDEST PUSH1 0x0 PUSH2 0x5F79 DUP6 DUP3 DUP7 ADD PUSH2 0x5F3F JUMP JUMPDEST SWAP3 POP POP PUSH1 0x20 PUSH2 0x5F8A DUP6 DUP3 DUP7 ADD PUSH2 0x5F3F JUMP JUMPDEST SWAP2 POP POP SWAP3 POP SWAP3 SWAP1 POP JUMP JUMPDEST PUSH32 0x4E487B7100000000000000000000000000000000000000000000000000000000 PUSH1 0x0 MSTORE PUSH1 0x32 PUSH1 0x4 MSTORE PUSH1 0x24 PUSH1 0x0 REVERT JUMPDEST PUSH1 0x0 PUSH2 0x5FDE PUSH2 0x5FD9 PUSH2 0x5FD4 DUP5 PUSH2 0x5E85 JUMP JUMPDEST PUSH2 0x551A JUMP JUMPDEST PUSH2 0x532F JUMP JUMPDEST SWAP1 POP SWAP2 SWAP1 POP JUMP JUMPDEST PUSH2 0x5FEE DUP2 PUSH2 0x5FC3 JUMP JUMPDEST DUP3 MSTORE POP POP JUMP JUMPDEST PUSH1 0x0 PUSH1 0xA0 DUP3 ADD SWAP1 POP PUSH2 0x6009 PUSH1 0x0 DUP4 ADD DUP9 PUSH2 0x5FE5 JUMP JUMPDEST PUSH2 0x6016 PUSH1 0x20 DUP4 ADD DUP8 PUSH2 0x5864 JUMP JUMPDEST PUSH2 0x6023 PUSH1 0x40 DUP4 ADD DUP7 PUSH2 0x5864 JUMP JUMPDEST PUSH2 0x6030 PUSH1 0x60 DUP4 ADD DUP6 PUSH2 0x5339 JUMP JUMPDEST PUSH2 0x603D PUSH1 0x80 DUP4 ADD DUP5 PUSH2 0x5339 JUMP JUMPDEST SWAP7 SWAP6 POP POP POP POP POP POP JUMP JUMPDEST PUSH32 0x4E487B7100000000000000000000000000000000000000000000000000000000 PUSH1 0x0 MSTORE PUSH1 0x11 PUSH1 0x4 MSTORE PUSH1 0x24 PUSH1 0x0 REVERT JUMPDEST PUSH1 0x0 PUSH2 0x6081 DUP3 PUSH2 0x532F JUMP JUMPDEST SWAP2 POP PUSH2 0x608C DUP4 PUSH2 0x532F JUMP JUMPDEST SWAP3 POP DUP3 DUP3 SUB SWAP1 POP DUP2 DUP2 GT ISZERO PUSH2 0x60A4 JUMPI PUSH2 0x60A3 PUSH2 0x6047 JUMP JUMPDEST JUMPDEST SWAP3 SWAP2 POP POP JUMP JUMPDEST PUSH2 0x60B3 DUP2 PUSH2 0x5E85 JUMP JUMPDEST DUP2 EQ PUSH2 0x60BE JUMPI PUSH1 0x0 DUP1 REVERT JUMPDEST POP JUMP JUMPDEST PUSH1 0x0 DUP2 MLOAD SWAP1 POP PUSH2 0x60D0 DUP2 PUSH2 0x60AA JUMP JUMPDEST SWAP3 SWAP2 POP POP JUMP JUMPDEST PUSH1 0x0 DUP1 PUSH1 0x0 DUP1 PUSH1 0x0 PUSH1 0xA0 DUP7 DUP9 SUB SLT ISZERO PUSH2 0x60F2 JUMPI PUSH2 0x60F1 PUSH2 0x5415 JUMP JUMPDEST JUMPDEST PUSH1 0x0 PUSH2 0x6100 DUP9 DUP3 DUP10 ADD PUSH2 0x60C1 JUMP JUMPDEST SWAP6 POP POP PUSH1 0x20 PUSH2 0x6111 DUP9 DUP3 DUP10 ADD PUSH2 0x5F3F JUMP JUMPDEST SWAP5 POP POP PUSH1 0x40 PUSH2 0x6122 DUP9 DUP3 DUP10 ADD PUSH2 0x5F3F JUMP JUMPDEST SWAP4 POP POP PUSH1 0x60 PUSH2 0x6133 DUP9 DUP3 DUP10 ADD PUSH2 0x60C1 JUMP JUMPDEST SWAP3 POP POP PUSH1 0x80 PUSH2 0x6144 DUP9 DUP3 DUP10 ADD PUSH2 0x60C1 JUMP JUMPDEST SWAP2 POP POP SWAP3 SWAP6 POP SWAP3 SWAP6 SWAP1 SWAP4 POP JUMP JUMPDEST PUSH1 0x0 PUSH2 0x615C DUP3 PUSH2 0x532F JUMP JUMPDEST SWAP2 POP PUSH2 0x6167 DUP4 PUSH2 0x532F JUMP JUMPDEST SWAP3 POP DUP3 DUP3 ADD SWAP1 POP DUP1 DUP3 GT ISZERO PUSH2 0x617F JUMPI PUSH2 0x617E PUSH2 0x6047 JUMP JUMPDEST JUMPDEST SWAP3 SWAP2 POP POP JUMP JUMPDEST PUSH1 0x0 DUP2 MLOAD SWAP1 POP PUSH2 0x6194 DUP2 PUSH2 0x544C JUMP JUMPDEST SWAP3 SWAP2 POP POP JUMP JUMPDEST PUSH1 0x0 PUSH1 0x20 DUP3 DUP5 SUB SLT ISZERO PUSH2 0x61B0 JUMPI PUSH2 0x61AF PUSH2 0x5415 JUMP JUMPDEST JUMPDEST PUSH1 0x0 PUSH2 0x61BE DUP5 DUP3 DUP6 ADD PUSH2 0x6185 JUMP JUMPDEST SWAP2 POP POP SWAP3 SWAP2 POP POP JUMP JUMPDEST PUSH1 0x0 PUSH1 0x20 DUP3 DUP5 SUB SLT ISZERO PUSH2 0x61DD JUMPI PUSH2 0x61DC PUSH2 0x5415 JUMP JUMPDEST JUMPDEST PUSH1 0x0 PUSH2 0x61EB DUP5 DUP3 DUP6 ADD PUSH2 0x5F3F JUMP JUMPDEST SWAP2 POP POP SWAP3 SWAP2 POP POP JUMP JUMPDEST PUSH1 0x0 PUSH2 0x61FF DUP3 PUSH2 0x532F JUMP JUMPDEST SWAP2 POP PUSH2 0x620A DUP4 PUSH2 0x532F JUMP JUMPDEST SWAP3 POP DUP3 DUP3 MUL PUSH2 0x6218 DUP2 PUSH2 0x532F JUMP JUMPDEST SWAP2 POP DUP3 DUP3 DIV DUP5 EQ DUP4 ISZERO OR PUSH2 0x622F JUMPI PUSH2 0x622E PUSH2 0x6047 JUMP JUMPDEST JUMPDEST POP SWAP3 SWAP2 POP POP JUMP JUMPDEST PUSH32 0x4E487B7100000000000000000000000000000000000000000000000000000000 PUSH1 0x0 MSTORE PUSH1 0x12 PUSH1 0x4 MSTORE PUSH1 0x24 PUSH1 0x0 REVERT JUMPDEST PUSH1 0x0 PUSH2 0x6270 DUP3 PUSH2 0x532F JUMP JUMPDEST SWAP2 POP PUSH2 0x627B DUP4 PUSH2 0x532F JUMP JUMPDEST SWAP3 POP DUP3 PUSH2 0x628B JUMPI PUSH2 0x628A PUSH2 0x6236 JUMP JUMPDEST JUMPDEST DUP3 DUP3 DIV SWAP1 POP SWAP3 SWAP2 POP POP JUMP JUMPDEST PUSH1 0x0 PUSH1 0x40 DUP3 ADD SWAP1 POP PUSH2 0x62AB PUSH1 0x0 DUP4 ADD DUP6 PUSH2 0x5802 JUMP JUMPDEST PUSH2 0x62B8 PUSH1 0x20 DUP4 ADD DUP5 PUSH2 0x5339 JUMP JUMPDEST SWAP4 SWAP3 POP POP POP JUMP JUMPDEST PUSH1 0x0 PUSH1 0x20 DUP3 DUP5 SUB SLT ISZERO PUSH2 0x62D5 JUMPI PUSH2 0x62D4 PUSH2 0x5415 JUMP JUMPDEST JUMPDEST PUSH1 0x0 PUSH2 0x62E3 DUP5 DUP3 DUP6 ADD PUSH2 0x5DCE JUMP JUMPDEST SWAP2 POP POP SWAP3 SWAP2 POP POP JUMP JUMPDEST PUSH1 0x0 PUSH1 0x60 DUP3 ADD SWAP1 POP PUSH2 0x6301 PUSH1 0x0 DUP4 ADD DUP7 PUSH2 0x5802 JUMP JUMPDEST PUSH2 0x630E PUSH1 0x20 DUP4 ADD DUP6 PUSH2 0x5802 JUMP JUMPDEST PUSH2 0x631B PUSH1 0x40 DUP4 ADD DUP5 PUSH2 0x5339 JUMP JUMPDEST SWAP5 SWAP4 POP POP POP POP JUMP JUMPDEST PUSH32 0x4E487B7100000000000000000000000000000000000000000000000000000000 PUSH1 0x0 MSTORE PUSH1 0x41 PUSH1 0x4 MSTORE PUSH1 0x24 PUSH1 0x0 REVERT JUMPDEST PUSH1 0x0 PUSH2 0x635D DUP3 PUSH2 0x532F JUMP JUMPDEST SWAP2 POP PUSH32 0xFFFFFFFFFFFFFFFFFFFFFFFFFFFFFFFFFFFFFFFFFFFFFFFFFFFFFFFFFFFFFFFF DUP3 SUB PUSH2 0x638F JUMPI PUSH2 0x638E PUSH2 0x6047 JUMP JUMPDEST JUMPDEST PUSH1 0x1 DUP3 ADD SWAP1 POP SWAP2 SWAP1 POP JUMP JUMPDEST PUSH1 0x0 DUP2 PUSH1 0x60 SHL SWAP1 POP SWAP2 SWAP1 POP JUMP JUMPDEST PUSH1 0x0 PUSH2 0x63B2 DUP3 PUSH2 0x639A JUMP JUMPDEST SWAP1 POP SWAP2 SWAP1 POP JUMP JUMPDEST PUSH1 0x0 PUSH2 0x63C4 DUP3 PUSH2 0x63A7 JUMP JUMPDEST SWAP1 POP SWAP2 SWAP1 POP JUMP JUMPDEST PUSH2 0x63DC PUSH2 0x63D7 DUP3 PUSH2 0x543A JUMP JUMPDEST PUSH2 0x63B9 JUMP JUMPDEST DUP3 MSTORE POP POP JUMP JUMPDEST PUSH1 0x0 DUP2 PUSH1 0xE8 SHL SWAP1 POP SWAP2 SWAP1 POP JUMP JUMPDEST PUSH1 0x0 PUSH2 0x63FA DUP3 PUSH2 0x63E2 JUMP JUMPDEST SWAP1 POP SWAP2 SWAP1 POP JUMP JUMPDEST PUSH2 0x6412 PUSH2 0x640D DUP3 PUSH2 0x55BD JUMP JUMPDEST PUSH2 0x63EF JUMP JUMPDEST DUP3 MSTORE POP POP JUMP JUMPDEST PUSH1 0x0 PUSH2 0x6424 DUP3 DUP7 PUSH2 0x63CB JUMP JUMPDEST PUSH1 0x14 DUP3 ADD SWAP2 POP PUSH2 0x6434 DUP3 DUP6 PUSH2 0x6401 JUMP JUMPDEST PUSH1 0x3 DUP3 ADD SWAP2 POP PUSH2 0x6444 DUP3 DUP5 PUSH2 0x6401 JUMP JUMPDEST PUSH1 0x3 DUP3 ADD SWAP2 POP DUP2 SWAP1 POP SWAP5 SWAP4 POP POP POP POP JUMP JUMPDEST PUSH2 0x645E DUP2 PUSH2 0x541A JUMP JUMPDEST DUP3 MSTORE POP POP JUMP JUMPDEST PUSH1 0x0 PUSH1 0xA0 DUP3 ADD SWAP1 POP PUSH2 0x6479 PUSH1 0x0 DUP4 ADD DUP8 PUSH2 0x5802 JUMP JUMPDEST PUSH2 0x6486 PUSH1 0x20 DUP4 ADD DUP7 PUSH2 0x54F0 JUMP JUMPDEST PUSH2 0x6493 PUSH1 0x40 DUP4 ADD DUP6 PUSH2 0x5C5F JUMP JUMPDEST PUSH2 0x64A0 PUSH1 0x60 DUP4 ADD DUP5 PUSH2 0x6455 JUMP JUMPDEST DUP2 DUP2 SUB PUSH1 0x80 DUP4 ADD MSTORE PUSH2 0x64B1 DUP2 PUSH2 0x5EC4 JUMP JUMPDEST SWAP1 POP SWAP6 SWAP5 POP POP POP POP POP JUMP JUMPDEST PUSH1 0x0 DUP2 MLOAD SWAP1 POP PUSH2 0x64CB DUP2 PUSH2 0x5BA0 JUMP JUMPDEST SWAP3 SWAP2 POP POP JUMP JUMPDEST PUSH1 0x0 DUP1 PUSH1 0x40 DUP4 DUP6 SUB SLT ISZERO PUSH2 0x64E8 JUMPI PUSH2 0x64E7 PUSH2 0x5415 JUMP JUMPDEST JUMPDEST PUSH1 0x0 PUSH2 0x64F6 DUP6 DUP3 DUP7 ADD PUSH2 0x64BC JUMP JUMPDEST SWAP3 POP POP PUSH1 0x20 PUSH2 0x6507 DUP6 DUP3 DUP7 ADD PUSH2 0x64BC JUMP JUMPDEST SWAP2 POP POP SWAP3 POP SWAP3 SWAP1 POP JUMP JUMPDEST PUSH1 0x0 PUSH2 0x651C DUP3 PUSH2 0x5B96 JUMP JUMPDEST SWAP2 POP PUSH32 0x8000000000000000000000000000000000000000000000000000000000000000 DUP3 SUB PUSH2 0x654E JUMPI PUSH2 0x654D PUSH2 0x6047 JUMP JUMPDEST JUMPDEST DUP2 PUSH1 0x0 SUB SWAP1 POP SWAP2 SWAP1 POP JUMP JUMPDEST PUSH1 0x0 PUSH1 0x60 DUP3 ADD SWAP1 POP PUSH2 0x656E PUSH1 0x0 DUP4 ADD DUP7 PUSH2 0x54F0 JUMP JUMPDEST PUSH2 0x657B PUSH1 0x20 DUP4 ADD DUP6 PUSH2 0x5C5F JUMP JUMPDEST PUSH2 0x6588 PUSH1 0x40 DUP4 ADD DUP5 PUSH2 0x5C5F JUMP JUMPDEST SWAP5 SWAP4 POP POP POP POP JUMP JUMPDEST PUSH1 0x0 PUSH2 0x659B DUP3 PUSH2 0x55BD JUMP JUMPDEST SWAP2 POP PUSH32 0xFFFFFFFFFFFFFFFFFFFFFFFFFFFFFFFFFFFFFFFFFFFFFFFFFFFFFFFFFF800000 DUP3 SUB PUSH2 0x65CD JUMPI PUSH2 0x65CC PUSH2 0x6047 JUMP JUMPDEST JUMPDEST DUP2 PUSH1 0x0 SUB SWAP1 POP SWAP2 SWAP1 POP JUMP JUMPDEST PUSH32 0x5400000000000000000000000000000000000000000000000000000000000000 PUSH1 0x0 DUP3 ADD MSTORE POP JUMP JUMPDEST PUSH1 0x0 PUSH2 0x660E PUSH1 0x1 DUP4 PUSH2 0x536E JUMP JUMPDEST SWAP2 POP PUSH2 0x6619 DUP3 PUSH2 0x65D8 JUMP JUMPDEST PUSH1 0x20 DUP3 ADD SWAP1 POP SWAP2 SWAP1 POP JUMP JUMPDEST PUSH1 0x0 PUSH1 0x20 DUP3 ADD SWAP1 POP DUP2 DUP2 SUB PUSH1 0x0 DUP4 ADD MSTORE PUSH2 0x663D DUP2 PUSH2 0x6601 JUMP JUMPDEST SWAP1 POP SWAP2 SWAP1 POP JUMP JUMPDEST PUSH1 0x0 PUSH2 0x664F DUP3 PUSH2 0x532F JUMP JUMPDEST SWAP2 POP PUSH2 0x665A DUP4 PUSH2 0x532F JUMP JUMPDEST SWAP3 POP DUP3 PUSH2 0x666A JUMPI PUSH2 0x6669 PUSH2 0x6236 JUMP JUMPDEST JUMPDEST DUP3 DUP3 MOD SWAP1 POP SWAP3 SWAP2 POP POP JUMP JUMPDEST PUSH1 0x0 PUSH1 0x40 DUP3 ADD SWAP1 POP PUSH2 0x668A PUSH1 0x0 DUP4 ADD DUP6 PUSH2 0x5864 JUMP JUMPDEST PUSH2 0x6697 PUSH1 0x20 DUP4 ADD DUP5 PUSH2 0x5864 JUMP JUMPDEST SWAP4 SWAP3 POP POP POP JUMP JUMPDEST PUSH1 0x0 PUSH1 0x60 DUP3 ADD SWAP1 POP PUSH2 0x66B3 PUSH1 0x0 DUP4 ADD DUP7 PUSH2 0x5802 JUMP JUMPDEST PUSH2 0x66C0 PUSH1 0x20 DUP4 ADD DUP6 PUSH2 0x5339 JUMP JUMPDEST PUSH2 0x66CD PUSH1 0x40 DUP4 ADD DUP5 PUSH2 0x5339 JUMP JUMPDEST SWAP5 SWAP4 POP POP POP POP JUMP JUMPDEST PUSH1 0x0 DUP2 PUSH1 0xF SIGNEXTEND SWAP1 POP SWAP2 SWAP1 POP JUMP JUMPDEST PUSH2 0x66EB DUP2 PUSH2 0x66D5 JUMP JUMPDEST DUP2 EQ PUSH2 0x66F6 JUMPI PUSH1 0x0 DUP1 REVERT JUMPDEST POP JUMP JUMPDEST PUSH1 0x0 DUP2 MLOAD SWAP1 POP PUSH2 0x6708 DUP2 PUSH2 0x66E2 JUMP JUMPDEST SWAP3 SWAP2 POP POP JUMP JUMPDEST PUSH1 0x0 DUP2 PUSH1 0x6 SIGNEXTEND SWAP1 POP SWAP2 SWAP1 POP JUMP JUMPDEST PUSH2 0x6724 DUP2 PUSH2 0x670E JUMP JUMPDEST DUP2 EQ PUSH2 0x672F JUMPI PUSH1 0x0 DUP1 REVERT JUMPDEST POP JUMP JUMPDEST PUSH1 0x0 DUP2 MLOAD SWAP1 POP PUSH2 0x6741 DUP2 PUSH2 0x671B JUMP JUMPDEST SWAP3 SWAP2 POP POP JUMP JUMPDEST PUSH1 0x0 PUSH4 0xFFFFFFFF DUP3 AND SWAP1 POP SWAP2 SWAP1 POP JUMP JUMPDEST PUSH2 0x6760 DUP2 PUSH2 0x6747 JUMP JUMPDEST DUP2 EQ PUSH2 0x676B JUMPI PUSH1 0x0 DUP1 REVERT JUMPDEST POP JUMP JUMPDEST PUSH1 0x0 DUP2 MLOAD SWAP1 POP PUSH2 0x677D DUP2 PUSH2 0x6757 JUMP JUMPDEST SWAP3 SWAP2 POP POP JUMP JUMPDEST PUSH1 0x0 DUP1 PUSH1 0x0 DUP1 PUSH1 0x0 DUP1 PUSH1 0x0 DUP1 PUSH2 0x100 DUP10 DUP12 SUB SLT ISZERO PUSH2 0x67A4 JUMPI PUSH2 0x67A3 PUSH2 0x5415 JUMP JUMPDEST JUMPDEST PUSH1 0x0 PUSH2 0x67B2 DUP12 DUP3 DUP13 ADD PUSH2 0x60C1 JUMP JUMPDEST SWAP9 POP POP PUSH1 0x20 PUSH2 0x67C3 DUP12 DUP3 DUP13 ADD PUSH2 0x66F9 JUMP JUMPDEST SWAP8 POP POP PUSH1 0x40 PUSH2 0x67D4 DUP12 DUP3 DUP13 ADD PUSH2 0x5F3F JUMP JUMPDEST SWAP7 POP POP PUSH1 0x60 PUSH2 0x67E5 DUP12 DUP3 DUP13 ADD PUSH2 0x5F3F JUMP JUMPDEST SWAP6 POP POP PUSH1 0x80 PUSH2 0x67F6 DUP12 DUP3 DUP13 ADD PUSH2 0x6732 JUMP JUMPDEST SWAP5 POP POP PUSH1 0xA0 PUSH2 0x6807 DUP12 DUP3 DUP13 ADD PUSH2 0x5D63 JUMP JUMPDEST SWAP4 POP POP PUSH1 0xC0 PUSH2 0x6818 DUP12 DUP3 DUP13 ADD PUSH2 0x676E JUMP JUMPDEST SWAP3 POP POP PUSH1 0xE0 PUSH2 0x6829 DUP12 DUP3 DUP13 ADD PUSH2 0x5DCE JUMP JUMPDEST SWAP2 POP POP SWAP3 SWAP6 SWAP9 POP SWAP3 SWAP6 SWAP9 SWAP1 SWAP4 SWAP7 POP JUMP JUMPDEST PUSH1 0x0 PUSH1 0x40 DUP3 ADD SWAP1 POP PUSH2 0x684E PUSH1 0x0 DUP4 ADD DUP6 PUSH2 0x583A JUMP JUMPDEST PUSH2 0x685B PUSH1 0x20 DUP4 ADD DUP5 PUSH2 0x583A JUMP JUMPDEST SWAP4 SWAP3 POP POP POP JUMP JUMPDEST PUSH1 0x0 PUSH1 0x60 DUP3 ADD SWAP1 POP PUSH2 0x6877 PUSH1 0x0 DUP4 ADD DUP7 PUSH2 0x5864 JUMP JUMPDEST PUSH2 0x6884 PUSH1 0x20 DUP4 ADD DUP6 PUSH2 0x5864 JUMP JUMPDEST PUSH2 0x6891 PUSH1 0x40 DUP4 ADD DUP5 PUSH2 0x5EA1 JUMP JUMPDEST SWAP5 SWAP4 POP POP POP POP JUMP JUMPDEST PUSH1 0x0 PUSH1 0xA0 DUP3 ADD SWAP1 POP PUSH2 0x68AE PUSH1 0x0 DUP4 ADD DUP9 PUSH2 0x5802 JUMP JUMPDEST PUSH2 0x68BB PUSH1 0x20 DUP4 ADD DUP8 PUSH2 0x5864 JUMP JUMPDEST PUSH2 0x68C8 PUSH1 0x40 DUP4 ADD DUP7 PUSH2 0x5864 JUMP JUMPDEST PUSH2 0x68D5 PUSH1 0x60 DUP4 ADD DUP6 PUSH2 0x5EA1 JUMP JUMPDEST PUSH2 0x68E2 PUSH1 0x80 DUP4 ADD DUP5 PUSH2 0x5EA1 JUMP JUMPDEST SWAP7 SWAP6 POP POP POP POP POP POP JUMP JUMPDEST PUSH1 0x0 DUP1 PUSH1 0x40 DUP4 DUP6 SUB SLT ISZERO PUSH2 0x6903 JUMPI PUSH2 0x6902 PUSH2 0x5415 JUMP JUMPDEST JUMPDEST PUSH1 0x0 PUSH2 0x6911 DUP6 DUP3 DUP7 ADD PUSH2 0x60C1 JUMP JUMPDEST SWAP3 POP POP PUSH1 0x20 PUSH2 0x6922 DUP6 DUP3 DUP7 ADD PUSH2 0x60C1 JUMP JUMPDEST SWAP2 POP POP SWAP3 POP SWAP3 SWAP1 POP JUMP JUMPDEST PUSH1 0x0 PUSH2 0x6937 DUP3 PUSH2 0x541A JUMP JUMPDEST SWAP2 POP PUSH2 0x6942 DUP4 PUSH2 0x541A JUMP JUMPDEST SWAP3 POP DUP3 DUP3 SUB SWAP1 POP PUSH20 0xFFFFFFFFFFFFFFFFFFFFFFFFFFFFFFFFFFFFFFFF DUP2 GT ISZERO PUSH2 0x696E JUMPI PUSH2 0x696D PUSH2 0x6047 JUMP JUMPDEST JUMPDEST SWAP3 SWAP2 POP POP JUMP JUMPDEST PUSH1 0x0 PUSH2 0x697F DUP3 PUSH2 0x55BD JUMP JUMPDEST SWAP2 POP PUSH2 0x698A DUP4 PUSH2 0x55BD JUMP JUMPDEST SWAP3 POP DUP3 PUSH2 0x699A JUMPI PUSH2 0x6999 PUSH2 0x6236 JUMP JUMPDEST JUMPDEST DUP3 DUP3 SMOD SWAP1 POP SWAP3 SWAP2 POP POP JUMP INVALID LOG2 PUSH5 0x6970667358 0x22 SLT KECCAK256 DUP3 0xF6 0xDE 0x2D PUSH0 0x4D 0xA5 0xE6 0xE1 0x2A 0xD8 LOG0 SLOAD LOG4 KECCAK256 0xD8 DUP11 0x25 0xEE 0xEC 0x21 0xDD COINBASE 0xEF DELEGATECALL 0x22 SELFBALANCE DUP16 RETURNDATACOPY 0x2C 0xBD 0xCF PUSH5 0x736F6C6343 STOP ADDMOD EQ STOP CALLER "},"methodIdentifiers":{"addLiquidity(int24,int24,uint256,uint256,uint256[2],uint256[2])":"14a2afb2","allowance(address,address)":"dd62ed3e","approve(address,uint256)":"095ea7b3","balanceOf(address)":"70a08231","burn(uint256,uint256[2])":"9d6933ae","decimals()":"313ce567","factory()":"c45a0155","getCurrentFees()":"71908a03","getMintAmounts(uint256,uint256)":"9894f21a","getPositionID()":"df28408a","getUnderlyingBalances()":"1322d954","getUnderlyingBalancesByShare(uint256)":"f173c7f5","getUserVaults(uint256,uint256)":"c653089f","inThePosition()":"4043f5ca","initialize(address,int24,address)":"816ec2ea","lowerTick()":"9b1344ac","managerBalance0()":"065756db","managerBalance1()":"42fb9d44","managingFee()":"601b48a4","mint(uint256,uint256[2])":"b341ee9f","mintStarted()":"a9722cf3","name()":"06fdde03","owner()":"8da5cb5b","performanceFee()":"87788782","pool()":"16f0115b","pullFeeFromPool()":"d7e458b5","removeLiquidity(uint256[2])":"9cd643cc","renounceOwnership()":"715018a6","swap(bool,int256,uint160,uint256)":"e059c660","symbol()":"95d89b41","tickSpacing()":"d0c93a7c","token0()":"0dfe1681","token1()":"d21220a7","totalSupply()":"18160ddd","transfer(address,uint256)":"a9059cbb","transferFrom(address,address,uint256)":"23b872dd","transferOwnership(address)":"f2fde38b","updateFees(uint16,uint16)":"f3d2350e","upperTick()":"727dd228","userCount()":"07973ccf","userVaults(address)":"2958d031","users(uint256)":"365b98b2"}}}}}