{"contracts/range/RangeProtocolFactory.sol":{"RangeProtocolFactory":{"abi":[{"inputs":[{"internalType":"address","name":"_uniswapV3Factory","type":"address"}],"stateMutability":"nonpayable","type":"constructor"},{"inputs":[],"name":"MismatchedVaultsAndImplsLength","type":"error"},{"inputs":[],"name":"NoVaultInitDataProvided","type":"error"},{"inputs":[{"internalType":"address","name":"owner","type":"address"}],"name":"OwnableInvalidOwner","type":"error"},{"inputs":[{"internalType":"address","name":"account","type":"address"}],"name":"OwnableUnauthorizedAccount","type":"error"},{"inputs":[],"name":"SameTokensAddresses","type":"error"},{"inputs":[],"name":"VaultUpgradeFailed","type":"error"},{"inputs":[],"name":"ZeroPoolAddress","type":"error"},{"anonymous":false,"inputs":[{"indexed":true,"internalType":"address","name":"previousOwner","type":"address"},{"indexed":true,"internalType":"address","name":"newOwner","type":"address"}],"name":"OwnershipTransferred","type":"event"},{"anonymous":false,"inputs":[{"indexed":true,"internalType":"address","name":"uniPool","type":"address"},{"indexed":true,"internalType":"address","name":"vault","type":"address"}],"name":"VaultCreated","type":"event"},{"anonymous":false,"inputs":[{"indexed":true,"internalType":"address","name":"uniPool","type":"address"},{"indexed":true,"internalType":"address","name":"vault","type":"address"}],"name":"VaultImplUpgraded","type":"event"},{"inputs":[],"name":"INIT_SELECTOR","outputs":[{"internalType":"bytes4","name":"","type":"bytes4"}],"stateMutability":"view","type":"function"},{"inputs":[],"name":"UPGRADE_SELECTOR","outputs":[{"internalType":"bytes4","name":"","type":"bytes4"}],"stateMutability":"view","type":"function"},{"inputs":[{"internalType":"address","name":"tokenA","type":"address"},{"internalType":"address","name":"tokenB","type":"address"},{"internalType":"uint24","name":"fee","type":"uint24"},{"internalType":"address","name":"implementation","type":"address"},{"internalType":"bytes","name":"data","type":"bytes"}],"name":"createVault","outputs":[],"stateMutability":"nonpayable","type":"function"},{"inputs":[],"name":"factory","outputs":[{"internalType":"address","name":"","type":"address"}],"stateMutability":"view","type":"function"},{"inputs":[{"internalType":"uint256","name":"startIdx","type":"uint256"},{"internalType":"uint256","name":"endIdx","type":"uint256"}],"name":"getVaultAddresses","outputs":[{"internalType":"address[]","name":"vaultList","type":"address[]"}],"stateMutability":"view","type":"function"},{"inputs":[],"name":"owner","outputs":[{"internalType":"address","name":"","type":"address"}],"stateMutability":"view","type":"function"},{"inputs":[],"name":"renounceOwnership","outputs":[],"stateMutability":"nonpayable","type":"function"},{"inputs":[{"internalType":"address","name":"newOwner","type":"address"}],"name":"transferOwnership","outputs":[],"stateMutability":"nonpayable","type":"function"},{"inputs":[{"internalType":"address","name":"_vault","type":"address"},{"internalType":"address","name":"_impl","type":"address"}],"name":"upgradeVault","outputs":[],"stateMutability":"nonpayable","type":"function"},{"inputs":[{"internalType":"address[]","name":"_vaults","type":"address[]"},{"internalType":"address[]","name":"_impls","type":"address[]"}],"name":"upgradeVaults","outputs":[],"stateMutability":"nonpayable","type":"function"},{"inputs":[],"name":"vaultCount","outputs":[{"internalType":"uint256","name":"","type":"uint256"}],"stateMutability":"view","type":"function"}],"evm":{"bytecode":{"linkReferences":{},"object":"60a06040523480156200001157600080fd5b506040516200223238038062002232833981810160405281019062000037919062000228565b60008073ffffffffffffffffffffffffffffffffffffffff168173ffffffffffffffffffffffffffffffffffffffff1603620000ad5760006040517f1e4fbdf7000000000000000000000000000000000000000000000000000000008152600401620000a491906200026b565b60405180910390fd5b620000be81620000fa60201b60201c565b508073ffffffffffffffffffffffffffffffffffffffff1660808173ffffffffffffffffffffffffffffffffffffffff16815250505062000288565b60008060009054906101000a900473ffffffffffffffffffffffffffffffffffffffff169050816000806101000a81548173ffffffffffffffffffffffffffffffffffffffff021916908373ffffffffffffffffffffffffffffffffffffffff1602179055508173ffffffffffffffffffffffffffffffffffffffff168173ffffffffffffffffffffffffffffffffffffffff167f8be0079c531659141344cd1fd0a4f28419497f9722a3daafe3b4186f6b6457e060405160405180910390a35050565b600080fd5b600073ffffffffffffffffffffffffffffffffffffffff82169050919050565b6000620001f082620001c3565b9050919050565b6200020281620001e3565b81146200020e57600080fd5b50565b6000815190506200022281620001f7565b92915050565b600060208284031215620002415762000240620001be565b5b6000620002518482850162000211565b91505092915050565b6200026581620001e3565b82525050565b60006020820190506200028260008301846200025a565b92915050565b608051611f80620002b260003960008181610251015281816106b20152610aff0152611f806000f3fe60806040523480156200001157600080fd5b5060043610620000b85760003560e01c8063715018a6116200007b578063715018a614620001755780638da5cb5b146200018157806397fb879714620001a3578063a7c6a10014620001c5578063c45a015514620001e7578063f2fde38b146200020957620000b8565b8063054bf17114620000bd5780632204d63e14620000dd5780632bcef00814620000fd5780634ae232ba146200011d5780636dbda2171462000153575b600080fd5b620000db6004803603810190620000d5919062000e4d565b62000229565b005b620000fb6004803603810190620000f5919062001036565b62000243565b005b6200011b600480360381019062000115919062001146565b620003d2565b005b6200013b60048036038101906200013591906200120f565b620004ac565b6040516200014a919062001324565b60405180910390f35b6200015d620005e2565b6040516200016c919062001385565b60405180910390f35b6200017f62000622565b005b6200018b6200063a565b6040516200019a9190620013b3565b60405180910390f35b620001ad62000663565b604051620001bc919062001385565b60405180910390f35b620001cf620006a3565b604051620001de9190620013e1565b60405180910390f35b620001f1620006b0565b604051620002009190620013b3565b60405180910390f35b620002276004803603810190620002219190620013fe565b620006d4565b005b6200023362000761565b6200023f8282620007f1565b5050565b6200024d62000761565b60007f000000000000000000000000000000000000000000000000000000000000000073ffffffffffffffffffffffffffffffffffffffff16631698ee828787876040518463ffffffff1660e01b8152600401620002ae9392919062001441565b602060405180830381865afa158015620002cc573d6000803e3d6000fd5b505050506040513d601f19601f82011682018060405250810190620002f2919062001495565b9050600073ffffffffffffffffffffffffffffffffffffffff168173ffffffffffffffffffffffffffffffffffffffff16036200035b576040517f037064f100000000000000000000000000000000000000000000000000000000815260040160405180910390fd5b60006200036d878787858888620009a5565b90508073ffffffffffffffffffffffffffffffffffffffff168273ffffffffffffffffffffffffffffffffffffffff167f5d9c31ffa0fecffd7cf379989a3c7af252f0335e0d2a1320b55245912c781f5360405160405180910390a350505050505050565b620003dc62000761565b8181905084849050146200041c576040517fb7c10ccc00000000000000000000000000000000000000000000000000000000815260040160405180910390fd5b60005b84849050811015620004a5576200048f858583818110620004455762000444620014c7565b5b90506020020160208101906200045c9190620013fe565b848484818110620004725762000471620014c7565b5b9050602002016020810190620004899190620013fe565b620007f1565b80806200049c9062001525565b9150506200041f565b5050505050565b606060018383620004be919062001572565b620004ca9190620015ad565b67ffffffffffffffff811115620004e657620004e562000eef565b5b604051908082528060200260200182016040528015620005155781602001602082028036833780820191505090505b50905060008390505b828111620005db57600181815481106200053d576200053c620014c7565b5b9060005260206000200160009054906101000a900473ffffffffffffffffffffffffffffffffffffffff1682858362000577919062001572565b815181106200058b576200058a620014c7565b5b602002602001019073ffffffffffffffffffffffffffffffffffffffff16908173ffffffffffffffffffffffffffffffffffffffff16815250508080620005d29062001525565b9150506200051e565b5092915050565b6040518060400160405280601281526020017f75706772616465546f28616464726573732900000000000000000000000000008152508051906020012081565b6200062c62000761565b62000638600062000cfa565b565b60008060009054906101000a900473ffffffffffffffffffffffffffffffffffffffff16905090565b6040518060400160405280601f81526020017f696e697469616c697a6528616464726573732c696e7432342c627974657329008152508051906020012081565b6000600180549050905090565b7f000000000000000000000000000000000000000000000000000000000000000081565b620006de62000761565b600073ffffffffffffffffffffffffffffffffffffffff168173ffffffffffffffffffffffffffffffffffffffff1603620007535760006040517f1e4fbdf70000000000000000000000000000000000000000000000000000000081526004016200074a9190620013b3565b60405180910390fd5b6200075e8162000cfa565b50565b6200076b62000dbe565b73ffffffffffffffffffffffffffffffffffffffff166200078b6200063a565b73ffffffffffffffffffffffffffffffffffffffff1614620007ef57620007b162000dbe565b6040517f118cdaa7000000000000000000000000000000000000000000000000000000008152600401620007e69190620013b3565b60405180910390fd5b565b60008273ffffffffffffffffffffffffffffffffffffffff166040518060400160405280601281526020017f75706772616465546f286164647265737329000000000000000000000000000081525080519060200120836040516024016200085a9190620013b3565b604051602081830303815290604052907bffffffffffffffffffffffffffffffffffffffffffffffffffffffff19166020820180517bffffffffffffffffffffffffffffffffffffffffffffffffffffffff8381831617835250505050604051620008c6919062001661565b6000604051808303816000865af19150503d806000811462000905576040519150601f19603f3d011682016040523d82523d6000602084013e6200090a565b606091505b505090508062000946576040517fe5ba34a300000000000000000000000000000000000000000000000000000000815260040160405180910390fd5b8173ffffffffffffffffffffffffffffffffffffffff168373ffffffffffffffffffffffffffffffffffffffff167ff1bca332ecac5836810b4626fa419227255b5d1ec952fc6b7bba5916ecf6808060405160405180910390a3505050565b600080825103620009e2576040517f1438a13100000000000000000000000000000000000000000000000000000000815260040160405180910390fd5b8573ffffffffffffffffffffffffffffffffffffffff168773ffffffffffffffffffffffffffffffffffffffff160362000a48576040517fae402b8000000000000000000000000000000000000000000000000000000000815260040160405180910390fd5b60008673ffffffffffffffffffffffffffffffffffffffff168873ffffffffffffffffffffffffffffffffffffffff161062000a85578662000a87565b875b9050600073ffffffffffffffffffffffffffffffffffffffff168173ffffffffffffffffffffffffffffffffffffffff160362000afb576040517f08c379a000000000000000000000000000000000000000000000000000000000815260040162000af290620016db565b60405180910390fd5b60007f000000000000000000000000000000000000000000000000000000000000000073ffffffffffffffffffffffffffffffffffffffff166322afcccb886040518263ffffffff1660e01b815260040162000b589190620016fd565b602060405180830381865afa15801562000b76573d6000803e3d6000fd5b505050506040513d601f19601f8201168201806040525081019062000b9c919062001758565b9050846040518060400160405280601f81526020017f696e697469616c697a6528616464726573732c696e7432342c627974657329008152508051906020012087838760405160240162000bf393929190620017ed565b604051602081830303815290604052907bffffffffffffffffffffffffffffffffffffffffffffffffffffffff19166020820180517bffffffffffffffffffffffffffffffffffffffffffffffffffffffff838183161783525050505060405162000c5e9062000dc6565b62000c6b92919062001831565b604051809103906000f08015801562000c88573d6000803e3d6000fd5b5092506001839080600181540180825580915050600190039060005260206000200160009091909190916101000a81548173ffffffffffffffffffffffffffffffffffffffff021916908373ffffffffffffffffffffffffffffffffffffffff16021790555050509695505050505050565b60008060009054906101000a900473ffffffffffffffffffffffffffffffffffffffff169050816000806101000a81548173ffffffffffffffffffffffffffffffffffffffff021916908373ffffffffffffffffffffffffffffffffffffffff1602179055508173ffffffffffffffffffffffffffffffffffffffff168173ffffffffffffffffffffffffffffffffffffffff167f8be0079c531659141344cd1fd0a4f28419497f9722a3daafe3b4186f6b6457e060405160405180910390a35050565b600033905090565b6106e5806200186683390190565b6000604051905090565b600080fd5b600080fd5b600073ffffffffffffffffffffffffffffffffffffffff82169050919050565b600062000e158262000de8565b9050919050565b62000e278162000e08565b811462000e3357600080fd5b50565b60008135905062000e478162000e1c565b92915050565b6000806040838503121562000e675762000e6662000dde565b5b600062000e778582860162000e36565b925050602062000e8a8582860162000e36565b9150509250929050565b600062ffffff82169050919050565b62000eae8162000e94565b811462000eba57600080fd5b50565b60008135905062000ece8162000ea3565b92915050565b600080fd5b600080fd5b6000601f19601f8301169050919050565b7f4e487b7100000000000000000000000000000000000000000000000000000000600052604160045260246000fd5b62000f298262000ede565b810181811067ffffffffffffffff8211171562000f4b5762000f4a62000eef565b5b80604052505050565b600062000f6062000dd4565b905062000f6e828262000f1e565b919050565b600067ffffffffffffffff82111562000f915762000f9062000eef565b5b62000f9c8262000ede565b9050602081019050919050565b82818337600083830152505050565b600062000fcf62000fc98462000f73565b62000f54565b90508281526020810184848401111562000fee5762000fed62000ed9565b5b62000ffb84828562000fa9565b509392505050565b600082601f8301126200101b576200101a62000ed4565b5b81356200102d84826020860162000fb8565b91505092915050565b600080600080600060a0868803121562001055576200105462000dde565b5b6000620010658882890162000e36565b9550506020620010788882890162000e36565b94505060406200108b8882890162000ebd565b93505060606200109e8882890162000e36565b925050608086013567ffffffffffffffff811115620010c257620010c162000de3565b5b620010d08882890162001003565b9150509295509295909350565b600080fd5b600080fd5b60008083601f8401126200110057620010ff62000ed4565b5b8235905067ffffffffffffffff81111562001120576200111f620010dd565b5b6020830191508360208202830111156200113f576200113e620010e2565b5b9250929050565b6000806000806040858703121562001163576200116262000dde565b5b600085013567ffffffffffffffff81111562001184576200118362000de3565b5b6200119287828801620010e7565b9450945050602085013567ffffffffffffffff811115620011b857620011b762000de3565b5b620011c687828801620010e7565b925092505092959194509250565b6000819050919050565b620011e981620011d4565b8114620011f557600080fd5b50565b6000813590506200120981620011de565b92915050565b6000806040838503121562001229576200122862000dde565b5b60006200123985828601620011f8565b92505060206200124c85828601620011f8565b9150509250929050565b600081519050919050565b600082825260208201905092915050565b6000819050602082019050919050565b6200128d8162000e08565b82525050565b6000620012a1838362001282565b60208301905092915050565b6000602082019050919050565b6000620012c78262001256565b620012d3818562001261565b9350620012e08362001272565b8060005b8381101562001317578151620012fb888262001293565b97506200130883620012ad565b925050600181019050620012e4565b5085935050505092915050565b60006020820190508181036000830152620013408184620012ba565b905092915050565b60007fffffffff0000000000000000000000000000000000000000000000000000000082169050919050565b6200137f8162001348565b82525050565b60006020820190506200139c600083018462001374565b92915050565b620013ad8162000e08565b82525050565b6000602082019050620013ca6000830184620013a2565b92915050565b620013db81620011d4565b82525050565b6000602082019050620013f86000830184620013d0565b92915050565b60006020828403121562001417576200141662000dde565b5b6000620014278482850162000e36565b91505092915050565b6200143b8162000e94565b82525050565b6000606082019050620014586000830186620013a2565b620014676020830185620013a2565b62001476604083018462001430565b949350505050565b6000815190506200148f8162000e1c565b92915050565b600060208284031215620014ae57620014ad62000dde565b5b6000620014be848285016200147e565b91505092915050565b7f4e487b7100000000000000000000000000000000000000000000000000000000600052603260045260246000fd5b7f4e487b7100000000000000000000000000000000000000000000000000000000600052601160045260246000fd5b60006200153282620011d4565b91507fffffffffffffffffffffffffffffffffffffffffffffffffffffffffffffffff8203620015675762001566620014f6565b5b600182019050919050565b60006200157f82620011d4565b91506200158c83620011d4565b9250828203905081811115620015a757620015a6620014f6565b5b92915050565b6000620015ba82620011d4565b9150620015c783620011d4565b9250828201905080821115620015e257620015e1620014f6565b5b92915050565b600081519050919050565b600081905092915050565b60005b838110156200161e57808201518184015260208101905062001601565b60008484015250505050565b60006200163782620015e8565b620016438185620015f3565b935062001655818560208601620015fe565b80840191505092915050565b60006200166f82846200162a565b915081905092915050565b600082825260208201905092915050565b7f746f6b656e2063616e6e6f742062652061207a65726f20616464726573730000600082015250565b6000620016c3601e836200167a565b9150620016d0826200168b565b602082019050919050565b60006020820190508181036000830152620016f681620016b4565b9050919050565b600060208201905062001714600083018462001430565b92915050565b60008160020b9050919050565b62001732816200171a565b81146200173e57600080fd5b50565b600081519050620017528162001727565b92915050565b60006020828403121562001771576200177062000dde565b5b6000620017818482850162001741565b91505092915050565b62001795816200171a565b82525050565b600082825260208201905092915050565b6000620017b982620015e8565b620017c581856200179b565b9350620017d7818560208601620015fe565b620017e28162000ede565b840191505092915050565b6000606082019050620018046000830186620013a2565b6200181360208301856200178a565b8181036040830152620018278184620017ac565b9050949350505050565b6000604082019050620018486000830185620013a2565b81810360208301526200185c8184620017ac565b9050939250505056fe60806040526040516106e53803806106e583398181016040528101906100259190610512565b610035828261003c60201b60201c565b50506105f6565b61004b826100c160201b60201c565b8173ffffffffffffffffffffffffffffffffffffffff167fbc7cd75a20ee27fd9adebab32041f755214dbc6bffa90cc0225b39da2e5c2d3b60405160405180910390a26000815111156100ae576100a8828261019460201b60201c565b506100bd565b6100bc61021e60201b60201c565b5b5050565b60008173ffffffffffffffffffffffffffffffffffffffff163b0361011d57806040517f4c9c8ce3000000000000000000000000000000000000000000000000000000008152600401610114919061057d565b60405180910390fd5b806101507f360894a13ba1a3210667c828492db98dca3e2076cc3735a920a3ca505d382bbc60001b61025b60201b60201c565b60000160006101000a81548173ffffffffffffffffffffffffffffffffffffffff021916908373ffffffffffffffffffffffffffffffffffffffff16021790555050565b60606000808473ffffffffffffffffffffffffffffffffffffffff16846040516101be91906105df565b600060405180830381855af49150503d80600081146101f9576040519150601f19603f3d011682016040523d82523d6000602084013e6101fe565b606091505b509150915061021485838361026560201b60201c565b9250505092915050565b6000341115610259576040517fb398979f00000000000000000000000000000000000000000000000000000000815260040160405180910390fd5b565b6000819050919050565b6060826102805761027b826102fa60201b60201c565b6102f2565b600082511480156102a8575060008473ffffffffffffffffffffffffffffffffffffffff163b145b156102ea57836040517f9996b3150000000000000000000000000000000000000000000000000000000081526004016102e1919061057d565b60405180910390fd5b8190506102f3565b5b9392505050565b60008151111561030d5780518082602001fd5b6040517f1425ea4200000000000000000000000000000000000000000000000000000000815260040160405180910390fd5b6000604051905090565b600080fd5b600080fd5b600073ffffffffffffffffffffffffffffffffffffffff82169050919050565b600061037e82610353565b9050919050565b61038e81610373565b811461039957600080fd5b50565b6000815190506103ab81610385565b92915050565b600080fd5b600080fd5b6000601f19601f8301169050919050565b7f4e487b7100000000000000000000000000000000000000000000000000000000600052604160045260246000fd5b610404826103bb565b810181811067ffffffffffffffff82111715610423576104226103cc565b5b80604052505050565b600061043661033f565b905061044282826103fb565b919050565b600067ffffffffffffffff821115610462576104616103cc565b5b61046b826103bb565b9050602081019050919050565b60005b8381101561049657808201518184015260208101905061047b565b60008484015250505050565b60006104b56104b084610447565b61042c565b9050828152602081018484840111156104d1576104d06103b6565b5b6104dc848285610478565b509392505050565b600082601f8301126104f9576104f86103b1565b5b81516105098482602086016104a2565b91505092915050565b6000806040838503121561052957610528610349565b5b60006105378582860161039c565b925050602083015167ffffffffffffffff8111156105585761055761034e565b5b610564858286016104e4565b9150509250929050565b61057781610373565b82525050565b6000602082019050610592600083018461056e565b92915050565b600081519050919050565b600081905092915050565b60006105b982610598565b6105c381856105a3565b93506105d3818560208601610478565b80840191505092915050565b60006105eb82846105ae565b915081905092915050565b60e1806106046000396000f3fe6080604052600a600c565b005b60186014601a565b6027565b565b60006022604c565b905090565b3660008037600080366000845af43d6000803e80600081146047573d6000f35b3d6000fd5b600060787f360894a13ba1a3210667c828492db98dca3e2076cc3735a920a3ca505d382bbc60001b60a1565b60000160009054906101000a900473ffffffffffffffffffffffffffffffffffffffff16905090565b600081905091905056fea264697066735822122067da619a0e2ed8891b265d46572c129780831fefc6c4308f0ac16133d3574b1c64736f6c63430008140033a26469706673582212207a201f6f35c1fef293bcb88089aaa64d5e53210d652756a9cda02a86313fd57364736f6c63430008140033","opcodes":"PUSH1 0xA0 PUSH1 0x40 MSTORE CALLVALUE DUP1 ISZERO PUSH3 0x11 JUMPI PUSH1 0x0 DUP1 REVERT JUMPDEST POP PUSH1 0x40 MLOAD PUSH3 0x2232 CODESIZE SUB DUP1 PUSH3 0x2232 DUP4 CODECOPY DUP2 DUP2 ADD PUSH1 0x40 MSTORE DUP2 ADD SWAP1 PUSH3 0x37 SWAP2 SWAP1 PUSH3 0x228 JUMP JUMPDEST PUSH1 0x0 DUP1 PUSH20 0xFFFFFFFFFFFFFFFFFFFFFFFFFFFFFFFFFFFFFFFF AND DUP2 PUSH20 0xFFFFFFFFFFFFFFFFFFFFFFFFFFFFFFFFFFFFFFFF AND SUB PUSH3 0xAD JUMPI PUSH1 0x0 PUSH1 0x40 MLOAD PUSH32 0x1E4FBDF700000000000000000000000000000000000000000000000000000000 DUP2 MSTORE PUSH1 0x4 ADD PUSH3 0xA4 SWAP2 SWAP1 PUSH3 0x26B JUMP JUMPDEST PUSH1 0x40 MLOAD DUP1 SWAP2 SUB SWAP1 REVERT JUMPDEST PUSH3 0xBE DUP2 PUSH3 0xFA PUSH1 0x20 SHL PUSH1 0x20 SHR JUMP JUMPDEST POP DUP1 PUSH20 0xFFFFFFFFFFFFFFFFFFFFFFFFFFFFFFFFFFFFFFFF AND PUSH1 0x80 DUP2 PUSH20 0xFFFFFFFFFFFFFFFFFFFFFFFFFFFFFFFFFFFFFFFF AND DUP2 MSTORE POP POP POP PUSH3 0x288 JUMP JUMPDEST PUSH1 0x0 DUP1 PUSH1 0x0 SWAP1 SLOAD SWAP1 PUSH2 0x100 EXP SWAP1 DIV PUSH20 0xFFFFFFFFFFFFFFFFFFFFFFFFFFFFFFFFFFFFFFFF AND SWAP1 POP DUP2 PUSH1 0x0 DUP1 PUSH2 0x100 EXP DUP2 SLOAD DUP2 PUSH20 0xFFFFFFFFFFFFFFFFFFFFFFFFFFFFFFFFFFFFFFFF MUL NOT AND SWAP1 DUP4 PUSH20 0xFFFFFFFFFFFFFFFFFFFFFFFFFFFFFFFFFFFFFFFF AND MUL OR SWAP1 SSTORE POP DUP2 PUSH20 0xFFFFFFFFFFFFFFFFFFFFFFFFFFFFFFFFFFFFFFFF AND DUP2 PUSH20 0xFFFFFFFFFFFFFFFFFFFFFFFFFFFFFFFFFFFFFFFF AND PUSH32 0x8BE0079C531659141344CD1FD0A4F28419497F9722A3DAAFE3B4186F6B6457E0 PUSH1 0x40 MLOAD PUSH1 0x40 MLOAD DUP1 SWAP2 SUB SWAP1 LOG3 POP POP JUMP JUMPDEST PUSH1 0x0 DUP1 REVERT JUMPDEST PUSH1 0x0 PUSH20 0xFFFFFFFFFFFFFFFFFFFFFFFFFFFFFFFFFFFFFFFF DUP3 AND SWAP1 POP SWAP2 SWAP1 POP JUMP JUMPDEST PUSH1 0x0 PUSH3 0x1F0 DUP3 PUSH3 0x1C3 JUMP JUMPDEST SWAP1 POP SWAP2 SWAP1 POP JUMP JUMPDEST PUSH3 0x202 DUP2 PUSH3 0x1E3 JUMP JUMPDEST DUP2 EQ PUSH3 0x20E JUMPI PUSH1 0x0 DUP1 REVERT JUMPDEST POP JUMP JUMPDEST PUSH1 0x0 DUP2 MLOAD SWAP1 POP PUSH3 0x222 DUP2 PUSH3 0x1F7 JUMP JUMPDEST SWAP3 SWAP2 POP POP JUMP JUMPDEST PUSH1 0x0 PUSH1 0x20 DUP3 DUP5 SUB SLT ISZERO PUSH3 0x241 JUMPI PUSH3 0x240 PUSH3 0x1BE JUMP JUMPDEST JUMPDEST PUSH1 0x0 PUSH3 0x251 DUP5 DUP3 DUP6 ADD PUSH3 0x211 JUMP JUMPDEST SWAP2 POP POP SWAP3 SWAP2 POP POP JUMP JUMPDEST PUSH3 0x265 DUP2 PUSH3 0x1E3 JUMP JUMPDEST DUP3 MSTORE POP POP JUMP JUMPDEST PUSH1 0x0 PUSH1 0x20 DUP3 ADD SWAP1 POP PUSH3 0x282 PUSH1 0x0 DUP4 ADD DUP5 PUSH3 0x25A JUMP JUMPDEST SWAP3 SWAP2 POP POP JUMP JUMPDEST PUSH1 0x80 MLOAD PUSH2 0x1F80 PUSH3 0x2B2 PUSH1 0x0 CODECOPY PUSH1 0x0 DUP2 DUP2 PUSH2 0x251 ADD MSTORE DUP2 DUP2 PUSH2 0x6B2 ADD MSTORE PUSH2 0xAFF ADD MSTORE PUSH2 0x1F80 PUSH1 0x0 RETURN INVALID PUSH1 0x80 PUSH1 0x40 MSTORE CALLVALUE DUP1 ISZERO PUSH3 0x11 JUMPI PUSH1 0x0 DUP1 REVERT JUMPDEST POP PUSH1 0x4 CALLDATASIZE LT PUSH3 0xB8 JUMPI PUSH1 0x0 CALLDATALOAD PUSH1 0xE0 SHR DUP1 PUSH4 0x715018A6 GT PUSH3 0x7B JUMPI DUP1 PUSH4 0x715018A6 EQ PUSH3 0x175 JUMPI DUP1 PUSH4 0x8DA5CB5B EQ PUSH3 0x181 JUMPI DUP1 PUSH4 0x97FB8797 EQ PUSH3 0x1A3 JUMPI DUP1 PUSH4 0xA7C6A100 EQ PUSH3 0x1C5 JUMPI DUP1 PUSH4 0xC45A0155 EQ PUSH3 0x1E7 JUMPI DUP1 PUSH4 0xF2FDE38B EQ PUSH3 0x209 JUMPI PUSH3 0xB8 JUMP JUMPDEST DUP1 PUSH4 0x54BF171 EQ PUSH3 0xBD JUMPI DUP1 PUSH4 0x2204D63E EQ PUSH3 0xDD JUMPI DUP1 PUSH4 0x2BCEF008 EQ PUSH3 0xFD JUMPI DUP1 PUSH4 0x4AE232BA EQ PUSH3 0x11D JUMPI DUP1 PUSH4 0x6DBDA217 EQ PUSH3 0x153 JUMPI JUMPDEST PUSH1 0x0 DUP1 REVERT JUMPDEST PUSH3 0xDB PUSH1 0x4 DUP1 CALLDATASIZE SUB DUP2 ADD SWAP1 PUSH3 0xD5 SWAP2 SWAP1 PUSH3 0xE4D JUMP JUMPDEST PUSH3 0x229 JUMP JUMPDEST STOP JUMPDEST PUSH3 0xFB PUSH1 0x4 DUP1 CALLDATASIZE SUB DUP2 ADD SWAP1 PUSH3 0xF5 SWAP2 SWAP1 PUSH3 0x1036 JUMP JUMPDEST PUSH3 0x243 JUMP JUMPDEST STOP JUMPDEST PUSH3 0x11B PUSH1 0x4 DUP1 CALLDATASIZE SUB DUP2 ADD SWAP1 PUSH3 0x115 SWAP2 SWAP1 PUSH3 0x1146 JUMP JUMPDEST PUSH3 0x3D2 JUMP JUMPDEST STOP JUMPDEST PUSH3 0x13B PUSH1 0x4 DUP1 CALLDATASIZE SUB DUP2 ADD SWAP1 PUSH3 0x135 SWAP2 SWAP1 PUSH3 0x120F JUMP JUMPDEST PUSH3 0x4AC JUMP JUMPDEST PUSH1 0x40 MLOAD PUSH3 0x14A SWAP2 SWAP1 PUSH3 0x1324 JUMP JUMPDEST PUSH1 0x40 MLOAD DUP1 SWAP2 SUB SWAP1 RETURN JUMPDEST PUSH3 0x15D PUSH3 0x5E2 JUMP JUMPDEST PUSH1 0x40 MLOAD PUSH3 0x16C SWAP2 SWAP1 PUSH3 0x1385 JUMP JUMPDEST PUSH1 0x40 MLOAD DUP1 SWAP2 SUB SWAP1 RETURN JUMPDEST PUSH3 0x17F PUSH3 0x622 JUMP JUMPDEST STOP JUMPDEST PUSH3 0x18B PUSH3 0x63A JUMP JUMPDEST PUSH1 0x40 MLOAD PUSH3 0x19A SWAP2 SWAP1 PUSH3 0x13B3 JUMP JUMPDEST PUSH1 0x40 MLOAD DUP1 SWAP2 SUB SWAP1 RETURN JUMPDEST PUSH3 0x1AD PUSH3 0x663 JUMP JUMPDEST PUSH1 0x40 MLOAD PUSH3 0x1BC SWAP2 SWAP1 PUSH3 0x1385 JUMP JUMPDEST PUSH1 0x40 MLOAD DUP1 SWAP2 SUB SWAP1 RETURN JUMPDEST PUSH3 0x1CF PUSH3 0x6A3 JUMP JUMPDEST PUSH1 0x40 MLOAD PUSH3 0x1DE SWAP2 SWAP1 PUSH3 0x13E1 JUMP JUMPDEST PUSH1 0x40 MLOAD DUP1 SWAP2 SUB SWAP1 RETURN JUMPDEST PUSH3 0x1F1 PUSH3 0x6B0 JUMP JUMPDEST PUSH1 0x40 MLOAD PUSH3 0x200 SWAP2 SWAP1 PUSH3 0x13B3 JUMP JUMPDEST PUSH1 0x40 MLOAD DUP1 SWAP2 SUB SWAP1 RETURN JUMPDEST PUSH3 0x227 PUSH1 0x4 DUP1 CALLDATASIZE SUB DUP2 ADD SWAP1 PUSH3 0x221 SWAP2 SWAP1 PUSH3 0x13FE JUMP JUMPDEST PUSH3 0x6D4 JUMP JUMPDEST STOP JUMPDEST PUSH3 0x233 PUSH3 0x761 JUMP JUMPDEST PUSH3 0x23F DUP3 DUP3 PUSH3 0x7F1 JUMP JUMPDEST POP POP JUMP JUMPDEST PUSH3 0x24D PUSH3 0x761 JUMP JUMPDEST PUSH1 0x0 PUSH32 0x0 PUSH20 0xFFFFFFFFFFFFFFFFFFFFFFFFFFFFFFFFFFFFFFFF AND PUSH4 0x1698EE82 DUP8 DUP8 DUP8 PUSH1 0x40 MLOAD DUP5 PUSH4 0xFFFFFFFF AND PUSH1 0xE0 SHL DUP2 MSTORE PUSH1 0x4 ADD PUSH3 0x2AE SWAP4 SWAP3 SWAP2 SWAP1 PUSH3 0x1441 JUMP JUMPDEST PUSH1 0x20 PUSH1 0x40 MLOAD DUP1 DUP4 SUB DUP2 DUP7 GAS STATICCALL ISZERO DUP1 ISZERO PUSH3 0x2CC JUMPI RETURNDATASIZE PUSH1 0x0 DUP1 RETURNDATACOPY RETURNDATASIZE PUSH1 0x0 REVERT JUMPDEST POP POP POP POP PUSH1 0x40 MLOAD RETURNDATASIZE PUSH1 0x1F NOT PUSH1 0x1F DUP3 ADD AND DUP3 ADD DUP1 PUSH1 0x40 MSTORE POP DUP2 ADD SWAP1 PUSH3 0x2F2 SWAP2 SWAP1 PUSH3 0x1495 JUMP JUMPDEST SWAP1 POP PUSH1 0x0 PUSH20 0xFFFFFFFFFFFFFFFFFFFFFFFFFFFFFFFFFFFFFFFF AND DUP2 PUSH20 0xFFFFFFFFFFFFFFFFFFFFFFFFFFFFFFFFFFFFFFFF AND SUB PUSH3 0x35B JUMPI PUSH1 0x40 MLOAD PUSH32 0x37064F100000000000000000000000000000000000000000000000000000000 DUP2 MSTORE PUSH1 0x4 ADD PUSH1 0x40 MLOAD DUP1 SWAP2 SUB SWAP1 REVERT JUMPDEST PUSH1 0x0 PUSH3 0x36D DUP8 DUP8 DUP8 DUP6 DUP9 DUP9 PUSH3 0x9A5 JUMP JUMPDEST SWAP1 POP DUP1 PUSH20 0xFFFFFFFFFFFFFFFFFFFFFFFFFFFFFFFFFFFFFFFF AND DUP3 PUSH20 0xFFFFFFFFFFFFFFFFFFFFFFFFFFFFFFFFFFFFFFFF AND PUSH32 0x5D9C31FFA0FECFFD7CF379989A3C7AF252F0335E0D2A1320B55245912C781F53 PUSH1 0x40 MLOAD PUSH1 0x40 MLOAD DUP1 SWAP2 SUB SWAP1 LOG3 POP POP POP POP POP POP POP JUMP JUMPDEST PUSH3 0x3DC PUSH3 0x761 JUMP JUMPDEST DUP2 DUP2 SWAP1 POP DUP5 DUP5 SWAP1 POP EQ PUSH3 0x41C JUMPI PUSH1 0x40 MLOAD PUSH32 0xB7C10CCC00000000000000000000000000000000000000000000000000000000 DUP2 MSTORE PUSH1 0x4 ADD PUSH1 0x40 MLOAD DUP1 SWAP2 SUB SWAP1 REVERT JUMPDEST PUSH1 0x0 JUMPDEST DUP5 DUP5 SWAP1 POP DUP2 LT ISZERO PUSH3 0x4A5 JUMPI PUSH3 0x48F DUP6 DUP6 DUP4 DUP2 DUP2 LT PUSH3 0x445 JUMPI PUSH3 0x444 PUSH3 0x14C7 JUMP JUMPDEST JUMPDEST SWAP1 POP PUSH1 0x20 MUL ADD PUSH1 0x20 DUP2 ADD SWAP1 PUSH3 0x45C SWAP2 SWAP1 PUSH3 0x13FE JUMP JUMPDEST DUP5 DUP5 DUP5 DUP2 DUP2 LT PUSH3 0x472 JUMPI PUSH3 0x471 PUSH3 0x14C7 JUMP JUMPDEST JUMPDEST SWAP1 POP PUSH1 0x20 MUL ADD PUSH1 0x20 DUP2 ADD SWAP1 PUSH3 0x489 SWAP2 SWAP1 PUSH3 0x13FE JUMP JUMPDEST PUSH3 0x7F1 JUMP JUMPDEST DUP1 DUP1 PUSH3 0x49C SWAP1 PUSH3 0x1525 JUMP JUMPDEST SWAP2 POP POP PUSH3 0x41F JUMP JUMPDEST POP POP POP POP POP JUMP JUMPDEST PUSH1 0x60 PUSH1 0x1 DUP4 DUP4 PUSH3 0x4BE SWAP2 SWAP1 PUSH3 0x1572 JUMP JUMPDEST PUSH3 0x4CA SWAP2 SWAP1 PUSH3 0x15AD JUMP JUMPDEST PUSH8 0xFFFFFFFFFFFFFFFF DUP2 GT ISZERO PUSH3 0x4E6 JUMPI PUSH3 0x4E5 PUSH3 0xEEF JUMP JUMPDEST JUMPDEST PUSH1 0x40 MLOAD SWAP1 DUP1 DUP3 MSTORE DUP1 PUSH1 0x20 MUL PUSH1 0x20 ADD DUP3 ADD PUSH1 0x40 MSTORE DUP1 ISZERO PUSH3 0x515 JUMPI DUP2 PUSH1 0x20 ADD PUSH1 0x20 DUP3 MUL DUP1 CALLDATASIZE DUP4 CALLDATACOPY DUP1 DUP3 ADD SWAP2 POP POP SWAP1 POP JUMPDEST POP SWAP1 POP PUSH1 0x0 DUP4 SWAP1 POP JUMPDEST DUP3 DUP2 GT PUSH3 0x5DB JUMPI PUSH1 0x1 DUP2 DUP2 SLOAD DUP2 LT PUSH3 0x53D JUMPI PUSH3 0x53C PUSH3 0x14C7 JUMP JUMPDEST JUMPDEST SWAP1 PUSH1 0x0 MSTORE PUSH1 0x20 PUSH1 0x0 KECCAK256 ADD PUSH1 0x0 SWAP1 SLOAD SWAP1 PUSH2 0x100 EXP SWAP1 DIV PUSH20 0xFFFFFFFFFFFFFFFFFFFFFFFFFFFFFFFFFFFFFFFF AND DUP3 DUP6 DUP4 PUSH3 0x577 SWAP2 SWAP1 PUSH3 0x1572 JUMP JUMPDEST DUP2 MLOAD DUP2 LT PUSH3 0x58B JUMPI PUSH3 0x58A PUSH3 0x14C7 JUMP JUMPDEST JUMPDEST PUSH1 0x20 MUL PUSH1 0x20 ADD ADD SWAP1 PUSH20 0xFFFFFFFFFFFFFFFFFFFFFFFFFFFFFFFFFFFFFFFF AND SWAP1 DUP2 PUSH20 0xFFFFFFFFFFFFFFFFFFFFFFFFFFFFFFFFFFFFFFFF AND DUP2 MSTORE POP POP DUP1 DUP1 PUSH3 0x5D2 SWAP1 PUSH3 0x1525 JUMP JUMPDEST SWAP2 POP POP PUSH3 0x51E JUMP JUMPDEST POP SWAP3 SWAP2 POP POP JUMP JUMPDEST PUSH1 0x40 MLOAD DUP1 PUSH1 0x40 ADD PUSH1 0x40 MSTORE DUP1 PUSH1 0x12 DUP2 MSTORE PUSH1 0x20 ADD PUSH32 0x75706772616465546F2861646472657373290000000000000000000000000000 DUP2 MSTORE POP DUP1 MLOAD SWAP1 PUSH1 0x20 ADD KECCAK256 DUP2 JUMP JUMPDEST PUSH3 0x62C PUSH3 0x761 JUMP JUMPDEST PUSH3 0x638 PUSH1 0x0 PUSH3 0xCFA JUMP JUMPDEST JUMP JUMPDEST PUSH1 0x0 DUP1 PUSH1 0x0 SWAP1 SLOAD SWAP1 PUSH2 0x100 EXP SWAP1 DIV PUSH20 0xFFFFFFFFFFFFFFFFFFFFFFFFFFFFFFFFFFFFFFFF AND SWAP1 POP SWAP1 JUMP JUMPDEST PUSH1 0x40 MLOAD DUP1 PUSH1 0x40 ADD PUSH1 0x40 MSTORE DUP1 PUSH1 0x1F DUP2 MSTORE PUSH1 0x20 ADD PUSH32 0x696E697469616C697A6528616464726573732C696E7432342C62797465732900 DUP2 MSTORE POP DUP1 MLOAD SWAP1 PUSH1 0x20 ADD KECCAK256 DUP2 JUMP JUMPDEST PUSH1 0x0 PUSH1 0x1 DUP1 SLOAD SWAP1 POP SWAP1 POP SWAP1 JUMP JUMPDEST PUSH32 0x0 DUP2 JUMP JUMPDEST PUSH3 0x6DE PUSH3 0x761 JUMP JUMPDEST PUSH1 0x0 PUSH20 0xFFFFFFFFFFFFFFFFFFFFFFFFFFFFFFFFFFFFFFFF AND DUP2 PUSH20 0xFFFFFFFFFFFFFFFFFFFFFFFFFFFFFFFFFFFFFFFF AND SUB PUSH3 0x753 JUMPI PUSH1 0x0 PUSH1 0x40 MLOAD PUSH32 0x1E4FBDF700000000000000000000000000000000000000000000000000000000 DUP2 MSTORE PUSH1 0x4 ADD PUSH3 0x74A SWAP2 SWAP1 PUSH3 0x13B3 JUMP JUMPDEST PUSH1 0x40 MLOAD DUP1 SWAP2 SUB SWAP1 REVERT JUMPDEST PUSH3 0x75E DUP2 PUSH3 0xCFA JUMP JUMPDEST POP JUMP JUMPDEST PUSH3 0x76B PUSH3 0xDBE JUMP JUMPDEST PUSH20 0xFFFFFFFFFFFFFFFFFFFFFFFFFFFFFFFFFFFFFFFF AND PUSH3 0x78B PUSH3 0x63A JUMP JUMPDEST PUSH20 0xFFFFFFFFFFFFFFFFFFFFFFFFFFFFFFFFFFFFFFFF AND EQ PUSH3 0x7EF JUMPI PUSH3 0x7B1 PUSH3 0xDBE JUMP JUMPDEST PUSH1 0x40 MLOAD PUSH32 0x118CDAA700000000000000000000000000000000000000000000000000000000 DUP2 MSTORE PUSH1 0x4 ADD PUSH3 0x7E6 SWAP2 SWAP1 PUSH3 0x13B3 JUMP JUMPDEST PUSH1 0x40 MLOAD DUP1 SWAP2 SUB SWAP1 REVERT JUMPDEST JUMP JUMPDEST PUSH1 0x0 DUP3 PUSH20 0xFFFFFFFFFFFFFFFFFFFFFFFFFFFFFFFFFFFFFFFF AND PUSH1 0x40 MLOAD DUP1 PUSH1 0x40 ADD PUSH1 0x40 MSTORE DUP1 PUSH1 0x12 DUP2 MSTORE PUSH1 0x20 ADD PUSH32 0x75706772616465546F2861646472657373290000000000000000000000000000 DUP2 MSTORE POP DUP1 MLOAD SWAP1 PUSH1 0x20 ADD KECCAK256 DUP4 PUSH1 0x40 MLOAD PUSH1 0x24 ADD PUSH3 0x85A SWAP2 SWAP1 PUSH3 0x13B3 JUMP JUMPDEST PUSH1 0x40 MLOAD PUSH1 0x20 DUP2 DUP4 SUB SUB DUP2 MSTORE SWAP1 PUSH1 0x40 MSTORE SWAP1 PUSH28 0xFFFFFFFFFFFFFFFFFFFFFFFFFFFFFFFFFFFFFFFFFFFFFFFFFFFFFFFF NOT AND PUSH1 0x20 DUP3 ADD DUP1 MLOAD PUSH28 0xFFFFFFFFFFFFFFFFFFFFFFFFFFFFFFFFFFFFFFFFFFFFFFFFFFFFFFFF DUP4 DUP2 DUP4 AND OR DUP4 MSTORE POP POP POP POP PUSH1 0x40 MLOAD PUSH3 0x8C6 SWAP2 SWAP1 PUSH3 0x1661 JUMP JUMPDEST PUSH1 0x0 PUSH1 0x40 MLOAD DUP1 DUP4 SUB DUP2 PUSH1 0x0 DUP7 GAS CALL SWAP2 POP POP RETURNDATASIZE DUP1 PUSH1 0x0 DUP2 EQ PUSH3 0x905 JUMPI PUSH1 0x40 MLOAD SWAP2 POP PUSH1 0x1F NOT PUSH1 0x3F RETURNDATASIZE ADD AND DUP3 ADD PUSH1 0x40 MSTORE RETURNDATASIZE DUP3 MSTORE RETURNDATASIZE PUSH1 0x0 PUSH1 0x20 DUP5 ADD RETURNDATACOPY PUSH3 0x90A JUMP JUMPDEST PUSH1 0x60 SWAP2 POP JUMPDEST POP POP SWAP1 POP DUP1 PUSH3 0x946 JUMPI PUSH1 0x40 MLOAD PUSH32 0xE5BA34A300000000000000000000000000000000000000000000000000000000 DUP2 MSTORE PUSH1 0x4 ADD PUSH1 0x40 MLOAD DUP1 SWAP2 SUB SWAP1 REVERT JUMPDEST DUP2 PUSH20 0xFFFFFFFFFFFFFFFFFFFFFFFFFFFFFFFFFFFFFFFF AND DUP4 PUSH20 0xFFFFFFFFFFFFFFFFFFFFFFFFFFFFFFFFFFFFFFFF AND PUSH32 0xF1BCA332ECAC5836810B4626FA419227255B5D1EC952FC6B7BBA5916ECF68080 PUSH1 0x40 MLOAD PUSH1 0x40 MLOAD DUP1 SWAP2 SUB SWAP1 LOG3 POP POP POP JUMP JUMPDEST PUSH1 0x0 DUP1 DUP3 MLOAD SUB PUSH3 0x9E2 JUMPI PUSH1 0x40 MLOAD PUSH32 0x1438A13100000000000000000000000000000000000000000000000000000000 DUP2 MSTORE PUSH1 0x4 ADD PUSH1 0x40 MLOAD DUP1 SWAP2 SUB SWAP1 REVERT JUMPDEST DUP6 PUSH20 0xFFFFFFFFFFFFFFFFFFFFFFFFFFFFFFFFFFFFFFFF AND DUP8 PUSH20 0xFFFFFFFFFFFFFFFFFFFFFFFFFFFFFFFFFFFFFFFF AND SUB PUSH3 0xA48 JUMPI PUSH1 0x40 MLOAD PUSH32 0xAE402B8000000000000000000000000000000000000000000000000000000000 DUP2 MSTORE PUSH1 0x4 ADD PUSH1 0x40 MLOAD DUP1 SWAP2 SUB SWAP1 REVERT JUMPDEST PUSH1 0x0 DUP7 PUSH20 0xFFFFFFFFFFFFFFFFFFFFFFFFFFFFFFFFFFFFFFFF AND DUP9 PUSH20 0xFFFFFFFFFFFFFFFFFFFFFFFFFFFFFFFFFFFFFFFF AND LT PUSH3 0xA85 JUMPI DUP7 PUSH3 0xA87 JUMP JUMPDEST DUP8 JUMPDEST SWAP1 POP PUSH1 0x0 PUSH20 0xFFFFFFFFFFFFFFFFFFFFFFFFFFFFFFFFFFFFFFFF AND DUP2 PUSH20 0xFFFFFFFFFFFFFFFFFFFFFFFFFFFFFFFFFFFFFFFF AND SUB PUSH3 0xAFB JUMPI PUSH1 0x40 MLOAD PUSH32 0x8C379A000000000000000000000000000000000000000000000000000000000 DUP2 MSTORE PUSH1 0x4 ADD PUSH3 0xAF2 SWAP1 PUSH3 0x16DB JUMP JUMPDEST PUSH1 0x40 MLOAD DUP1 SWAP2 SUB SWAP1 REVERT JUMPDEST PUSH1 0x0 PUSH32 0x0 PUSH20 0xFFFFFFFFFFFFFFFFFFFFFFFFFFFFFFFFFFFFFFFF AND PUSH4 0x22AFCCCB DUP9 PUSH1 0x40 MLOAD DUP3 PUSH4 0xFFFFFFFF AND PUSH1 0xE0 SHL DUP2 MSTORE PUSH1 0x4 ADD PUSH3 0xB58 SWAP2 SWAP1 PUSH3 0x16FD JUMP JUMPDEST PUSH1 0x20 PUSH1 0x40 MLOAD DUP1 DUP4 SUB DUP2 DUP7 GAS STATICCALL ISZERO DUP1 ISZERO PUSH3 0xB76 JUMPI RETURNDATASIZE PUSH1 0x0 DUP1 RETURNDATACOPY RETURNDATASIZE PUSH1 0x0 REVERT JUMPDEST POP POP POP POP PUSH1 0x40 MLOAD RETURNDATASIZE PUSH1 0x1F NOT PUSH1 0x1F DUP3 ADD AND DUP3 ADD DUP1 PUSH1 0x40 MSTORE POP DUP2 ADD SWAP1 PUSH3 0xB9C SWAP2 SWAP1 PUSH3 0x1758 JUMP JUMPDEST SWAP1 POP DUP5 PUSH1 0x40 MLOAD DUP1 PUSH1 0x40 ADD PUSH1 0x40 MSTORE DUP1 PUSH1 0x1F DUP2 MSTORE PUSH1 0x20 ADD PUSH32 0x696E697469616C697A6528616464726573732C696E7432342C62797465732900 DUP2 MSTORE POP DUP1 MLOAD SWAP1 PUSH1 0x20 ADD KECCAK256 DUP8 DUP4 DUP8 PUSH1 0x40 MLOAD PUSH1 0x24 ADD PUSH3 0xBF3 SWAP4 SWAP3 SWAP2 SWAP1 PUSH3 0x17ED JUMP JUMPDEST PUSH1 0x40 MLOAD PUSH1 0x20 DUP2 DUP4 SUB SUB DUP2 MSTORE SWAP1 PUSH1 0x40 MSTORE SWAP1 PUSH28 0xFFFFFFFFFFFFFFFFFFFFFFFFFFFFFFFFFFFFFFFFFFFFFFFFFFFFFFFF NOT AND PUSH1 0x20 DUP3 ADD DUP1 MLOAD PUSH28 0xFFFFFFFFFFFFFFFFFFFFFFFFFFFFFFFFFFFFFFFFFFFFFFFFFFFFFFFF DUP4 DUP2 DUP4 AND OR DUP4 MSTORE POP POP POP POP PUSH1 0x40 MLOAD PUSH3 0xC5E SWAP1 PUSH3 0xDC6 JUMP JUMPDEST PUSH3 0xC6B SWAP3 SWAP2 SWAP1 PUSH3 0x1831 JUMP JUMPDEST PUSH1 0x40 MLOAD DUP1 SWAP2 SUB SWAP1 PUSH1 0x0 CREATE DUP1 ISZERO DUP1 ISZERO PUSH3 0xC88 JUMPI RETURNDATASIZE PUSH1 0x0 DUP1 RETURNDATACOPY RETURNDATASIZE PUSH1 0x0 REVERT JUMPDEST POP SWAP3 POP PUSH1 0x1 DUP4 SWAP1 DUP1 PUSH1 0x1 DUP2 SLOAD ADD DUP1 DUP3 SSTORE DUP1 SWAP2 POP POP PUSH1 0x1 SWAP1 SUB SWAP1 PUSH1 0x0 MSTORE PUSH1 0x20 PUSH1 0x0 KECCAK256 ADD PUSH1 0x0 SWAP1 SWAP2 SWAP1 SWAP2 SWAP1 SWAP2 PUSH2 0x100 EXP DUP2 SLOAD DUP2 PUSH20 0xFFFFFFFFFFFFFFFFFFFFFFFFFFFFFFFFFFFFFFFF MUL NOT AND SWAP1 DUP4 PUSH20 0xFFFFFFFFFFFFFFFFFFFFFFFFFFFFFFFFFFFFFFFF AND MUL OR SWAP1 SSTORE POP POP POP SWAP7 SWAP6 POP POP POP POP POP POP JUMP JUMPDEST PUSH1 0x0 DUP1 PUSH1 0x0 SWAP1 SLOAD SWAP1 PUSH2 0x100 EXP SWAP1 DIV PUSH20 0xFFFFFFFFFFFFFFFFFFFFFFFFFFFFFFFFFFFFFFFF AND SWAP1 POP DUP2 PUSH1 0x0 DUP1 PUSH2 0x100 EXP DUP2 SLOAD DUP2 PUSH20 0xFFFFFFFFFFFFFFFFFFFFFFFFFFFFFFFFFFFFFFFF MUL NOT AND SWAP1 DUP4 PUSH20 0xFFFFFFFFFFFFFFFFFFFFFFFFFFFFFFFFFFFFFFFF AND MUL OR SWAP1 SSTORE POP DUP2 PUSH20 0xFFFFFFFFFFFFFFFFFFFFFFFFFFFFFFFFFFFFFFFF AND DUP2 PUSH20 0xFFFFFFFFFFFFFFFFFFFFFFFFFFFFFFFFFFFFFFFF AND PUSH32 0x8BE0079C531659141344CD1FD0A4F28419497F9722A3DAAFE3B4186F6B6457E0 PUSH1 0x40 MLOAD PUSH1 0x40 MLOAD DUP1 SWAP2 SUB SWAP1 LOG3 POP POP JUMP JUMPDEST PUSH1 0x0 CALLER SWAP1 POP SWAP1 JUMP JUMPDEST PUSH2 0x6E5 DUP1 PUSH3 0x1866 DUP4 CODECOPY ADD SWAP1 JUMP JUMPDEST PUSH1 0x0 PUSH1 0x40 MLOAD SWAP1 POP SWAP1 JUMP JUMPDEST PUSH1 0x0 DUP1 REVERT JUMPDEST PUSH1 0x0 DUP1 REVERT JUMPDEST PUSH1 0x0 PUSH20 0xFFFFFFFFFFFFFFFFFFFFFFFFFFFFFFFFFFFFFFFF DUP3 AND SWAP1 POP SWAP2 SWAP1 POP JUMP JUMPDEST PUSH1 0x0 PUSH3 0xE15 DUP3 PUSH3 0xDE8 JUMP JUMPDEST SWAP1 POP SWAP2 SWAP1 POP JUMP JUMPDEST PUSH3 0xE27 DUP2 PUSH3 0xE08 JUMP JUMPDEST DUP2 EQ PUSH3 0xE33 JUMPI PUSH1 0x0 DUP1 REVERT JUMPDEST POP JUMP JUMPDEST PUSH1 0x0 DUP2 CALLDATALOAD SWAP1 POP PUSH3 0xE47 DUP2 PUSH3 0xE1C JUMP JUMPDEST SWAP3 SWAP2 POP POP JUMP JUMPDEST PUSH1 0x0 DUP1 PUSH1 0x40 DUP4 DUP6 SUB SLT ISZERO PUSH3 0xE67 JUMPI PUSH3 0xE66 PUSH3 0xDDE JUMP JUMPDEST JUMPDEST PUSH1 0x0 PUSH3 0xE77 DUP6 DUP3 DUP7 ADD PUSH3 0xE36 JUMP JUMPDEST SWAP3 POP POP PUSH1 0x20 PUSH3 0xE8A DUP6 DUP3 DUP7 ADD PUSH3 0xE36 JUMP JUMPDEST SWAP2 POP POP SWAP3 POP SWAP3 SWAP1 POP JUMP JUMPDEST PUSH1 0x0 PUSH3 0xFFFFFF DUP3 AND SWAP1 POP SWAP2 SWAP1 POP JUMP JUMPDEST PUSH3 0xEAE DUP2 PUSH3 0xE94 JUMP JUMPDEST DUP2 EQ PUSH3 0xEBA JUMPI PUSH1 0x0 DUP1 REVERT JUMPDEST POP JUMP JUMPDEST PUSH1 0x0 DUP2 CALLDATALOAD SWAP1 POP PUSH3 0xECE DUP2 PUSH3 0xEA3 JUMP JUMPDEST SWAP3 SWAP2 POP POP JUMP JUMPDEST PUSH1 0x0 DUP1 REVERT JUMPDEST PUSH1 0x0 DUP1 REVERT JUMPDEST PUSH1 0x0 PUSH1 0x1F NOT PUSH1 0x1F DUP4 ADD AND SWAP1 POP SWAP2 SWAP1 POP JUMP JUMPDEST PUSH32 0x4E487B7100000000000000000000000000000000000000000000000000000000 PUSH1 0x0 MSTORE PUSH1 0x41 PUSH1 0x4 MSTORE PUSH1 0x24 PUSH1 0x0 REVERT JUMPDEST PUSH3 0xF29 DUP3 PUSH3 0xEDE JUMP JUMPDEST DUP2 ADD DUP2 DUP2 LT PUSH8 0xFFFFFFFFFFFFFFFF DUP3 GT OR ISZERO PUSH3 0xF4B JUMPI PUSH3 0xF4A PUSH3 0xEEF JUMP JUMPDEST JUMPDEST DUP1 PUSH1 0x40 MSTORE POP POP POP JUMP JUMPDEST PUSH1 0x0 PUSH3 0xF60 PUSH3 0xDD4 JUMP JUMPDEST SWAP1 POP PUSH3 0xF6E DUP3 DUP3 PUSH3 0xF1E JUMP JUMPDEST SWAP2 SWAP1 POP JUMP JUMPDEST PUSH1 0x0 PUSH8 0xFFFFFFFFFFFFFFFF DUP3 GT ISZERO PUSH3 0xF91 JUMPI PUSH3 0xF90 PUSH3 0xEEF JUMP JUMPDEST JUMPDEST PUSH3 0xF9C DUP3 PUSH3 0xEDE JUMP JUMPDEST SWAP1 POP PUSH1 0x20 DUP2 ADD SWAP1 POP SWAP2 SWAP1 POP JUMP JUMPDEST DUP3 DUP2 DUP4 CALLDATACOPY PUSH1 0x0 DUP4 DUP4 ADD MSTORE POP POP POP JUMP JUMPDEST PUSH1 0x0 PUSH3 0xFCF PUSH3 0xFC9 DUP5 PUSH3 0xF73 JUMP JUMPDEST PUSH3 0xF54 JUMP JUMPDEST SWAP1 POP DUP3 DUP2 MSTORE PUSH1 0x20 DUP2 ADD DUP5 DUP5 DUP5 ADD GT ISZERO PUSH3 0xFEE JUMPI PUSH3 0xFED PUSH3 0xED9 JUMP JUMPDEST JUMPDEST PUSH3 0xFFB DUP5 DUP3 DUP6 PUSH3 0xFA9 JUMP JUMPDEST POP SWAP4 SWAP3 POP POP POP JUMP JUMPDEST PUSH1 0x0 DUP3 PUSH1 0x1F DUP4 ADD SLT PUSH3 0x101B JUMPI PUSH3 0x101A PUSH3 0xED4 JUMP JUMPDEST JUMPDEST DUP2 CALLDATALOAD PUSH3 0x102D DUP5 DUP3 PUSH1 0x20 DUP7 ADD PUSH3 0xFB8 JUMP JUMPDEST SWAP2 POP POP SWAP3 SWAP2 POP POP JUMP JUMPDEST PUSH1 0x0 DUP1 PUSH1 0x0 DUP1 PUSH1 0x0 PUSH1 0xA0 DUP7 DUP9 SUB SLT ISZERO PUSH3 0x1055 JUMPI PUSH3 0x1054 PUSH3 0xDDE JUMP JUMPDEST JUMPDEST PUSH1 0x0 PUSH3 0x1065 DUP9 DUP3 DUP10 ADD PUSH3 0xE36 JUMP JUMPDEST SWAP6 POP POP PUSH1 0x20 PUSH3 0x1078 DUP9 DUP3 DUP10 ADD PUSH3 0xE36 JUMP JUMPDEST SWAP5 POP POP PUSH1 0x40 PUSH3 0x108B DUP9 DUP3 DUP10 ADD PUSH3 0xEBD JUMP JUMPDEST SWAP4 POP POP PUSH1 0x60 PUSH3 0x109E DUP9 DUP3 DUP10 ADD PUSH3 0xE36 JUMP JUMPDEST SWAP3 POP POP PUSH1 0x80 DUP7 ADD CALLDATALOAD PUSH8 0xFFFFFFFFFFFFFFFF DUP2 GT ISZERO PUSH3 0x10C2 JUMPI PUSH3 0x10C1 PUSH3 0xDE3 JUMP JUMPDEST JUMPDEST PUSH3 0x10D0 DUP9 DUP3 DUP10 ADD PUSH3 0x1003 JUMP JUMPDEST SWAP2 POP POP SWAP3 SWAP6 POP SWAP3 SWAP6 SWAP1 SWAP4 POP JUMP JUMPDEST PUSH1 0x0 DUP1 REVERT JUMPDEST PUSH1 0x0 DUP1 REVERT JUMPDEST PUSH1 0x0 DUP1 DUP4 PUSH1 0x1F DUP5 ADD SLT PUSH3 0x1100 JUMPI PUSH3 0x10FF PUSH3 0xED4 JUMP JUMPDEST JUMPDEST DUP3 CALLDATALOAD SWAP1 POP PUSH8 0xFFFFFFFFFFFFFFFF DUP2 GT ISZERO PUSH3 0x1120 JUMPI PUSH3 0x111F PUSH3 0x10DD JUMP JUMPDEST JUMPDEST PUSH1 0x20 DUP4 ADD SWAP2 POP DUP4 PUSH1 0x20 DUP3 MUL DUP4 ADD GT ISZERO PUSH3 0x113F JUMPI PUSH3 0x113E PUSH3 0x10E2 JUMP JUMPDEST JUMPDEST SWAP3 POP SWAP3 SWAP1 POP JUMP JUMPDEST PUSH1 0x0 DUP1 PUSH1 0x0 DUP1 PUSH1 0x40 DUP6 DUP8 SUB SLT ISZERO PUSH3 0x1163 JUMPI PUSH3 0x1162 PUSH3 0xDDE JUMP JUMPDEST JUMPDEST PUSH1 0x0 DUP6 ADD CALLDATALOAD PUSH8 0xFFFFFFFFFFFFFFFF DUP2 GT ISZERO PUSH3 0x1184 JUMPI PUSH3 0x1183 PUSH3 0xDE3 JUMP JUMPDEST JUMPDEST PUSH3 0x1192 DUP8 DUP3 DUP9 ADD PUSH3 0x10E7 JUMP JUMPDEST SWAP5 POP SWAP5 POP POP PUSH1 0x20 DUP6 ADD CALLDATALOAD PUSH8 0xFFFFFFFFFFFFFFFF DUP2 GT ISZERO PUSH3 0x11B8 JUMPI PUSH3 0x11B7 PUSH3 0xDE3 JUMP JUMPDEST JUMPDEST PUSH3 0x11C6 DUP8 DUP3 DUP9 ADD PUSH3 0x10E7 JUMP JUMPDEST SWAP3 POP SWAP3 POP POP SWAP3 SWAP6 SWAP2 SWAP5 POP SWAP3 POP JUMP JUMPDEST PUSH1 0x0 DUP2 SWAP1 POP SWAP2 SWAP1 POP JUMP JUMPDEST PUSH3 0x11E9 DUP2 PUSH3 0x11D4 JUMP JUMPDEST DUP2 EQ PUSH3 0x11F5 JUMPI PUSH1 0x0 DUP1 REVERT JUMPDEST POP JUMP JUMPDEST PUSH1 0x0 DUP2 CALLDATALOAD SWAP1 POP PUSH3 0x1209 DUP2 PUSH3 0x11DE JUMP JUMPDEST SWAP3 SWAP2 POP POP JUMP JUMPDEST PUSH1 0x0 DUP1 PUSH1 0x40 DUP4 DUP6 SUB SLT ISZERO PUSH3 0x1229 JUMPI PUSH3 0x1228 PUSH3 0xDDE JUMP JUMPDEST JUMPDEST PUSH1 0x0 PUSH3 0x1239 DUP6 DUP3 DUP7 ADD PUSH3 0x11F8 JUMP JUMPDEST SWAP3 POP POP PUSH1 0x20 PUSH3 0x124C DUP6 DUP3 DUP7 ADD PUSH3 0x11F8 JUMP JUMPDEST SWAP2 POP POP SWAP3 POP SWAP3 SWAP1 POP JUMP JUMPDEST PUSH1 0x0 DUP2 MLOAD SWAP1 POP SWAP2 SWAP1 POP JUMP JUMPDEST PUSH1 0x0 DUP3 DUP3 MSTORE PUSH1 0x20 DUP3 ADD SWAP1 POP SWAP3 SWAP2 POP POP JUMP JUMPDEST PUSH1 0x0 DUP2 SWAP1 POP PUSH1 0x20 DUP3 ADD SWAP1 POP SWAP2 SWAP1 POP JUMP JUMPDEST PUSH3 0x128D DUP2 PUSH3 0xE08 JUMP JUMPDEST DUP3 MSTORE POP POP JUMP JUMPDEST PUSH1 0x0 PUSH3 0x12A1 DUP4 DUP4 PUSH3 0x1282 JUMP JUMPDEST PUSH1 0x20 DUP4 ADD SWAP1 POP SWAP3 SWAP2 POP POP JUMP JUMPDEST PUSH1 0x0 PUSH1 0x20 DUP3 ADD SWAP1 POP SWAP2 SWAP1 POP JUMP JUMPDEST PUSH1 0x0 PUSH3 0x12C7 DUP3 PUSH3 0x1256 JUMP JUMPDEST PUSH3 0x12D3 DUP2 DUP6 PUSH3 0x1261 JUMP JUMPDEST SWAP4 POP PUSH3 0x12E0 DUP4 PUSH3 0x1272 JUMP JUMPDEST DUP1 PUSH1 0x0 JUMPDEST DUP4 DUP2 LT ISZERO PUSH3 0x1317 JUMPI DUP2 MLOAD PUSH3 0x12FB DUP9 DUP3 PUSH3 0x1293 JUMP JUMPDEST SWAP8 POP PUSH3 0x1308 DUP4 PUSH3 0x12AD JUMP JUMPDEST SWAP3 POP POP PUSH1 0x1 DUP2 ADD SWAP1 POP PUSH3 0x12E4 JUMP JUMPDEST POP DUP6 SWAP4 POP POP POP POP SWAP3 SWAP2 POP POP JUMP JUMPDEST PUSH1 0x0 PUSH1 0x20 DUP3 ADD SWAP1 POP DUP2 DUP2 SUB PUSH1 0x0 DUP4 ADD MSTORE PUSH3 0x1340 DUP2 DUP5 PUSH3 0x12BA JUMP JUMPDEST SWAP1 POP SWAP3 SWAP2 POP POP JUMP JUMPDEST PUSH1 0x0 PUSH32 0xFFFFFFFF00000000000000000000000000000000000000000000000000000000 DUP3 AND SWAP1 POP SWAP2 SWAP1 POP JUMP JUMPDEST PUSH3 0x137F DUP2 PUSH3 0x1348 JUMP JUMPDEST DUP3 MSTORE POP POP JUMP JUMPDEST PUSH1 0x0 PUSH1 0x20 DUP3 ADD SWAP1 POP PUSH3 0x139C PUSH1 0x0 DUP4 ADD DUP5 PUSH3 0x1374 JUMP JUMPDEST SWAP3 SWAP2 POP POP JUMP JUMPDEST PUSH3 0x13AD DUP2 PUSH3 0xE08 JUMP JUMPDEST DUP3 MSTORE POP POP JUMP JUMPDEST PUSH1 0x0 PUSH1 0x20 DUP3 ADD SWAP1 POP PUSH3 0x13CA PUSH1 0x0 DUP4 ADD DUP5 PUSH3 0x13A2 JUMP JUMPDEST SWAP3 SWAP2 POP POP JUMP JUMPDEST PUSH3 0x13DB DUP2 PUSH3 0x11D4 JUMP JUMPDEST DUP3 MSTORE POP POP JUMP JUMPDEST PUSH1 0x0 PUSH1 0x20 DUP3 ADD SWAP1 POP PUSH3 0x13F8 PUSH1 0x0 DUP4 ADD DUP5 PUSH3 0x13D0 JUMP JUMPDEST SWAP3 SWAP2 POP POP JUMP JUMPDEST PUSH1 0x0 PUSH1 0x20 DUP3 DUP5 SUB SLT ISZERO PUSH3 0x1417 JUMPI PUSH3 0x1416 PUSH3 0xDDE JUMP JUMPDEST JUMPDEST PUSH1 0x0 PUSH3 0x1427 DUP5 DUP3 DUP6 ADD PUSH3 0xE36 JUMP JUMPDEST SWAP2 POP POP SWAP3 SWAP2 POP POP JUMP JUMPDEST PUSH3 0x143B DUP2 PUSH3 0xE94 JUMP JUMPDEST DUP3 MSTORE POP POP JUMP JUMPDEST PUSH1 0x0 PUSH1 0x60 DUP3 ADD SWAP1 POP PUSH3 0x1458 PUSH1 0x0 DUP4 ADD DUP7 PUSH3 0x13A2 JUMP JUMPDEST PUSH3 0x1467 PUSH1 0x20 DUP4 ADD DUP6 PUSH3 0x13A2 JUMP JUMPDEST PUSH3 0x1476 PUSH1 0x40 DUP4 ADD DUP5 PUSH3 0x1430 JUMP JUMPDEST SWAP5 SWAP4 POP POP POP POP JUMP JUMPDEST PUSH1 0x0 DUP2 MLOAD SWAP1 POP PUSH3 0x148F DUP2 PUSH3 0xE1C JUMP JUMPDEST SWAP3 SWAP2 POP POP JUMP JUMPDEST PUSH1 0x0 PUSH1 0x20 DUP3 DUP5 SUB SLT ISZERO PUSH3 0x14AE JUMPI PUSH3 0x14AD PUSH3 0xDDE JUMP JUMPDEST JUMPDEST PUSH1 0x0 PUSH3 0x14BE DUP5 DUP3 DUP6 ADD PUSH3 0x147E JUMP JUMPDEST SWAP2 POP POP SWAP3 SWAP2 POP POP JUMP JUMPDEST PUSH32 0x4E487B7100000000000000000000000000000000000000000000000000000000 PUSH1 0x0 MSTORE PUSH1 0x32 PUSH1 0x4 MSTORE PUSH1 0x24 PUSH1 0x0 REVERT JUMPDEST PUSH32 0x4E487B7100000000000000000000000000000000000000000000000000000000 PUSH1 0x0 MSTORE PUSH1 0x11 PUSH1 0x4 MSTORE PUSH1 0x24 PUSH1 0x0 REVERT JUMPDEST PUSH1 0x0 PUSH3 0x1532 DUP3 PUSH3 0x11D4 JUMP JUMPDEST SWAP2 POP PUSH32 0xFFFFFFFFFFFFFFFFFFFFFFFFFFFFFFFFFFFFFFFFFFFFFFFFFFFFFFFFFFFFFFFF DUP3 SUB PUSH3 0x1567 JUMPI PUSH3 0x1566 PUSH3 0x14F6 JUMP JUMPDEST JUMPDEST PUSH1 0x1 DUP3 ADD SWAP1 POP SWAP2 SWAP1 POP JUMP JUMPDEST PUSH1 0x0 PUSH3 0x157F DUP3 PUSH3 0x11D4 JUMP JUMPDEST SWAP2 POP PUSH3 0x158C DUP4 PUSH3 0x11D4 JUMP JUMPDEST SWAP3 POP DUP3 DUP3 SUB SWAP1 POP DUP2 DUP2 GT ISZERO PUSH3 0x15A7 JUMPI PUSH3 0x15A6 PUSH3 0x14F6 JUMP JUMPDEST JUMPDEST SWAP3 SWAP2 POP POP JUMP JUMPDEST PUSH1 0x0 PUSH3 0x15BA DUP3 PUSH3 0x11D4 JUMP JUMPDEST SWAP2 POP PUSH3 0x15C7 DUP4 PUSH3 0x11D4 JUMP JUMPDEST SWAP3 POP DUP3 DUP3 ADD SWAP1 POP DUP1 DUP3 GT ISZERO PUSH3 0x15E2 JUMPI PUSH3 0x15E1 PUSH3 0x14F6 JUMP JUMPDEST JUMPDEST SWAP3 SWAP2 POP POP JUMP JUMPDEST PUSH1 0x0 DUP2 MLOAD SWAP1 POP SWAP2 SWAP1 POP JUMP JUMPDEST PUSH1 0x0 DUP2 SWAP1 POP SWAP3 SWAP2 POP POP JUMP JUMPDEST PUSH1 0x0 JUMPDEST DUP4 DUP2 LT ISZERO PUSH3 0x161E JUMPI DUP1 DUP3 ADD MLOAD DUP2 DUP5 ADD MSTORE PUSH1 0x20 DUP2 ADD SWAP1 POP PUSH3 0x1601 JUMP JUMPDEST PUSH1 0x0 DUP5 DUP5 ADD MSTORE POP POP POP POP JUMP JUMPDEST PUSH1 0x0 PUSH3 0x1637 DUP3 PUSH3 0x15E8 JUMP JUMPDEST PUSH3 0x1643 DUP2 DUP6 PUSH3 0x15F3 JUMP JUMPDEST SWAP4 POP PUSH3 0x1655 DUP2 DUP6 PUSH1 0x20 DUP7 ADD PUSH3 0x15FE JUMP JUMPDEST DUP1 DUP5 ADD SWAP2 POP POP SWAP3 SWAP2 POP POP JUMP JUMPDEST PUSH1 0x0 PUSH3 0x166F DUP3 DUP5 PUSH3 0x162A JUMP JUMPDEST SWAP2 POP DUP2 SWAP1 POP SWAP3 SWAP2 POP POP JUMP JUMPDEST PUSH1 0x0 DUP3 DUP3 MSTORE PUSH1 0x20 DUP3 ADD SWAP1 POP SWAP3 SWAP2 POP POP JUMP JUMPDEST PUSH32 0x746F6B656E2063616E6E6F742062652061207A65726F20616464726573730000 PUSH1 0x0 DUP3 ADD MSTORE POP JUMP JUMPDEST PUSH1 0x0 PUSH3 0x16C3 PUSH1 0x1E DUP4 PUSH3 0x167A JUMP JUMPDEST SWAP2 POP PUSH3 0x16D0 DUP3 PUSH3 0x168B JUMP JUMPDEST PUSH1 0x20 DUP3 ADD SWAP1 POP SWAP2 SWAP1 POP JUMP JUMPDEST PUSH1 0x0 PUSH1 0x20 DUP3 ADD SWAP1 POP DUP2 DUP2 SUB PUSH1 0x0 DUP4 ADD MSTORE PUSH3 0x16F6 DUP2 PUSH3 0x16B4 JUMP JUMPDEST SWAP1 POP SWAP2 SWAP1 POP JUMP JUMPDEST PUSH1 0x0 PUSH1 0x20 DUP3 ADD SWAP1 POP PUSH3 0x1714 PUSH1 0x0 DUP4 ADD DUP5 PUSH3 0x1430 JUMP JUMPDEST SWAP3 SWAP2 POP POP JUMP JUMPDEST PUSH1 0x0 DUP2 PUSH1 0x2 SIGNEXTEND SWAP1 POP SWAP2 SWAP1 POP JUMP JUMPDEST PUSH3 0x1732 DUP2 PUSH3 0x171A JUMP JUMPDEST DUP2 EQ PUSH3 0x173E JUMPI PUSH1 0x0 DUP1 REVERT JUMPDEST POP JUMP JUMPDEST PUSH1 0x0 DUP2 MLOAD SWAP1 POP PUSH3 0x1752 DUP2 PUSH3 0x1727 JUMP JUMPDEST SWAP3 SWAP2 POP POP JUMP JUMPDEST PUSH1 0x0 PUSH1 0x20 DUP3 DUP5 SUB SLT ISZERO PUSH3 0x1771 JUMPI PUSH3 0x1770 PUSH3 0xDDE JUMP JUMPDEST JUMPDEST PUSH1 0x0 PUSH3 0x1781 DUP5 DUP3 DUP6 ADD PUSH3 0x1741 JUMP JUMPDEST SWAP2 POP POP SWAP3 SWAP2 POP POP JUMP JUMPDEST PUSH3 0x1795 DUP2 PUSH3 0x171A JUMP JUMPDEST DUP3 MSTORE POP POP JUMP JUMPDEST PUSH1 0x0 DUP3 DUP3 MSTORE PUSH1 0x20 DUP3 ADD SWAP1 POP SWAP3 SWAP2 POP POP JUMP JUMPDEST PUSH1 0x0 PUSH3 0x17B9 DUP3 PUSH3 0x15E8 JUMP JUMPDEST PUSH3 0x17C5 DUP2 DUP6 PUSH3 0x179B JUMP JUMPDEST SWAP4 POP PUSH3 0x17D7 DUP2 DUP6 PUSH1 0x20 DUP7 ADD PUSH3 0x15FE JUMP JUMPDEST PUSH3 0x17E2 DUP2 PUSH3 0xEDE JUMP JUMPDEST DUP5 ADD SWAP2 POP POP SWAP3 SWAP2 POP POP JUMP JUMPDEST PUSH1 0x0 PUSH1 0x60 DUP3 ADD SWAP1 POP PUSH3 0x1804 PUSH1 0x0 DUP4 ADD DUP7 PUSH3 0x13A2 JUMP JUMPDEST PUSH3 0x1813 PUSH1 0x20 DUP4 ADD DUP6 PUSH3 0x178A JUMP JUMPDEST DUP2 DUP2 SUB PUSH1 0x40 DUP4 ADD MSTORE PUSH3 0x1827 DUP2 DUP5 PUSH3 0x17AC JUMP JUMPDEST SWAP1 POP SWAP5 SWAP4 POP POP POP POP JUMP JUMPDEST PUSH1 0x0 PUSH1 0x40 DUP3 ADD SWAP1 POP PUSH3 0x1848 PUSH1 0x0 DUP4 ADD DUP6 PUSH3 0x13A2 JUMP JUMPDEST DUP2 DUP2 SUB PUSH1 0x20 DUP4 ADD MSTORE PUSH3 0x185C DUP2 DUP5 PUSH3 0x17AC JUMP JUMPDEST SWAP1 POP SWAP4 SWAP3 POP POP POP JUMP INVALID PUSH1 0x80 PUSH1 0x40 MSTORE PUSH1 0x40 MLOAD PUSH2 0x6E5 CODESIZE SUB DUP1 PUSH2 0x6E5 DUP4 CODECOPY DUP2 DUP2 ADD PUSH1 0x40 MSTORE DUP2 ADD SWAP1 PUSH2 0x25 SWAP2 SWAP1 PUSH2 0x512 JUMP JUMPDEST PUSH2 0x35 DUP3 DUP3 PUSH2 0x3C PUSH1 0x20 SHL PUSH1 0x20 SHR JUMP JUMPDEST POP POP PUSH2 0x5F6 JUMP JUMPDEST PUSH2 0x4B DUP3 PUSH2 0xC1 PUSH1 0x20 SHL PUSH1 0x20 SHR JUMP JUMPDEST DUP2 PUSH20 0xFFFFFFFFFFFFFFFFFFFFFFFFFFFFFFFFFFFFFFFF AND PUSH32 0xBC7CD75A20EE27FD9ADEBAB32041F755214DBC6BFFA90CC0225B39DA2E5C2D3B PUSH1 0x40 MLOAD PUSH1 0x40 MLOAD DUP1 SWAP2 SUB SWAP1 LOG2 PUSH1 0x0 DUP2 MLOAD GT ISZERO PUSH2 0xAE JUMPI PUSH2 0xA8 DUP3 DUP3 PUSH2 0x194 PUSH1 0x20 SHL PUSH1 0x20 SHR JUMP JUMPDEST POP PUSH2 0xBD JUMP JUMPDEST PUSH2 0xBC PUSH2 0x21E PUSH1 0x20 SHL PUSH1 0x20 SHR JUMP JUMPDEST JUMPDEST POP POP JUMP JUMPDEST PUSH1 0x0 DUP2 PUSH20 0xFFFFFFFFFFFFFFFFFFFFFFFFFFFFFFFFFFFFFFFF AND EXTCODESIZE SUB PUSH2 0x11D JUMPI DUP1 PUSH1 0x40 MLOAD PUSH32 0x4C9C8CE300000000000000000000000000000000000000000000000000000000 DUP2 MSTORE PUSH1 0x4 ADD PUSH2 0x114 SWAP2 SWAP1 PUSH2 0x57D JUMP JUMPDEST PUSH1 0x40 MLOAD DUP1 SWAP2 SUB SWAP1 REVERT JUMPDEST DUP1 PUSH2 0x150 PUSH32 0x360894A13BA1A3210667C828492DB98DCA3E2076CC3735A920A3CA505D382BBC PUSH1 0x0 SHL PUSH2 0x25B PUSH1 0x20 SHL PUSH1 0x20 SHR JUMP JUMPDEST PUSH1 0x0 ADD PUSH1 0x0 PUSH2 0x100 EXP DUP2 SLOAD DUP2 PUSH20 0xFFFFFFFFFFFFFFFFFFFFFFFFFFFFFFFFFFFFFFFF MUL NOT AND SWAP1 DUP4 PUSH20 0xFFFFFFFFFFFFFFFFFFFFFFFFFFFFFFFFFFFFFFFF AND MUL OR SWAP1 SSTORE POP POP JUMP JUMPDEST PUSH1 0x60 PUSH1 0x0 DUP1 DUP5 PUSH20 0xFFFFFFFFFFFFFFFFFFFFFFFFFFFFFFFFFFFFFFFF AND DUP5 PUSH1 0x40 MLOAD PUSH2 0x1BE SWAP2 SWAP1 PUSH2 0x5DF JUMP JUMPDEST PUSH1 0x0 PUSH1 0x40 MLOAD DUP1 DUP4 SUB DUP2 DUP6 GAS DELEGATECALL SWAP2 POP POP RETURNDATASIZE DUP1 PUSH1 0x0 DUP2 EQ PUSH2 0x1F9 JUMPI PUSH1 0x40 MLOAD SWAP2 POP PUSH1 0x1F NOT PUSH1 0x3F RETURNDATASIZE ADD AND DUP3 ADD PUSH1 0x40 MSTORE RETURNDATASIZE DUP3 MSTORE RETURNDATASIZE PUSH1 0x0 PUSH1 0x20 DUP5 ADD RETURNDATACOPY PUSH2 0x1FE JUMP JUMPDEST PUSH1 0x60 SWAP2 POP JUMPDEST POP SWAP2 POP SWAP2 POP PUSH2 0x214 DUP6 DUP4 DUP4 PUSH2 0x265 PUSH1 0x20 SHL PUSH1 0x20 SHR JUMP JUMPDEST SWAP3 POP POP POP SWAP3 SWAP2 POP POP JUMP JUMPDEST PUSH1 0x0 CALLVALUE GT ISZERO PUSH2 0x259 JUMPI PUSH1 0x40 MLOAD PUSH32 0xB398979F00000000000000000000000000000000000000000000000000000000 DUP2 MSTORE PUSH1 0x4 ADD PUSH1 0x40 MLOAD DUP1 SWAP2 SUB SWAP1 REVERT JUMPDEST JUMP JUMPDEST PUSH1 0x0 DUP2 SWAP1 POP SWAP2 SWAP1 POP JUMP JUMPDEST PUSH1 0x60 DUP3 PUSH2 0x280 JUMPI PUSH2 0x27B DUP3 PUSH2 0x2FA PUSH1 0x20 SHL PUSH1 0x20 SHR JUMP JUMPDEST PUSH2 0x2F2 JUMP JUMPDEST PUSH1 0x0 DUP3 MLOAD EQ DUP1 ISZERO PUSH2 0x2A8 JUMPI POP PUSH1 0x0 DUP5 PUSH20 0xFFFFFFFFFFFFFFFFFFFFFFFFFFFFFFFFFFFFFFFF AND EXTCODESIZE EQ JUMPDEST ISZERO PUSH2 0x2EA JUMPI DUP4 PUSH1 0x40 MLOAD PUSH32 0x9996B31500000000000000000000000000000000000000000000000000000000 DUP2 MSTORE PUSH1 0x4 ADD PUSH2 0x2E1 SWAP2 SWAP1 PUSH2 0x57D JUMP JUMPDEST PUSH1 0x40 MLOAD DUP1 SWAP2 SUB SWAP1 REVERT JUMPDEST DUP2 SWAP1 POP PUSH2 0x2F3 JUMP JUMPDEST JUMPDEST SWAP4 SWAP3 POP POP POP JUMP JUMPDEST PUSH1 0x0 DUP2 MLOAD GT ISZERO PUSH2 0x30D JUMPI DUP1 MLOAD DUP1 DUP3 PUSH1 0x20 ADD REVERT JUMPDEST PUSH1 0x40 MLOAD PUSH32 0x1425EA4200000000000000000000000000000000000000000000000000000000 DUP2 MSTORE PUSH1 0x4 ADD PUSH1 0x40 MLOAD DUP1 SWAP2 SUB SWAP1 REVERT JUMPDEST PUSH1 0x0 PUSH1 0x40 MLOAD SWAP1 POP SWAP1 JUMP JUMPDEST PUSH1 0x0 DUP1 REVERT JUMPDEST PUSH1 0x0 DUP1 REVERT JUMPDEST PUSH1 0x0 PUSH20 0xFFFFFFFFFFFFFFFFFFFFFFFFFFFFFFFFFFFFFFFF DUP3 AND SWAP1 POP SWAP2 SWAP1 POP JUMP JUMPDEST PUSH1 0x0 PUSH2 0x37E DUP3 PUSH2 0x353 JUMP JUMPDEST SWAP1 POP SWAP2 SWAP1 POP JUMP JUMPDEST PUSH2 0x38E DUP2 PUSH2 0x373 JUMP JUMPDEST DUP2 EQ PUSH2 0x399 JUMPI PUSH1 0x0 DUP1 REVERT JUMPDEST POP JUMP JUMPDEST PUSH1 0x0 DUP2 MLOAD SWAP1 POP PUSH2 0x3AB DUP2 PUSH2 0x385 JUMP JUMPDEST SWAP3 SWAP2 POP POP JUMP JUMPDEST PUSH1 0x0 DUP1 REVERT JUMPDEST PUSH1 0x0 DUP1 REVERT JUMPDEST PUSH1 0x0 PUSH1 0x1F NOT PUSH1 0x1F DUP4 ADD AND SWAP1 POP SWAP2 SWAP1 POP JUMP JUMPDEST PUSH32 0x4E487B7100000000000000000000000000000000000000000000000000000000 PUSH1 0x0 MSTORE PUSH1 0x41 PUSH1 0x4 MSTORE PUSH1 0x24 PUSH1 0x0 REVERT JUMPDEST PUSH2 0x404 DUP3 PUSH2 0x3BB JUMP JUMPDEST DUP2 ADD DUP2 DUP2 LT PUSH8 0xFFFFFFFFFFFFFFFF DUP3 GT OR ISZERO PUSH2 0x423 JUMPI PUSH2 0x422 PUSH2 0x3CC JUMP JUMPDEST JUMPDEST DUP1 PUSH1 0x40 MSTORE POP POP POP JUMP JUMPDEST PUSH1 0x0 PUSH2 0x436 PUSH2 0x33F JUMP JUMPDEST SWAP1 POP PUSH2 0x442 DUP3 DUP3 PUSH2 0x3FB JUMP JUMPDEST SWAP2 SWAP1 POP JUMP JUMPDEST PUSH1 0x0 PUSH8 0xFFFFFFFFFFFFFFFF DUP3 GT ISZERO PUSH2 0x462 JUMPI PUSH2 0x461 PUSH2 0x3CC JUMP JUMPDEST JUMPDEST PUSH2 0x46B DUP3 PUSH2 0x3BB JUMP JUMPDEST SWAP1 POP PUSH1 0x20 DUP2 ADD SWAP1 POP SWAP2 SWAP1 POP JUMP JUMPDEST PUSH1 0x0 JUMPDEST DUP4 DUP2 LT ISZERO PUSH2 0x496 JUMPI DUP1 DUP3 ADD MLOAD DUP2 DUP5 ADD MSTORE PUSH1 0x20 DUP2 ADD SWAP1 POP PUSH2 0x47B JUMP JUMPDEST PUSH1 0x0 DUP5 DUP5 ADD MSTORE POP POP POP POP JUMP JUMPDEST PUSH1 0x0 PUSH2 0x4B5 PUSH2 0x4B0 DUP5 PUSH2 0x447 JUMP JUMPDEST PUSH2 0x42C JUMP JUMPDEST SWAP1 POP DUP3 DUP2 MSTORE PUSH1 0x20 DUP2 ADD DUP5 DUP5 DUP5 ADD GT ISZERO PUSH2 0x4D1 JUMPI PUSH2 0x4D0 PUSH2 0x3B6 JUMP JUMPDEST JUMPDEST PUSH2 0x4DC DUP5 DUP3 DUP6 PUSH2 0x478 JUMP JUMPDEST POP SWAP4 SWAP3 POP POP POP JUMP JUMPDEST PUSH1 0x0 DUP3 PUSH1 0x1F DUP4 ADD SLT PUSH2 0x4F9 JUMPI PUSH2 0x4F8 PUSH2 0x3B1 JUMP JUMPDEST JUMPDEST DUP2 MLOAD PUSH2 0x509 DUP5 DUP3 PUSH1 0x20 DUP7 ADD PUSH2 0x4A2 JUMP JUMPDEST SWAP2 POP POP SWAP3 SWAP2 POP POP JUMP JUMPDEST PUSH1 0x0 DUP1 PUSH1 0x40 DUP4 DUP6 SUB SLT ISZERO PUSH2 0x529 JUMPI PUSH2 0x528 PUSH2 0x349 JUMP JUMPDEST JUMPDEST PUSH1 0x0 PUSH2 0x537 DUP6 DUP3 DUP7 ADD PUSH2 0x39C JUMP JUMPDEST SWAP3 POP POP PUSH1 0x20 DUP4 ADD MLOAD PUSH8 0xFFFFFFFFFFFFFFFF DUP2 GT ISZERO PUSH2 0x558 JUMPI PUSH2 0x557 PUSH2 0x34E JUMP JUMPDEST JUMPDEST PUSH2 0x564 DUP6 DUP3 DUP7 ADD PUSH2 0x4E4 JUMP JUMPDEST SWAP2 POP POP SWAP3 POP SWAP3 SWAP1 POP JUMP JUMPDEST PUSH2 0x577 DUP2 PUSH2 0x373 JUMP JUMPDEST DUP3 MSTORE POP POP JUMP JUMPDEST PUSH1 0x0 PUSH1 0x20 DUP3 ADD SWAP1 POP PUSH2 0x592 PUSH1 0x0 DUP4 ADD DUP5 PUSH2 0x56E JUMP JUMPDEST SWAP3 SWAP2 POP POP JUMP JUMPDEST PUSH1 0x0 DUP2 MLOAD SWAP1 POP SWAP2 SWAP1 POP JUMP JUMPDEST PUSH1 0x0 DUP2 SWAP1 POP SWAP3 SWAP2 POP POP JUMP JUMPDEST PUSH1 0x0 PUSH2 0x5B9 DUP3 PUSH2 0x598 JUMP JUMPDEST PUSH2 0x5C3 DUP2 DUP6 PUSH2 0x5A3 JUMP JUMPDEST SWAP4 POP PUSH2 0x5D3 DUP2 DUP6 PUSH1 0x20 DUP7 ADD PUSH2 0x478 JUMP JUMPDEST DUP1 DUP5 ADD SWAP2 POP POP SWAP3 SWAP2 POP POP JUMP JUMPDEST PUSH1 0x0 PUSH2 0x5EB DUP3 DUP5 PUSH2 0x5AE JUMP JUMPDEST SWAP2 POP DUP2 SWAP1 POP SWAP3 SWAP2 POP POP JUMP JUMPDEST PUSH1 0xE1 DUP1 PUSH2 0x604 PUSH1 0x0 CODECOPY PUSH1 0x0 RETURN INVALID PUSH1 0x80 PUSH1 0x40 MSTORE PUSH1 0xA PUSH1 0xC JUMP JUMPDEST STOP JUMPDEST PUSH1 0x18 PUSH1 0x14 PUSH1 0x1A JUMP JUMPDEST PUSH1 0x27 JUMP JUMPDEST JUMP JUMPDEST PUSH1 0x0 PUSH1 0x22 PUSH1 0x4C JUMP JUMPDEST SWAP1 POP SWAP1 JUMP JUMPDEST CALLDATASIZE PUSH1 0x0 DUP1 CALLDATACOPY PUSH1 0x0 DUP1 CALLDATASIZE PUSH1 0x0 DUP5 GAS DELEGATECALL RETURNDATASIZE PUSH1 0x0 DUP1 RETURNDATACOPY DUP1 PUSH1 0x0 DUP2 EQ PUSH1 0x47 JUMPI RETURNDATASIZE PUSH1 0x0 RETURN JUMPDEST RETURNDATASIZE PUSH1 0x0 REVERT JUMPDEST PUSH1 0x0 PUSH1 0x78 PUSH32 0x360894A13BA1A3210667C828492DB98DCA3E2076CC3735A920A3CA505D382BBC PUSH1 0x0 SHL PUSH1 0xA1 JUMP JUMPDEST PUSH1 0x0 ADD PUSH1 0x0 SWAP1 SLOAD SWAP1 PUSH2 0x100 EXP SWAP1 DIV PUSH20 0xFFFFFFFFFFFFFFFFFFFFFFFFFFFFFFFFFFFFFFFF AND SWAP1 POP SWAP1 JUMP JUMPDEST PUSH1 0x0 DUP2 SWAP1 POP SWAP2 SWAP1 POP JUMP INVALID LOG2 PUSH5 0x6970667358 0x22 SLT KECCAK256 PUSH8 0xDA619A0E2ED8891B 0x26 0x5D CHAINID JUMPI 0x2C SLT SWAP8 DUP1 DUP4 0x1F 0xEF 0xC6 0xC4 ADDRESS DUP16 EXP 0xC1 PUSH2 0x33D3 JUMPI 0x4B SHR PUSH5 0x736F6C6343 STOP ADDMOD EQ STOP CALLER LOG2 PUSH5 0x6970667358 0x22 SLT KECCAK256 PUSH27 0x201F6F35C1FEF293BCB88089AAA64D5E53210D652756A9CDA02A86 BALANCE EXTCODEHASH 0xD5 PUSH20 0x64736F6C63430008140033000000000000000000 "},"methodIdentifiers":{"INIT_SELECTOR()":"97fb8797","UPGRADE_SELECTOR()":"6dbda217","createVault(address,address,uint24,address,bytes)":"2204d63e","factory()":"c45a0155","getVaultAddresses(uint256,uint256)":"4ae232ba","owner()":"8da5cb5b","renounceOwnership()":"715018a6","transferOwnership(address)":"f2fde38b","upgradeVault(address,address)":"054bf171","upgradeVaults(address[],address[])":"2bcef008","vaultCount()":"a7c6a100"}}}}}