{
  "_format": "hh-sol-artifact-1",
  "contractName": "Sender",
  "sourceName": "contracts/ccip/Sender.sol",
  "abi": [
    {
      "inputs": [
        {
          "internalType": "address",
          "name": "_router",
          "type": "address"
        },
        {
          "internalType": "address",
          "name": "_link",
          "type": "address"
        },
        {
          "internalType": "address",
          "name": "_usdc",
          "type": "address"
        }
      ],
      "stateMutability": "nonpayable",
      "type": "constructor"
    },
    {
      "inputs": [
        {
          "internalType": "uint256",
          "name": "currentBalance",
          "type": "uint256"
        },
        {
          "internalType": "uint256",
          "name": "calculatedFees",
          "type": "uint256"
        }
      ],
      "name": "NotEnoughBalance",
      "type": "error"
    },
    {
      "anonymous": false,
      "inputs": [
        {
          "indexed": true,
          "internalType": "address",
          "name": "from",
          "type": "address"
        },
        {
          "indexed": true,
          "internalType": "address",
          "name": "to",
          "type": "address"
        }
      ],
      "name": "OwnershipTransferRequested",
      "type": "event"
    },
    {
      "anonymous": false,
      "inputs": [
        {
          "indexed": true,
          "internalType": "address",
          "name": "from",
          "type": "address"
        },
        {
          "indexed": true,
          "internalType": "address",
          "name": "to",
          "type": "address"
        }
      ],
      "name": "OwnershipTransferred",
      "type": "event"
    },
    {
      "anonymous": false,
      "inputs": [
        {
          "indexed": true,
          "internalType": "bytes32",
          "name": "messageId",
          "type": "bytes32"
        },
        {
          "indexed": true,
          "internalType": "uint64",
          "name": "destinationChainSelector",
          "type": "uint64"
        },
        {
          "indexed": false,
          "internalType": "address",
          "name": "receiver",
          "type": "address"
        },
        {
          "indexed": false,
          "internalType": "uint256",
          "name": "amount",
          "type": "uint256"
        },
        {
          "indexed": false,
          "internalType": "address",
          "name": "feeToken",
          "type": "address"
        },
        {
          "indexed": false,
          "internalType": "uint256",
          "name": "fees",
          "type": "uint256"
        }
      ],
      "name": "TokensSent",
      "type": "event"
    },
    {
      "inputs": [],
      "name": "acceptOwnership",
      "outputs": [],
      "stateMutability": "nonpayable",
      "type": "function"
    },
    {
      "inputs": [],
      "name": "owner",
      "outputs": [
        {
          "internalType": "address",
          "name": "",
          "type": "address"
        }
      ],
      "stateMutability": "view",
      "type": "function"
    },
    {
      "inputs": [
        {
          "internalType": "uint64",
          "name": "destinationChainSelector",
          "type": "uint64"
        },
        {
          "internalType": "address",
          "name": "receiver",
          "type": "address"
        },
        {
          "internalType": "uint256",
          "name": "amount",
          "type": "uint256"
        }
      ],
      "name": "sendTokens",
      "outputs": [
        {
          "internalType": "bytes32",
          "name": "messageId",
          "type": "bytes32"
        }
      ],
      "stateMutability": "nonpayable",
      "type": "function"
    },
    {
      "inputs": [
        {
          "internalType": "address",
          "name": "to",
          "type": "address"
        }
      ],
      "name": "transferOwnership",
      "outputs": [],
      "stateMutability": "nonpayable",
      "type": "function"
    }
  ],
  "bytecode": "0x60806040523480156200001157600080fd5b50604051620015273803806200152783398181016040528101906200003791906200039b565b338060008073ffffffffffffffffffffffffffffffffffffffff168273ffffffffffffffffffffffffffffffffffffffff1603620000ac576040517f08c379a0000000000000000000000000000000000000000000000000000000008152600401620000a39062000458565b60405180910390fd5b816000806101000a81548173ffffffffffffffffffffffffffffffffffffffff021916908373ffffffffffffffffffffffffffffffffffffffff160217905550600073ffffffffffffffffffffffffffffffffffffffff168173ffffffffffffffffffffffffffffffffffffffff1614620001335762000132816200020260201b60201c565b5b50505082600260006101000a81548173ffffffffffffffffffffffffffffffffffffffff021916908373ffffffffffffffffffffffffffffffffffffffff16021790555081600360006101000a81548173ffffffffffffffffffffffffffffffffffffffff021916908373ffffffffffffffffffffffffffffffffffffffff16021790555080600460006101000a81548173ffffffffffffffffffffffffffffffffffffffff021916908373ffffffffffffffffffffffffffffffffffffffff160217905550505050620004ec565b3373ffffffffffffffffffffffffffffffffffffffff168173ffffffffffffffffffffffffffffffffffffffff160362000273576040517f08c379a00000000000000000000000000000000000000000000000000000000081526004016200026a90620004ca565b60405180910390fd5b80600160006101000a81548173ffffffffffffffffffffffffffffffffffffffff021916908373ffffffffffffffffffffffffffffffffffffffff1602179055508073ffffffffffffffffffffffffffffffffffffffff1660008054906101000a900473ffffffffffffffffffffffffffffffffffffffff1673ffffffffffffffffffffffffffffffffffffffff167fed8889f560326eb138920d842192f0eb3dd22b4f139c87a2c57538e05bae127860405160405180910390a350565b600080fd5b600073ffffffffffffffffffffffffffffffffffffffff82169050919050565b6000620003638262000336565b9050919050565b620003758162000356565b81146200038157600080fd5b50565b60008151905062000395816200036a565b92915050565b600080600060608486031215620003b757620003b662000331565b5b6000620003c78682870162000384565b9350506020620003da8682870162000384565b9250506040620003ed8682870162000384565b9150509250925092565b600082825260208201905092915050565b7f43616e6e6f7420736574206f776e657220746f207a65726f0000000000000000600082015250565b600062000440601883620003f7565b91506200044d8262000408565b602082019050919050565b60006020820190508181036000830152620004738162000431565b9050919050565b7f43616e6e6f74207472616e7366657220746f2073656c66000000000000000000600082015250565b6000620004b2601783620003f7565b9150620004bf826200047a565b602082019050919050565b60006020820190508181036000830152620004e581620004a3565b9050919050565b61102b80620004fc6000396000f3fe608060405234801561001057600080fd5b506004361061004c5760003560e01c806379ba5097146100515780638da5cb5b1461005b578063a7149c1714610079578063f2fde38b146100a9575b600080fd5b6100596100c5565b005b61006361025a565b60405161007091906108d6565b60405180910390f35b610093600480360381019061008e9190610998565b610283565b6040516100a09190610a04565b60405180910390f35b6100c360048036038101906100be9190610a1f565b610616565b005b600160009054906101000a900473ffffffffffffffffffffffffffffffffffffffff1673ffffffffffffffffffffffffffffffffffffffff163373ffffffffffffffffffffffffffffffffffffffff1614610155576040517f08c379a000000000000000000000000000000000000000000000000000000000815260040161014c90610aa9565b60405180910390fd5b60008060009054906101000a900473ffffffffffffffffffffffffffffffffffffffff169050336000806101000a81548173ffffffffffffffffffffffffffffffffffffffff021916908373ffffffffffffffffffffffffffffffffffffffff1602179055506000600160006101000a81548173ffffffffffffffffffffffffffffffffffffffff021916908373ffffffffffffffffffffffffffffffffffffffff1602179055503373ffffffffffffffffffffffffffffffffffffffff168173ffffffffffffffffffffffffffffffffffffffff167f8be0079c531659141344cd1fd0a4f28419497f9722a3daafe3b4186f6b6457e060405160405180910390a350565b60008060009054906101000a900473ffffffffffffffffffffffffffffffffffffffff16905090565b600061028d61062a565b60006040518060a00160405280856040516020016102ab91906108d6565b6040516020818303038152906040528152602001846040516020016102d09190610ad8565b6040516020818303038152906040528152602001600067ffffffffffffffff8111156102ff576102fe610af3565b5b60405190808252806020026020018201604052801561033857816020015b610325610865565b81526020019060019003908161031d5790505b508152602001600360009054906101000a900473ffffffffffffffffffffffffffffffffffffffff1673ffffffffffffffffffffffffffffffffffffffff168152602001610396604051806020016040528062030d408152506106ba565b81525090506000600260009054906101000a900473ffffffffffffffffffffffffffffffffffffffff1673ffffffffffffffffffffffffffffffffffffffff166320487ded87846040518363ffffffff1660e01b81526004016103fa929190610d48565b602060405180830381865afa158015610417573d6000803e3d6000fd5b505050506040513d601f19601f8201168201806040525081019061043b9190610d8d565b9050600360009054906101000a900473ffffffffffffffffffffffffffffffffffffffff1673ffffffffffffffffffffffffffffffffffffffff1663095ea7b3600260009054906101000a900473ffffffffffffffffffffffffffffffffffffffff16836040518363ffffffff1660e01b81526004016104bc929190610dba565b6020604051808303816000875af11580156104db573d6000803e3d6000fd5b505050506040513d601f19601f820116820180604052508101906104ff9190610e1b565b50600260009054906101000a900473ffffffffffffffffffffffffffffffffffffffff1673ffffffffffffffffffffffffffffffffffffffff166396f4e9f987846040518363ffffffff1660e01b815260040161055d929190610d48565b6020604051808303816000875af115801561057c573d6000803e3d6000fd5b505050506040513d601f19601f820116820180604052508101906105a09190610e74565b92508567ffffffffffffffff16837f7807786d0121e376a7af8fc5a40b203d59ab27f13f5ff48e88ba2d30b520bc278787600360009054906101000a900473ffffffffffffffffffffffffffffffffffffffff16866040516106059493929190610ea1565b60405180910390a350509392505050565b61061e61062a565b61062781610739565b50565b60008054906101000a900473ffffffffffffffffffffffffffffffffffffffff1673ffffffffffffffffffffffffffffffffffffffff163373ffffffffffffffffffffffffffffffffffffffff16146106b8576040517f08c379a00000000000000000000000000000000000000000000000000000000081526004016106af90610f32565b60405180910390fd5b565b60606397a657c960e01b826040516024016106d59190610f6e565b604051602081830303815290604052907bffffffffffffffffffffffffffffffffffffffffffffffffffffffff19166020820180517bffffffffffffffffffffffffffffffffffffffffffffffffffffffff83818316178352505050509050919050565b3373ffffffffffffffffffffffffffffffffffffffff168173ffffffffffffffffffffffffffffffffffffffff16036107a7576040517f08c379a000000000000000000000000000000000000000000000000000000000815260040161079e90610fd5565b60405180910390fd5b80600160006101000a81548173ffffffffffffffffffffffffffffffffffffffff021916908373ffffffffffffffffffffffffffffffffffffffff1602179055508073ffffffffffffffffffffffffffffffffffffffff1660008054906101000a900473ffffffffffffffffffffffffffffffffffffffff1673ffffffffffffffffffffffffffffffffffffffff167fed8889f560326eb138920d842192f0eb3dd22b4f139c87a2c57538e05bae127860405160405180910390a350565b6040518060400160405280600073ffffffffffffffffffffffffffffffffffffffff168152602001600081525090565b600073ffffffffffffffffffffffffffffffffffffffff82169050919050565b60006108c082610895565b9050919050565b6108d0816108b5565b82525050565b60006020820190506108eb60008301846108c7565b92915050565b600080fd5b600067ffffffffffffffff82169050919050565b610913816108f6565b811461091e57600080fd5b50565b6000813590506109308161090a565b92915050565b61093f816108b5565b811461094a57600080fd5b50565b60008135905061095c81610936565b92915050565b6000819050919050565b61097581610962565b811461098057600080fd5b50565b6000813590506109928161096c565b92915050565b6000806000606084860312156109b1576109b06108f1565b5b60006109bf86828701610921565b93505060206109d08682870161094d565b92505060406109e186828701610983565b9150509250925092565b6000819050919050565b6109fe816109eb565b82525050565b6000602082019050610a1960008301846109f5565b92915050565b600060208284031215610a3557610a346108f1565b5b6000610a438482850161094d565b91505092915050565b600082825260208201905092915050565b7f4d7573742062652070726f706f736564206f776e657200000000000000000000600082015250565b6000610a93601683610a4c565b9150610a9e82610a5d565b602082019050919050565b60006020820190508181036000830152610ac281610a86565b9050919050565b610ad281610962565b82525050565b6000602082019050610aed6000830184610ac9565b92915050565b7f4e487b7100000000000000000000000000000000000000000000000000000000600052604160045260246000fd5b610b2b816108f6565b82525050565b600081519050919050565b600082825260208201905092915050565b60005b83811015610b6b578082015181840152602081019050610b50565b60008484015250505050565b6000601f19601f8301169050919050565b6000610b9382610b31565b610b9d8185610b3c565b9350610bad818560208601610b4d565b610bb681610b77565b840191505092915050565b600081519050919050565b600082825260208201905092915050565b6000819050602082019050919050565b610bf6816108b5565b82525050565b610c0581610962565b82525050565b604082016000820151610c216000850182610bed565b506020820151610c346020850182610bfc565b50505050565b6000610c468383610c0b565b60408301905092915050565b6000602082019050919050565b6000610c6a82610bc1565b610c748185610bcc565b9350610c7f83610bdd565b8060005b83811015610cb0578151610c978882610c3a565b9750610ca283610c52565b925050600181019050610c83565b5085935050505092915050565b600060a0830160008301518482036000860152610cda8282610b88565b91505060208301518482036020860152610cf48282610b88565b91505060408301518482036040860152610d0e8282610c5f565b9150506060830151610d236060860182610bed565b5060808301518482036080860152610d3b8282610b88565b9150508091505092915050565b6000604082019050610d5d6000830185610b22565b8181036020830152610d6f8184610cbd565b90509392505050565b600081519050610d878161096c565b92915050565b600060208284031215610da357610da26108f1565b5b6000610db184828501610d78565b91505092915050565b6000604082019050610dcf60008301856108c7565b610ddc6020830184610ac9565b9392505050565b60008115159050919050565b610df881610de3565b8114610e0357600080fd5b50565b600081519050610e1581610def565b92915050565b600060208284031215610e3157610e306108f1565b5b6000610e3f84828501610e06565b91505092915050565b610e51816109eb565b8114610e5c57600080fd5b50565b600081519050610e6e81610e48565b92915050565b600060208284031215610e8a57610e896108f1565b5b6000610e9884828501610e5f565b91505092915050565b6000608082019050610eb660008301876108c7565b610ec36020830186610ac9565b610ed060408301856108c7565b610edd6060830184610ac9565b95945050505050565b7f4f6e6c792063616c6c61626c65206279206f776e657200000000000000000000600082015250565b6000610f1c601683610a4c565b9150610f2782610ee6565b602082019050919050565b60006020820190508181036000830152610f4b81610f0f565b9050919050565b602082016000820151610f686000850182610bfc565b50505050565b6000602082019050610f836000830184610f52565b92915050565b7f43616e6e6f74207472616e7366657220746f2073656c66000000000000000000600082015250565b6000610fbf601783610a4c565b9150610fca82610f89565b602082019050919050565b60006020820190508181036000830152610fee81610fb2565b905091905056fea264697066735822122076b8c00a2d12a49b9e6e6512f78f927d92efd5eb146b797b0561c1a1a252c6d764736f6c63430008140033",
  "linkReferences": {},
  "deployedLinkReferences": {}
}