{
  "_format": "hh-sol-artifact-1",
  "contractName": "AptosSender",
  "sourceName": "contracts/aptos/AptosSender.sol",
  "abi": [
    {
      "inputs": [
        {
          "internalType": "address",
          "name": "_gateway",
          "type": "address"
        },
        {
          "internalType": "address",
          "name": "_gasReceiver",
          "type": "address"
        }
      ],
      "stateMutability": "nonpayable",
      "type": "constructor"
    },
    {
      "inputs": [],
      "name": "InvalidAddress",
      "type": "error"
    },
    {
      "inputs": [],
      "name": "NotApprovedByGateway",
      "type": "error"
    },
    {
      "anonymous": false,
      "inputs": [],
      "name": "Executed",
      "type": "event"
    },
    {
      "inputs": [
        {
          "internalType": "bytes32",
          "name": "commandId",
          "type": "bytes32"
        },
        {
          "internalType": "string",
          "name": "sourceChain",
          "type": "string"
        },
        {
          "internalType": "string",
          "name": "sourceAddress",
          "type": "string"
        },
        {
          "internalType": "bytes",
          "name": "payload",
          "type": "bytes"
        }
      ],
      "name": "execute",
      "outputs": [],
      "stateMutability": "nonpayable",
      "type": "function"
    },
    {
      "inputs": [
        {
          "internalType": "bytes32",
          "name": "commandId",
          "type": "bytes32"
        },
        {
          "internalType": "string",
          "name": "sourceChain",
          "type": "string"
        },
        {
          "internalType": "string",
          "name": "sourceAddress",
          "type": "string"
        },
        {
          "internalType": "bytes",
          "name": "payload",
          "type": "bytes"
        },
        {
          "internalType": "string",
          "name": "tokenSymbol",
          "type": "string"
        },
        {
          "internalType": "uint256",
          "name": "amount",
          "type": "uint256"
        }
      ],
      "name": "executeWithToken",
      "outputs": [],
      "stateMutability": "nonpayable",
      "type": "function"
    },
    {
      "inputs": [],
      "name": "gateway",
      "outputs": [
        {
          "internalType": "contract IAxelarGateway",
          "name": "",
          "type": "address"
        }
      ],
      "stateMutability": "view",
      "type": "function"
    },
    {
      "inputs": [
        {
          "internalType": "string",
          "name": "destinationChain",
          "type": "string"
        },
        {
          "internalType": "string",
          "name": "destinationAddress",
          "type": "string"
        },
        {
          "internalType": "uint256",
          "name": "amount",
          "type": "uint256"
        }
      ],
      "name": "releaseTokens",
      "outputs": [],
      "stateMutability": "payable",
      "type": "function"
    },
    {
      "inputs": [
        {
          "internalType": "uint256",
          "name": "amount",
          "type": "uint256"
        }
      ],
      "name": "sendTokens",
      "outputs": [],
      "stateMutability": "nonpayable",
      "type": "function"
    },
    {
      "inputs": [],
      "name": "sourceAddress",
      "outputs": [
        {
          "internalType": "string",
          "name": "",
          "type": "string"
        }
      ],
      "stateMutability": "view",
      "type": "function"
    },
    {
      "inputs": [],
      "name": "sourceChain",
      "outputs": [
        {
          "internalType": "string",
          "name": "",
          "type": "string"
        }
      ],
      "stateMutability": "view",
      "type": "function"
    },
    {
      "inputs": [],
      "name": "value",
      "outputs": [
        {
          "internalType": "string",
          "name": "",
          "type": "string"
        }
      ],
      "stateMutability": "view",
      "type": "function"
    }
  ],
  "bytecode": "0x60a06040523480156200001157600080fd5b50604051620017e6380380620017e6833981810160405281019062000037919062000187565b81600073ffffffffffffffffffffffffffffffffffffffff168173ffffffffffffffffffffffffffffffffffffffff16036200009f576040517fe6c4247b00000000000000000000000000000000000000000000000000000000815260040160405180910390fd5b8073ffffffffffffffffffffffffffffffffffffffff1660808173ffffffffffffffffffffffffffffffffffffffff16815250505080600360006101000a81548173ffffffffffffffffffffffffffffffffffffffff021916908373ffffffffffffffffffffffffffffffffffffffff1602179055505050620001ce565b600080fd5b600073ffffffffffffffffffffffffffffffffffffffff82169050919050565b60006200014f8262000122565b9050919050565b620001618162000142565b81146200016d57600080fd5b50565b600081519050620001818162000156565b92915050565b60008060408385031215620001a157620001a06200011d565b5b6000620001b18582860162000170565b9250506020620001c48582860162000170565b9150509250929050565b6080516115e7620001ff600039600081816101c5015281816102050152818161043d01526106bc01526115e76000f3fe60806040526004361061007b5760003560e01c8063491606581161004e578063491606581461012a578063b0fa844414610153578063d02000661461017e578063f5c6ca081461019a5761007b565b8063116191b6146100805780631a98b2e0146100ab5780631c6ffa46146100d45780633fa4f245146100ff575b600080fd5b34801561008c57600080fd5b506100956101c3565b6040516100a29190610852565b60405180910390f35b3480156100b757600080fd5b506100d260048036038101906100cd91906109a8565b6101e7565b005b3480156100e057600080fd5b506100e9610303565b6040516100f69190610b48565b60405180910390f35b34801561010b57600080fd5b50610114610391565b6040516101219190610b48565b60405180910390f35b34801561013657600080fd5b50610151600480360381019061014c9190610b6a565b61041f565b005b34801561015f57600080fd5b5061016861052f565b6040516101759190610b48565b60405180910390f35b61019860048036038101906101939190610d63565b6105bd565b005b3480156101a657600080fd5b506101c160048036038101906101bc9190610dee565b61074f565b005b7f000000000000000000000000000000000000000000000000000000000000000081565b600085856040516101f9929190610e4b565b604051809103902090507f000000000000000000000000000000000000000000000000000000000000000073ffffffffffffffffffffffffffffffffffffffff16631876eed98c8c8c8c8c878b8b8b6040518a63ffffffff1660e01b815260040161026c99989796959493929190610eaf565b6020604051808303816000875af115801561028b573d6000803e3d6000fd5b505050506040513d601f19601f820116820180604052508101906102af9190610f63565b6102e5576040517f500c44b400000000000000000000000000000000000000000000000000000000815260040160405180910390fd5b6102f68a8a8a8a8a8a8a8a8a610752565b5050505050505050505050565b6001805461031090610fbf565b80601f016020809104026020016040519081016040528092919081815260200182805461033c90610fbf565b80156103895780601f1061035e57610100808354040283529160200191610389565b820191906000526020600020905b81548152906001019060200180831161036c57829003601f168201915b505050505081565b6000805461039e90610fbf565b80601f01602080910402602001604051908101604052809291908181526020018280546103ca90610fbf565b80156104175780601f106103ec57610100808354040283529160200191610417565b820191906000526020600020905b8154815290600101906020018083116103fa57829003601f168201915b505050505081565b60008282604051610431929190610e4b565b604051809103902090507f000000000000000000000000000000000000000000000000000000000000000073ffffffffffffffffffffffffffffffffffffffff16635f6970c38989898989876040518763ffffffff1660e01b815260040161049e96959493929190610ff0565b6020604051808303816000875af11580156104bd573d6000803e3d6000fd5b505050506040513d601f19601f820116820180604052508101906104e19190610f63565b610517576040517f500c44b400000000000000000000000000000000000000000000000000000000815260040160405180910390fd5b61052587878787878761075d565b5050505050505050565b6002805461053c90610fbf565b80601f016020809104026020016040519081016040528092919081815260200182805461056890610fbf565b80156105b55780601f1061058a576101008083540402835291602001916105b5565b820191906000526020600020905b81548152906001019060200180831161059857829003601f168201915b505050505081565b60003411610600576040517f08c379a00000000000000000000000000000000000000000000000000000000081526004016105f790611093565b60405180910390fd5b60008160405160200161061391906110d4565b6040516020818303038152906040529050600360009054906101000a900473ffffffffffffffffffffffffffffffffffffffff1673ffffffffffffffffffffffffffffffffffffffff16630c93e3bb3430878786336040518763ffffffff1660e01b8152600401610688959493929190611165565b6000604051808303818588803b1580156106a157600080fd5b505af11580156106b5573d6000803e3d6000fd5b50505050507f000000000000000000000000000000000000000000000000000000000000000073ffffffffffffffffffffffffffffffffffffffff16631c92115f8585846040518463ffffffff1660e01b8152600401610717939291906111cd565b600060405180830381600087803b15801561073157600080fd5b505af1158015610745573d6000803e3d6000fd5b5050505050505050565b50565b505050505050505050565b818181019061076c9190611219565b6000908161077a9190611404565b5085856001918261078c9291906114e1565b5083836002918261079e9291906114e1565b507f68f46c45a243a0e9065a97649faf9a5afe1692f2679e650c2f853b9cd734cc0e60405160405180910390a1505050505050565b600073ffffffffffffffffffffffffffffffffffffffff82169050919050565b6000819050919050565b600061081861081361080e846107d3565b6107f3565b6107d3565b9050919050565b600061082a826107fd565b9050919050565b600061083c8261081f565b9050919050565b61084c81610831565b82525050565b60006020820190506108676000830184610843565b92915050565b6000604051905090565b600080fd5b600080fd5b6000819050919050565b61089481610881565b811461089f57600080fd5b50565b6000813590506108b18161088b565b92915050565b600080fd5b600080fd5b600080fd5b60008083601f8401126108dc576108db6108b7565b5b8235905067ffffffffffffffff8111156108f9576108f86108bc565b5b602083019150836001820283011115610915576109146108c1565b5b9250929050565b60008083601f840112610932576109316108b7565b5b8235905067ffffffffffffffff81111561094f5761094e6108bc565b5b60208301915083600182028301111561096b5761096a6108c1565b5b9250929050565b6000819050919050565b61098581610972565b811461099057600080fd5b50565b6000813590506109a28161097c565b92915050565b60008060008060008060008060008060c08b8d0312156109cb576109ca610877565b5b60006109d98d828e016108a2565b9a505060208b013567ffffffffffffffff8111156109fa576109f961087c565b5b610a068d828e016108c6565b995099505060408b013567ffffffffffffffff811115610a2957610a2861087c565b5b610a358d828e016108c6565b975097505060608b013567ffffffffffffffff811115610a5857610a5761087c565b5b610a648d828e0161091c565b955095505060808b013567ffffffffffffffff811115610a8757610a8661087c565b5b610a938d828e016108c6565b935093505060a0610aa68d828e01610993565b9150509295989b9194979a5092959850565b600081519050919050565b600082825260208201905092915050565b60005b83811015610af2578082015181840152602081019050610ad7565b60008484015250505050565b6000601f19601f8301169050919050565b6000610b1a82610ab8565b610b248185610ac3565b9350610b34818560208601610ad4565b610b3d81610afe565b840191505092915050565b60006020820190508181036000830152610b628184610b0f565b905092915050565b60008060008060008060006080888a031215610b8957610b88610877565b5b6000610b978a828b016108a2565b975050602088013567ffffffffffffffff811115610bb857610bb761087c565b5b610bc48a828b016108c6565b9650965050604088013567ffffffffffffffff811115610be757610be661087c565b5b610bf38a828b016108c6565b9450945050606088013567ffffffffffffffff811115610c1657610c1561087c565b5b610c228a828b0161091c565b925092505092959891949750929550565b600080fd5b7f4e487b7100000000000000000000000000000000000000000000000000000000600052604160045260246000fd5b610c7082610afe565b810181811067ffffffffffffffff82111715610c8f57610c8e610c38565b5b80604052505050565b6000610ca261086d565b9050610cae8282610c67565b919050565b600067ffffffffffffffff821115610cce57610ccd610c38565b5b610cd782610afe565b9050602081019050919050565b82818337600083830152505050565b6000610d06610d0184610cb3565b610c98565b905082815260208101848484011115610d2257610d21610c33565b5b610d2d848285610ce4565b509392505050565b600082601f830112610d4a57610d496108b7565b5b8135610d5a848260208601610cf3565b91505092915050565b600080600060608486031215610d7c57610d7b610877565b5b600084013567ffffffffffffffff811115610d9a57610d9961087c565b5b610da686828701610d35565b935050602084013567ffffffffffffffff811115610dc757610dc661087c565b5b610dd386828701610d35565b9250506040610de486828701610993565b9150509250925092565b600060208284031215610e0457610e03610877565b5b6000610e1284828501610993565b91505092915050565b600081905092915050565b6000610e328385610e1b565b9350610e3f838584610ce4565b82840190509392505050565b6000610e58828486610e26565b91508190509392505050565b610e6d81610881565b82525050565b6000610e7f8385610ac3565b9350610e8c838584610ce4565b610e9583610afe565b840190509392505050565b610ea981610972565b82525050565b600060c082019050610ec4600083018c610e64565b8181036020830152610ed7818a8c610e73565b90508181036040830152610eec81888a610e73565b9050610efb6060830187610e64565b8181036080830152610f0e818587610e73565b9050610f1d60a0830184610ea0565b9a9950505050505050505050565b60008115159050919050565b610f4081610f2b565b8114610f4b57600080fd5b50565b600081519050610f5d81610f37565b92915050565b600060208284031215610f7957610f78610877565b5b6000610f8784828501610f4e565b91505092915050565b7f4e487b7100000000000000000000000000000000000000000000000000000000600052602260045260246000fd5b60006002820490506001821680610fd757607f821691505b602082108103610fea57610fe9610f90565b5b50919050565b60006080820190506110056000830189610e64565b8181036020830152611018818789610e73565b9050818103604083015261102d818587610e73565b905061103c6060830184610e64565b979650505050505050565b7f476173207061796d656e74206973207265717569726564000000000000000000600082015250565b600061107d601783610ac3565b915061108882611047565b602082019050919050565b600060208201905081810360008301526110ac81611070565b9050919050565b6000819050919050565b6110ce6110c982610972565b6110b3565b82525050565b60006110e082846110bd565b60208201915081905092915050565b60006110fa826107d3565b9050919050565b61110a816110ef565b82525050565b600081519050919050565b600082825260208201905092915050565b600061113782611110565b611141818561111b565b9350611151818560208601610ad4565b61115a81610afe565b840191505092915050565b600060a08201905061117a6000830188611101565b818103602083015261118c8187610b0f565b905081810360408301526111a08186610b0f565b905081810360608301526111b4818561112c565b90506111c36080830184611101565b9695505050505050565b600060608201905081810360008301526111e78186610b0f565b905081810360208301526111fb8185610b0f565b9050818103604083015261120f818461112c565b9050949350505050565b60006020828403121561122f5761122e610877565b5b600082013567ffffffffffffffff81111561124d5761124c61087c565b5b61125984828501610d35565b91505092915050565b60008190508160005260206000209050919050565b60006020601f8301049050919050565b600082821b905092915050565b6000600883026112c47fffffffffffffffffffffffffffffffffffffffffffffffffffffffffffffffff82611287565b6112ce8683611287565b95508019841693508086168417925050509392505050565b60006113016112fc6112f784610972565b6107f3565b610972565b9050919050565b6000819050919050565b61131b836112e6565b61132f61132782611308565b848454611294565b825550505050565b600090565b611344611337565b61134f818484611312565b505050565b5b818110156113735761136860008261133c565b600181019050611355565b5050565b601f8211156113b85761138981611262565b61139284611277565b810160208510156113a1578190505b6113b56113ad85611277565b830182611354565b50505b505050565b600082821c905092915050565b60006113db600019846008026113bd565b1980831691505092915050565b60006113f483836113ca565b9150826002028217905092915050565b61140d82610ab8565b67ffffffffffffffff81111561142657611425610c38565b5b6114308254610fbf565b61143b828285611377565b600060209050601f83116001811461146e576000841561145c578287015190505b61146685826113e8565b8655506114ce565b601f19841661147c86611262565b60005b828110156114a45784890151825560018201915060208501945060208101905061147f565b868310156114c157848901516114bd601f8916826113ca565b8355505b6001600288020188555050505b505050505050565b600082905092915050565b6114eb83836114d6565b67ffffffffffffffff81111561150457611503610c38565b5b61150e8254610fbf565b611519828285611377565b6000601f8311600181146115485760008415611536578287013590505b61154085826113e8565b8655506115a8565b601f19841661155686611262565b60005b8281101561157e57848901358255600182019150602085019450602081019050611559565b8683101561159b5784890135611597601f8916826113ca565b8355505b6001600288020188555050505b5050505050505056fea26469706673582212208dcc15c5980bfa2b4f9934374a8516e053ad2a3abafc936d3aac701d4f2c4d1764736f6c63430008140033",
  "linkReferences": {},
  "deployedLinkReferences": {}
}